{
  "_format": "hh-sol-artifact-1",
  "contractName": "EHRmain",
  "sourceName": "contracts/EHRmain.sol",
  "abi": [
    {
      "inputs": [],
      "stateMutability": "nonpayable",
      "type": "constructor"
    },
    {
      "anonymous": false,
      "inputs": [
        {
          "indexed": true,
          "internalType": "address",
          "name": "owner",
          "type": "address"
        },
        {
          "indexed": true,
          "internalType": "address",
          "name": "careProvider",
          "type": "address"
        },
        {
          "indexed": false,
          "internalType": "string",
          "name": "ipfsCid",
          "type": "string"
        },
        {
          "indexed": false,
          "internalType": "enum EHRmain.DataType",
          "name": "dataType",
          "type": "uint8"
        },
        {
          "indexed": false,
          "internalType": "string",
          "name": "encryptedSymmetricKey",
          "type": "string"
        },
        {
          "indexed": false,
          "internalType": "uint256",
          "name": "approvedDate",
          "type": "uint256"
        },
        {
          "indexed": false,
          "internalType": "uint256",
          "name": "expiryDate",
          "type": "uint256"
        },
        {
          "indexed": false,
          "internalType": "bool",
          "name": "status",
          "type": "bool"
        }
      ],
      "name": "ApprovedRecordAdded",
      "type": "event"
    },
    {
      "anonymous": false,
      "inputs": [
        {
          "indexed": true,
          "internalType": "address",
          "name": "provider",
          "type": "address"
        },
        {
          "indexed": true,
          "internalType": "address",
          "name": "patient",
          "type": "address"
        },
        {
          "indexed": false,
          "internalType": "uint256",
          "name": "timestamp",
          "type": "uint256"
        }
      ],
      "name": "EmergencyAccess",
      "type": "event"
    },
    {
      "anonymous": false,
      "inputs": [
        {
          "indexed": true,
          "internalType": "string",
          "name": "ipfsCid",
          "type": "string"
        },
        {
          "indexed": true,
          "internalType": "address",
          "name": "owner",
          "type": "address"
        },
        {
          "indexed": false,
          "internalType": "enum EHRmain.DataType",
          "name": "dataType",
          "type": "uint8"
        }
      ],
      "name": "HealthRecordAdded",
      "type": "event"
    },
    {
      "anonymous": false,
      "inputs": [
        {
          "indexed": false,
          "internalType": "bytes32",
          "name": "requestId",
          "type": "bytes32"
        },
        {
          "indexed": true,
          "internalType": "address",
          "name": "requester",
          "type": "address"
        },
        {
          "indexed": true,
          "internalType": "address",
          "name": "owner",
          "type": "address"
        }
      ],
      "name": "PermissionGranted",
      "type": "event"
    },
    {
      "anonymous": false,
      "inputs": [
        {
          "indexed": false,
          "internalType": "bytes32",
          "name": "requestId",
          "type": "bytes32"
        },
        {
          "indexed": true,
          "internalType": "address",
          "name": "requester",
          "type": "address"
        },
        {
          "indexed": true,
          "internalType": "address",
          "name": "owner",
          "type": "address"
        }
      ],
      "name": "PermissionRequested",
      "type": "event"
    },
    {
      "anonymous": false,
      "inputs": [
        {
          "indexed": true,
          "internalType": "string",
          "name": "ipfsCid",
          "type": "string"
        },
        {
          "indexed": true,
          "internalType": "address",
          "name": "revokedUser",
          "type": "address"
        }
      ],
      "name": "PermissionRevoked",
      "type": "event"
    },
    {
      "anonymous": false,
      "inputs": [
        {
          "indexed": true,
          "internalType": "address",
          "name": "userAddress",
          "type": "address"
        },
        {
          "indexed": false,
          "internalType": "enum EHRmain.Role",
          "name": "role",
          "type": "uint8"
        }
      ],
      "name": "UserRegistered",
      "type": "event"
    },
    {
      "inputs": [
        {
          "internalType": "address",
          "name": "_owner",
          "type": "address"
        },
        {
          "internalType": "address",
          "name": "_careProvider",
          "type": "address"
        },
        {
          "internalType": "string",
          "name": "_ipfsCid",
          "type": "string"
        },
        {
          "internalType": "enum EHRmain.DataType",
          "name": "_dataType",
          "type": "uint8"
        },
        {
          "internalType": "string",
          "name": "_encryptedSymmetricKey",
          "type": "string"
        },
        {
          "internalType": "uint256",
          "name": "_approvedDate",
          "type": "uint256"
        },
        {
          "internalType": "uint256",
          "name": "_expiryDate",
          "type": "uint256"
        }
      ],
      "name": "addApprovedRecord",
      "outputs": [],
      "stateMutability": "nonpayable",
      "type": "function"
    },
    {
      "inputs": [
        {
          "internalType": "address",
          "name": "_patientAddress",
          "type": "address"
        },
        {
          "internalType": "string",
          "name": "_ipfsCid",
          "type": "string"
        },
        {
          "internalType": "enum EHRmain.DataType",
          "name": "_dataType",
          "type": "uint8"
        },
        {
          "internalType": "string",
          "name": "_encryptedSymmetricKey",
          "type": "string"
        }
      ],
      "name": "addEHRData",
      "outputs": [
        {
          "internalType": "bool",
          "name": "",
          "type": "bool"
        }
      ],
      "stateMutability": "nonpayable",
      "type": "function"
    },
    {
      "inputs": [
        {
          "internalType": "string",
          "name": "_ipfsCid",
          "type": "string"
        },
        {
          "internalType": "enum EHRmain.DataType",
          "name": "_dataType",
          "type": "uint8"
        },
        {
          "internalType": "string",
          "name": "_encryptedSymmetricKey",
          "type": "string"
        }
      ],
      "name": "addPHRData",
      "outputs": [
        {
          "internalType": "bool",
          "name": "",
          "type": "bool"
        }
      ],
      "stateMutability": "nonpayable",
      "type": "function"
    },
    {
      "inputs": [
        {
          "internalType": "bytes32",
          "name": "_requestId",
          "type": "bytes32"
        }
      ],
      "name": "approvePermission",
      "outputs": [
        {
          "internalType": "bool",
          "name": "",
          "type": "bool"
        }
      ],
      "stateMutability": "nonpayable",
      "type": "function"
    },
    {
      "inputs": [
        {
          "internalType": "address",
          "name": "",
          "type": "address"
        },
        {
          "internalType": "uint256",
          "name": "",
          "type": "uint256"
        }
      ],
      "name": "approvedRecords",
      "outputs": [
        {
          "internalType": "address",
          "name": "owner",
          "type": "address"
        },
        {
          "internalType": "address",
          "name": "careProvider",
          "type": "address"
        },
        {
          "internalType": "string",
          "name": "ipfsCid",
          "type": "string"
        },
        {
          "internalType": "enum EHRmain.DataType",
          "name": "dataType",
          "type": "uint8"
        },
        {
          "internalType": "string",
          "name": "encryptedSymmetricKey",
          "type": "string"
        },
        {
          "internalType": "uint256",
          "name": "approvedDate",
          "type": "uint256"
        },
        {
          "internalType": "uint256",
          "name": "expiryDate",
          "type": "uint256"
        },
        {
          "internalType": "bool",
          "name": "status",
          "type": "bool"
        }
      ],
      "stateMutability": "view",
      "type": "function"
    },
    {
      "inputs": [
        {
          "internalType": "string",
          "name": "",
          "type": "string"
        }
      ],
      "name": "approvedRecordsByID",
      "outputs": [
        {
          "internalType": "address",
          "name": "owner",
          "type": "address"
        },
        {
          "internalType": "address",
          "name": "careProvider",
          "type": "address"
        },
        {
          "internalType": "string",
          "name": "ipfsCid",
          "type": "string"
        },
        {
          "internalType": "enum EHRmain.DataType",
          "name": "dataType",
          "type": "uint8"
        },
        {
          "internalType": "string",
          "name": "encryptedSymmetricKey",
          "type": "string"
        },
        {
          "internalType": "uint256",
          "name": "approvedDate",
          "type": "uint256"
        },
        {
          "internalType": "uint256",
          "name": "expiryDate",
          "type": "uint256"
        },
        {
          "internalType": "bool",
          "name": "status",
          "type": "bool"
        }
      ],
      "stateMutability": "view",
      "type": "function"
    },
    {
      "inputs": [
        {
          "internalType": "address",
          "name": "_userAddress",
          "type": "address"
        }
      ],
      "name": "checkUser",
      "outputs": [
        {
          "internalType": "enum EHRmain.Role",
          "name": "",
          "type": "uint8"
        }
      ],
      "stateMutability": "view",
      "type": "function"
    },
    {
      "inputs": [
        {
          "internalType": "address",
          "name": "_patientAddress",
          "type": "address"
        }
      ],
      "name": "emergencyAccess",
      "outputs": [
        {
          "internalType": "bool",
          "name": "",
          "type": "bool"
        }
      ],
      "stateMutability": "nonpayable",
      "type": "function"
    },
    {
      "inputs": [
        {
          "internalType": "string",
          "name": "recordId",
          "type": "string"
        }
      ],
      "name": "getHealthRecordByIpfs",
      "outputs": [
        {
          "internalType": "address",
          "name": "owner",
          "type": "address"
        },
        {
          "internalType": "string",
          "name": "ipfsCid",
          "type": "string"
        },
        {
          "internalType": "enum EHRmain.DataType",
          "name": "dataType",
          "type": "uint8"
        },
        {
          "internalType": "string",
          "name": "encryptedSymmetricKey",
          "type": "string"
        },
        {
          "internalType": "uint256",
          "name": "timestamp",
          "type": "uint256"
        },
        {
          "internalType": "bool",
          "name": "isValid",
          "type": "bool"
        },
        {
          "internalType": "address",
          "name": "provider",
          "type": "address"
        }
      ],
      "stateMutability": "view",
      "type": "function"
    },
    {
      "inputs": [
        {
          "internalType": "address",
          "name": "userAddress",
          "type": "address"
        }
      ],
      "name": "getHealthRecordsByOwner",
      "outputs": [
        {
          "components": [
            {
              "internalType": "address",
              "name": "owner",
              "type": "address"
            },
            {
              "internalType": "string",
              "name": "ipfsCid",
              "type": "string"
            },
            {
              "internalType": "enum EHRmain.DataType",
              "name": "dataType",
              "type": "uint8"
            },
            {
              "internalType": "string",
              "name": "encryptedSymmetricKey",
              "type": "string"
            },
            {
              "internalType": "uint256",
              "name": "timestamp",
              "type": "uint256"
            },
            {
              "internalType": "bool",
              "name": "isValid",
              "type": "bool"
            },
            {
              "internalType": "address",
              "name": "provider",
              "type": "address"
            }
          ],
          "internalType": "struct EHRmain.HealthRecord[]",
          "name": "",
          "type": "tuple[]"
        }
      ],
      "stateMutability": "view",
      "type": "function"
    },
    {
      "inputs": [
        {
          "internalType": "address",
          "name": "userAddress",
          "type": "address"
        }
      ],
      "name": "getKeyPair",
      "outputs": [
        {
          "internalType": "string",
          "name": "",
          "type": "string"
        }
      ],
      "stateMutability": "view",
      "type": "function"
    },
    {
      "inputs": [
        {
          "internalType": "address",
          "name": "patient",
          "type": "address"
        }
      ],
      "name": "getPendingRequestsForPatient",
      "outputs": [
        {
          "components": [
            {
              "internalType": "address",
              "name": "requester",
              "type": "address"
            },
            {
              "internalType": "address",
              "name": "owner",
              "type": "address"
            },
            {
              "internalType": "bytes32",
              "name": "requestId",
              "type": "bytes32"
            },
            {
              "internalType": "string",
              "name": "ipfsCid",
              "type": "string"
            },
            {
              "internalType": "enum EHRmain.PermissionType",
              "name": "permissionType",
              "type": "uint8"
            },
            {
              "internalType": "enum EHRmain.RequestStatus",
              "name": "status",
              "type": "uint8"
            },
            {
              "internalType": "uint256",
              "name": "requestDate",
              "type": "uint256"
            },
            {
              "internalType": "uint256",
              "name": "expiryDate",
              "type": "uint256"
            },
            {
              "internalType": "uint256",
              "name": "incentiveAmount",
              "type": "uint256"
            },
            {
              "internalType": "bool",
              "name": "isIncentiveBased",
              "type": "bool"
            }
          ],
          "internalType": "struct EHRmain.PermissionRequest[]",
          "name": "",
          "type": "tuple[]"
        }
      ],
      "stateMutability": "view",
      "type": "function"
    },
    {
      "inputs": [
        {
          "internalType": "bytes32",
          "name": "requestId",
          "type": "bytes32"
        }
      ],
      "name": "getPermissionRequest",
      "outputs": [
        {
          "internalType": "address",
          "name": "requester",
          "type": "address"
        },
        {
          "internalType": "address",
          "name": "owner",
          "type": "address"
        },
        {
          "internalType": "string",
          "name": "ipfsCid",
          "type": "string"
        },
        {
          "internalType": "uint256",
          "name": "requestDate",
          "type": "uint256"
        },
        {
          "internalType": "uint256",
          "name": "expiryDate",
          "type": "uint256"
        },
        {
          "internalType": "uint256",
          "name": "incentiveAmount",
          "type": "uint256"
        },
        {
          "internalType": "bool",
          "name": "isIncentiveBased",
          "type": "bool"
        },
        {
          "internalType": "uint8",
          "name": "status",
          "type": "uint8"
        }
      ],
      "stateMutability": "view",
      "type": "function"
    },
    {
      "inputs": [
        {
          "internalType": "address",
          "name": "_careProvider",
          "type": "address"
        }
      ],
      "name": "getRecordsByCareProvider",
      "outputs": [
        {
          "components": [
            {
              "internalType": "address",
              "name": "owner",
              "type": "address"
            },
            {
              "internalType": "address",
              "name": "careProvider",
              "type": "address"
            },
            {
              "internalType": "string",
              "name": "ipfsCid",
              "type": "string"
            },
            {
              "internalType": "enum EHRmain.DataType",
              "name": "dataType",
              "type": "uint8"
            },
            {
              "internalType": "string",
              "name": "encryptedSymmetricKey",
              "type": "string"
            },
            {
              "internalType": "uint256",
              "name": "approvedDate",
              "type": "uint256"
            },
            {
              "internalType": "uint256",
              "name": "expiryDate",
              "type": "uint256"
            },
            {
              "internalType": "bool",
              "name": "status",
              "type": "bool"
            }
          ],
          "internalType": "struct EHRmain.approvedRecord[]",
          "name": "",
          "type": "tuple[]"
        }
      ],
      "stateMutability": "view",
      "type": "function"
    },
    {
      "inputs": [
        {
          "internalType": "address",
          "name": "requester",
          "type": "address"
        },
        {
          "internalType": "string",
          "name": "recordId",
          "type": "string"
        }
      ],
      "name": "getRecordsForResearcher",
      "outputs": [
        {
          "components": [
            {
              "internalType": "address",
              "name": "owner",
              "type": "address"
            },
            {
              "internalType": "address",
              "name": "careProvider",
              "type": "address"
            },
            {
              "internalType": "string",
              "name": "ipfsCid",
              "type": "string"
            },
            {
              "internalType": "enum EHRmain.DataType",
              "name": "dataType",
              "type": "uint8"
            },
            {
              "internalType": "string",
              "name": "encryptedSymmetricKey",
              "type": "string"
            },
            {
              "internalType": "uint256",
              "name": "approvedDate",
              "type": "uint256"
            },
            {
              "internalType": "uint256",
              "name": "expiryDate",
              "type": "uint256"
            },
            {
              "internalType": "bool",
              "name": "status",
              "type": "bool"
            }
          ],
          "internalType": "struct EHRmain.approvedRecord",
          "name": "",
          "type": "tuple"
        }
      ],
      "stateMutability": "view",
      "type": "function"
    },
    {
      "inputs": [
        {
          "internalType": "string",
          "name": "",
          "type": "string"
        }
      ],
      "name": "healthRecords",
      "outputs": [
        {
          "internalType": "address",
          "name": "owner",
          "type": "address"
        },
        {
          "internalType": "string",
          "name": "ipfsCid",
          "type": "string"
        },
        {
          "internalType": "enum EHRmain.DataType",
          "name": "dataType",
          "type": "uint8"
        },
        {
          "internalType": "string",
          "name": "encryptedSymmetricKey",
          "type": "string"
        },
        {
          "internalType": "uint256",
          "name": "timestamp",
          "type": "uint256"
        },
        {
          "internalType": "bool",
          "name": "isValid",
          "type": "bool"
        },
        {
          "internalType": "address",
          "name": "provider",
          "type": "address"
        }
      ],
      "stateMutability": "view",
      "type": "function"
    },
    {
      "inputs": [
        {
          "internalType": "string",
          "name": "_ipfsCid",
          "type": "string"
        }
      ],
      "name": "invalidateRecord",
      "outputs": [],
      "stateMutability": "nonpayable",
      "type": "function"
    },
    {
      "inputs": [
        {
          "internalType": "address",
          "name": "",
          "type": "address"
        },
        {
          "internalType": "uint256",
          "name": "",
          "type": "uint256"
        }
      ],
      "name": "ownerToHealthRecords",
      "outputs": [
        {
          "internalType": "string",
          "name": "",
          "type": "string"
        }
      ],
      "stateMutability": "view",
      "type": "function"
    },
    {
      "inputs": [
        {
          "internalType": "uint256",
          "name": "",
          "type": "uint256"
        }
      ],
      "name": "permissionRequestIds",
      "outputs": [
        {
          "internalType": "bytes32",
          "name": "",
          "type": "bytes32"
        }
      ],
      "stateMutability": "view",
      "type": "function"
    },
    {
      "inputs": [
        {
          "internalType": "bytes32",
          "name": "",
          "type": "bytes32"
        }
      ],
      "name": "permissionRequests",
      "outputs": [
        {
          "internalType": "address",
          "name": "requester",
          "type": "address"
        },
        {
          "internalType": "address",
          "name": "owner",
          "type": "address"
        },
        {
          "internalType": "bytes32",
          "name": "requestId",
          "type": "bytes32"
        },
        {
          "internalType": "string",
          "name": "ipfsCid",
          "type": "string"
        },
        {
          "internalType": "enum EHRmain.PermissionType",
          "name": "permissionType",
          "type": "uint8"
        },
        {
          "internalType": "enum EHRmain.RequestStatus",
          "name": "status",
          "type": "uint8"
        },
        {
          "internalType": "uint256",
          "name": "requestDate",
          "type": "uint256"
        },
        {
          "internalType": "uint256",
          "name": "expiryDate",
          "type": "uint256"
        },
        {
          "internalType": "uint256",
          "name": "incentiveAmount",
          "type": "uint256"
        },
        {
          "internalType": "bool",
          "name": "isIncentiveBased",
          "type": "bool"
        }
      ],
      "stateMutability": "view",
      "type": "function"
    },
    {
      "inputs": [
        {
          "internalType": "address",
          "name": "",
          "type": "address"
        },
        {
          "internalType": "string",
          "name": "",
          "type": "string"
        },
        {
          "internalType": "address",
          "name": "",
          "type": "address"
        }
      ],
      "name": "permissions",
      "outputs": [
        {
          "internalType": "bool",
          "name": "",
          "type": "bool"
        }
      ],
      "stateMutability": "view",
      "type": "function"
    },
    {
      "inputs": [
        {
          "internalType": "enum EHRmain.Role",
          "name": "_role",
          "type": "uint8"
        },
        {
          "internalType": "bytes32",
          "name": "_publicKeyHash",
          "type": "bytes32"
        },
        {
          "internalType": "string",
          "name": "_publicKeyForEncryption",
          "type": "string"
        }
      ],
      "name": "registerUser",
      "outputs": [
        {
          "internalType": "bool",
          "name": "",
          "type": "bool"
        }
      ],
      "stateMutability": "nonpayable",
      "type": "function"
    },
    {
      "inputs": [
        {
          "internalType": "address",
          "name": "_owner",
          "type": "address"
        },
        {
          "internalType": "string",
          "name": "_ipfsCid",
          "type": "string"
        },
        {
          "internalType": "enum EHRmain.PermissionType",
          "name": "_permissionType",
          "type": "uint8"
        }
      ],
      "name": "requestIncentiveBasedPermission",
      "outputs": [
        {
          "internalType": "bytes32",
          "name": "",
          "type": "bytes32"
        }
      ],
      "stateMutability": "payable",
      "type": "function"
    },
    {
      "inputs": [
        {
          "internalType": "address",
          "name": "_owner",
          "type": "address"
        },
        {
          "internalType": "string",
          "name": "_ipfsCid",
          "type": "string"
        },
        {
          "internalType": "enum EHRmain.PermissionType",
          "name": "_permissionType",
          "type": "uint8"
        }
      ],
      "name": "requestNonIncentiveBasedPermission",
      "outputs": [
        {
          "internalType": "bytes32",
          "name": "",
          "type": "bytes32"
        }
      ],
      "stateMutability": "nonpayable",
      "type": "function"
    },
    {
      "inputs": [
        {
          "internalType": "string",
          "name": "_ipfsCid",
          "type": "string"
        },
        {
          "internalType": "address",
          "name": "_user",
          "type": "address"
        }
      ],
      "name": "revokePermission",
      "outputs": [
        {
          "internalType": "bool",
          "name": "",
          "type": "bool"
        }
      ],
      "stateMutability": "nonpayable",
      "type": "function"
    },
    {
      "inputs": [],
      "name": "systemOwner",
      "outputs": [
        {
          "internalType": "address",
          "name": "",
          "type": "address"
        }
      ],
      "stateMutability": "view",
      "type": "function"
    },
    {
      "inputs": [],
      "name": "totalRecords",
      "outputs": [
        {
          "internalType": "uint256",
          "name": "",
          "type": "uint256"
        }
      ],
      "stateMutability": "view",
      "type": "function"
    },
    {
      "inputs": [],
      "name": "totalRequests",
      "outputs": [
        {
          "internalType": "uint256",
          "name": "",
          "type": "uint256"
        }
      ],
      "stateMutability": "view",
      "type": "function"
    },
    {
      "inputs": [],
      "name": "totalUsers",
      "outputs": [
        {
          "internalType": "uint256",
          "name": "",
          "type": "uint256"
        }
      ],
      "stateMutability": "view",
      "type": "function"
    },
    {
      "inputs": [
        {
          "internalType": "address",
          "name": "",
          "type": "address"
        }
      ],
      "name": "userKeys",
      "outputs": [
        {
          "internalType": "string",
          "name": "publicKeyForEncryption",
          "type": "string"
        }
      ],
      "stateMutability": "view",
      "type": "function"
    },
    {
      "inputs": [
        {
          "internalType": "address",
          "name": "",
          "type": "address"
        }
      ],
      "name": "users",
      "outputs": [
        {
          "internalType": "address",
          "name": "userAddress",
          "type": "address"
        },
        {
          "internalType": "enum EHRmain.Role",
          "name": "role",
          "type": "uint8"
        },
        {
          "internalType": "uint256",
          "name": "registrationDate",
          "type": "uint256"
        },
        {
          "internalType": "bytes32",
          "name": "publicKeyHash",
          "type": "bytes32"
        }
      ],
      "stateMutability": "view",
      "type": "function"
    }
  ],
  "bytecode": "0x608060405234801561001057600080fd5b50600880546001600160a01b0319163317905560006009819055600a819055600b556143fb806100416000396000f3fe6080604052600436106101d85760003560e01c806377249db811610102578063b4d1456c11610095578063e2fa218d11610064578063e2fa218d14610674578063e3c0740b14610694578063f2d3d8aa146106b4578063fa44f416146106d457600080fd5b8063b4d1456c146105fe578063be9b545a1461061e578063bff1f9e11461063e578063d75e9edd1461065457600080fd5b8063a6fb108f116100d1578063a6fb108f1461053d578063a806cad91461055d578063a87430ba1461057d578063a9ca2aed146105de57600080fd5b806377249db8146104ba5780637bbfdc11146104e75780638aea61dc14610514578063a269a4481461052a57600080fd5b806327be35db1161017a57806340d3226f1161014957806340d3226f1461042657806341d724b41461044657806342e8ce2a1461046657806373fb78a41461048657600080fd5b806327be35db1461035757806329bd80011461038457806333779254146103ba5780633cdcc443146103f257600080fd5b8063125f8974116101b6578063125f8974146102a4578063187ec18d146102c85780631e9d48cf146102e8578063262b40281461033557600080fd5b8063070b732c146101dd5780630ce46752146102445780631023289b14610277575b600080fd5b3480156101e957600080fd5b5061022f6101f8366004613602565b6003602090815260009384526040808520845180860184018051928152908401958401959095209452929052825290205460ff1681565b60405190151581526020015b60405180910390f35b34801561025057600080fd5b5061026461025f36600461365f565b610701565b60405161023b9796959493929190613715565b34801561028357600080fd5b50610297610292366004613778565b61090c565b60405161023b919061382a565b3480156102b057600080fd5b506102ba600a5481565b60405190815260200161023b565b3480156102d457600080fd5b506102ba6102e336600461388c565b610c1f565b3480156102f457600080fd5b50610328610303366004613778565b6001600160a01b0316600090815260208190526040902054600160a01b900460ff1690565b60405161023b9190613904565b34801561034157600080fd5b5061035561035036600461365f565b610fc4565b005b34801561036357600080fd5b50610377610372366004613917565b61106a565b60405161023b9190613964565b34801561039057600080fd5b506103a461039f366004613977565b61128a565b60405161023b9a999897969594939291906139a9565b3480156103c657600080fd5b506008546103da906001600160a01b031681565b6040516001600160a01b03909116815260200161023b565b3480156103fe57600080fd5b5061041261040d366004613a26565b61137a565b60405161023b989796959493929190613a50565b34801561043257600080fd5b5061026461044136600461365f565b611506565b34801561045257600080fd5b5061022f610461366004613778565b611680565b34801561047257600080fd5b5061022f610481366004613ac1565b6117c4565b34801561049257600080fd5b506104a66104a1366004613977565b6118fd565b60405161023b989796959493929190613b0e565b3480156104c657600080fd5b506104da6104d5366004613778565b611a17565b60405161023b9190613b6c565b3480156104f357600080fd5b50610507610502366004613a26565b611d43565b60405161023b9190613c5f565b34801561052057600080fd5b506102ba600b5481565b6102ba61053836600461388c565b611dfc565b34801561054957600080fd5b5061022f610558366004613977565b6120d5565b34801561056957600080fd5b50610355610578366004613c81565b6122a2565b34801561058957600080fd5b506105ce610598366004613778565b6000602081905290815260409020805460018201546002909201546001600160a01b03821692600160a01b90920460ff16919084565b60405161023b9493929190613d29565b3480156105ea57600080fd5b506104126105f936600461365f565b6126f6565b34801561060a57600080fd5b5061022f610619366004613d5d565b612737565b34801561062a57600080fd5b5061022f610639366004613e29565b612a97565b34801561064a57600080fd5b506102ba60095481565b34801561066057600080fd5b5061050761066f366004613778565b612d8c565b34801561068057600080fd5b506102ba61068f366004613977565b612eaa565b3480156106a057600080fd5b5061022f6106af366004613e9f565b612ecb565b3480156106c057600080fd5b506105076106cf366004613778565b6130ed565b3480156106e057600080fd5b506106f46106ef366004613778565b61318b565b60405161023b9190613ef2565b600060606000606060008060008060018960405161071f9190613fbb565b90815260408051918290036020908101832060e0840190925281546001600160a01b031683526001820180549184019161075890613fd7565b80601f016020809104026020016040519081016040528092919081815260200182805461078490613fd7565b80156107d15780601f106107a6576101008083540402835291602001916107d1565b820191906000526020600020905b8154815290600101906020018083116107b457829003601f168201915b5050509183525050600282015460209091019060ff1660048111156107f8576107f86136eb565b6004811115610809576108096136eb565b815260200160038201805461081d90613fd7565b80601f016020809104026020016040519081016040528092919081815260200182805461084990613fd7565b80156108965780601f1061086b57610100808354040283529160200191610896565b820191906000526020600020905b81548152906001019060200180831161087957829003601f168201915b5050509183525050600482015460208083019190915260059092015460ff811615156040808401919091526101009091046001600160a01b03166060928301528351928401519084015191840151608085015160a086015160c090960151949f929e50929c509a50909850919650945092505050565b60606001600160a01b0382166109695760405162461bcd60e51b815260206004820152601d60248201527f496e76616c696420636172652070726f7669646572206164647265737300000060448201526064015b60405180910390fd5b6001600160a01b03821660009081526004602052604081205490816001600160401b0381111561099b5761099b613560565b6040519080825280602002602001820160405280156109d457816020015b6109c1613501565b8152602001906001900390816109b95790505b50905060005b6001600160a01b038516600090815260046020526040902054811015610c17576001600160a01b0385166000908152600460205260408120805483908110610a2457610a24614011565b60009182526020918290206040805161010081018252600890930290910180546001600160a01b0390811684526001820154169383019390935260028301805492939291840191610a7490613fd7565b80601f0160208091040260200160405190810160405280929190818152602001828054610aa090613fd7565b8015610aed5780601f10610ac257610100808354040283529160200191610aed565b820191906000526020600020905b815481529060010190602001808311610ad057829003601f168201915b5050509183525050600382015460209091019060ff166004811115610b1457610b146136eb565b6004811115610b2557610b256136eb565b8152602001600482018054610b3990613fd7565b80601f0160208091040260200160405190810160405280929190818152602001828054610b6590613fd7565b8015610bb25780601f10610b8757610100808354040283529160200191610bb2565b820191906000526020600020905b815481529060010190602001808311610b9557829003601f168201915b5050509183525050600582015460208201526006820154604082015260079091015460ff16151560609091015283519091508190849084908110610bf857610bf8614011565b6020026020010181905250508080610c0f9061403d565b9150506109da565b509392505050565b600082600181604051610c329190613fbb565b9081526040519081900360200190206005015460ff16610c645760405162461bcd60e51b815260040161096090614056565b6001600160a01b038516610c8a5760405162461bcd60e51b815260040161096090614085565b6000836002811115610c9e57610c9e6136eb565b03610ce55760405162461bcd60e51b8152602060048201526017602482015276496e76616c6964207065726d697373696f6e207479706560481b6044820152606401610960565b84604051602001610cf691906140b4565b60405160208183030381529060405280519060200120600185604051610d1c9190613fbb565b9081526040516020918190038201812054610d43926001600160a01b0390911691016140b4565b6040516020818303038152906040528051906020012014610d9d5760405162461bcd60e51b815260206004820152601460248201527324b73b30b634b2103932b1b7b9321037bbb732b960611b6044820152606401610960565b600033868642604051602001610db694939291906140d1565b604051602081830303815290604052805190602001209050604051806101400160405280336001600160a01b03168152602001876001600160a01b03168152602001828152602001868152602001856002811115610e1657610e166136eb565b8152602001600081526020014281526020014262278d00610e37919061411e565b8152600060208083018290526040928301829052848252600280825291839020845181546001600160a01b03199081166001600160a01b0392831617835592860151600183018054909416911617909155918301519082015560608201516003820190610ea49082614180565b50608082015160048201805460ff19166001836002811115610ec857610ec86136eb565b021790555060a082015160048201805461ff001916610100836003811115610ef257610ef26136eb565b021790555060c0820151600582015560e082015160068201556101008201516007820155610120909101516008909101805460ff1916911515919091179055600b8054906000610f418361403d565b90915550506040518181526001600160a01b0387169033907f9a387978508c64b67d0ec39e75dc556f96f10430d94187ba4507c6dcd34cf3299060200160405180910390a3600c80546001810182556000919091527fdf6966c971051c3d54ec59162606531493a51404a002842f56009d7e5cf4a8c70181905595945050505050565b80600181604051610fd59190613fbb565b9081526040519081900360200190206005015460ff166110075760405162461bcd60e51b815260040161096090614056565b6008546001600160a01b031633146110315760405162461bcd60e51b81526004016109609061423f565b60006001836040516110439190613fbb565b908152604051908190036020019020600501805491151560ff199092169190911790555050565b611072613501565b6001600160a01b0383166110ba5760405162461bcd60e51b815260206004820152600f60248201526e496e76616c6964206164647265737360881b6044820152606401610960565b60006005836040516110cc9190613fbb565b9081526040805191829003602090810183206101008401835280546001600160a01b03908116855260018201541691840191909152600281018054919284019161111590613fd7565b80601f016020809104026020016040519081016040528092919081815260200182805461114190613fd7565b801561118e5780601f106111635761010080835404028352916020019161118e565b820191906000526020600020905b81548152906001019060200180831161117157829003601f168201915b5050509183525050600382015460209091019060ff1660048111156111b5576111b56136eb565b60048111156111c6576111c66136eb565b81526020016004820180546111da90613fd7565b80601f016020809104026020016040519081016040528092919081815260200182805461120690613fd7565b80156112535780601f1061122857610100808354040283529160200191611253565b820191906000526020600020905b81548152906001019060200180831161123657829003601f168201915b5050509183525050600582015460208201526006820154604082015260079091015460ff1615156060909101529150505b92915050565b600260208190526000918252604090912080546001820154928201546003830180546001600160a01b03938416959093169391926112c790613fd7565b80601f01602080910402602001604051908101604052809291908181526020018280546112f390613fd7565b80156113405780601f1061131557610100808354040283529160200191611340565b820191906000526020600020905b81548152906001019060200180831161132357829003601f168201915b5050506004840154600585015460068601546007870154600890970154959660ff808516976101009095048116965092945090929091168a565b6004602052816000526040600020818154811061139657600080fd5b60009182526020909120600890910201805460018201546002830180546001600160a01b0393841696509190921693506113cf90613fd7565b80601f01602080910402602001604051908101604052809291908181526020018280546113fb90613fd7565b80156114485780601f1061141d57610100808354040283529160200191611448565b820191906000526020600020905b81548152906001019060200180831161142b57829003601f168201915b5050506003840154600485018054949560ff90921694919350915061146c90613fd7565b80601f016020809104026020016040519081016040528092919081815260200182805461149890613fd7565b80156114e55780601f106114ba576101008083540402835291602001916114e5565b820191906000526020600020905b8154815290600101906020018083116114c857829003601f168201915b50505050600583015460068401546007909401549293909290915060ff1688565b805160208183018101805160018083529383019290940191909120929052815490820180546001600160a01b03909216929161154190613fd7565b80601f016020809104026020016040519081016040528092919081815260200182805461156d90613fd7565b80156115ba5780601f1061158f576101008083540402835291602001916115ba565b820191906000526020600020905b81548152906001019060200180831161159d57829003601f168201915b5050506002840154600385018054949560ff9092169491935091506115de90613fd7565b80601f016020809104026020016040519081016040528092919081815260200182805461160a90613fd7565b80156116575780601f1061162c57610100808354040283529160200191611657565b820191906000526020600020905b81548152906001019060200180831161163a57829003601f168201915b50505050600483015460059093015491929160ff8116915061010090046001600160a01b031687565b6000600233600090815260208190526040902054600160a01b900460ff1660038111156116af576116af6136eb565b146116cc5760405162461bcd60e51b815260040161096090614287565b60016040516020016116de91906142d7565b60408051808303601f1901815282825280516020918201206001600160a01b03861660009081528083529290922054919261172492600160a01b900460ff1691016142d7565b604051602081830303815290604052805190602001201461177b5760405162461bcd60e51b815260206004820152601160248201527014185d1a595b9d081b9bdd08199bdd5b99607a1b6044820152606401610960565b6040514281526001600160a01b0383169033907f752018cdfd5f924e9f3c3eb502d75284995f06f31fb10db58a6b98c418ee2cbd9060200160405180910390a35060015b919050565b6000826001816040516117d79190613fbb565b9081526040519081900360200190206005015460ff166118095760405162461bcd60e51b815260040161096090614056565b6008546001600160a01b031633146118335760405162461bcd60e51b81526004016109609061423f565b6000600360006001876040516118499190613fbb565b9081526040805160209281900383019020546001600160a01b03168352908201929092528101600020905161187f908790613fbb565b90815260408051602092819003830181206001600160a01b03881660008181529190945291909120805460ff191693151593909317909255906118c3908690613fbb565b604051908190038120907fb0948f04fe442d4a4537ab853413218081ee0cacb6095698486f22271166bdfd90600090a35060019392505050565b6000818152600260205260408120805460018201546005830154600684015460078501546008860154600487015488976060978997889788978897889795966001600160a01b0395861696949095169460038089019560ff908116926101009004169081111561196f5761196f6136eb565b85805461197b90613fd7565b80601f01602080910402602001604051908101604052809291908181526020018280546119a790613fd7565b80156119f45780601f106119c9576101008083540402835291602001916119f4565b820191906000526020600020905b8154815290600101906020018083116119d757829003601f168201915b505050505095509850985098509850985098509850985050919395975091939597565b60606000805b600c54811015611a95576000600c8281548110611a3c57611a3c614011565b6000918252602080832090910154808352600290915260409091206001810154919250906001600160a01b03808816911603611a805783611a7c8161403d565b9450505b50508080611a8d9061403d565b915050611a1d565b506000816001600160401b03811115611ab057611ab0613560565b604051908082528060200260200182016040528015611b3857816020015b611b2560408051610140810182526000808252602082018190529181018290526060808201529060808201908152602001600081526020016000815260200160008152602001600081526020016000151581525090565b815260200190600190039081611ace5790505b5090506000805b600c54811015611d39576000600c8281548110611b5e57611b5e614011565b6000918252602080832090910154808352600290915260409091206001810154919250906001600160a01b03808a16911603611d2457604080516101408101825282546001600160a01b039081168252600184015416602082015260028301549181019190915260038201805483916060840191611bdb90613fd7565b80601f0160208091040260200160405190810160405280929190818152602001828054611c0790613fd7565b8015611c545780601f10611c2957610100808354040283529160200191611c54565b820191906000526020600020905b815481529060010190602001808311611c3757829003601f168201915b5050509183525050600482015460209091019060ff166002811115611c7b57611c7b6136eb565b6002811115611c8c57611c8c6136eb565b81526020016004820160019054906101000a900460ff166003811115611cb457611cb46136eb565b6003811115611cc557611cc56136eb565b815260058201546020820152600682015460408201526007820154606082015260089091015460ff1615156080909101528551869086908110611d0a57611d0a614011565b60200260200101819052508380611d209061403d565b9450505b50508080611d319061403d565b915050611b3f565b5090949350505050565b60066020528160005260406000208181548110611d5f57600080fd5b90600052602060002001600091509150508054611d7b90613fd7565b80601f0160208091040260200160405190810160405280929190818152602001828054611da790613fd7565b8015611df45780601f10611dc957610100808354040283529160200191611df4565b820191906000526020600020905b815481529060010190602001808311611dd757829003601f168201915b505050505081565b600082600181604051611e0f9190613fbb565b9081526040519081900360200190206005015460ff16611e415760405162461bcd60e51b815260040161096090614056565b6001600160a01b038516611e675760405162461bcd60e51b815260040161096090614085565b6000836002811115611e7b57611e7b6136eb565b03611ec25760405162461bcd60e51b8152602060048201526017602482015276496e76616c6964207065726d697373696f6e207479706560481b6044820152606401610960565b60003411611f125760405162461bcd60e51b815260206004820152601960248201527f496e63656e7469766520616d6f756e74207265717569726564000000000000006044820152606401610960565b84604051602001611f2391906140b4565b60405160208183030381529060405280519060200120600185604051611f499190613fbb565b9081526040516020918190038201812054611f70926001600160a01b0390911691016140b4565b6040516020818303038152906040528051906020012014611fca5760405162461bcd60e51b815260206004820152601460248201527324b73b30b634b2103932b1b7b9321037bbb732b960611b6044820152606401610960565b600033868642604051602001611fe394939291906140d1565b604051602081830303815290604052805190602001209050604051806101400160405280336001600160a01b03168152602001876001600160a01b03168152602001828152602001868152602001856002811115612043576120436136eb565b8152602001600081526020014281526020014262278d00612064919061411e565b81526000602080830182905260016040938401819052858352600280835292849020855181546001600160a01b03199081166001600160a01b03928316178355938701519282018054909416921691909117909155918301519082015560608201516003820190610ea49082614180565b600081815260026020526040812060018101546001600160a01b031633146121385760405162461bcd60e51b81526020600482015260166024820152754f6e6c79206f776e65722063616e20617070726f766560501b6044820152606401610960565b60006004820154610100900460ff166003811115612158576121586136eb565b1461219e5760405162461bcd60e51b8152602060048201526016602482015275496e76616c696420726571756573742073746174757360501b6044820152606401610960565b80600601544211156121e45760405162461bcd60e51b815260206004820152600f60248201526e14995c5d595cdd08195e1c1a5c9959608a1b6044820152606401610960565b60048101805461ff0019166101001790556001808201546001600160a01b03166000908152600360208190526040918290209151612224918501906142ee565b908152604080516020928190038301812085546001600160a01b039081166000908152918552929020805460ff19169415159490941790935560018401548454878552908216939116917fef6ee312a0062a24a46be2eba5284183a87ff848110e8d4df979bd690d9e9f68910160405180910390a350600192915050565b6001600160a01b0387166122c85760405162461bcd60e51b815260040161096090614085565b6001600160a01b03861661231e5760405162461bcd60e51b815260206004820152601d60248201527f496e76616c696420636172652070726f766964657220616464726573730000006044820152606401610960565b600085511161236f5760405162461bcd60e51b815260206004820152601860248201527f49504653204349442063616e6e6f7420626520656d70747900000000000000006044820152606401610960565b428211156123cd5760405162461bcd60e51b815260206004820152602560248201527f417070726f76656420646174652063616e6e6f7420626520696e207468652066604482015264757475726560d81b6064820152608401610960565b81811161242c5760405162461bcd60e51b815260206004820152602760248201527f4578706972792064617465206d75737420626520616674657220617070726f766044820152666564206461746560c81b6064820152608401610960565b6000604051806101000160405280896001600160a01b03168152602001886001600160a01b03168152602001878152602001866004811115612470576124706136eb565b815260208082018790524260408084019190915260608301869052600160809093018390526001600160a01b03808c166000908152600484528281208054808701825590825290849020865160089092020180549183166001600160a01b03199283161781559386015194840180549590921694169390931790925590820151919250829160028201906125049082614180565b50606082015160038201805460ff19166001836004811115612528576125286136eb565b0217905550608082015160048201906125419082614180565b5060a0820151600582015560c0820151600682015560e0909101516007909101805460ff191691151591909117905560408051610100810182526001600160a01b038a8116825289166020820152908101879052606081018660048111156125ab576125ab6136eb565b8152602001858152602001428152602001838152602001600115158152506005876040516125d99190613fbb565b9081526040805160209281900383019020835181546001600160a01b03199081166001600160a01b0392831617835593850151600183018054909516911617909255820151600282019061262d9082614180565b50606082015160038201805460ff19166001836004811115612651576126516136eb565b02179055506080820151600482019061266a9082614180565b5060a0820151600582015560c0820151600682015560e0909101516007909101805460ff19169115159190911790556040516001600160a01b0388811691908a16907f7f70321209aabb8d99473717508746279a6724c81f6f89e8a3cd6c2a27657400906126e4908a908a908a908a908a90600190614364565b60405180910390a35050505050505050565b8051808201602090810180516005825292820191909301209152805460018201546002830180546001600160a01b039384169492909316926113cf90613fd7565b6000600233600090815260208190526040902054600160a01b900460ff166003811115612766576127666136eb565b146127835760405162461bcd60e51b815260040161096090614287565b6001600160a01b0385166127d95760405162461bcd60e51b815260206004820152601760248201527f496e76616c69642070617469656e7420616464726573730000000000000000006044820152606401610960565b6001846040516127e99190613fbb565b9081526020016040518091039020600101805461280590613fd7565b15905061284c5760405162461bcd60e51b81526020600482015260156024820152745265636f726420616c72656164792065786973747360581b6044820152606401610960565b6001600160a01b038516600090815260208190526040902054600160a01b900460ff166001816003811115612883576128836136eb565b146128c25760405162461bcd60e51b815260206004820152600f60248201526e125b9d985b1a59081c185d1a595b9d608a1b6044820152606401610960565b6040518060e00160405280876001600160a01b031681526020018681526020018560048111156128f4576128f46136eb565b8152602001848152602001428152602001600115158152602001336001600160a01b031681525060018660405161292b9190613fbb565b90815260405160209181900382019020825181546001600160a01b0319166001600160a01b0390911617815590820151600182019061296a9082614180565b50604082015160028201805460ff1916600183600481111561298e5761298e6136eb565b0217905550606082015160038201906129a79082614180565b506080820151600482015560a08201516005909101805460c0909301516001600160a81b0319909316911515610100600160a81b031916919091176101006001600160a01b03938416021790558616600090815260066020908152604082208054600181018255908352912001612a1e8682614180565b50600a8054906000612a2f8361403d565b9190505550856001600160a01b031685604051612a4c9190613fbb565b60405180910390207ff9d13605c61f1ac6df0d817534f347f021b0fd7d8aa2e3ae8374001858cf825a86604051612a8391906143b7565b60405180910390a350600195945050505050565b6000600133600090815260208190526040902054600160a01b900460ff166003811115612ac657612ac66136eb565b14612b1f5760405162461bcd60e51b8152602060048201526024808201527f4f6e6c792070617469656e74732063616e2063616c6c20746869732066756e636044820152633a34b7b760e11b6064820152608401610960565b600185604051612b2f9190613fbb565b90815260200160405180910390206001018054612b4b90613fd7565b159050612b925760405162461bcd60e51b81526020600482015260156024820152745265636f726420616c72656164792065786973747360581b6044820152606401610960565b6040518060e00160405280336001600160a01b03168152602001868152602001856004811115612bc457612bc46136eb565b815260200184848080601f01602080910402602001604051908101604052809392919081815260200183838082843760009201919091525050509082525042602082015260016040808301829052336060909301929092529051612c29908890613fbb565b90815260405160209181900382019020825181546001600160a01b0319166001600160a01b03909116178155908201516001820190612c689082614180565b50604082015160028201805460ff19166001836004811115612c8c57612c8c6136eb565b021790555060608201516003820190612ca59082614180565b506080820151600482015560a08201516005909101805460c0909301516001600160a01b031661010002610100600160a81b0319921515929092166001600160a81b03199093169290921717905533600090815260066020908152604082208054600181018255908352912001612d1c8682614180565b50600a8054906000612d2d8361403d565b90915550506040513390612d42908790613fbb565b60405180910390207ff9d13605c61f1ac6df0d817534f347f021b0fd7d8aa2e3ae8374001858cf825a86604051612d7991906143b7565b60405180910390a3506001949350505050565b6001600160a01b0381811660009081526020819052604090205460609116612dec5760405162461bcd60e51b8152602060048201526013602482015272155cd95c881b9bdd081c9959da5cdd195c9959606a1b6044820152606401610960565b6001600160a01b03821660009081526007602090815260408083208151928301909152805482908290612e1e90613fd7565b80601f0160208091040260200160405190810160405280929190818152602001828054612e4a90613fd7565b8015612e975780601f10612e6c57610100808354040283529160200191612e97565b820191906000526020600020905b815481529060010190602001808311612e7a57829003601f168201915b5050509190925250509051949350505050565b600c8181548110612eba57600080fd5b600091825260209091200154905081565b336000908152602081905260408120546001600160a01b031615612f315760405162461bcd60e51b815260206004820152601760248201527f5573657220616c726561647920726567697374657265640000000000000000006044820152606401610960565b6000856003811115612f4557612f456136eb565b03612f815760405162461bcd60e51b815260206004820152600c60248201526b496e76616c696420726f6c6560a01b6044820152606401610960565b6040518060800160405280336001600160a01b03168152602001866003811115612fad57612fad6136eb565b815242602080830191909152604091820187905233600090815280825291909120825181546001600160a01b03919091166001600160a01b031982168117835592840151919283916001600160a81b03191617600160a01b836003811115613017576130176136eb565b0217905550604082810151600183015560609092015160029091015580516020601f850181900481028201830183528101848152909182919086908690819085018382808284376000920182905250939094525050338152600760205260409020825190915081906130899082614180565b5050600980549150600061309c8361403d565b9190505550336001600160a01b03167f8e18574f8a7333e6a87112742a55853a643e2f0550f4e1a3a2c3f1bb2994441d866040516130da9190613904565b60405180910390a2506001949350505050565b60076020526000908152604090208054819061310890613fd7565b80601f016020809104026020016040519081016040528092919081815260200182805461313490613fd7565b80156131815780601f1061315657610100808354040283529160200191613181565b820191906000526020600020905b81548152906001019060200180831161316457829003601f168201915b5050505050905081565b6001600160a01b038116600090815260066020526040812054606091816001600160401b038111156131bf576131bf613560565b60405190808252806020026020018201604052801561323b57816020015b6132286040805160e08101825260008082526060602083015290918201908152602001606081526020016000815260200160001515815260200160006001600160a01b031681525090565b8152602001906001900390816131dd5790505b50905060005b82811015610c17576001600160a01b038516600090815260066020526040812080548390811061327357613273614011565b90600052602060002001805461328890613fd7565b80601f01602080910402602001604051908101604052809291908181526020018280546132b490613fd7565b80156133015780601f106132d657610100808354040283529160200191613301565b820191906000526020600020905b8154815290600101906020018083116132e457829003601f168201915b50505050509050600060018260405161331a9190613fbb565b90815260408051918290036020908101832060e0840190925281546001600160a01b031683526001820180549184019161335390613fd7565b80601f016020809104026020016040519081016040528092919081815260200182805461337f90613fd7565b80156133cc5780601f106133a1576101008083540402835291602001916133cc565b820191906000526020600020905b8154815290600101906020018083116133af57829003601f168201915b5050509183525050600282015460209091019060ff1660048111156133f3576133f36136eb565b6004811115613404576134046136eb565b815260200160038201805461341890613fd7565b80601f016020809104026020016040519081016040528092919081815260200182805461344490613fd7565b80156134915780601f1061346657610100808354040283529160200191613491565b820191906000526020600020905b81548152906001019060200180831161347457829003601f168201915b50505091835250506004820154602082015260059091015460ff81161515604083015261010090046001600160a01b0316606090910152845190915081908590859081106134e1576134e1614011565b6020026020010181905250505080806134f99061403d565b915050613241565b60408051610100810182526000808252602082018190526060928201839052909182019081526020016060815260200160008152602001600081526020016000151581525090565b80356001600160a01b03811681146117bf57600080fd5b634e487b7160e01b600052604160045260246000fd5b600082601f83011261358757600080fd5b81356001600160401b03808211156135a1576135a1613560565b604051601f8301601f19908116603f011681019082821181831017156135c9576135c9613560565b816040528381528660208588010111156135e257600080fd5b836020870160208301376000602085830101528094505050505092915050565b60008060006060848603121561361757600080fd5b61362084613549565b925060208401356001600160401b0381111561363b57600080fd5b61364786828701613576565b92505061365660408501613549565b90509250925092565b60006020828403121561367157600080fd5b81356001600160401b0381111561368757600080fd5b61369384828501613576565b949350505050565b60005b838110156136b657818101518382015260200161369e565b50506000910152565b600081518084526136d781602086016020860161369b565b601f01601f19169290920160200192915050565b634e487b7160e01b600052602160045260246000fd5b60058110613711576137116136eb565b9052565b600060018060a01b03808a16835260e0602084015261373760e084018a6136bf565b613744604085018a613701565b838103606085015261375681896136bf565b60808501979097525093151560a083015250911660c090910152949350505050565b60006020828403121561378a57600080fd5b61379382613549565b9392505050565b600061010060018060a01b038084511685528060208501511660208601525060408301518160408601526137d0828601826136bf565b91505060608301516137e56060860182613701565b50608083015184820360808601526137fd82826136bf565b91505060a083015160a085015260c083015160c085015260e0830151151560e08501528091505092915050565b6000602080830181845280855180835260408601915060408160051b870101925083870160005b8281101561387f57603f1988860301845261386d85835161379a565b94509285019290850190600101613851565b5092979650505050505050565b6000806000606084860312156138a157600080fd5b6138aa84613549565b925060208401356001600160401b038111156138c557600080fd5b6138d186828701613576565b9250506040840135600381106138e657600080fd5b809150509250925092565b60048110613901576139016136eb565b50565b60208101613911836138f1565b91905290565b6000806040838503121561392a57600080fd5b61393383613549565b915060208301356001600160401b0381111561394e57600080fd5b61395a85828601613576565b9150509250929050565b602081526000613793602083018461379a565b60006020828403121561398957600080fd5b5035919050565b60038110613711576137116136eb565b613711816138f1565b6001600160a01b038b811682528a16602082015260408101899052610140606082018190526000906139dd8382018b6136bf565b9150506139ed6080830189613990565b6139f6876138f1565b60a082019690965260c081019490945260e084019290925261010083015215156101209091015295945050505050565b60008060408385031215613a3957600080fd5b613a4283613549565b946020939093013593505050565b6001600160a01b0389811682528816602082015261010060408201819052600090613a7d8382018a6136bf565b9050613a8c6060840189613701565b8281036080840152613a9e81886136bf565b60a0840196909652505060c0810192909252151560e09091015295945050505050565b60008060408385031215613ad457600080fd5b82356001600160401b03811115613aea57600080fd5b613af685828601613576565b925050613b0560208401613549565b90509250929050565b6001600160a01b0389811682528816602082015261010060408201819052600090613b3b8382018a6136bf565b60608401989098525050608081019490945260a0840192909252151560c083015260ff1660e0909101529392505050565b60006020808301818452808551808352604092508286019150828160051b87010184880160005b83811015613c5157888303603f19018552815180516001600160a01b03168452610140818901516001600160a01b038116868b01525087820151888601526060808301518282880152613be8838801826136bf565b92505050608080830151613bfe82880182613990565b505060a080830151613c12828801826139a0565b505060c0828101519086015260e08083015190860152610100808301519086015261012091820151151591909401529386019390860190600101613b93565b509098975050505050505050565b60208152600061379360208301846136bf565b8035600581106117bf57600080fd5b600080600080600080600060e0888a031215613c9c57600080fd5b613ca588613549565b9650613cb360208901613549565b955060408801356001600160401b0380821115613ccf57600080fd5b613cdb8b838c01613576565b9650613ce960608b01613c72565b955060808a0135915080821115613cff57600080fd5b50613d0c8a828b01613576565b93505060a0880135915060c0880135905092959891949750929550565b6001600160a01b038516815260808101613d42856138f1565b84602083015283604083015282606083015295945050505050565b60008060008060808587031215613d7357600080fd5b613d7c85613549565b935060208501356001600160401b0380821115613d9857600080fd5b613da488838901613576565b9450613db260408801613c72565b93506060870135915080821115613dc857600080fd5b50613dd587828801613576565b91505092959194509250565b60008083601f840112613df357600080fd5b5081356001600160401b03811115613e0a57600080fd5b602083019150836020828501011115613e2257600080fd5b9250929050565b60008060008060608587031215613e3f57600080fd5b84356001600160401b0380821115613e5657600080fd5b613e6288838901613576565b9550613e7060208801613c72565b94506040870135915080821115613e8657600080fd5b50613e9387828801613de1565b95989497509550505050565b60008060008060608587031215613eb557600080fd5b843560048110613ec457600080fd5b93506020850135925060408501356001600160401b03811115613ee657600080fd5b613e9387828801613de1565b60006020808301818452808551808352604092508286019150828160051b87010184880160005b83811015613c5157888303603f19018552815180516001600160a01b0390811685528882015160e08a87018190529190613f55838801826136bf565b92505088830151613f688a880182613701565b5060608084015187840382890152613f8084826136bf565b608086810151908a015260a0808701511515908a015260c0958601519093169490970193909352968901969450505090860190600101613f19565b60008251613fcd81846020870161369b565b9190910192915050565b600181811c90821680613feb57607f821691505b60208210810361400b57634e487b7160e01b600052602260045260246000fd5b50919050565b634e487b7160e01b600052603260045260246000fd5b634e487b7160e01b600052601160045260246000fd5b60006001820161404f5761404f614027565b5060010190565b602080825260159082015274149958dbdc9908191bd95cc81b9bdd08195e1a5cdd605a1b604082015260600190565b602080825260159082015274496e76616c6964206f776e6572206164647265737360581b604082015260600190565b60609190911b6bffffffffffffffffffffffff1916815260140190565b60006bffffffffffffffffffffffff19808760601b168352808660601b16601484015250835161410881602885016020880161369b565b6028920191820192909252604801949350505050565b8082018082111561128457611284614027565b601f82111561417b57600081815260208120601f850160051c810160208610156141585750805b601f850160051c820191505b8181101561417757828155600101614164565b5050505b505050565b81516001600160401b0381111561419957614199613560565b6141ad816141a78454613fd7565b84614131565b602080601f8311600181146141e257600084156141ca5750858301515b600019600386901b1c1916600185901b178555614177565b600085815260208120601f198616915b82811015614211578886015182559484019460019091019084016141f2565b508582101561422f5787850151600019600388901b60f8161c191681555b5050505050600190811b01905550565b60208082526028908201527f4f6e6c792073797374656d206f776e65722063616e2063616c6c207468697320604082015267333ab731ba34b7b760c11b606082015260800190565b60208082526030908201527f4f6e6c79206865616c7468636172652070726f7669646572732063616e20636160408201526f3636103a3434b990333ab731ba34b7b760811b606082015260800190565b6142e0826138f1565b60f89190911b815260010190565b60008083546142fc81613fd7565b60018281168015614314576001811461432957614358565b60ff1984168752821515830287019450614358565b8760005260208060002060005b8581101561434f5781548a820152908401908201614336565b50505082870194505b50929695505050505050565b60c08152600061437760c08301896136bf565b6143846020840189613701565b828103604084015261439681886136bf565b606084019690965250506080810192909252151560a0909101529392505050565b60208101611284828461370156fea26469706673582212201f68f53cf3d330eacc25f5b105f4b21ce45d00a4d79b7327fc446c051d7bbbbf64736f6c63430008130033",
  "linkReferences": {},
  "deployedLinkReferences": {}
}