{
  "_format": "hh-sol-artifact-1",
  "contractName": "EHRmain",
  "sourceName": "contracts/EHRmain.sol",
  "abi": [
    {
      "inputs": [],
      "stateMutability": "nonpayable",
      "type": "constructor"
    },
    {
      "anonymous": false,
      "inputs": [
        {
          "indexed": true,
          "internalType": "address",
          "name": "owner",
          "type": "address"
        },
        {
          "indexed": true,
          "internalType": "address",
          "name": "careProvider",
          "type": "address"
        },
        {
          "indexed": false,
          "internalType": "string",
          "name": "ipfsCid",
          "type": "string"
        },
        {
          "indexed": false,
          "internalType": "enum EHRmain.DataType",
          "name": "dataType",
          "type": "uint8"
        },
        {
          "indexed": false,
          "internalType": "string",
          "name": "encryptedSymmetricKey",
          "type": "string"
        },
        {
          "indexed": false,
          "internalType": "uint256",
          "name": "approvedDate",
          "type": "uint256"
        },
        {
          "indexed": false,
          "internalType": "uint256",
          "name": "expiryDate",
          "type": "uint256"
        },
        {
          "indexed": false,
          "internalType": "bool",
          "name": "status",
          "type": "bool"
        }
      ],
      "name": "ApprovedRecordAdded",
      "type": "event"
    },
    {
      "anonymous": false,
      "inputs": [
        {
          "indexed": false,
          "internalType": "string",
          "name": "ipfsCid",
          "type": "string"
        },
        {
          "indexed": false,
          "internalType": "uint256",
          "name": "length",
          "type": "uint256"
        }
      ],
      "name": "DebugEvent",
      "type": "event"
    },
    {
      "anonymous": false,
      "inputs": [
        {
          "indexed": true,
          "internalType": "address",
          "name": "provider",
          "type": "address"
        },
        {
          "indexed": true,
          "internalType": "address",
          "name": "patient",
          "type": "address"
        },
        {
          "indexed": false,
          "internalType": "uint256",
          "name": "timestamp",
          "type": "uint256"
        }
      ],
      "name": "EmergencyAccess",
      "type": "event"
    },
    {
      "anonymous": false,
      "inputs": [
        {
          "indexed": true,
          "internalType": "string",
          "name": "ipfsCid",
          "type": "string"
        },
        {
          "indexed": true,
          "internalType": "address",
          "name": "owner",
          "type": "address"
        },
        {
          "indexed": false,
          "internalType": "enum EHRmain.DataType",
          "name": "dataType",
          "type": "uint8"
        }
      ],
      "name": "HealthRecordAdded",
      "type": "event"
    },
    {
      "anonymous": false,
      "inputs": [
        {
          "indexed": false,
          "internalType": "bytes32",
          "name": "requestId",
          "type": "bytes32"
        },
        {
          "indexed": true,
          "internalType": "address",
          "name": "requester",
          "type": "address"
        },
        {
          "indexed": true,
          "internalType": "address",
          "name": "owner",
          "type": "address"
        }
      ],
      "name": "PermissionGranted",
      "type": "event"
    },
    {
      "anonymous": false,
      "inputs": [
        {
          "indexed": false,
          "internalType": "bytes32",
          "name": "requestId",
          "type": "bytes32"
        },
        {
          "indexed": true,
          "internalType": "address",
          "name": "requester",
          "type": "address"
        },
        {
          "indexed": true,
          "internalType": "address",
          "name": "owner",
          "type": "address"
        }
      ],
      "name": "PermissionRequested",
      "type": "event"
    },
    {
      "anonymous": false,
      "inputs": [
        {
          "indexed": true,
          "internalType": "string",
          "name": "ipfsCid",
          "type": "string"
        },
        {
          "indexed": true,
          "internalType": "address",
          "name": "revokedUser",
          "type": "address"
        }
      ],
      "name": "PermissionRevoked",
      "type": "event"
    },
    {
      "anonymous": false,
      "inputs": [
        {
          "indexed": true,
          "internalType": "string",
          "name": "recordId",
          "type": "string"
        },
        {
          "indexed": true,
          "internalType": "address",
          "name": "accessor",
          "type": "address"
        },
        {
          "indexed": false,
          "internalType": "uint256",
          "name": "timestamp",
          "type": "uint256"
        }
      ],
      "name": "RecordAccessed",
      "type": "event"
    },
    {
      "anonymous": false,
      "inputs": [
        {
          "indexed": true,
          "internalType": "address",
          "name": "userAddress",
          "type": "address"
        },
        {
          "indexed": false,
          "internalType": "enum EHRmain.Role",
          "name": "role",
          "type": "uint8"
        }
      ],
      "name": "UserRegistered",
      "type": "event"
    },
    {
      "inputs": [
        {
          "internalType": "string",
          "name": "",
          "type": "string"
        }
      ],
      "name": "accessCounts",
      "outputs": [
        {
          "internalType": "uint256",
          "name": "",
          "type": "uint256"
        }
      ],
      "stateMutability": "view",
      "type": "function"
    },
    {
      "inputs": [
        {
          "internalType": "address",
          "name": "_owner",
          "type": "address"
        },
        {
          "internalType": "address",
          "name": "_careProvider",
          "type": "address"
        },
        {
          "internalType": "string",
          "name": "_ipfsCid",
          "type": "string"
        },
        {
          "internalType": "enum EHRmain.DataType",
          "name": "_dataType",
          "type": "uint8"
        },
        {
          "internalType": "string",
          "name": "_encryptedSymmetricKey",
          "type": "string"
        },
        {
          "internalType": "uint256",
          "name": "_approvedDate",
          "type": "uint256"
        },
        {
          "internalType": "uint256",
          "name": "_expiryDate",
          "type": "uint256"
        }
      ],
      "name": "addApprovedRecord",
      "outputs": [],
      "stateMutability": "nonpayable",
      "type": "function"
    },
    {
      "inputs": [
        {
          "internalType": "address",
          "name": "_patientAddress",
          "type": "address"
        },
        {
          "internalType": "string",
          "name": "_ipfsCid",
          "type": "string"
        },
        {
          "internalType": "enum EHRmain.DataType",
          "name": "_dataType",
          "type": "uint8"
        },
        {
          "internalType": "string",
          "name": "_encryptedSymmetricKey",
          "type": "string"
        }
      ],
      "name": "addEHRData",
      "outputs": [
        {
          "internalType": "bool",
          "name": "",
          "type": "bool"
        }
      ],
      "stateMutability": "nonpayable",
      "type": "function"
    },
    {
      "inputs": [
        {
          "internalType": "string",
          "name": "_ipfsCid",
          "type": "string"
        },
        {
          "internalType": "enum EHRmain.DataType",
          "name": "_dataType",
          "type": "uint8"
        },
        {
          "internalType": "string",
          "name": "_encryptedSymmetricKey",
          "type": "string"
        }
      ],
      "name": "addPHRData",
      "outputs": [
        {
          "internalType": "bool",
          "name": "",
          "type": "bool"
        }
      ],
      "stateMutability": "nonpayable",
      "type": "function"
    },
    {
      "inputs": [
        {
          "internalType": "bytes32",
          "name": "_requestId",
          "type": "bytes32"
        }
      ],
      "name": "approvePermission",
      "outputs": [
        {
          "internalType": "bool",
          "name": "",
          "type": "bool"
        }
      ],
      "stateMutability": "nonpayable",
      "type": "function"
    },
    {
      "inputs": [
        {
          "internalType": "address",
          "name": "",
          "type": "address"
        },
        {
          "internalType": "uint256",
          "name": "",
          "type": "uint256"
        }
      ],
      "name": "approvedRecords",
      "outputs": [
        {
          "internalType": "address",
          "name": "owner",
          "type": "address"
        },
        {
          "internalType": "address",
          "name": "careProvider",
          "type": "address"
        },
        {
          "internalType": "string",
          "name": "ipfsCid",
          "type": "string"
        },
        {
          "internalType": "enum EHRmain.DataType",
          "name": "dataType",
          "type": "uint8"
        },
        {
          "internalType": "string",
          "name": "encryptedSymmetricKey",
          "type": "string"
        },
        {
          "internalType": "uint256",
          "name": "approvedDate",
          "type": "uint256"
        },
        {
          "internalType": "uint256",
          "name": "expiryDate",
          "type": "uint256"
        },
        {
          "internalType": "bool",
          "name": "status",
          "type": "bool"
        }
      ],
      "stateMutability": "view",
      "type": "function"
    },
    {
      "inputs": [
        {
          "internalType": "string",
          "name": "",
          "type": "string"
        }
      ],
      "name": "approvedRecordsByID",
      "outputs": [
        {
          "internalType": "address",
          "name": "owner",
          "type": "address"
        },
        {
          "internalType": "address",
          "name": "careProvider",
          "type": "address"
        },
        {
          "internalType": "string",
          "name": "ipfsCid",
          "type": "string"
        },
        {
          "internalType": "enum EHRmain.DataType",
          "name": "dataType",
          "type": "uint8"
        },
        {
          "internalType": "string",
          "name": "encryptedSymmetricKey",
          "type": "string"
        },
        {
          "internalType": "uint256",
          "name": "approvedDate",
          "type": "uint256"
        },
        {
          "internalType": "uint256",
          "name": "expiryDate",
          "type": "uint256"
        },
        {
          "internalType": "bool",
          "name": "status",
          "type": "bool"
        }
      ],
      "stateMutability": "view",
      "type": "function"
    },
    {
      "inputs": [
        {
          "internalType": "address",
          "name": "_userAddress",
          "type": "address"
        }
      ],
      "name": "checkUser",
      "outputs": [
        {
          "internalType": "enum EHRmain.Role",
          "name": "",
          "type": "uint8"
        }
      ],
      "stateMutability": "view",
      "type": "function"
    },
    {
      "inputs": [
        {
          "internalType": "address",
          "name": "_patientAddress",
          "type": "address"
        }
      ],
      "name": "emergencyAccess",
      "outputs": [
        {
          "internalType": "bool",
          "name": "",
          "type": "bool"
        }
      ],
      "stateMutability": "nonpayable",
      "type": "function"
    },
    {
      "inputs": [
        {
          "internalType": "string",
          "name": "recordId",
          "type": "string"
        }
      ],
      "name": "getHealthRecordByIpfs",
      "outputs": [
        {
          "internalType": "address",
          "name": "owner",
          "type": "address"
        },
        {
          "internalType": "string",
          "name": "ipfsCid",
          "type": "string"
        },
        {
          "internalType": "enum EHRmain.DataType",
          "name": "dataType",
          "type": "uint8"
        },
        {
          "internalType": "string",
          "name": "encryptedSymmetricKey",
          "type": "string"
        },
        {
          "internalType": "uint256",
          "name": "timestamp",
          "type": "uint256"
        },
        {
          "internalType": "bool",
          "name": "isValid",
          "type": "bool"
        },
        {
          "internalType": "address",
          "name": "provider",
          "type": "address"
        }
      ],
      "stateMutability": "nonpayable",
      "type": "function"
    },
    {
      "inputs": [
        {
          "internalType": "address",
          "name": "userAddress",
          "type": "address"
        }
      ],
      "name": "getHealthRecordsByOwner",
      "outputs": [
        {
          "components": [
            {
              "internalType": "address",
              "name": "owner",
              "type": "address"
            },
            {
              "internalType": "string",
              "name": "ipfsCid",
              "type": "string"
            },
            {
              "internalType": "enum EHRmain.DataType",
              "name": "dataType",
              "type": "uint8"
            },
            {
              "internalType": "string",
              "name": "encryptedSymmetricKey",
              "type": "string"
            },
            {
              "internalType": "uint256",
              "name": "timestamp",
              "type": "uint256"
            },
            {
              "internalType": "bool",
              "name": "isValid",
              "type": "bool"
            },
            {
              "internalType": "address",
              "name": "provider",
              "type": "address"
            }
          ],
          "internalType": "struct EHRmain.HealthRecord[]",
          "name": "",
          "type": "tuple[]"
        }
      ],
      "stateMutability": "view",
      "type": "function"
    },
    {
      "inputs": [
        {
          "internalType": "address",
          "name": "userAddress",
          "type": "address"
        }
      ],
      "name": "getKeyPair",
      "outputs": [
        {
          "internalType": "string",
          "name": "",
          "type": "string"
        }
      ],
      "stateMutability": "view",
      "type": "function"
    },
    {
      "inputs": [
        {
          "internalType": "address",
          "name": "patient",
          "type": "address"
        }
      ],
      "name": "getPendingRequestsForPatient",
      "outputs": [
        {
          "components": [
            {
              "internalType": "address",
              "name": "requester",
              "type": "address"
            },
            {
              "internalType": "address",
              "name": "owner",
              "type": "address"
            },
            {
              "internalType": "bytes32",
              "name": "requestId",
              "type": "bytes32"
            },
            {
              "internalType": "string",
              "name": "ipfsCid",
              "type": "string"
            },
            {
              "internalType": "enum EHRmain.PermissionType",
              "name": "permissionType",
              "type": "uint8"
            },
            {
              "internalType": "enum EHRmain.RequestStatus",
              "name": "status",
              "type": "uint8"
            },
            {
              "internalType": "uint256",
              "name": "requestDate",
              "type": "uint256"
            },
            {
              "internalType": "uint256",
              "name": "expiryDate",
              "type": "uint256"
            },
            {
              "internalType": "uint256",
              "name": "incentiveAmount",
              "type": "uint256"
            },
            {
              "internalType": "bool",
              "name": "isIncentiveBased",
              "type": "bool"
            }
          ],
          "internalType": "struct EHRmain.PermissionRequest[]",
          "name": "",
          "type": "tuple[]"
        }
      ],
      "stateMutability": "view",
      "type": "function"
    },
    {
      "inputs": [
        {
          "internalType": "bytes32",
          "name": "requestId",
          "type": "bytes32"
        }
      ],
      "name": "getPermissionRequest",
      "outputs": [
        {
          "internalType": "address",
          "name": "requester",
          "type": "address"
        },
        {
          "internalType": "address",
          "name": "owner",
          "type": "address"
        },
        {
          "internalType": "string",
          "name": "ipfsCid",
          "type": "string"
        },
        {
          "internalType": "uint256",
          "name": "requestDate",
          "type": "uint256"
        },
        {
          "internalType": "uint256",
          "name": "expiryDate",
          "type": "uint256"
        },
        {
          "internalType": "uint256",
          "name": "incentiveAmount",
          "type": "uint256"
        },
        {
          "internalType": "bool",
          "name": "isIncentiveBased",
          "type": "bool"
        },
        {
          "internalType": "uint8",
          "name": "status",
          "type": "uint8"
        }
      ],
      "stateMutability": "view",
      "type": "function"
    },
    {
      "inputs": [
        {
          "internalType": "address",
          "name": "_careProvider",
          "type": "address"
        }
      ],
      "name": "getRecordsByCareProvider",
      "outputs": [
        {
          "components": [
            {
              "internalType": "address",
              "name": "owner",
              "type": "address"
            },
            {
              "internalType": "address",
              "name": "careProvider",
              "type": "address"
            },
            {
              "internalType": "string",
              "name": "ipfsCid",
              "type": "string"
            },
            {
              "internalType": "enum EHRmain.DataType",
              "name": "dataType",
              "type": "uint8"
            },
            {
              "internalType": "string",
              "name": "encryptedSymmetricKey",
              "type": "string"
            },
            {
              "internalType": "uint256",
              "name": "approvedDate",
              "type": "uint256"
            },
            {
              "internalType": "uint256",
              "name": "expiryDate",
              "type": "uint256"
            },
            {
              "internalType": "bool",
              "name": "status",
              "type": "bool"
            }
          ],
          "internalType": "struct EHRmain.approvedRecord[]",
          "name": "",
          "type": "tuple[]"
        }
      ],
      "stateMutability": "view",
      "type": "function"
    },
    {
      "inputs": [
        {
          "internalType": "address",
          "name": "requester",
          "type": "address"
        },
        {
          "internalType": "string",
          "name": "recordId",
          "type": "string"
        }
      ],
      "name": "getRecordsForResearcher",
      "outputs": [
        {
          "components": [
            {
              "internalType": "address",
              "name": "owner",
              "type": "address"
            },
            {
              "internalType": "address",
              "name": "careProvider",
              "type": "address"
            },
            {
              "internalType": "string",
              "name": "ipfsCid",
              "type": "string"
            },
            {
              "internalType": "enum EHRmain.DataType",
              "name": "dataType",
              "type": "uint8"
            },
            {
              "internalType": "string",
              "name": "encryptedSymmetricKey",
              "type": "string"
            },
            {
              "internalType": "uint256",
              "name": "approvedDate",
              "type": "uint256"
            },
            {
              "internalType": "uint256",
              "name": "expiryDate",
              "type": "uint256"
            },
            {
              "internalType": "bool",
              "name": "status",
              "type": "bool"
            }
          ],
          "internalType": "struct EHRmain.approvedRecord",
          "name": "",
          "type": "tuple"
        }
      ],
      "stateMutability": "view",
      "type": "function"
    },
    {
      "inputs": [
        {
          "internalType": "string",
          "name": "",
          "type": "string"
        }
      ],
      "name": "healthRecords",
      "outputs": [
        {
          "internalType": "address",
          "name": "owner",
          "type": "address"
        },
        {
          "internalType": "string",
          "name": "ipfsCid",
          "type": "string"
        },
        {
          "internalType": "enum EHRmain.DataType",
          "name": "dataType",
          "type": "uint8"
        },
        {
          "internalType": "string",
          "name": "encryptedSymmetricKey",
          "type": "string"
        },
        {
          "internalType": "uint256",
          "name": "timestamp",
          "type": "uint256"
        },
        {
          "internalType": "bool",
          "name": "isValid",
          "type": "bool"
        },
        {
          "internalType": "address",
          "name": "provider",
          "type": "address"
        }
      ],
      "stateMutability": "view",
      "type": "function"
    },
    {
      "inputs": [
        {
          "internalType": "string",
          "name": "_ipfsCid",
          "type": "string"
        }
      ],
      "name": "invalidateRecord",
      "outputs": [],
      "stateMutability": "nonpayable",
      "type": "function"
    },
    {
      "inputs": [
        {
          "internalType": "address",
          "name": "",
          "type": "address"
        },
        {
          "internalType": "uint256",
          "name": "",
          "type": "uint256"
        }
      ],
      "name": "ownerToHealthRecords",
      "outputs": [
        {
          "internalType": "string",
          "name": "",
          "type": "string"
        }
      ],
      "stateMutability": "view",
      "type": "function"
    },
    {
      "inputs": [
        {
          "internalType": "uint256",
          "name": "",
          "type": "uint256"
        }
      ],
      "name": "permissionRequestIds",
      "outputs": [
        {
          "internalType": "bytes32",
          "name": "",
          "type": "bytes32"
        }
      ],
      "stateMutability": "view",
      "type": "function"
    },
    {
      "inputs": [
        {
          "internalType": "bytes32",
          "name": "",
          "type": "bytes32"
        }
      ],
      "name": "permissionRequests",
      "outputs": [
        {
          "internalType": "address",
          "name": "requester",
          "type": "address"
        },
        {
          "internalType": "address",
          "name": "owner",
          "type": "address"
        },
        {
          "internalType": "bytes32",
          "name": "requestId",
          "type": "bytes32"
        },
        {
          "internalType": "string",
          "name": "ipfsCid",
          "type": "string"
        },
        {
          "internalType": "enum EHRmain.PermissionType",
          "name": "permissionType",
          "type": "uint8"
        },
        {
          "internalType": "enum EHRmain.RequestStatus",
          "name": "status",
          "type": "uint8"
        },
        {
          "internalType": "uint256",
          "name": "requestDate",
          "type": "uint256"
        },
        {
          "internalType": "uint256",
          "name": "expiryDate",
          "type": "uint256"
        },
        {
          "internalType": "uint256",
          "name": "incentiveAmount",
          "type": "uint256"
        },
        {
          "internalType": "bool",
          "name": "isIncentiveBased",
          "type": "bool"
        }
      ],
      "stateMutability": "view",
      "type": "function"
    },
    {
      "inputs": [
        {
          "internalType": "address",
          "name": "",
          "type": "address"
        },
        {
          "internalType": "string",
          "name": "",
          "type": "string"
        },
        {
          "internalType": "address",
          "name": "",
          "type": "address"
        }
      ],
      "name": "permissions",
      "outputs": [
        {
          "internalType": "bool",
          "name": "",
          "type": "bool"
        }
      ],
      "stateMutability": "view",
      "type": "function"
    },
    {
      "inputs": [
        {
          "internalType": "enum EHRmain.Role",
          "name": "_role",
          "type": "uint8"
        },
        {
          "internalType": "bytes32",
          "name": "_publicKeyHash",
          "type": "bytes32"
        },
        {
          "internalType": "string",
          "name": "_publicKeyForEncryption",
          "type": "string"
        }
      ],
      "name": "registerUser",
      "outputs": [
        {
          "internalType": "bool",
          "name": "",
          "type": "bool"
        }
      ],
      "stateMutability": "nonpayable",
      "type": "function"
    },
    {
      "inputs": [
        {
          "internalType": "address",
          "name": "_owner",
          "type": "address"
        },
        {
          "internalType": "string",
          "name": "_ipfsCid",
          "type": "string"
        },
        {
          "internalType": "enum EHRmain.PermissionType",
          "name": "_permissionType",
          "type": "uint8"
        }
      ],
      "name": "requestIncentiveBasedPermission",
      "outputs": [
        {
          "internalType": "bytes32",
          "name": "",
          "type": "bytes32"
        }
      ],
      "stateMutability": "payable",
      "type": "function"
    },
    {
      "inputs": [
        {
          "internalType": "address",
          "name": "_owner",
          "type": "address"
        },
        {
          "internalType": "string",
          "name": "_ipfsCid",
          "type": "string"
        },
        {
          "internalType": "enum EHRmain.PermissionType",
          "name": "_permissionType",
          "type": "uint8"
        }
      ],
      "name": "requestNonIncentiveBasedPermission",
      "outputs": [
        {
          "internalType": "bytes32",
          "name": "",
          "type": "bytes32"
        }
      ],
      "stateMutability": "nonpayable",
      "type": "function"
    },
    {
      "inputs": [
        {
          "internalType": "string",
          "name": "_ipfsCid",
          "type": "string"
        },
        {
          "internalType": "address",
          "name": "_user",
          "type": "address"
        }
      ],
      "name": "revokePermission",
      "outputs": [
        {
          "internalType": "bool",
          "name": "",
          "type": "bool"
        }
      ],
      "stateMutability": "nonpayable",
      "type": "function"
    },
    {
      "inputs": [],
      "name": "systemOwner",
      "outputs": [
        {
          "internalType": "address",
          "name": "",
          "type": "address"
        }
      ],
      "stateMutability": "view",
      "type": "function"
    },
    {
      "inputs": [],
      "name": "totalRecords",
      "outputs": [
        {
          "internalType": "uint256",
          "name": "",
          "type": "uint256"
        }
      ],
      "stateMutability": "view",
      "type": "function"
    },
    {
      "inputs": [],
      "name": "totalRequests",
      "outputs": [
        {
          "internalType": "uint256",
          "name": "",
          "type": "uint256"
        }
      ],
      "stateMutability": "view",
      "type": "function"
    },
    {
      "inputs": [],
      "name": "totalUsers",
      "outputs": [
        {
          "internalType": "uint256",
          "name": "",
          "type": "uint256"
        }
      ],
      "stateMutability": "view",
      "type": "function"
    },
    {
      "inputs": [
        {
          "internalType": "address",
          "name": "",
          "type": "address"
        }
      ],
      "name": "userKeys",
      "outputs": [
        {
          "internalType": "string",
          "name": "publicKeyForEncryption",
          "type": "string"
        }
      ],
      "stateMutability": "view",
      "type": "function"
    },
    {
      "inputs": [
        {
          "internalType": "address",
          "name": "",
          "type": "address"
        }
      ],
      "name": "users",
      "outputs": [
        {
          "internalType": "address",
          "name": "userAddress",
          "type": "address"
        },
        {
          "internalType": "enum EHRmain.Role",
          "name": "role",
          "type": "uint8"
        },
        {
          "internalType": "uint256",
          "name": "registrationDate",
          "type": "uint256"
        },
        {
          "internalType": "bytes32",
          "name": "publicKeyHash",
          "type": "bytes32"
        }
      ],
      "stateMutability": "view",
      "type": "function"
    }
  ],
  "bytecode": "0x608060405234801561001057600080fd5b50600980546001600160a01b031916331790556000600a819055600b819055600c556144d5806100416000396000f3fe6080604052600436106101e35760003560e01c806377249db811610102578063b4d1456c11610095578063e2fa218d11610064578063e2fa218d146106b7578063e3c0740b146106d7578063f2d3d8aa146106f7578063fa44f4161461071757600080fd5b8063b4d1456c14610641578063be9b545a14610661578063bff1f9e114610681578063d75e9edd1461069757600080fd5b8063a6fb108f116100d1578063a6fb108f14610580578063a806cad9146105a0578063a87430ba146105c0578063a9ca2aed1461062157600080fd5b806377249db8146104fd5780637bbfdc111461052a5780638aea61dc14610557578063a269a4481461056d57600080fd5b806327be35db1161017a57806340d3226f1161014957806340d3226f1461046957806341d724b41461048957806342e8ce2a146104a957806373fb78a4146104c957600080fd5b806327be35db1461039a57806329bd8001146103c757806333779254146103fd5780633cdcc4431461043557600080fd5b8063125f8974116101b6578063125f8974146102f5578063187ec18d1461030b5780631e9d48cf1461032b578063262b40281461037857600080fd5b8063019370e4146101e8578063070b732c146102335780630ce46752146102955780631023289b146102c8575b600080fd5b3480156101f457600080fd5b506102206102033660046136a3565b805160208183018101805160078252928201919093012091525481565b6040519081526020015b60405180910390f35b34801561023f57600080fd5b5061028561024e3660046136f6565b6003602090815260009384526040808520845180860184018051928152908401958401959095209452929052825290205460ff1681565b604051901515815260200161022a565b3480156102a157600080fd5b506102b56102b03660046136a3565b610744565b60405161022a97969594939291906137cd565b3480156102d457600080fd5b506102e86102e3366004613830565b6109e6565b60405161022a91906138e2565b34801561030157600080fd5b50610220600b5481565b34801561031757600080fd5b50610220610326366004613944565b610cf9565b34801561033757600080fd5b5061036b610346366004613830565b6001600160a01b0316600090815260208190526040902054600160a01b900460ff1690565b60405161022a91906139bc565b34801561038457600080fd5b506103986103933660046136a3565b61109e565b005b3480156103a657600080fd5b506103ba6103b53660046139cf565b611144565b60405161022a9190613a1c565b3480156103d357600080fd5b506103e76103e2366004613a2f565b611364565b60405161022a9a99989796959493929190613a61565b34801561040957600080fd5b5060095461041d906001600160a01b031681565b6040516001600160a01b03909116815260200161022a565b34801561044157600080fd5b50610455610450366004613ade565b611454565b60405161022a989796959493929190613b08565b34801561047557600080fd5b506102b56104843660046136a3565b6115e0565b34801561049557600080fd5b506102856104a4366004613830565b61175a565b3480156104b557600080fd5b506102856104c4366004613b79565b61189e565b3480156104d557600080fd5b506104e96104e4366004613a2f565b6119d7565b60405161022a989796959493929190613bc6565b34801561050957600080fd5b5061051d610518366004613830565b611af1565b60405161022a9190613c24565b34801561053657600080fd5b5061054a610545366004613ade565b611e1d565b60405161022a9190613d17565b34801561056357600080fd5b50610220600c5481565b61022061057b366004613944565b611ed6565b34801561058c57600080fd5b5061028561059b366004613a2f565b6121af565b3480156105ac57600080fd5b506103986105bb366004613d39565b61237c565b3480156105cc57600080fd5b506106116105db366004613830565b6000602081905290815260409020805460018201546002909201546001600160a01b03821692600160a01b90920460ff16919084565b60405161022a9493929190613de1565b34801561062d57600080fd5b5061045561063c3660046136a3565b6127d0565b34801561064d57600080fd5b5061028561065c366004613e15565b612811565b34801561066d57600080fd5b5061028561067c366004613ee1565b612b71565b34801561068d57600080fd5b50610220600a5481565b3480156106a357600080fd5b5061054a6106b2366004613830565b612e44565b3480156106c357600080fd5b506102206106d2366004613a2f565b612f62565b3480156106e357600080fd5b506102856106f2366004613f57565b612f83565b34801561070357600080fd5b5061054a610712366004613830565b6131a5565b34801561072357600080fd5b50610737610732366004613830565b613243565b60405161022a9190613faa565b60006060600060606000806000806001896040516107629190614073565b90815260408051918290036020908101832060e0840190925281546001600160a01b031683526001820180549184019161079b9061408f565b80601f01602080910402602001604051908101604052809291908181526020018280546107c79061408f565b80156108145780601f106107e957610100808354040283529160200191610814565b820191906000526020600020905b8154815290600101906020018083116107f757829003601f168201915b5050509183525050600282015460209091019060ff16600481111561083b5761083b6137a3565b600481111561084c5761084c6137a3565b81526020016003820180546108609061408f565b80601f016020809104026020016040519081016040528092919081815260200182805461088c9061408f565b80156108d95780601f106108ae576101008083540402835291602001916108d9565b820191906000526020600020905b8154815290600101906020018083116108bc57829003601f168201915b50505091835250506004820154602082015260059091015460ff811615156040808401919091526101009091046001600160a01b03166060909201919091525190915060079061092a908b90614073565b908152602001604051809103902054600161094591906140df565b60078a6040516109559190614073565b908152604051908190036020018120919091553390610975908b90614073565b604051908190038120428252907f1cb93c64a706f25d20542715c7cf1dfc98453ae2b2c1d4a187a253f6a169ee2d9060200160405180910390a38051602082015160408301516060840151608085015160a086015160c090960151949e939d50919b50995097509195509350915050565b60606001600160a01b038216610a435760405162461bcd60e51b815260206004820152601d60248201527f496e76616c696420636172652070726f7669646572206164647265737300000060448201526064015b60405180910390fd5b6001600160a01b03821660009081526004602052604081205490816001600160401b03811115610a7557610a75613601565b604051908082528060200260200182016040528015610aae57816020015b610a9b6135b9565b815260200190600190039081610a935790505b50905060005b6001600160a01b038516600090815260046020526040902054811015610cf1576001600160a01b0385166000908152600460205260408120805483908110610afe57610afe6140f2565b60009182526020918290206040805161010081018252600890930290910180546001600160a01b0390811684526001820154169383019390935260028301805492939291840191610b4e9061408f565b80601f0160208091040260200160405190810160405280929190818152602001828054610b7a9061408f565b8015610bc75780601f10610b9c57610100808354040283529160200191610bc7565b820191906000526020600020905b815481529060010190602001808311610baa57829003601f168201915b5050509183525050600382015460209091019060ff166004811115610bee57610bee6137a3565b6004811115610bff57610bff6137a3565b8152602001600482018054610c139061408f565b80601f0160208091040260200160405190810160405280929190818152602001828054610c3f9061408f565b8015610c8c5780601f10610c6157610100808354040283529160200191610c8c565b820191906000526020600020905b815481529060010190602001808311610c6f57829003601f168201915b5050509183525050600582015460208201526006820154604082015260079091015460ff16151560609091015283519091508190849084908110610cd257610cd26140f2565b6020026020010181905250508080610ce990614108565b915050610ab4565b509392505050565b600082600181604051610d0c9190614073565b9081526040519081900360200190206005015460ff16610d3e5760405162461bcd60e51b8152600401610a3a90614121565b6001600160a01b038516610d645760405162461bcd60e51b8152600401610a3a90614150565b6000836002811115610d7857610d786137a3565b03610dbf5760405162461bcd60e51b8152602060048201526017602482015276496e76616c6964207065726d697373696f6e207479706560481b6044820152606401610a3a565b84604051602001610dd0919061417f565b60405160208183030381529060405280519060200120600185604051610df69190614073565b9081526040516020918190038201812054610e1d926001600160a01b03909116910161417f565b6040516020818303038152906040528051906020012014610e775760405162461bcd60e51b815260206004820152601460248201527324b73b30b634b2103932b1b7b9321037bbb732b960611b6044820152606401610a3a565b600033868642604051602001610e90949392919061419c565b604051602081830303815290604052805190602001209050604051806101400160405280336001600160a01b03168152602001876001600160a01b03168152602001828152602001868152602001856002811115610ef057610ef06137a3565b8152602001600081526020014281526020014262278d00610f1191906140df565b8152600060208083018290526040928301829052848252600280825291839020845181546001600160a01b03199081166001600160a01b0392831617835592860151600183018054909416911617909155918301519082015560608201516003820190610f7e9082614238565b50608082015160048201805460ff19166001836002811115610fa257610fa26137a3565b021790555060a082015160048201805461ff001916610100836003811115610fcc57610fcc6137a3565b021790555060c0820151600582015560e082015160068201556101008201516007820155610120909101516008909101805460ff1916911515919091179055600c805490600061101b83614108565b90915550506040518181526001600160a01b0387169033907f9a387978508c64b67d0ec39e75dc556f96f10430d94187ba4507c6dcd34cf3299060200160405180910390a3600d80546001810182556000919091527fd7b6990105719101dabeb77144f2a3385c8033acd3af97e9423a695e81ad1eb50181905595945050505050565b806001816040516110af9190614073565b9081526040519081900360200190206005015460ff166110e15760405162461bcd60e51b8152600401610a3a90614121565b6009546001600160a01b0316331461110b5760405162461bcd60e51b8152600401610a3a906142f7565b600060018360405161111d9190614073565b908152604051908190036020019020600501805491151560ff199092169190911790555050565b61114c6135b9565b6001600160a01b0383166111945760405162461bcd60e51b815260206004820152600f60248201526e496e76616c6964206164647265737360881b6044820152606401610a3a565b60006005836040516111a69190614073565b9081526040805191829003602090810183206101008401835280546001600160a01b0390811685526001820154169184019190915260028101805491928401916111ef9061408f565b80601f016020809104026020016040519081016040528092919081815260200182805461121b9061408f565b80156112685780601f1061123d57610100808354040283529160200191611268565b820191906000526020600020905b81548152906001019060200180831161124b57829003601f168201915b5050509183525050600382015460209091019060ff16600481111561128f5761128f6137a3565b60048111156112a0576112a06137a3565b81526020016004820180546112b49061408f565b80601f01602080910402602001604051908101604052809291908181526020018280546112e09061408f565b801561132d5780601f106113025761010080835404028352916020019161132d565b820191906000526020600020905b81548152906001019060200180831161131057829003601f168201915b5050509183525050600582015460208201526006820154604082015260079091015460ff1615156060909101529150505b92915050565b600260208190526000918252604090912080546001820154928201546003830180546001600160a01b03938416959093169391926113a19061408f565b80601f01602080910402602001604051908101604052809291908181526020018280546113cd9061408f565b801561141a5780601f106113ef5761010080835404028352916020019161141a565b820191906000526020600020905b8154815290600101906020018083116113fd57829003601f168201915b5050506004840154600585015460068601546007870154600890970154959660ff808516976101009095048116965092945090929091168a565b6004602052816000526040600020818154811061147057600080fd5b60009182526020909120600890910201805460018201546002830180546001600160a01b0393841696509190921693506114a99061408f565b80601f01602080910402602001604051908101604052809291908181526020018280546114d59061408f565b80156115225780601f106114f757610100808354040283529160200191611522565b820191906000526020600020905b81548152906001019060200180831161150557829003601f168201915b5050506003840154600485018054949560ff9092169491935091506115469061408f565b80601f01602080910402602001604051908101604052809291908181526020018280546115729061408f565b80156115bf5780601f10611594576101008083540402835291602001916115bf565b820191906000526020600020905b8154815290600101906020018083116115a257829003601f168201915b50505050600583015460068401546007909401549293909290915060ff1688565b805160208183018101805160018083529383019290940191909120929052815490820180546001600160a01b03909216929161161b9061408f565b80601f01602080910402602001604051908101604052809291908181526020018280546116479061408f565b80156116945780601f1061166957610100808354040283529160200191611694565b820191906000526020600020905b81548152906001019060200180831161167757829003601f168201915b5050506002840154600385018054949560ff9092169491935091506116b89061408f565b80601f01602080910402602001604051908101604052809291908181526020018280546116e49061408f565b80156117315780601f1061170657610100808354040283529160200191611731565b820191906000526020600020905b81548152906001019060200180831161171457829003601f168201915b50505050600483015460059093015491929160ff8116915061010090046001600160a01b031687565b6000600233600090815260208190526040902054600160a01b900460ff166003811115611789576117896137a3565b146117a65760405162461bcd60e51b8152600401610a3a9061433f565b60016040516020016117b8919061438f565b60408051808303601f1901815282825280516020918201206001600160a01b0386166000908152808352929092205491926117fe92600160a01b900460ff16910161438f565b60405160208183030381529060405280519060200120146118555760405162461bcd60e51b815260206004820152601160248201527014185d1a595b9d081b9bdd08199bdd5b99607a1b6044820152606401610a3a565b6040514281526001600160a01b0383169033907f752018cdfd5f924e9f3c3eb502d75284995f06f31fb10db58a6b98c418ee2cbd9060200160405180910390a35060015b919050565b6000826001816040516118b19190614073565b9081526040519081900360200190206005015460ff166118e35760405162461bcd60e51b8152600401610a3a90614121565b6009546001600160a01b0316331461190d5760405162461bcd60e51b8152600401610a3a906142f7565b6000600360006001876040516119239190614073565b9081526040805160209281900383019020546001600160a01b031683529082019290925281016000209051611959908790614073565b90815260408051602092819003830181206001600160a01b03881660008181529190945291909120805460ff1916931515939093179092559061199d908690614073565b604051908190038120907fb0948f04fe442d4a4537ab853413218081ee0cacb6095698486f22271166bdfd90600090a35060019392505050565b6000818152600260205260408120805460018201546005830154600684015460078501546008860154600487015488976060978997889788978897889795966001600160a01b0395861696949095169460038089019560ff9081169261010090041690811115611a4957611a496137a3565b858054611a559061408f565b80601f0160208091040260200160405190810160405280929190818152602001828054611a819061408f565b8015611ace5780601f10611aa357610100808354040283529160200191611ace565b820191906000526020600020905b815481529060010190602001808311611ab157829003601f168201915b505050505095509850985098509850985098509850985050919395975091939597565b60606000805b600d54811015611b6f576000600d8281548110611b1657611b166140f2565b6000918252602080832090910154808352600290915260409091206001810154919250906001600160a01b03808816911603611b5a5783611b5681614108565b9450505b50508080611b6790614108565b915050611af7565b506000816001600160401b03811115611b8a57611b8a613601565b604051908082528060200260200182016040528015611c1257816020015b611bff60408051610140810182526000808252602082018190529181018290526060808201529060808201908152602001600081526020016000815260200160008152602001600081526020016000151581525090565b815260200190600190039081611ba85790505b5090506000805b600d54811015611e13576000600d8281548110611c3857611c386140f2565b6000918252602080832090910154808352600290915260409091206001810154919250906001600160a01b03808a16911603611dfe57604080516101408101825282546001600160a01b039081168252600184015416602082015260028301549181019190915260038201805483916060840191611cb59061408f565b80601f0160208091040260200160405190810160405280929190818152602001828054611ce19061408f565b8015611d2e5780601f10611d0357610100808354040283529160200191611d2e565b820191906000526020600020905b815481529060010190602001808311611d1157829003601f168201915b5050509183525050600482015460209091019060ff166002811115611d5557611d556137a3565b6002811115611d6657611d666137a3565b81526020016004820160019054906101000a900460ff166003811115611d8e57611d8e6137a3565b6003811115611d9f57611d9f6137a3565b815260058201546020820152600682015460408201526007820154606082015260089091015460ff1615156080909101528551869086908110611de457611de46140f2565b60200260200101819052508380611dfa90614108565b9450505b50508080611e0b90614108565b915050611c19565b5090949350505050565b60066020528160005260406000208181548110611e3957600080fd5b90600052602060002001600091509150508054611e559061408f565b80601f0160208091040260200160405190810160405280929190818152602001828054611e819061408f565b8015611ece5780601f10611ea357610100808354040283529160200191611ece565b820191906000526020600020905b815481529060010190602001808311611eb157829003601f168201915b505050505081565b600082600181604051611ee99190614073565b9081526040519081900360200190206005015460ff16611f1b5760405162461bcd60e51b8152600401610a3a90614121565b6001600160a01b038516611f415760405162461bcd60e51b8152600401610a3a90614150565b6000836002811115611f5557611f556137a3565b03611f9c5760405162461bcd60e51b8152602060048201526017602482015276496e76616c6964207065726d697373696f6e207479706560481b6044820152606401610a3a565b60003411611fec5760405162461bcd60e51b815260206004820152601960248201527f496e63656e7469766520616d6f756e74207265717569726564000000000000006044820152606401610a3a565b84604051602001611ffd919061417f565b604051602081830303815290604052805190602001206001856040516120239190614073565b908152604051602091819003820181205461204a926001600160a01b03909116910161417f565b60405160208183030381529060405280519060200120146120a45760405162461bcd60e51b815260206004820152601460248201527324b73b30b634b2103932b1b7b9321037bbb732b960611b6044820152606401610a3a565b6000338686426040516020016120bd949392919061419c565b604051602081830303815290604052805190602001209050604051806101400160405280336001600160a01b03168152602001876001600160a01b0316815260200182815260200186815260200185600281111561211d5761211d6137a3565b8152602001600081526020014281526020014262278d0061213e91906140df565b81526000602080830182905260016040938401819052858352600280835292849020855181546001600160a01b03199081166001600160a01b03928316178355938701519282018054909416921691909117909155918301519082015560608201516003820190610f7e9082614238565b600081815260026020526040812060018101546001600160a01b031633146122125760405162461bcd60e51b81526020600482015260166024820152754f6e6c79206f776e65722063616e20617070726f766560501b6044820152606401610a3a565b60006004820154610100900460ff166003811115612232576122326137a3565b146122785760405162461bcd60e51b8152602060048201526016602482015275496e76616c696420726571756573742073746174757360501b6044820152606401610a3a565b80600601544211156122be5760405162461bcd60e51b815260206004820152600f60248201526e14995c5d595cdd08195e1c1a5c9959608a1b6044820152606401610a3a565b60048101805461ff0019166101001790556001808201546001600160a01b031660009081526003602081905260409182902091516122fe918501906143a6565b908152604080516020928190038301812085546001600160a01b039081166000908152918552929020805460ff19169415159490941790935560018401548454878552908216939116917fef6ee312a0062a24a46be2eba5284183a87ff848110e8d4df979bd690d9e9f68910160405180910390a350600192915050565b6001600160a01b0387166123a25760405162461bcd60e51b8152600401610a3a90614150565b6001600160a01b0386166123f85760405162461bcd60e51b815260206004820152601d60248201527f496e76616c696420636172652070726f766964657220616464726573730000006044820152606401610a3a565b60008551116124495760405162461bcd60e51b815260206004820152601860248201527f49504653204349442063616e6e6f7420626520656d70747900000000000000006044820152606401610a3a565b428211156124a75760405162461bcd60e51b815260206004820152602560248201527f417070726f76656420646174652063616e6e6f7420626520696e207468652066604482015264757475726560d81b6064820152608401610a3a565b8181116125065760405162461bcd60e51b815260206004820152602760248201527f4578706972792064617465206d75737420626520616674657220617070726f766044820152666564206461746560c81b6064820152608401610a3a565b6000604051806101000160405280896001600160a01b03168152602001886001600160a01b0316815260200187815260200186600481111561254a5761254a6137a3565b815260208082018790524260408084019190915260608301869052600160809093018390526001600160a01b03808c166000908152600484528281208054808701825590825290849020865160089092020180549183166001600160a01b03199283161781559386015194840180549590921694169390931790925590820151919250829160028201906125de9082614238565b50606082015160038201805460ff19166001836004811115612602576126026137a3565b02179055506080820151600482019061261b9082614238565b5060a0820151600582015560c0820151600682015560e0909101516007909101805460ff191691151591909117905560408051610100810182526001600160a01b038a811682528916602082015290810187905260608101866004811115612685576126856137a3565b8152602001858152602001428152602001838152602001600115158152506005876040516126b39190614073565b9081526040805160209281900383019020835181546001600160a01b03199081166001600160a01b039283161783559385015160018301805490951691161790925582015160028201906127079082614238565b50606082015160038201805460ff1916600183600481111561272b5761272b6137a3565b0217905550608082015160048201906127449082614238565b5060a0820151600582015560c0820151600682015560e0909101516007909101805460ff19169115159190911790556040516001600160a01b0388811691908a16907f7f70321209aabb8d99473717508746279a6724c81f6f89e8a3cd6c2a27657400906127be908a908a908a908a908a9060019061441c565b60405180910390a35050505050505050565b8051808201602090810180516005825292820191909301209152805460018201546002830180546001600160a01b039384169492909316926114a99061408f565b6000600233600090815260208190526040902054600160a01b900460ff166003811115612840576128406137a3565b1461285d5760405162461bcd60e51b8152600401610a3a9061433f565b6001600160a01b0385166128b35760405162461bcd60e51b815260206004820152601760248201527f496e76616c69642070617469656e7420616464726573730000000000000000006044820152606401610a3a565b6001846040516128c39190614073565b908152602001604051809103902060010180546128df9061408f565b1590506129265760405162461bcd60e51b81526020600482015260156024820152745265636f726420616c72656164792065786973747360581b6044820152606401610a3a565b6001600160a01b038516600090815260208190526040902054600160a01b900460ff16600181600381111561295d5761295d6137a3565b1461299c5760405162461bcd60e51b815260206004820152600f60248201526e125b9d985b1a59081c185d1a595b9d608a1b6044820152606401610a3a565b6040518060e00160405280876001600160a01b031681526020018681526020018560048111156129ce576129ce6137a3565b8152602001848152602001428152602001600115158152602001336001600160a01b0316815250600186604051612a059190614073565b90815260405160209181900382019020825181546001600160a01b0319166001600160a01b03909116178155908201516001820190612a449082614238565b50604082015160028201805460ff19166001836004811115612a6857612a686137a3565b021790555060608201516003820190612a819082614238565b506080820151600482015560a08201516005909101805460c0909301516001600160a81b0319909316911515610100600160a81b031916919091176101006001600160a01b03938416021790558616600090815260066020908152604082208054600181018255908352912001612af88682614238565b50600b8054906000612b0983614108565b9190505550856001600160a01b031685604051612b269190614073565b60405180910390207ff9d13605c61f1ac6df0d817534f347f021b0fd7d8aa2e3ae8374001858cf825a86604051612b5d919061446f565b60405180910390a350600195945050505050565b60007f7896124430355ea9a2e8a41136ae8f37ec84f6a07c108a3a75a070e526e0f2d985600187604051612ba59190614073565b90815260200160405180910390206001018054612bc19061408f565b604051612bcf93925061447d565b60405180910390a1600185604051612be79190614073565b90815260200160405180910390206001018054612c039061408f565b159050612c4a5760405162461bcd60e51b81526020600482015260156024820152745265636f726420616c72656164792065786973747360581b6044820152606401610a3a565b6040518060e00160405280336001600160a01b03168152602001868152602001856004811115612c7c57612c7c6137a3565b815260200184848080601f01602080910402602001604051908101604052809392919081815260200183838082843760009201919091525050509082525042602082015260016040808301829052336060909301929092529051612ce1908890614073565b90815260405160209181900382019020825181546001600160a01b0319166001600160a01b03909116178155908201516001820190612d209082614238565b50604082015160028201805460ff19166001836004811115612d4457612d446137a3565b021790555060608201516003820190612d5d9082614238565b506080820151600482015560a08201516005909101805460c0909301516001600160a01b031661010002610100600160a81b0319921515929092166001600160a81b03199093169290921717905533600090815260066020908152604082208054600181018255908352912001612dd48682614238565b50600b8054906000612de583614108565b90915550506040513390612dfa908790614073565b60405180910390207ff9d13605c61f1ac6df0d817534f347f021b0fd7d8aa2e3ae8374001858cf825a86604051612e31919061446f565b60405180910390a3506001949350505050565b6001600160a01b0381811660009081526020819052604090205460609116612ea45760405162461bcd60e51b8152602060048201526013602482015272155cd95c881b9bdd081c9959da5cdd195c9959606a1b6044820152606401610a3a565b6001600160a01b03821660009081526008602090815260408083208151928301909152805482908290612ed69061408f565b80601f0160208091040260200160405190810160405280929190818152602001828054612f029061408f565b8015612f4f5780601f10612f2457610100808354040283529160200191612f4f565b820191906000526020600020905b815481529060010190602001808311612f3257829003601f168201915b5050509190925250509051949350505050565b600d8181548110612f7257600080fd5b600091825260209091200154905081565b336000908152602081905260408120546001600160a01b031615612fe95760405162461bcd60e51b815260206004820152601760248201527f5573657220616c726561647920726567697374657265640000000000000000006044820152606401610a3a565b6000856003811115612ffd57612ffd6137a3565b036130395760405162461bcd60e51b815260206004820152600c60248201526b496e76616c696420726f6c6560a01b6044820152606401610a3a565b6040518060800160405280336001600160a01b03168152602001866003811115613065576130656137a3565b815242602080830191909152604091820187905233600090815280825291909120825181546001600160a01b03919091166001600160a01b031982168117835592840151919283916001600160a81b03191617600160a01b8360038111156130cf576130cf6137a3565b0217905550604082810151600183015560609092015160029091015580516020601f850181900481028201830183528101848152909182919086908690819085018382808284376000920182905250939094525050338152600860205260409020825190915081906131419082614238565b5050600a80549150600061315483614108565b9190505550336001600160a01b03167f8e18574f8a7333e6a87112742a55853a643e2f0550f4e1a3a2c3f1bb2994441d8660405161319291906139bc565b60405180910390a2506001949350505050565b6008602052600090815260409020805481906131c09061408f565b80601f01602080910402602001604051908101604052809291908181526020018280546131ec9061408f565b80156132395780601f1061320e57610100808354040283529160200191613239565b820191906000526020600020905b81548152906001019060200180831161321c57829003601f168201915b5050505050905081565b6001600160a01b038116600090815260066020526040812054606091816001600160401b0381111561327757613277613601565b6040519080825280602002602001820160405280156132f357816020015b6132e06040805160e08101825260008082526060602083015290918201908152602001606081526020016000815260200160001515815260200160006001600160a01b031681525090565b8152602001906001900390816132955790505b50905060005b82811015610cf1576001600160a01b038516600090815260066020526040812080548390811061332b5761332b6140f2565b9060005260206000200180546133409061408f565b80601f016020809104026020016040519081016040528092919081815260200182805461336c9061408f565b80156133b95780601f1061338e576101008083540402835291602001916133b9565b820191906000526020600020905b81548152906001019060200180831161339c57829003601f168201915b5050505050905060006001826040516133d29190614073565b90815260408051918290036020908101832060e0840190925281546001600160a01b031683526001820180549184019161340b9061408f565b80601f01602080910402602001604051908101604052809291908181526020018280546134379061408f565b80156134845780601f1061345957610100808354040283529160200191613484565b820191906000526020600020905b81548152906001019060200180831161346757829003601f168201915b5050509183525050600282015460209091019060ff1660048111156134ab576134ab6137a3565b60048111156134bc576134bc6137a3565b81526020016003820180546134d09061408f565b80601f01602080910402602001604051908101604052809291908181526020018280546134fc9061408f565b80156135495780601f1061351e57610100808354040283529160200191613549565b820191906000526020600020905b81548152906001019060200180831161352c57829003601f168201915b50505091835250506004820154602082015260059091015460ff81161515604083015261010090046001600160a01b031660609091015284519091508190859085908110613599576135996140f2565b6020026020010181905250505080806135b190614108565b9150506132f9565b60408051610100810182526000808252602082018190526060928201839052909182019081526020016060815260200160008152602001600081526020016000151581525090565b634e487b7160e01b600052604160045260246000fd5b600082601f83011261362857600080fd5b81356001600160401b038082111561364257613642613601565b604051601f8301601f19908116603f0116810190828211818310171561366a5761366a613601565b8160405283815286602085880101111561368357600080fd5b836020870160208301376000602085830101528094505050505092915050565b6000602082840312156136b557600080fd5b81356001600160401b038111156136cb57600080fd5b6136d784828501613617565b949350505050565b80356001600160a01b038116811461189957600080fd5b60008060006060848603121561370b57600080fd5b613714846136df565b925060208401356001600160401b0381111561372f57600080fd5b61373b86828701613617565b92505061374a604085016136df565b90509250925092565b60005b8381101561376e578181015183820152602001613756565b50506000910152565b6000815180845261378f816020860160208601613753565b601f01601f19169290920160200192915050565b634e487b7160e01b600052602160045260246000fd5b600581106137c9576137c96137a3565b9052565b600060018060a01b03808a16835260e060208401526137ef60e084018a613777565b6137fc604085018a6137b9565b838103606085015261380e8189613777565b60808501979097525093151560a083015250911660c090910152949350505050565b60006020828403121561384257600080fd5b61384b826136df565b9392505050565b600061010060018060a01b0380845116855280602085015116602086015250604083015181604086015261388882860182613777565b915050606083015161389d60608601826137b9565b50608083015184820360808601526138b58282613777565b91505060a083015160a085015260c083015160c085015260e0830151151560e08501528091505092915050565b6000602080830181845280855180835260408601915060408160051b870101925083870160005b8281101561393757603f19888603018452613925858351613852565b94509285019290850190600101613909565b5092979650505050505050565b60008060006060848603121561395957600080fd5b613962846136df565b925060208401356001600160401b0381111561397d57600080fd5b61398986828701613617565b92505060408401356003811061399e57600080fd5b809150509250925092565b600481106139b9576139b96137a3565b50565b602081016139c9836139a9565b91905290565b600080604083850312156139e257600080fd5b6139eb836136df565b915060208301356001600160401b03811115613a0657600080fd5b613a1285828601613617565b9150509250929050565b60208152600061384b6020830184613852565b600060208284031215613a4157600080fd5b5035919050565b600381106137c9576137c96137a3565b6137c9816139a9565b6001600160a01b038b811682528a1660208201526040810189905261014060608201819052600090613a958382018b613777565b915050613aa56080830189613a48565b613aae876139a9565b60a082019690965260c081019490945260e084019290925261010083015215156101209091015295945050505050565b60008060408385031215613af157600080fd5b613afa836136df565b946020939093013593505050565b6001600160a01b0389811682528816602082015261010060408201819052600090613b358382018a613777565b9050613b4460608401896137b9565b8281036080840152613b568188613777565b60a0840196909652505060c0810192909252151560e09091015295945050505050565b60008060408385031215613b8c57600080fd5b82356001600160401b03811115613ba257600080fd5b613bae85828601613617565b925050613bbd602084016136df565b90509250929050565b6001600160a01b0389811682528816602082015261010060408201819052600090613bf38382018a613777565b60608401989098525050608081019490945260a0840192909252151560c083015260ff1660e0909101529392505050565b60006020808301818452808551808352604092508286019150828160051b87010184880160005b83811015613d0957888303603f19018552815180516001600160a01b03168452610140818901516001600160a01b038116868b01525087820151888601526060808301518282880152613ca083880182613777565b92505050608080830151613cb682880182613a48565b505060a080830151613cca82880182613a58565b505060c0828101519086015260e08083015190860152610100808301519086015261012091820151151591909401529386019390860190600101613c4b565b509098975050505050505050565b60208152600061384b6020830184613777565b80356005811061189957600080fd5b600080600080600080600060e0888a031215613d5457600080fd5b613d5d886136df565b9650613d6b602089016136df565b955060408801356001600160401b0380821115613d8757600080fd5b613d938b838c01613617565b9650613da160608b01613d2a565b955060808a0135915080821115613db757600080fd5b50613dc48a828b01613617565b93505060a0880135915060c0880135905092959891949750929550565b6001600160a01b038516815260808101613dfa856139a9565b84602083015283604083015282606083015295945050505050565b60008060008060808587031215613e2b57600080fd5b613e34856136df565b935060208501356001600160401b0380821115613e5057600080fd5b613e5c88838901613617565b9450613e6a60408801613d2a565b93506060870135915080821115613e8057600080fd5b50613e8d87828801613617565b91505092959194509250565b60008083601f840112613eab57600080fd5b5081356001600160401b03811115613ec257600080fd5b602083019150836020828501011115613eda57600080fd5b9250929050565b60008060008060608587031215613ef757600080fd5b84356001600160401b0380821115613f0e57600080fd5b613f1a88838901613617565b9550613f2860208801613d2a565b94506040870135915080821115613f3e57600080fd5b50613f4b87828801613e99565b95989497509550505050565b60008060008060608587031215613f6d57600080fd5b843560048110613f7c57600080fd5b93506020850135925060408501356001600160401b03811115613f9e57600080fd5b613f4b87828801613e99565b60006020808301818452808551808352604092508286019150828160051b87010184880160005b83811015613d0957888303603f19018552815180516001600160a01b0390811685528882015160e08a8701819052919061400d83880182613777565b925050888301516140208a8801826137b9565b50606080840151878403828901526140388482613777565b608086810151908a015260a0808701511515908a015260c0958601519093169490970193909352968901969450505090860190600101613fd1565b60008251614085818460208701613753565b9190910192915050565b600181811c908216806140a357607f821691505b6020821081036140c357634e487b7160e01b600052602260045260246000fd5b50919050565b634e487b7160e01b600052601160045260246000fd5b8082018082111561135e5761135e6140c9565b634e487b7160e01b600052603260045260246000fd5b60006001820161411a5761411a6140c9565b5060010190565b602080825260159082015274149958dbdc9908191bd95cc81b9bdd08195e1a5cdd605a1b604082015260600190565b602080825260159082015274496e76616c6964206f776e6572206164647265737360581b604082015260600190565b60609190911b6bffffffffffffffffffffffff1916815260140190565b60006bffffffffffffffffffffffff19808760601b168352808660601b1660148401525083516141d3816028850160208801613753565b6028920191820192909252604801949350505050565b601f82111561423357600081815260208120601f850160051c810160208610156142105750805b601f850160051c820191505b8181101561422f5782815560010161421c565b5050505b505050565b81516001600160401b0381111561425157614251613601565b6142658161425f845461408f565b846141e9565b602080601f83116001811461429a57600084156142825750858301515b600019600386901b1c1916600185901b17855561422f565b600085815260208120601f198616915b828110156142c9578886015182559484019460019091019084016142aa565b50858210156142e75787850151600019600388901b60f8161c191681555b5050505050600190811b01905550565b60208082526028908201527f4f6e6c792073797374656d206f776e65722063616e2063616c6c207468697320604082015267333ab731ba34b7b760c11b606082015260800190565b60208082526030908201527f4f6e6c79206865616c7468636172652070726f7669646572732063616e20636160408201526f3636103a3434b990333ab731ba34b7b760811b606082015260800190565b614398826139a9565b60f89190911b815260010190565b60008083546143b48161408f565b600182811680156143cc57600181146143e157614410565b60ff1984168752821515830287019450614410565b8760005260208060002060005b858110156144075781548a8201529084019082016143ee565b50505082870194505b50929695505050505050565b60c08152600061442f60c0830189613777565b61443c60208401896137b9565b828103604084015261444e8188613777565b606084019690965250506080810192909252151560a0909101529392505050565b6020810161135e82846137b9565b6040815260006144906040830185613777565b9050826020830152939250505056fea264697066735822122033ff9f959d1c2bdbceece77e7f080b14dfbc76d566cf69b9abc71663c168885364736f6c63430008130033",
  "linkReferences": {},
  "deployedLinkReferences": {}
}