{
  "abi": [
    {
      "inputs": [
        {
          "internalType": "address",
          "name": "_registryAddress",
          "type": "address"
        },
        {
          "internalType": "address",
          "name": "_permissionAddress",
          "type": "address"
        },
        {
          "internalType": "address",
          "name": "_notificationManagerAddress",
          "type": "address"
        }
      ],
      "stateMutability": "nonpayable",
      "type": "constructor"
    },
    {
      "inputs": [
        {
          "internalType": "bytes32",
          "name": "userKey",
          "type": "bytes32"
        },
        {
          "internalType": "bytes32",
          "name": "key",
          "type": "bytes32"
        },
        {
          "internalType": "enum Metadata.DataType",
          "name": "dataType",
          "type": "uint8"
        },
        {
          "internalType": "bytes32",
          "name": "hashIndex",
          "type": "bytes32"
        },
        {
          "internalType": "bytes32",
          "name": "encKey",
          "type": "bytes32"
        }
      ],
      "name": "addEHRdata",
      "outputs": [],
      "stateMutability": "nonpayable",
      "type": "function"
    },
    {
      "inputs": [
        {
          "internalType": "bytes32",
          "name": "userKey",
          "type": "bytes32"
        }
      ],
      "name": "getPatientData",
      "outputs": [
        {
          "components": [
            {
              "internalType": "bytes32",
              "name": "key",
              "type": "bytes32"
            },
            {
              "internalType": "enum Metadata.DataType",
              "name": "dataType",
              "type": "uint8"
            },
            {
              "internalType": "bytes32",
              "name": "hashIndex",
              "type": "bytes32"
            },
            {
              "internalType": "bytes32",
              "name": "encKey",
              "type": "bytes32"
            }
          ],
          "internalType": "struct Metadata.Data[]",
          "name": "",
          "type": "tuple[]"
        }
      ],
      "stateMutability": "nonpayable",
      "type": "function"
    },
    {
      "inputs": [],
      "name": "notificationManager",
      "outputs": [
        {
          "internalType": "contract NotificationManager",
          "name": "",
          "type": "address"
        }
      ],
      "stateMutability": "view",
      "type": "function"
    },
    {
      "inputs": [
        {
          "internalType": "bytes32",
          "name": "",
          "type": "bytes32"
        },
        {
          "internalType": "uint256",
          "name": "",
          "type": "uint256"
        }
      ],
      "name": "patientData",
      "outputs": [
        {
          "internalType": "bytes32",
          "name": "key",
          "type": "bytes32"
        },
        {
          "internalType": "enum Metadata.DataType",
          "name": "dataType",
          "type": "uint8"
        },
        {
          "internalType": "bytes32",
          "name": "hashIndex",
          "type": "bytes32"
        },
        {
          "internalType": "bytes32",
          "name": "encKey",
          "type": "bytes32"
        }
      ],
      "stateMutability": "view",
      "type": "function"
    },
    {
      "inputs": [],
      "name": "permission",
      "outputs": [
        {
          "internalType": "contract Permission",
          "name": "",
          "type": "address"
        }
      ],
      "stateMutability": "view",
      "type": "function"
    },
    {
      "inputs": [],
      "name": "registry",
      "outputs": [
        {
          "internalType": "contract Registry",
          "name": "",
          "type": "address"
        }
      ],
      "stateMutability": "view",
      "type": "function"
    }
  ],
  "devdoc": {
    "kind": "dev",
    "methods": {},
    "version": 1
  },
  "evm": {
    "assembly": "    /* \"metadata.sol\":153:1670  contract Metadata {... */\n  mstore(0x40, 0x80)\n    /* \"metadata.sol\":544:872  constructor(... */\n  callvalue\n  dup1\n  iszero\n  tag_1\n  jumpi\n  0x00\n  dup1\n  revert\ntag_1:\n  pop\n  mload(0x40)\n  sub(codesize, bytecodeSize)\n  dup1\n  bytecodeSize\n  dup4\n  codecopy\n  dup2\n  dup2\n  add\n  0x40\n  mstore\n  dup2\n  add\n  swap1\n  tag_2\n  swap2\n  swap1\n  tag_3\n  jump\t// in\ntag_2:\n    /* \"metadata.sol\":712:728  _registryAddress */\n  dup3\n    /* \"metadata.sol\":692:700  registry */\n  0x00\n  dup1\n    /* \"metadata.sol\":692:729  registry = Registry(_registryAddress) */\n  0x0100\n  exp\n  dup2\n  sload\n  dup2\n  0xffffffffffffffffffffffffffffffffffffffff\n  mul\n  not\n  and\n  swap1\n  dup4\n  0xffffffffffffffffffffffffffffffffffffffff\n  and\n  mul\n  or\n  swap1\n  sstore\n  pop\n    /* \"metadata.sol\":764:782  _permissionAddress */\n  dup2\n    /* \"metadata.sol\":740:750  permission */\n  0x01\n  0x00\n    /* \"metadata.sol\":740:783  permission = Permission(_permissionAddress) */\n  0x0100\n  exp\n  dup2\n  sload\n  dup2\n  0xffffffffffffffffffffffffffffffffffffffff\n  mul\n  not\n  and\n  swap1\n  dup4\n  0xffffffffffffffffffffffffffffffffffffffff\n  and\n  mul\n  or\n  swap1\n  sstore\n  pop\n    /* \"metadata.sol\":836:863  _notificationManagerAddress */\n  dup1\n    /* \"metadata.sol\":794:813  notificationManager */\n  0x02\n  0x00\n    /* \"metadata.sol\":794:864  notificationManager = NotificationManager(_notificationManagerAddress) */\n  0x0100\n  exp\n  dup2\n  sload\n  dup2\n  0xffffffffffffffffffffffffffffffffffffffff\n  mul\n  not\n  and\n  swap1\n  dup4\n  0xffffffffffffffffffffffffffffffffffffffff\n  and\n  mul\n  or\n  swap1\n  sstore\n  pop\n    /* \"metadata.sol\":544:872  constructor(... */\n  pop\n  pop\n  pop\n    /* \"metadata.sol\":153:1670  contract Metadata {... */\n  jump(tag_6)\n    /* \"#utility.yul\":88:205   */\ntag_8:\n    /* \"#utility.yul\":197:198   */\n  0x00\n    /* \"#utility.yul\":194:195   */\n  dup1\n    /* \"#utility.yul\":187:199   */\n  revert\n    /* \"#utility.yul\":334:460   */\ntag_10:\n    /* \"#utility.yul\":371:378   */\n  0x00\n    /* \"#utility.yul\":411:453   */\n  0xffffffffffffffffffffffffffffffffffffffff\n    /* \"#utility.yul\":404:409   */\n  dup3\n    /* \"#utility.yul\":400:454   */\n  and\n    /* \"#utility.yul\":389:454   */\n  swap1\n  pop\n    /* \"#utility.yul\":334:460   */\n  swap2\n  swap1\n  pop\n  jump\t// out\n    /* \"#utility.yul\":466:562   */\ntag_11:\n    /* \"#utility.yul\":503:510   */\n  0x00\n    /* \"#utility.yul\":532:556   */\n  tag_20\n    /* \"#utility.yul\":550:555   */\n  dup3\n    /* \"#utility.yul\":532:556   */\n  tag_10\n  jump\t// in\ntag_20:\n    /* \"#utility.yul\":521:556   */\n  swap1\n  pop\n    /* \"#utility.yul\":466:562   */\n  swap2\n  swap1\n  pop\n  jump\t// out\n    /* \"#utility.yul\":568:690   */\ntag_12:\n    /* \"#utility.yul\":641:665   */\n  tag_22\n    /* \"#utility.yul\":659:664   */\n  dup2\n    /* \"#utility.yul\":641:665   */\n  tag_11\n  jump\t// in\ntag_22:\n    /* \"#utility.yul\":634:639   */\n  dup2\n    /* \"#utility.yul\":631:666   */\n  eq\n    /* \"#utility.yul\":621:684   */\n  tag_23\n  jumpi\n    /* \"#utility.yul\":680:681   */\n  0x00\n    /* \"#utility.yul\":677:678   */\n  dup1\n    /* \"#utility.yul\":670:682   */\n  revert\n    /* \"#utility.yul\":621:684   */\ntag_23:\n    /* \"#utility.yul\":568:690   */\n  pop\n  jump\t// out\n    /* \"#utility.yul\":696:839   */\ntag_13:\n    /* \"#utility.yul\":753:758   */\n  0x00\n    /* \"#utility.yul\":784:790   */\n  dup2\n    /* \"#utility.yul\":778:791   */\n  mload\n    /* \"#utility.yul\":769:791   */\n  swap1\n  pop\n    /* \"#utility.yul\":800:833   */\n  tag_25\n    /* \"#utility.yul\":827:832   */\n  dup2\n    /* \"#utility.yul\":800:833   */\n  tag_12\n  jump\t// in\ntag_25:\n    /* \"#utility.yul\":696:839   */\n  swap3\n  swap2\n  pop\n  pop\n  jump\t// out\n    /* \"#utility.yul\":845:1508   */\ntag_3:\n    /* \"#utility.yul\":933:939   */\n  0x00\n    /* \"#utility.yul\":941:947   */\n  dup1\n    /* \"#utility.yul\":949:955   */\n  0x00\n    /* \"#utility.yul\":998:1000   */\n  0x60\n    /* \"#utility.yul\":986:995   */\n  dup5\n    /* \"#utility.yul\":977:984   */\n  dup7\n    /* \"#utility.yul\":973:996   */\n  sub\n    /* \"#utility.yul\":969:1001   */\n  slt\n    /* \"#utility.yul\":966:1085   */\n  iszero\n  tag_27\n  jumpi\n    /* \"#utility.yul\":1004:1083   */\n  tag_28\n  tag_8\n  jump\t// in\ntag_28:\n    /* \"#utility.yul\":966:1085   */\ntag_27:\n    /* \"#utility.yul\":1124:1125   */\n  0x00\n    /* \"#utility.yul\":1149:1213   */\n  tag_29\n    /* \"#utility.yul\":1205:1212   */\n  dup7\n    /* \"#utility.yul\":1196:1202   */\n  dup3\n    /* \"#utility.yul\":1185:1194   */\n  dup8\n    /* \"#utility.yul\":1181:1203   */\n  add\n    /* \"#utility.yul\":1149:1213   */\n  tag_13\n  jump\t// in\ntag_29:\n    /* \"#utility.yul\":1139:1213   */\n  swap4\n  pop\n    /* \"#utility.yul\":1095:1223   */\n  pop\n    /* \"#utility.yul\":1262:1264   */\n  0x20\n    /* \"#utility.yul\":1288:1352   */\n  tag_30\n    /* \"#utility.yul\":1344:1351   */\n  dup7\n    /* \"#utility.yul\":1335:1341   */\n  dup3\n    /* \"#utility.yul\":1324:1333   */\n  dup8\n    /* \"#utility.yul\":1320:1342   */\n  add\n    /* \"#utility.yul\":1288:1352   */\n  tag_13\n  jump\t// in\ntag_30:\n    /* \"#utility.yul\":1278:1352   */\n  swap3\n  pop\n    /* \"#utility.yul\":1233:1362   */\n  pop\n    /* \"#utility.yul\":1401:1403   */\n  0x40\n    /* \"#utility.yul\":1427:1491   */\n  tag_31\n    /* \"#utility.yul\":1483:1490   */\n  dup7\n    /* \"#utility.yul\":1474:1480   */\n  dup3\n    /* \"#utility.yul\":1463:1472   */\n  dup8\n    /* \"#utility.yul\":1459:1481   */\n  add\n    /* \"#utility.yul\":1427:1491   */\n  tag_13\n  jump\t// in\ntag_31:\n    /* \"#utility.yul\":1417:1491   */\n  swap2\n  pop\n    /* \"#utility.yul\":1372:1501   */\n  pop\n    /* \"#utility.yul\":845:1508   */\n  swap3\n  pop\n  swap3\n  pop\n  swap3\n  jump\t// out\n    /* \"metadata.sol\":153:1670  contract Metadata {... */\ntag_6:\n  dataSize(sub_0)\n  dup1\n  dataOffset(sub_0)\n  0x00\n  codecopy\n  0x00\n  return\nstop\n\nsub_0: assembly {\n        /* \"metadata.sol\":153:1670  contract Metadata {... */\n      mstore(0x40, 0x80)\n      callvalue\n      dup1\n      iszero\n      tag_1\n      jumpi\n      0x00\n      dup1\n      revert\n    tag_1:\n      pop\n      jumpi(tag_2, lt(calldatasize, 0x04))\n      shr(0xe0, calldataload(0x00))\n      dup1\n      0x1d755579\n      eq\n      tag_3\n      jumpi\n      dup1\n      0x21bd17a0\n      eq\n      tag_4\n      jumpi\n      dup1\n      0x62a5fcf4\n      eq\n      tag_5\n      jumpi\n      dup1\n      0x7b103999\n      eq\n      tag_6\n      jumpi\n      dup1\n      0xd9248a84\n      eq\n      tag_7\n      jumpi\n      dup1\n      0xf3b0c8b7\n      eq\n      tag_8\n      jumpi\n    tag_2:\n      0x00\n      dup1\n      revert\n        /* \"metadata.sol\":244:290  NotificationManager public notificationManager */\n    tag_3:\n      tag_9\n      tag_10\n      jump\t// in\n    tag_9:\n      mload(0x40)\n      tag_11\n      swap2\n      swap1\n      tag_12\n      jump\t// in\n    tag_11:\n      mload(0x40)\n      dup1\n      swap2\n      sub\n      swap1\n      return\n        /* \"metadata.sol\":1346:1667  function getPatientData(bytes32 userKey) public returns (Data[] memory) {... */\n    tag_4:\n      tag_13\n      0x04\n      dup1\n      calldatasize\n      sub\n      dup2\n      add\n      swap1\n      tag_14\n      swap2\n      swap1\n      tag_15\n      jump\t// in\n    tag_14:\n      tag_16\n      jump\t// in\n    tag_13:\n      mload(0x40)\n      tag_17\n      swap2\n      swap1\n      tag_18\n      jump\t// in\n    tag_17:\n      mload(0x40)\n      dup1\n      swap2\n      sub\n      swap1\n      return\n        /* \"metadata.sol\":490:535  mapping(bytes32 => Data[]) public patientData */\n    tag_5:\n      tag_19\n      0x04\n      dup1\n      calldatasize\n      sub\n      dup2\n      add\n      swap1\n      tag_20\n      swap2\n      swap1\n      tag_21\n      jump\t// in\n    tag_20:\n      tag_22\n      jump\t// in\n    tag_19:\n      mload(0x40)\n      tag_23\n      swap5\n      swap4\n      swap3\n      swap2\n      swap1\n      tag_24\n      jump\t// in\n    tag_23:\n      mload(0x40)\n      dup1\n      swap2\n      sub\n      swap1\n      return\n        /* \"metadata.sol\":178:202  Registry public registry */\n    tag_6:\n      tag_25\n      tag_26\n      jump\t// in\n    tag_25:\n      mload(0x40)\n      tag_27\n      swap2\n      swap1\n      tag_28\n      jump\t// in\n    tag_27:\n      mload(0x40)\n      dup1\n      swap2\n      sub\n      swap1\n      return\n        /* \"metadata.sol\":880:1338  function addEHRdata(... */\n    tag_7:\n      tag_29\n      0x04\n      dup1\n      calldatasize\n      sub\n      dup2\n      add\n      swap1\n      tag_30\n      swap2\n      swap1\n      tag_31\n      jump\t// in\n    tag_30:\n      tag_32\n      jump\t// in\n    tag_29:\n      stop\n        /* \"metadata.sol\":209:237  Permission public permission */\n    tag_8:\n      tag_33\n      tag_34\n      jump\t// in\n    tag_33:\n      mload(0x40)\n      tag_35\n      swap2\n      swap1\n      tag_36\n      jump\t// in\n    tag_35:\n      mload(0x40)\n      dup1\n      swap2\n      sub\n      swap1\n      return\n        /* \"metadata.sol\":244:290  NotificationManager public notificationManager */\n    tag_10:\n      0x02\n      0x00\n      swap1\n      sload\n      swap1\n      0x0100\n      exp\n      swap1\n      div\n      0xffffffffffffffffffffffffffffffffffffffff\n      and\n      dup2\n      jump\t// out\n        /* \"metadata.sol\":1346:1667  function getPatientData(bytes32 userKey) public returns (Data[] memory) {... */\n    tag_16:\n        /* \"metadata.sol\":1403:1416  Data[] memory */\n      0x60\n        /* \"metadata.sol\":1451:1461  permission */\n      0x01\n      0x00\n      swap1\n      sload\n      swap1\n      0x0100\n      exp\n      swap1\n      div\n      0xffffffffffffffffffffffffffffffffffffffff\n      and\n        /* \"metadata.sol\":1451:1477  permission.checkPermission */\n      0xffffffffffffffffffffffffffffffffffffffff\n      and\n      0x4fb95bc6\n        /* \"metadata.sol\":1478:1485  userKey */\n      dup4\n        /* \"metadata.sol\":1487:1494  userKey */\n      dup5\n        /* \"metadata.sol\":1451:1495  permission.checkPermission(userKey, userKey) */\n      mload(0x40)\n      dup4\n      0xffffffff\n      and\n      0xe0\n      shl\n      dup2\n      mstore\n      0x04\n      add\n      tag_38\n      swap3\n      swap2\n      swap1\n      tag_39\n      jump\t// in\n    tag_38:\n      0x20\n      mload(0x40)\n      dup1\n      dup4\n      sub\n      dup2\n      dup7\n      gas\n      staticcall\n      iszero\n      dup1\n      iszero\n      tag_41\n      jumpi\n      returndatasize\n      0x00\n      dup1\n      returndatacopy\n      revert(0x00, returndatasize)\n    tag_41:\n      pop\n      pop\n      pop\n      pop\n      mload(0x40)\n      returndatasize\n      not(0x1f)\n      0x1f\n      dup3\n      add\n      and\n      dup3\n      add\n      dup1\n      0x40\n      mstore\n      pop\n      dup2\n      add\n      swap1\n      tag_42\n      swap2\n      swap1\n      tag_43\n      jump\t// in\n    tag_42:\n        /* \"metadata.sol\":1429:1537  require(... */\n      tag_44\n      jumpi\n      mload(0x40)\n      0x08c379a000000000000000000000000000000000000000000000000000000000\n      dup2\n      mstore\n      0x04\n      add\n      tag_45\n      swap1\n      tag_46\n      jump\t// in\n    tag_45:\n      mload(0x40)\n      dup1\n      swap2\n      sub\n      swap1\n      revert\n    tag_44:\n        /* \"metadata.sol\":1550:1569  notificationManager */\n      0x02\n      0x00\n      swap1\n      sload\n      swap1\n      0x0100\n      exp\n      swap1\n      div\n      0xffffffffffffffffffffffffffffffffffffffff\n      and\n        /* \"metadata.sol\":1550:1585  notificationManager.addNotification */\n      0xffffffffffffffffffffffffffffffffffffffff\n      and\n      0xa2cf0c56\n        /* \"metadata.sol\":1586:1593  userKey */\n      dup4\n        /* \"metadata.sol\":1550:1621  notificationManager.addNotification(userKey, \"Your data was accessed.\") */\n      mload(0x40)\n      dup3\n      0xffffffff\n      and\n      0xe0\n      shl\n      dup2\n      mstore\n      0x04\n      add\n      tag_47\n      swap2\n      swap1\n      tag_48\n      jump\t// in\n    tag_47:\n      0x00\n      mload(0x40)\n      dup1\n      dup4\n      sub\n      dup2\n      0x00\n      dup8\n      dup1\n      extcodesize\n      iszero\n      dup1\n      iszero\n      tag_49\n      jumpi\n      0x00\n      dup1\n      revert\n    tag_49:\n      pop\n      gas\n      call\n      iszero\n      dup1\n      iszero\n      tag_51\n      jumpi\n      returndatasize\n      0x00\n      dup1\n      returndatacopy\n      revert(0x00, returndatasize)\n    tag_51:\n      pop\n      pop\n      pop\n      pop\n        /* \"metadata.sol\":1639:1650  patientData */\n      0x03\n        /* \"metadata.sol\":1639:1659  patientData[userKey] */\n      0x00\n        /* \"metadata.sol\":1651:1658  userKey */\n      dup4\n        /* \"metadata.sol\":1639:1659  patientData[userKey] */\n      dup2\n      mstore\n      0x20\n      add\n      swap1\n      dup2\n      mstore\n      0x20\n      add\n      0x00\n      keccak256\n        /* \"metadata.sol\":1632:1659  return patientData[userKey] */\n      dup1\n      sload\n      dup1\n      0x20\n      mul\n      0x20\n      add\n      mload(0x40)\n      swap1\n      dup2\n      add\n      0x40\n      mstore\n      dup1\n      swap3\n      swap2\n      swap1\n      dup2\n      dup2\n      mstore\n      0x20\n      add\n      0x00\n      swap1\n    tag_52:\n      dup3\n      dup3\n      lt\n      iszero\n      tag_53\n      jumpi\n      dup4\n      dup3\n      swap1\n      0x00\n      mstore\n      keccak256(0x00, 0x20)\n      swap1\n      0x04\n      mul\n      add\n      mload(0x40)\n      dup1\n      0x80\n      add\n      0x40\n      mstore\n      swap1\n      dup2\n      0x00\n      dup3\n      add\n      sload\n      dup2\n      mstore\n      0x20\n      add\n      0x01\n      dup3\n      add\n      0x00\n      swap1\n      sload\n      swap1\n      0x0100\n      exp\n      swap1\n      div\n      0xff\n      and\n      0x03\n      dup2\n      gt\n      iszero\n      tag_55\n      jumpi\n      tag_56\n      tag_57\n      jump\t// in\n    tag_56:\n    tag_55:\n      0x03\n      dup2\n      gt\n      iszero\n      tag_58\n      jumpi\n      tag_59\n      tag_57\n      jump\t// in\n    tag_59:\n    tag_58:\n      dup2\n      mstore\n      0x20\n      add\n      0x02\n      dup3\n      add\n      sload\n      dup2\n      mstore\n      0x20\n      add\n      0x03\n      dup3\n      add\n      sload\n      dup2\n      mstore\n      pop\n      pop\n      dup2\n      mstore\n      0x20\n      add\n      swap1\n      0x01\n      add\n      swap1\n      jump(tag_52)\n    tag_53:\n      pop\n      pop\n      pop\n      pop\n      swap1\n      pop\n        /* \"metadata.sol\":1346:1667  function getPatientData(bytes32 userKey) public returns (Data[] memory) {... */\n      swap2\n      swap1\n      pop\n      jump\t// out\n        /* \"metadata.sol\":490:535  mapping(bytes32 => Data[]) public patientData */\n    tag_22:\n      mstore(0x20, 0x03)\n      dup2\n      0x00\n      mstore\n      keccak256(0x00, 0x40)\n      dup2\n      dup2\n      sload\n      dup2\n      lt\n      tag_60\n      jumpi\n      0x00\n      dup1\n      revert\n    tag_60:\n      swap1\n      0x00\n      mstore\n      keccak256(0x00, 0x20)\n      swap1\n      0x04\n      mul\n      add\n      0x00\n      swap2\n      pop\n      swap2\n      pop\n      pop\n      dup1\n      0x00\n      add\n      sload\n      swap1\n      dup1\n      0x01\n      add\n      0x00\n      swap1\n      sload\n      swap1\n      0x0100\n      exp\n      swap1\n      div\n      0xff\n      and\n      swap1\n      dup1\n      0x02\n      add\n      sload\n      swap1\n      dup1\n      0x03\n      add\n      sload\n      swap1\n      pop\n      dup5\n      jump\t// out\n        /* \"metadata.sol\":178:202  Registry public registry */\n    tag_26:\n      0x00\n      dup1\n      sload\n      swap1\n      0x0100\n      exp\n      swap1\n      div\n      0xffffffffffffffffffffffffffffffffffffffff\n      and\n      dup2\n      jump\t// out\n        /* \"metadata.sol\":880:1338  function addEHRdata(... */\n    tag_32:\n        /* \"metadata.sol\":1109:1135  Registry.Role.CareProvider */\n      0x01\n        /* \"metadata.sol\":1076:1135  registry.getUserRole(userKey) == Registry.Role.CareProvider */\n      0x03\n      dup2\n      gt\n      iszero\n      tag_63\n      jumpi\n      tag_64\n      tag_57\n      jump\t// in\n    tag_64:\n    tag_63:\n        /* \"metadata.sol\":1076:1084  registry */\n      0x00\n      dup1\n      sload\n      swap1\n      0x0100\n      exp\n      swap1\n      div\n      0xffffffffffffffffffffffffffffffffffffffff\n      and\n        /* \"metadata.sol\":1076:1096  registry.getUserRole */\n      0xffffffffffffffffffffffffffffffffffffffff\n      and\n      0xa95ceb64\n        /* \"metadata.sol\":1097:1104  userKey */\n      dup8\n        /* \"metadata.sol\":1076:1105  registry.getUserRole(userKey) */\n      mload(0x40)\n      dup3\n      0xffffffff\n      and\n      0xe0\n      shl\n      dup2\n      mstore\n      0x04\n      add\n      tag_65\n      swap2\n      swap1\n      tag_66\n      jump\t// in\n    tag_65:\n      0x20\n      mload(0x40)\n      dup1\n      dup4\n      sub\n      dup2\n      dup7\n      gas\n      staticcall\n      iszero\n      dup1\n      iszero\n      tag_68\n      jumpi\n      returndatasize\n      0x00\n      dup1\n      returndatacopy\n      revert(0x00, returndatasize)\n    tag_68:\n      pop\n      pop\n      pop\n      pop\n      mload(0x40)\n      returndatasize\n      not(0x1f)\n      0x1f\n      dup3\n      add\n      and\n      dup3\n      add\n      dup1\n      0x40\n      mstore\n      pop\n      dup2\n      add\n      swap1\n      tag_69\n      swap2\n      swap1\n      tag_70\n      jump\t// in\n    tag_69:\n        /* \"metadata.sol\":1076:1135  registry.getUserRole(userKey) == Registry.Role.CareProvider */\n      0x03\n      dup2\n      gt\n      iszero\n      tag_71\n      jumpi\n      tag_72\n      tag_57\n      jump\t// in\n    tag_72:\n    tag_71:\n      eq\n        /* \"metadata.sol\":1054:1178  require(... */\n      tag_73\n      jumpi\n      mload(0x40)\n      0x08c379a000000000000000000000000000000000000000000000000000000000\n      dup2\n      mstore\n      0x04\n      add\n      tag_74\n      swap1\n      tag_75\n      jump\t// in\n    tag_74:\n      mload(0x40)\n      dup1\n      swap2\n      sub\n      swap1\n      revert\n    tag_73:\n        /* \"metadata.sol\":1191:1202  patientData */\n      0x03\n        /* \"metadata.sol\":1191:1211  patientData[userKey] */\n      0x00\n        /* \"metadata.sol\":1203:1210  userKey */\n      dup7\n        /* \"metadata.sol\":1191:1211  patientData[userKey] */\n      dup2\n      mstore\n      0x20\n      add\n      swap1\n      dup2\n      mstore\n      0x20\n      add\n      0x00\n      keccak256\n        /* \"metadata.sol\":1217:1255  Data(key, dataType, hashIndex, encKey) */\n      mload(0x40)\n      dup1\n      0x80\n      add\n      0x40\n      mstore\n      dup1\n        /* \"metadata.sol\":1222:1225  key */\n      dup7\n        /* \"metadata.sol\":1217:1255  Data(key, dataType, hashIndex, encKey) */\n      dup2\n      mstore\n      0x20\n      add\n        /* \"metadata.sol\":1227:1235  dataType */\n      dup6\n        /* \"metadata.sol\":1217:1255  Data(key, dataType, hashIndex, encKey) */\n      0x03\n      dup2\n      gt\n      iszero\n      tag_76\n      jumpi\n      tag_77\n      tag_57\n      jump\t// in\n    tag_77:\n    tag_76:\n      dup2\n      mstore\n      0x20\n      add\n        /* \"metadata.sol\":1237:1246  hashIndex */\n      dup5\n        /* \"metadata.sol\":1217:1255  Data(key, dataType, hashIndex, encKey) */\n      dup2\n      mstore\n      0x20\n      add\n        /* \"metadata.sol\":1248:1254  encKey */\n      dup4\n        /* \"metadata.sol\":1217:1255  Data(key, dataType, hashIndex, encKey) */\n      dup2\n      mstore\n      pop\n        /* \"metadata.sol\":1191:1256  patientData[userKey].push(Data(key, dataType, hashIndex, encKey)) */\n      swap1\n      dup1\n      0x01\n      dup2\n      sload\n      add\n      dup1\n      dup3\n      sstore\n      dup1\n      swap2\n      pop\n      pop\n      0x01\n      swap1\n      sub\n      swap1\n      0x00\n      mstore\n      keccak256(0x00, 0x20)\n      swap1\n      0x04\n      mul\n      add\n      0x00\n      swap1\n      swap2\n      swap1\n      swap2\n      swap1\n      swap2\n      pop\n      0x00\n      dup3\n      add\n      mload\n      dup2\n      0x00\n      add\n      sstore\n      0x20\n      dup3\n      add\n      mload\n      dup2\n      0x01\n      add\n      exp(0x0100, 0x00)\n      dup2\n      sload\n      dup2\n      0xff\n      mul\n      not\n      and\n      swap1\n      dup4\n      0x03\n      dup2\n      gt\n      iszero\n      tag_79\n      jumpi\n      tag_80\n      tag_57\n      jump\t// in\n    tag_80:\n    tag_79:\n      mul\n      or\n      swap1\n      sstore\n      pop\n      0x40\n      dup3\n      add\n      mload\n      dup2\n      0x02\n      add\n      sstore\n      0x60\n      dup3\n      add\n      mload\n      dup2\n      0x03\n      add\n      sstore\n      pop\n      pop\n        /* \"metadata.sol\":1267:1286  notificationManager */\n      0x02\n      0x00\n      swap1\n      sload\n      swap1\n      0x0100\n      exp\n      swap1\n      div\n      0xffffffffffffffffffffffffffffffffffffffff\n      and\n        /* \"metadata.sol\":1267:1302  notificationManager.addNotification */\n      0xffffffffffffffffffffffffffffffffffffffff\n      and\n      0xa2cf0c56\n        /* \"metadata.sol\":1303:1310  userKey */\n      dup7\n        /* \"metadata.sol\":1267:1330  notificationManager.addNotification(userKey, \"New data added.\") */\n      mload(0x40)\n      dup3\n      0xffffffff\n      and\n      0xe0\n      shl\n      dup2\n      mstore\n      0x04\n      add\n      tag_81\n      swap2\n      swap1\n      tag_82\n      jump\t// in\n    tag_81:\n      0x00\n      mload(0x40)\n      dup1\n      dup4\n      sub\n      dup2\n      0x00\n      dup8\n      dup1\n      extcodesize\n      iszero\n      dup1\n      iszero\n      tag_83\n      jumpi\n      0x00\n      dup1\n      revert\n    tag_83:\n      pop\n      gas\n      call\n      iszero\n      dup1\n      iszero\n      tag_85\n      jumpi\n      returndatasize\n      0x00\n      dup1\n      returndatacopy\n      revert(0x00, returndatasize)\n    tag_85:\n      pop\n      pop\n      pop\n      pop\n        /* \"metadata.sol\":880:1338  function addEHRdata(... */\n      pop\n      pop\n      pop\n      pop\n      pop\n      jump\t// out\n        /* \"metadata.sol\":209:237  Permission public permission */\n    tag_34:\n      0x01\n      0x00\n      swap1\n      sload\n      swap1\n      0x0100\n      exp\n      swap1\n      div\n      0xffffffffffffffffffffffffffffffffffffffff\n      and\n      dup2\n      jump\t// out\n        /* \"#utility.yul\":7:133   */\n    tag_86:\n        /* \"#utility.yul\":44:51   */\n      0x00\n        /* \"#utility.yul\":84:126   */\n      0xffffffffffffffffffffffffffffffffffffffff\n        /* \"#utility.yul\":77:82   */\n      dup3\n        /* \"#utility.yul\":73:127   */\n      and\n        /* \"#utility.yul\":62:127   */\n      swap1\n      pop\n        /* \"#utility.yul\":7:133   */\n      swap2\n      swap1\n      pop\n      jump\t// out\n        /* \"#utility.yul\":139:199   */\n    tag_87:\n        /* \"#utility.yul\":167:170   */\n      0x00\n        /* \"#utility.yul\":188:193   */\n      dup2\n        /* \"#utility.yul\":181:193   */\n      swap1\n      pop\n        /* \"#utility.yul\":139:199   */\n      swap2\n      swap1\n      pop\n      jump\t// out\n        /* \"#utility.yul\":205:347   */\n    tag_88:\n        /* \"#utility.yul\":255:264   */\n      0x00\n        /* \"#utility.yul\":288:341   */\n      tag_139\n        /* \"#utility.yul\":306:340   */\n      tag_140\n        /* \"#utility.yul\":315:339   */\n      tag_141\n        /* \"#utility.yul\":333:338   */\n      dup5\n        /* \"#utility.yul\":315:339   */\n      tag_86\n      jump\t// in\n    tag_141:\n        /* \"#utility.yul\":306:340   */\n      tag_87\n      jump\t// in\n    tag_140:\n        /* \"#utility.yul\":288:341   */\n      tag_86\n      jump\t// in\n    tag_139:\n        /* \"#utility.yul\":275:341   */\n      swap1\n      pop\n        /* \"#utility.yul\":205:347   */\n      swap2\n      swap1\n      pop\n      jump\t// out\n        /* \"#utility.yul\":353:479   */\n    tag_89:\n        /* \"#utility.yul\":403:412   */\n      0x00\n        /* \"#utility.yul\":436:473   */\n      tag_143\n        /* \"#utility.yul\":467:472   */\n      dup3\n        /* \"#utility.yul\":436:473   */\n      tag_88\n      jump\t// in\n    tag_143:\n        /* \"#utility.yul\":423:473   */\n      swap1\n      pop\n        /* \"#utility.yul\":353:479   */\n      swap2\n      swap1\n      pop\n      jump\t// out\n        /* \"#utility.yul\":485:637   */\n    tag_90:\n        /* \"#utility.yul\":561:570   */\n      0x00\n        /* \"#utility.yul\":594:631   */\n      tag_145\n        /* \"#utility.yul\":625:630   */\n      dup3\n        /* \"#utility.yul\":594:631   */\n      tag_89\n      jump\t// in\n    tag_145:\n        /* \"#utility.yul\":581:631   */\n      swap1\n      pop\n        /* \"#utility.yul\":485:637   */\n      swap2\n      swap1\n      pop\n      jump\t// out\n        /* \"#utility.yul\":643:826   */\n    tag_91:\n        /* \"#utility.yul\":756:819   */\n      tag_147\n        /* \"#utility.yul\":813:818   */\n      dup2\n        /* \"#utility.yul\":756:819   */\n      tag_90\n      jump\t// in\n    tag_147:\n        /* \"#utility.yul\":751:754   */\n      dup3\n        /* \"#utility.yul\":744:820   */\n      mstore\n        /* \"#utility.yul\":643:826   */\n      pop\n      pop\n      jump\t// out\n        /* \"#utility.yul\":832:1106   */\n    tag_12:\n        /* \"#utility.yul\":951:955   */\n      0x00\n        /* \"#utility.yul\":989:991   */\n      0x20\n        /* \"#utility.yul\":978:987   */\n      dup3\n        /* \"#utility.yul\":974:992   */\n      add\n        /* \"#utility.yul\":966:992   */\n      swap1\n      pop\n        /* \"#utility.yul\":1002:1099   */\n      tag_149\n        /* \"#utility.yul\":1096:1097   */\n      0x00\n        /* \"#utility.yul\":1085:1094   */\n      dup4\n        /* \"#utility.yul\":1081:1098   */\n      add\n        /* \"#utility.yul\":1072:1078   */\n      dup5\n        /* \"#utility.yul\":1002:1099   */\n      tag_91\n      jump\t// in\n    tag_149:\n        /* \"#utility.yul\":832:1106   */\n      swap3\n      swap2\n      pop\n      pop\n      jump\t// out\n        /* \"#utility.yul\":1193:1310   */\n    tag_93:\n        /* \"#utility.yul\":1302:1303   */\n      0x00\n        /* \"#utility.yul\":1299:1300   */\n      dup1\n        /* \"#utility.yul\":1292:1304   */\n      revert\n        /* \"#utility.yul\":1439:1516   */\n    tag_95:\n        /* \"#utility.yul\":1476:1483   */\n      0x00\n        /* \"#utility.yul\":1505:1510   */\n      dup2\n        /* \"#utility.yul\":1494:1510   */\n      swap1\n      pop\n        /* \"#utility.yul\":1439:1516   */\n      swap2\n      swap1\n      pop\n      jump\t// out\n        /* \"#utility.yul\":1522:1644   */\n    tag_96:\n        /* \"#utility.yul\":1595:1619   */\n      tag_155\n        /* \"#utility.yul\":1613:1618   */\n      dup2\n        /* \"#utility.yul\":1595:1619   */\n      tag_95\n      jump\t// in\n    tag_155:\n        /* \"#utility.yul\":1588:1593   */\n      dup2\n        /* \"#utility.yul\":1585:1620   */\n      eq\n        /* \"#utility.yul\":1575:1638   */\n      tag_156\n      jumpi\n        /* \"#utility.yul\":1634:1635   */\n      0x00\n        /* \"#utility.yul\":1631:1632   */\n      dup1\n        /* \"#utility.yul\":1624:1636   */\n      revert\n        /* \"#utility.yul\":1575:1638   */\n    tag_156:\n        /* \"#utility.yul\":1522:1644   */\n      pop\n      jump\t// out\n        /* \"#utility.yul\":1650:1789   */\n    tag_97:\n        /* \"#utility.yul\":1696:1701   */\n      0x00\n        /* \"#utility.yul\":1734:1740   */\n      dup2\n        /* \"#utility.yul\":1721:1741   */\n      calldataload\n        /* \"#utility.yul\":1712:1741   */\n      swap1\n      pop\n        /* \"#utility.yul\":1750:1783   */\n      tag_158\n        /* \"#utility.yul\":1777:1782   */\n      dup2\n        /* \"#utility.yul\":1750:1783   */\n      tag_96\n      jump\t// in\n    tag_158:\n        /* \"#utility.yul\":1650:1789   */\n      swap3\n      swap2\n      pop\n      pop\n      jump\t// out\n        /* \"#utility.yul\":1795:2124   */\n    tag_15:\n        /* \"#utility.yul\":1854:1860   */\n      0x00\n        /* \"#utility.yul\":1903:1905   */\n      0x20\n        /* \"#utility.yul\":1891:1900   */\n      dup3\n        /* \"#utility.yul\":1882:1889   */\n      dup5\n        /* \"#utility.yul\":1878:1901   */\n      sub\n        /* \"#utility.yul\":1874:1906   */\n      slt\n        /* \"#utility.yul\":1871:1990   */\n      iszero\n      tag_160\n      jumpi\n        /* \"#utility.yul\":1909:1988   */\n      tag_161\n      tag_93\n      jump\t// in\n    tag_161:\n        /* \"#utility.yul\":1871:1990   */\n    tag_160:\n        /* \"#utility.yul\":2029:2030   */\n      0x00\n        /* \"#utility.yul\":2054:2107   */\n      tag_162\n        /* \"#utility.yul\":2099:2106   */\n      dup5\n        /* \"#utility.yul\":2090:2096   */\n      dup3\n        /* \"#utility.yul\":2079:2088   */\n      dup6\n        /* \"#utility.yul\":2075:2097   */\n      add\n        /* \"#utility.yul\":2054:2107   */\n      tag_97\n      jump\t// in\n    tag_162:\n        /* \"#utility.yul\":2044:2107   */\n      swap2\n      pop\n        /* \"#utility.yul\":2000:2117   */\n      pop\n        /* \"#utility.yul\":1795:2124   */\n      swap3\n      swap2\n      pop\n      pop\n      jump\t// out\n        /* \"#utility.yul\":2130:2264   */\n    tag_98:\n        /* \"#utility.yul\":2217:2223   */\n      0x00\n        /* \"#utility.yul\":2251:2256   */\n      dup2\n        /* \"#utility.yul\":2245:2257   */\n      mload\n        /* \"#utility.yul\":2235:2257   */\n      swap1\n      pop\n        /* \"#utility.yul\":2130:2264   */\n      swap2\n      swap1\n      pop\n      jump\t// out\n        /* \"#utility.yul\":2270:2474   */\n    tag_99:\n        /* \"#utility.yul\":2389:2400   */\n      0x00\n        /* \"#utility.yul\":2423:2429   */\n      dup3\n        /* \"#utility.yul\":2418:2421   */\n      dup3\n        /* \"#utility.yul\":2411:2430   */\n      mstore\n        /* \"#utility.yul\":2463:2467   */\n      0x20\n        /* \"#utility.yul\":2458:2461   */\n      dup3\n        /* \"#utility.yul\":2454:2468   */\n      add\n        /* \"#utility.yul\":2439:2468   */\n      swap1\n      pop\n        /* \"#utility.yul\":2270:2474   */\n      swap3\n      swap2\n      pop\n      pop\n      jump\t// out\n        /* \"#utility.yul\":2480:2632   */\n    tag_100:\n        /* \"#utility.yul\":2567:2571   */\n      0x00\n        /* \"#utility.yul\":2590:2593   */\n      dup2\n        /* \"#utility.yul\":2582:2593   */\n      swap1\n      pop\n        /* \"#utility.yul\":2620:2624   */\n      0x20\n        /* \"#utility.yul\":2615:2618   */\n      dup3\n        /* \"#utility.yul\":2611:2625   */\n      add\n        /* \"#utility.yul\":2603:2625   */\n      swap1\n      pop\n        /* \"#utility.yul\":2480:2632   */\n      swap2\n      swap1\n      pop\n      jump\t// out\n        /* \"#utility.yul\":2638:2746   */\n    tag_101:\n        /* \"#utility.yul\":2715:2739   */\n      tag_167\n        /* \"#utility.yul\":2733:2738   */\n      dup2\n        /* \"#utility.yul\":2715:2739   */\n      tag_95\n      jump\t// in\n    tag_167:\n        /* \"#utility.yul\":2710:2713   */\n      dup3\n        /* \"#utility.yul\":2703:2740   */\n      mstore\n        /* \"#utility.yul\":2638:2746   */\n      pop\n      pop\n      jump\t// out\n        /* \"#utility.yul\":2752:2932   */\n    tag_57:\n        /* \"#utility.yul\":2800:2877   */\n      0x4e487b7100000000000000000000000000000000000000000000000000000000\n        /* \"#utility.yul\":2797:2798   */\n      0x00\n        /* \"#utility.yul\":2790:2878   */\n      mstore\n        /* \"#utility.yul\":2897:2901   */\n      0x21\n        /* \"#utility.yul\":2894:2895   */\n      0x04\n        /* \"#utility.yul\":2887:2902   */\n      mstore\n        /* \"#utility.yul\":2921:2925   */\n      0x24\n        /* \"#utility.yul\":2918:2919   */\n      0x00\n        /* \"#utility.yul\":2911:2926   */\n      revert\n        /* \"#utility.yul\":2938:3054   */\n    tag_102:\n        /* \"#utility.yul\":3022:3023   */\n      0x04\n        /* \"#utility.yul\":3015:3020   */\n      dup2\n        /* \"#utility.yul\":3012:3024   */\n      lt\n        /* \"#utility.yul\":3002:3048   */\n      tag_170\n      jumpi\n        /* \"#utility.yul\":3028:3046   */\n      tag_171\n      tag_57\n      jump\t// in\n    tag_171:\n        /* \"#utility.yul\":3002:3048   */\n    tag_170:\n        /* \"#utility.yul\":2938:3054   */\n      pop\n      jump\t// out\n        /* \"#utility.yul\":3060:3193   */\n    tag_103:\n        /* \"#utility.yul\":3108:3115   */\n      0x00\n        /* \"#utility.yul\":3137:3142   */\n      dup2\n        /* \"#utility.yul\":3126:3142   */\n      swap1\n      pop\n        /* \"#utility.yul\":3143:3187   */\n      tag_173\n        /* \"#utility.yul\":3181:3186   */\n      dup3\n        /* \"#utility.yul\":3143:3187   */\n      tag_102\n      jump\t// in\n    tag_173:\n        /* \"#utility.yul\":3060:3193   */\n      swap2\n      swap1\n      pop\n      jump\t// out\n        /* \"#utility.yul\":3199:3332   */\n    tag_104:\n        /* \"#utility.yul\":3258:3267   */\n      0x00\n        /* \"#utility.yul\":3291:3326   */\n      tag_175\n        /* \"#utility.yul\":3320:3325   */\n      dup3\n        /* \"#utility.yul\":3291:3326   */\n      tag_103\n      jump\t// in\n    tag_175:\n        /* \"#utility.yul\":3278:3326   */\n      swap1\n      pop\n        /* \"#utility.yul\":3199:3332   */\n      swap2\n      swap1\n      pop\n      jump\t// out\n        /* \"#utility.yul\":3338:3477   */\n    tag_105:\n        /* \"#utility.yul\":3424:3470   */\n      tag_177\n        /* \"#utility.yul\":3464:3469   */\n      dup2\n        /* \"#utility.yul\":3424:3470   */\n      tag_104\n      jump\t// in\n    tag_177:\n        /* \"#utility.yul\":3419:3422   */\n      dup3\n        /* \"#utility.yul\":3412:3471   */\n      mstore\n        /* \"#utility.yul\":3338:3477   */\n      pop\n      pop\n      jump\t// out\n        /* \"#utility.yul\":3535:4389   */\n    tag_106:\n        /* \"#utility.yul\":3662:3666   */\n      0x80\n        /* \"#utility.yul\":3657:3660   */\n      dup3\n        /* \"#utility.yul\":3653:3667   */\n      add\n        /* \"#utility.yul\":3748:3752   */\n      0x00\n        /* \"#utility.yul\":3741:3746   */\n      dup3\n        /* \"#utility.yul\":3737:3753   */\n      add\n        /* \"#utility.yul\":3731:3754   */\n      mload\n        /* \"#utility.yul\":3767:3830   */\n      tag_179\n        /* \"#utility.yul\":3824:3828   */\n      0x00\n        /* \"#utility.yul\":3819:3822   */\n      dup6\n        /* \"#utility.yul\":3815:3829   */\n      add\n        /* \"#utility.yul\":3801:3813   */\n      dup3\n        /* \"#utility.yul\":3767:3830   */\n      tag_101\n      jump\t// in\n    tag_179:\n        /* \"#utility.yul\":3677:3840   */\n      pop\n        /* \"#utility.yul\":3926:3930   */\n      0x20\n        /* \"#utility.yul\":3919:3924   */\n      dup3\n        /* \"#utility.yul\":3915:3931   */\n      add\n        /* \"#utility.yul\":3909:3932   */\n      mload\n        /* \"#utility.yul\":3945:4017   */\n      tag_180\n        /* \"#utility.yul\":4011:4015   */\n      0x20\n        /* \"#utility.yul\":4006:4009   */\n      dup6\n        /* \"#utility.yul\":4002:4016   */\n      add\n        /* \"#utility.yul\":3988:4000   */\n      dup3\n        /* \"#utility.yul\":3945:4017   */\n      tag_105\n      jump\t// in\n    tag_180:\n        /* \"#utility.yul\":3850:4027   */\n      pop\n        /* \"#utility.yul\":4114:4118   */\n      0x40\n        /* \"#utility.yul\":4107:4112   */\n      dup3\n        /* \"#utility.yul\":4103:4119   */\n      add\n        /* \"#utility.yul\":4097:4120   */\n      mload\n        /* \"#utility.yul\":4133:4196   */\n      tag_181\n        /* \"#utility.yul\":4190:4194   */\n      0x40\n        /* \"#utility.yul\":4185:4188   */\n      dup6\n        /* \"#utility.yul\":4181:4195   */\n      add\n        /* \"#utility.yul\":4167:4179   */\n      dup3\n        /* \"#utility.yul\":4133:4196   */\n      tag_101\n      jump\t// in\n    tag_181:\n        /* \"#utility.yul\":4037:4206   */\n      pop\n        /* \"#utility.yul\":4290:4294   */\n      0x60\n        /* \"#utility.yul\":4283:4288   */\n      dup3\n        /* \"#utility.yul\":4279:4295   */\n      add\n        /* \"#utility.yul\":4273:4296   */\n      mload\n        /* \"#utility.yul\":4309:4372   */\n      tag_182\n        /* \"#utility.yul\":4366:4370   */\n      0x60\n        /* \"#utility.yul\":4361:4364   */\n      dup6\n        /* \"#utility.yul\":4357:4371   */\n      add\n        /* \"#utility.yul\":4343:4355   */\n      dup3\n        /* \"#utility.yul\":4309:4372   */\n      tag_101\n      jump\t// in\n    tag_182:\n        /* \"#utility.yul\":4216:4382   */\n      pop\n        /* \"#utility.yul\":3631:4389   */\n      pop\n        /* \"#utility.yul\":3535:4389   */\n      pop\n      pop\n      jump\t// out\n        /* \"#utility.yul\":4395:4654   */\n    tag_107:\n        /* \"#utility.yul\":4504:4514   */\n      0x00\n        /* \"#utility.yul\":4525:4611   */\n      tag_184\n        /* \"#utility.yul\":4607:4610   */\n      dup4\n        /* \"#utility.yul\":4599:4605   */\n      dup4\n        /* \"#utility.yul\":4525:4611   */\n      tag_106\n      jump\t// in\n    tag_184:\n        /* \"#utility.yul\":4643:4647   */\n      0x80\n        /* \"#utility.yul\":4638:4641   */\n      dup4\n        /* \"#utility.yul\":4634:4648   */\n      add\n        /* \"#utility.yul\":4620:4648   */\n      swap1\n      pop\n        /* \"#utility.yul\":4395:4654   */\n      swap3\n      swap2\n      pop\n      pop\n      jump\t// out\n        /* \"#utility.yul\":4660:4793   */\n    tag_108:\n        /* \"#utility.yul\":4750:4754   */\n      0x00\n        /* \"#utility.yul\":4782:4786   */\n      0x20\n        /* \"#utility.yul\":4777:4780   */\n      dup3\n        /* \"#utility.yul\":4773:4787   */\n      add\n        /* \"#utility.yul\":4765:4787   */\n      swap1\n      pop\n        /* \"#utility.yul\":4660:4793   */\n      swap2\n      swap1\n      pop\n      jump\t// out\n        /* \"#utility.yul\":4855:5747   */\n    tag_109:\n        /* \"#utility.yul\":5014:5017   */\n      0x00\n        /* \"#utility.yul\":5043:5117   */\n      tag_187\n        /* \"#utility.yul\":5111:5116   */\n      dup3\n        /* \"#utility.yul\":5043:5117   */\n      tag_98\n      jump\t// in\n    tag_187:\n        /* \"#utility.yul\":5133:5239   */\n      tag_188\n        /* \"#utility.yul\":5232:5238   */\n      dup2\n        /* \"#utility.yul\":5227:5230   */\n      dup6\n        /* \"#utility.yul\":5133:5239   */\n      tag_99\n      jump\t// in\n    tag_188:\n        /* \"#utility.yul\":5126:5239   */\n      swap4\n      pop\n        /* \"#utility.yul\":5263:5339   */\n      tag_189\n        /* \"#utility.yul\":5333:5338   */\n      dup4\n        /* \"#utility.yul\":5263:5339   */\n      tag_100\n      jump\t// in\n    tag_189:\n        /* \"#utility.yul\":5362:5369   */\n      dup1\n        /* \"#utility.yul\":5393:5394   */\n      0x00\n        /* \"#utility.yul\":5378:5722   */\n    tag_190:\n        /* \"#utility.yul\":5403:5409   */\n      dup4\n        /* \"#utility.yul\":5400:5401   */\n      dup2\n        /* \"#utility.yul\":5397:5410   */\n      lt\n        /* \"#utility.yul\":5378:5722   */\n      iszero\n      tag_192\n      jumpi\n        /* \"#utility.yul\":5479:5485   */\n      dup2\n        /* \"#utility.yul\":5473:5486   */\n      mload\n        /* \"#utility.yul\":5506:5609   */\n      tag_193\n        /* \"#utility.yul\":5605:5608   */\n      dup9\n        /* \"#utility.yul\":5590:5603   */\n      dup3\n        /* \"#utility.yul\":5506:5609   */\n      tag_107\n      jump\t// in\n    tag_193:\n        /* \"#utility.yul\":5499:5609   */\n      swap8\n      pop\n        /* \"#utility.yul\":5632:5712   */\n      tag_194\n        /* \"#utility.yul\":5705:5711   */\n      dup4\n        /* \"#utility.yul\":5632:5712   */\n      tag_108\n      jump\t// in\n    tag_194:\n        /* \"#utility.yul\":5622:5712   */\n      swap3\n      pop\n        /* \"#utility.yul\":5438:5722   */\n      pop\n        /* \"#utility.yul\":5425:5426   */\n      0x01\n        /* \"#utility.yul\":5422:5423   */\n      dup2\n        /* \"#utility.yul\":5418:5427   */\n      add\n        /* \"#utility.yul\":5413:5427   */\n      swap1\n      pop\n        /* \"#utility.yul\":5378:5722   */\n      jump(tag_190)\n    tag_192:\n        /* \"#utility.yul\":5382:5396   */\n      pop\n        /* \"#utility.yul\":5738:5741   */\n      dup6\n        /* \"#utility.yul\":5731:5741   */\n      swap4\n      pop\n        /* \"#utility.yul\":5019:5747   */\n      pop\n      pop\n      pop\n        /* \"#utility.yul\":4855:5747   */\n      swap3\n      swap2\n      pop\n      pop\n      jump\t// out\n        /* \"#utility.yul\":5753:6206   */\n    tag_18:\n        /* \"#utility.yul\":5936:5940   */\n      0x00\n        /* \"#utility.yul\":5974:5976   */\n      0x20\n        /* \"#utility.yul\":5963:5972   */\n      dup3\n        /* \"#utility.yul\":5959:5977   */\n      add\n        /* \"#utility.yul\":5951:5977   */\n      swap1\n      pop\n        /* \"#utility.yul\":6023:6032   */\n      dup2\n        /* \"#utility.yul\":6017:6021   */\n      dup2\n        /* \"#utility.yul\":6013:6033   */\n      sub\n        /* \"#utility.yul\":6009:6010   */\n      0x00\n        /* \"#utility.yul\":5998:6007   */\n      dup4\n        /* \"#utility.yul\":5994:6011   */\n      add\n        /* \"#utility.yul\":5987:6034   */\n      mstore\n        /* \"#utility.yul\":6051:6199   */\n      tag_196\n        /* \"#utility.yul\":6194:6198   */\n      dup2\n        /* \"#utility.yul\":6185:6191   */\n      dup5\n        /* \"#utility.yul\":6051:6199   */\n      tag_109\n      jump\t// in\n    tag_196:\n        /* \"#utility.yul\":6043:6199   */\n      swap1\n      pop\n        /* \"#utility.yul\":5753:6206   */\n      swap3\n      swap2\n      pop\n      pop\n      jump\t// out\n        /* \"#utility.yul\":6212:6289   */\n    tag_110:\n        /* \"#utility.yul\":6249:6256   */\n      0x00\n        /* \"#utility.yul\":6278:6283   */\n      dup2\n        /* \"#utility.yul\":6267:6283   */\n      swap1\n      pop\n        /* \"#utility.yul\":6212:6289   */\n      swap2\n      swap1\n      pop\n      jump\t// out\n        /* \"#utility.yul\":6295:6417   */\n    tag_111:\n        /* \"#utility.yul\":6368:6392   */\n      tag_199\n        /* \"#utility.yul\":6386:6391   */\n      dup2\n        /* \"#utility.yul\":6368:6392   */\n      tag_110\n      jump\t// in\n    tag_199:\n        /* \"#utility.yul\":6361:6366   */\n      dup2\n        /* \"#utility.yul\":6358:6393   */\n      eq\n        /* \"#utility.yul\":6348:6411   */\n      tag_200\n      jumpi\n        /* \"#utility.yul\":6407:6408   */\n      0x00\n        /* \"#utility.yul\":6404:6405   */\n      dup1\n        /* \"#utility.yul\":6397:6409   */\n      revert\n        /* \"#utility.yul\":6348:6411   */\n    tag_200:\n        /* \"#utility.yul\":6295:6417   */\n      pop\n      jump\t// out\n        /* \"#utility.yul\":6423:6562   */\n    tag_112:\n        /* \"#utility.yul\":6469:6474   */\n      0x00\n        /* \"#utility.yul\":6507:6513   */\n      dup2\n        /* \"#utility.yul\":6494:6514   */\n      calldataload\n        /* \"#utility.yul\":6485:6514   */\n      swap1\n      pop\n        /* \"#utility.yul\":6523:6556   */\n      tag_202\n        /* \"#utility.yul\":6550:6555   */\n      dup2\n        /* \"#utility.yul\":6523:6556   */\n      tag_111\n      jump\t// in\n    tag_202:\n        /* \"#utility.yul\":6423:6562   */\n      swap3\n      swap2\n      pop\n      pop\n      jump\t// out\n        /* \"#utility.yul\":6568:7042   */\n    tag_21:\n        /* \"#utility.yul\":6636:6642   */\n      0x00\n        /* \"#utility.yul\":6644:6650   */\n      dup1\n        /* \"#utility.yul\":6693:6695   */\n      0x40\n        /* \"#utility.yul\":6681:6690   */\n      dup4\n        /* \"#utility.yul\":6672:6679   */\n      dup6\n        /* \"#utility.yul\":6668:6691   */\n      sub\n        /* \"#utility.yul\":6664:6696   */\n      slt\n        /* \"#utility.yul\":6661:6780   */\n      iszero\n      tag_204\n      jumpi\n        /* \"#utility.yul\":6699:6778   */\n      tag_205\n      tag_93\n      jump\t// in\n    tag_205:\n        /* \"#utility.yul\":6661:6780   */\n    tag_204:\n        /* \"#utility.yul\":6819:6820   */\n      0x00\n        /* \"#utility.yul\":6844:6897   */\n      tag_206\n        /* \"#utility.yul\":6889:6896   */\n      dup6\n        /* \"#utility.yul\":6880:6886   */\n      dup3\n        /* \"#utility.yul\":6869:6878   */\n      dup7\n        /* \"#utility.yul\":6865:6887   */\n      add\n        /* \"#utility.yul\":6844:6897   */\n      tag_97\n      jump\t// in\n    tag_206:\n        /* \"#utility.yul\":6834:6897   */\n      swap3\n      pop\n        /* \"#utility.yul\":6790:6907   */\n      pop\n        /* \"#utility.yul\":6946:6948   */\n      0x20\n        /* \"#utility.yul\":6972:7025   */\n      tag_207\n        /* \"#utility.yul\":7017:7024   */\n      dup6\n        /* \"#utility.yul\":7008:7014   */\n      dup3\n        /* \"#utility.yul\":6997:7006   */\n      dup7\n        /* \"#utility.yul\":6993:7015   */\n      add\n        /* \"#utility.yul\":6972:7025   */\n      tag_112\n      jump\t// in\n    tag_207:\n        /* \"#utility.yul\":6962:7025   */\n      swap2\n      pop\n        /* \"#utility.yul\":6917:7035   */\n      pop\n        /* \"#utility.yul\":6568:7042   */\n      swap3\n      pop\n      swap3\n      swap1\n      pop\n      jump\t// out\n        /* \"#utility.yul\":7048:7166   */\n    tag_113:\n        /* \"#utility.yul\":7135:7159   */\n      tag_209\n        /* \"#utility.yul\":7153:7158   */\n      dup2\n        /* \"#utility.yul\":7135:7159   */\n      tag_95\n      jump\t// in\n    tag_209:\n        /* \"#utility.yul\":7130:7133   */\n      dup3\n        /* \"#utility.yul\":7123:7160   */\n      mstore\n        /* \"#utility.yul\":7048:7166   */\n      pop\n      pop\n      jump\t// out\n        /* \"#utility.yul\":7172:7321   */\n    tag_114:\n        /* \"#utility.yul\":7268:7314   */\n      tag_211\n        /* \"#utility.yul\":7308:7313   */\n      dup2\n        /* \"#utility.yul\":7268:7314   */\n      tag_104\n      jump\t// in\n    tag_211:\n        /* \"#utility.yul\":7263:7266   */\n      dup3\n        /* \"#utility.yul\":7256:7315   */\n      mstore\n        /* \"#utility.yul\":7172:7321   */\n      pop\n      pop\n      jump\t// out\n        /* \"#utility.yul\":7327:7898   */\n    tag_24:\n        /* \"#utility.yul\":7513:7517   */\n      0x00\n        /* \"#utility.yul\":7551:7554   */\n      0x80\n        /* \"#utility.yul\":7540:7549   */\n      dup3\n        /* \"#utility.yul\":7536:7555   */\n      add\n        /* \"#utility.yul\":7528:7555   */\n      swap1\n      pop\n        /* \"#utility.yul\":7565:7636   */\n      tag_213\n        /* \"#utility.yul\":7633:7634   */\n      0x00\n        /* \"#utility.yul\":7622:7631   */\n      dup4\n        /* \"#utility.yul\":7618:7635   */\n      add\n        /* \"#utility.yul\":7609:7615   */\n      dup8\n        /* \"#utility.yul\":7565:7636   */\n      tag_113\n      jump\t// in\n    tag_213:\n        /* \"#utility.yul\":7646:7727   */\n      tag_214\n        /* \"#utility.yul\":7723:7725   */\n      0x20\n        /* \"#utility.yul\":7712:7721   */\n      dup4\n        /* \"#utility.yul\":7708:7726   */\n      add\n        /* \"#utility.yul\":7699:7705   */\n      dup7\n        /* \"#utility.yul\":7646:7727   */\n      tag_114\n      jump\t// in\n    tag_214:\n        /* \"#utility.yul\":7737:7809   */\n      tag_215\n        /* \"#utility.yul\":7805:7807   */\n      0x40\n        /* \"#utility.yul\":7794:7803   */\n      dup4\n        /* \"#utility.yul\":7790:7808   */\n      add\n        /* \"#utility.yul\":7781:7787   */\n      dup6\n        /* \"#utility.yul\":7737:7809   */\n      tag_113\n      jump\t// in\n    tag_215:\n        /* \"#utility.yul\":7819:7891   */\n      tag_216\n        /* \"#utility.yul\":7887:7889   */\n      0x60\n        /* \"#utility.yul\":7876:7885   */\n      dup4\n        /* \"#utility.yul\":7872:7890   */\n      add\n        /* \"#utility.yul\":7863:7869   */\n      dup5\n        /* \"#utility.yul\":7819:7891   */\n      tag_113\n      jump\t// in\n    tag_216:\n        /* \"#utility.yul\":7327:7898   */\n      swap6\n      swap5\n      pop\n      pop\n      pop\n      pop\n      pop\n      jump\t// out\n        /* \"#utility.yul\":7904:8046   */\n    tag_115:\n        /* \"#utility.yul\":7970:7979   */\n      0x00\n        /* \"#utility.yul\":8003:8040   */\n      tag_218\n        /* \"#utility.yul\":8034:8039   */\n      dup3\n        /* \"#utility.yul\":8003:8040   */\n      tag_89\n      jump\t// in\n    tag_218:\n        /* \"#utility.yul\":7990:8040   */\n      swap1\n      pop\n        /* \"#utility.yul\":7904:8046   */\n      swap2\n      swap1\n      pop\n      jump\t// out\n        /* \"#utility.yul\":8052:8215   */\n    tag_116:\n        /* \"#utility.yul\":8155:8208   */\n      tag_220\n        /* \"#utility.yul\":8202:8207   */\n      dup2\n        /* \"#utility.yul\":8155:8208   */\n      tag_115\n      jump\t// in\n    tag_220:\n        /* \"#utility.yul\":8150:8153   */\n      dup3\n        /* \"#utility.yul\":8143:8209   */\n      mstore\n        /* \"#utility.yul\":8052:8215   */\n      pop\n      pop\n      jump\t// out\n        /* \"#utility.yul\":8221:8475   */\n    tag_28:\n        /* \"#utility.yul\":8330:8334   */\n      0x00\n        /* \"#utility.yul\":8368:8370   */\n      0x20\n        /* \"#utility.yul\":8357:8366   */\n      dup3\n        /* \"#utility.yul\":8353:8371   */\n      add\n        /* \"#utility.yul\":8345:8371   */\n      swap1\n      pop\n        /* \"#utility.yul\":8381:8468   */\n      tag_222\n        /* \"#utility.yul\":8465:8466   */\n      0x00\n        /* \"#utility.yul\":8454:8463   */\n      dup4\n        /* \"#utility.yul\":8450:8467   */\n      add\n        /* \"#utility.yul\":8441:8447   */\n      dup5\n        /* \"#utility.yul\":8381:8468   */\n      tag_116\n      jump\t// in\n    tag_222:\n        /* \"#utility.yul\":8221:8475   */\n      swap3\n      swap2\n      pop\n      pop\n      jump\t// out\n        /* \"#utility.yul\":8481:8591   */\n    tag_117:\n        /* \"#utility.yul\":8565:8566   */\n      0x04\n        /* \"#utility.yul\":8558:8563   */\n      dup2\n        /* \"#utility.yul\":8555:8567   */\n      lt\n        /* \"#utility.yul\":8545:8585   */\n      tag_224\n      jumpi\n        /* \"#utility.yul\":8581:8582   */\n      0x00\n        /* \"#utility.yul\":8578:8579   */\n      dup1\n        /* \"#utility.yul\":8571:8583   */\n      revert\n        /* \"#utility.yul\":8545:8585   */\n    tag_224:\n        /* \"#utility.yul\":8481:8591   */\n      pop\n      jump\t// out\n        /* \"#utility.yul\":8597:8758   */\n    tag_118:\n        /* \"#utility.yul\":8654:8659   */\n      0x00\n        /* \"#utility.yul\":8692:8698   */\n      dup2\n        /* \"#utility.yul\":8679:8699   */\n      calldataload\n        /* \"#utility.yul\":8670:8699   */\n      swap1\n      pop\n        /* \"#utility.yul\":8708:8752   */\n      tag_226\n        /* \"#utility.yul\":8746:8751   */\n      dup2\n        /* \"#utility.yul\":8708:8752   */\n      tag_117\n      jump\t// in\n    tag_226:\n        /* \"#utility.yul\":8597:8758   */\n      swap3\n      swap2\n      pop\n      pop\n      jump\t// out\n        /* \"#utility.yul\":8764:9697   */\n    tag_31:\n        /* \"#utility.yul\":8870:8876   */\n      0x00\n        /* \"#utility.yul\":8878:8884   */\n      dup1\n        /* \"#utility.yul\":8886:8892   */\n      0x00\n        /* \"#utility.yul\":8894:8900   */\n      dup1\n        /* \"#utility.yul\":8902:8908   */\n      0x00\n        /* \"#utility.yul\":8951:8954   */\n      0xa0\n        /* \"#utility.yul\":8939:8948   */\n      dup7\n        /* \"#utility.yul\":8930:8937   */\n      dup9\n        /* \"#utility.yul\":8926:8949   */\n      sub\n        /* \"#utility.yul\":8922:8955   */\n      slt\n        /* \"#utility.yul\":8919:9039   */\n      iszero\n      tag_228\n      jumpi\n        /* \"#utility.yul\":8958:9037   */\n      tag_229\n      tag_93\n      jump\t// in\n    tag_229:\n        /* \"#utility.yul\":8919:9039   */\n    tag_228:\n        /* \"#utility.yul\":9078:9079   */\n      0x00\n        /* \"#utility.yul\":9103:9156   */\n      tag_230\n        /* \"#utility.yul\":9148:9155   */\n      dup9\n        /* \"#utility.yul\":9139:9145   */\n      dup3\n        /* \"#utility.yul\":9128:9137   */\n      dup10\n        /* \"#utility.yul\":9124:9146   */\n      add\n        /* \"#utility.yul\":9103:9156   */\n      tag_97\n      jump\t// in\n    tag_230:\n        /* \"#utility.yul\":9093:9156   */\n      swap6\n      pop\n        /* \"#utility.yul\":9049:9166   */\n      pop\n        /* \"#utility.yul\":9205:9207   */\n      0x20\n        /* \"#utility.yul\":9231:9284   */\n      tag_231\n        /* \"#utility.yul\":9276:9283   */\n      dup9\n        /* \"#utility.yul\":9267:9273   */\n      dup3\n        /* \"#utility.yul\":9256:9265   */\n      dup10\n        /* \"#utility.yul\":9252:9274   */\n      add\n        /* \"#utility.yul\":9231:9284   */\n      tag_97\n      jump\t// in\n    tag_231:\n        /* \"#utility.yul\":9221:9284   */\n      swap5\n      pop\n        /* \"#utility.yul\":9176:9294   */\n      pop\n        /* \"#utility.yul\":9333:9335   */\n      0x40\n        /* \"#utility.yul\":9359:9423   */\n      tag_232\n        /* \"#utility.yul\":9415:9422   */\n      dup9\n        /* \"#utility.yul\":9406:9412   */\n      dup3\n        /* \"#utility.yul\":9395:9404   */\n      dup10\n        /* \"#utility.yul\":9391:9413   */\n      add\n        /* \"#utility.yul\":9359:9423   */\n      tag_118\n      jump\t// in\n    tag_232:\n        /* \"#utility.yul\":9349:9423   */\n      swap4\n      pop\n        /* \"#utility.yul\":9304:9433   */\n      pop\n        /* \"#utility.yul\":9472:9474   */\n      0x60\n        /* \"#utility.yul\":9498:9551   */\n      tag_233\n        /* \"#utility.yul\":9543:9550   */\n      dup9\n        /* \"#utility.yul\":9534:9540   */\n      dup3\n        /* \"#utility.yul\":9523:9532   */\n      dup10\n        /* \"#utility.yul\":9519:9541   */\n      add\n        /* \"#utility.yul\":9498:9551   */\n      tag_97\n      jump\t// in\n    tag_233:\n        /* \"#utility.yul\":9488:9551   */\n      swap3\n      pop\n        /* \"#utility.yul\":9443:9561   */\n      pop\n        /* \"#utility.yul\":9600:9603   */\n      0x80\n        /* \"#utility.yul\":9627:9680   */\n      tag_234\n        /* \"#utility.yul\":9672:9679   */\n      dup9\n        /* \"#utility.yul\":9663:9669   */\n      dup3\n        /* \"#utility.yul\":9652:9661   */\n      dup10\n        /* \"#utility.yul\":9648:9670   */\n      add\n        /* \"#utility.yul\":9627:9680   */\n      tag_97\n      jump\t// in\n    tag_234:\n        /* \"#utility.yul\":9617:9680   */\n      swap2\n      pop\n        /* \"#utility.yul\":9571:9690   */\n      pop\n        /* \"#utility.yul\":8764:9697   */\n      swap3\n      swap6\n      pop\n      swap3\n      swap6\n      swap1\n      swap4\n      pop\n      jump\t// out\n        /* \"#utility.yul\":9703:9847   */\n    tag_119:\n        /* \"#utility.yul\":9771:9780   */\n      0x00\n        /* \"#utility.yul\":9804:9841   */\n      tag_236\n        /* \"#utility.yul\":9835:9840   */\n      dup3\n        /* \"#utility.yul\":9804:9841   */\n      tag_89\n      jump\t// in\n    tag_236:\n        /* \"#utility.yul\":9791:9841   */\n      swap1\n      pop\n        /* \"#utility.yul\":9703:9847   */\n      swap2\n      swap1\n      pop\n      jump\t// out\n        /* \"#utility.yul\":9853:10020   */\n    tag_120:\n        /* \"#utility.yul\":9958:10013   */\n      tag_238\n        /* \"#utility.yul\":10007:10012   */\n      dup2\n        /* \"#utility.yul\":9958:10013   */\n      tag_119\n      jump\t// in\n    tag_238:\n        /* \"#utility.yul\":9953:9956   */\n      dup3\n        /* \"#utility.yul\":9946:10014   */\n      mstore\n        /* \"#utility.yul\":9853:10020   */\n      pop\n      pop\n      jump\t// out\n        /* \"#utility.yul\":10026:10284   */\n    tag_36:\n        /* \"#utility.yul\":10137:10141   */\n      0x00\n        /* \"#utility.yul\":10175:10177   */\n      0x20\n        /* \"#utility.yul\":10164:10173   */\n      dup3\n        /* \"#utility.yul\":10160:10178   */\n      add\n        /* \"#utility.yul\":10152:10178   */\n      swap1\n      pop\n        /* \"#utility.yul\":10188:10277   */\n      tag_240\n        /* \"#utility.yul\":10274:10275   */\n      0x00\n        /* \"#utility.yul\":10263:10272   */\n      dup4\n        /* \"#utility.yul\":10259:10276   */\n      add\n        /* \"#utility.yul\":10250:10256   */\n      dup5\n        /* \"#utility.yul\":10188:10277   */\n      tag_120\n      jump\t// in\n    tag_240:\n        /* \"#utility.yul\":10026:10284   */\n      swap3\n      swap2\n      pop\n      pop\n      jump\t// out\n        /* \"#utility.yul\":10290:10622   */\n    tag_39:\n        /* \"#utility.yul\":10411:10415   */\n      0x00\n        /* \"#utility.yul\":10449:10451   */\n      0x40\n        /* \"#utility.yul\":10438:10447   */\n      dup3\n        /* \"#utility.yul\":10434:10452   */\n      add\n        /* \"#utility.yul\":10426:10452   */\n      swap1\n      pop\n        /* \"#utility.yul\":10462:10533   */\n      tag_242\n        /* \"#utility.yul\":10530:10531   */\n      0x00\n        /* \"#utility.yul\":10519:10528   */\n      dup4\n        /* \"#utility.yul\":10515:10532   */\n      add\n        /* \"#utility.yul\":10506:10512   */\n      dup6\n        /* \"#utility.yul\":10462:10533   */\n      tag_113\n      jump\t// in\n    tag_242:\n        /* \"#utility.yul\":10543:10615   */\n      tag_243\n        /* \"#utility.yul\":10611:10613   */\n      0x20\n        /* \"#utility.yul\":10600:10609   */\n      dup4\n        /* \"#utility.yul\":10596:10614   */\n      add\n        /* \"#utility.yul\":10587:10593   */\n      dup5\n        /* \"#utility.yul\":10543:10615   */\n      tag_113\n      jump\t// in\n    tag_243:\n        /* \"#utility.yul\":10290:10622   */\n      swap4\n      swap3\n      pop\n      pop\n      pop\n      jump\t// out\n        /* \"#utility.yul\":10628:10718   */\n    tag_121:\n        /* \"#utility.yul\":10662:10669   */\n      0x00\n        /* \"#utility.yul\":10705:10710   */\n      dup2\n        /* \"#utility.yul\":10698:10711   */\n      iszero\n        /* \"#utility.yul\":10691:10712   */\n      iszero\n        /* \"#utility.yul\":10680:10712   */\n      swap1\n      pop\n        /* \"#utility.yul\":10628:10718   */\n      swap2\n      swap1\n      pop\n      jump\t// out\n        /* \"#utility.yul\":10724:10840   */\n    tag_122:\n        /* \"#utility.yul\":10794:10815   */\n      tag_246\n        /* \"#utility.yul\":10809:10814   */\n      dup2\n        /* \"#utility.yul\":10794:10815   */\n      tag_121\n      jump\t// in\n    tag_246:\n        /* \"#utility.yul\":10787:10792   */\n      dup2\n        /* \"#utility.yul\":10784:10816   */\n      eq\n        /* \"#utility.yul\":10774:10834   */\n      tag_247\n      jumpi\n        /* \"#utility.yul\":10830:10831   */\n      0x00\n        /* \"#utility.yul\":10827:10828   */\n      dup1\n        /* \"#utility.yul\":10820:10832   */\n      revert\n        /* \"#utility.yul\":10774:10834   */\n    tag_247:\n        /* \"#utility.yul\":10724:10840   */\n      pop\n      jump\t// out\n        /* \"#utility.yul\":10846:10983   */\n    tag_123:\n        /* \"#utility.yul\":10900:10905   */\n      0x00\n        /* \"#utility.yul\":10931:10937   */\n      dup2\n        /* \"#utility.yul\":10925:10938   */\n      mload\n        /* \"#utility.yul\":10916:10938   */\n      swap1\n      pop\n        /* \"#utility.yul\":10947:10977   */\n      tag_249\n        /* \"#utility.yul\":10971:10976   */\n      dup2\n        /* \"#utility.yul\":10947:10977   */\n      tag_122\n      jump\t// in\n    tag_249:\n        /* \"#utility.yul\":10846:10983   */\n      swap3\n      swap2\n      pop\n      pop\n      jump\t// out\n        /* \"#utility.yul\":10989:11334   */\n    tag_43:\n        /* \"#utility.yul\":11056:11062   */\n      0x00\n        /* \"#utility.yul\":11105:11107   */\n      0x20\n        /* \"#utility.yul\":11093:11102   */\n      dup3\n        /* \"#utility.yul\":11084:11091   */\n      dup5\n        /* \"#utility.yul\":11080:11103   */\n      sub\n        /* \"#utility.yul\":11076:11108   */\n      slt\n        /* \"#utility.yul\":11073:11192   */\n      iszero\n      tag_251\n      jumpi\n        /* \"#utility.yul\":11111:11190   */\n      tag_252\n      tag_93\n      jump\t// in\n    tag_252:\n        /* \"#utility.yul\":11073:11192   */\n    tag_251:\n        /* \"#utility.yul\":11231:11232   */\n      0x00\n        /* \"#utility.yul\":11256:11317   */\n      tag_253\n        /* \"#utility.yul\":11309:11316   */\n      dup5\n        /* \"#utility.yul\":11300:11306   */\n      dup3\n        /* \"#utility.yul\":11289:11298   */\n      dup6\n        /* \"#utility.yul\":11285:11307   */\n      add\n        /* \"#utility.yul\":11256:11317   */\n      tag_123\n      jump\t// in\n    tag_253:\n        /* \"#utility.yul\":11246:11317   */\n      swap2\n      pop\n        /* \"#utility.yul\":11202:11327   */\n      pop\n        /* \"#utility.yul\":10989:11334   */\n      swap3\n      swap2\n      pop\n      pop\n      jump\t// out\n        /* \"#utility.yul\":11340:11509   */\n    tag_124:\n        /* \"#utility.yul\":11424:11435   */\n      0x00\n        /* \"#utility.yul\":11458:11464   */\n      dup3\n        /* \"#utility.yul\":11453:11456   */\n      dup3\n        /* \"#utility.yul\":11446:11465   */\n      mstore\n        /* \"#utility.yul\":11498:11502   */\n      0x20\n        /* \"#utility.yul\":11493:11496   */\n      dup3\n        /* \"#utility.yul\":11489:11503   */\n      add\n        /* \"#utility.yul\":11474:11503   */\n      swap1\n      pop\n        /* \"#utility.yul\":11340:11509   */\n      swap3\n      swap2\n      pop\n      pop\n      jump\t// out\n        /* \"#utility.yul\":11515:11679   */\n    tag_125:\n        /* \"#utility.yul\":11655:11671   */\n      0x4163636573732064656e69656421000000000000000000000000000000000000\n        /* \"#utility.yul\":11651:11652   */\n      0x00\n        /* \"#utility.yul\":11643:11649   */\n      dup3\n        /* \"#utility.yul\":11639:11653   */\n      add\n        /* \"#utility.yul\":11632:11672   */\n      mstore\n        /* \"#utility.yul\":11515:11679   */\n      pop\n      jump\t// out\n        /* \"#utility.yul\":11685:12051   */\n    tag_126:\n        /* \"#utility.yul\":11827:11830   */\n      0x00\n        /* \"#utility.yul\":11848:11915   */\n      tag_257\n        /* \"#utility.yul\":11912:11914   */\n      0x0e\n        /* \"#utility.yul\":11907:11910   */\n      dup4\n        /* \"#utility.yul\":11848:11915   */\n      tag_124\n      jump\t// in\n    tag_257:\n        /* \"#utility.yul\":11841:11915   */\n      swap2\n      pop\n        /* \"#utility.yul\":11924:12017   */\n      tag_258\n        /* \"#utility.yul\":12013:12016   */\n      dup3\n        /* \"#utility.yul\":11924:12017   */\n      tag_125\n      jump\t// in\n    tag_258:\n        /* \"#utility.yul\":12042:12044   */\n      0x20\n        /* \"#utility.yul\":12037:12040   */\n      dup3\n        /* \"#utility.yul\":12033:12045   */\n      add\n        /* \"#utility.yul\":12026:12045   */\n      swap1\n      pop\n        /* \"#utility.yul\":11685:12051   */\n      swap2\n      swap1\n      pop\n      jump\t// out\n        /* \"#utility.yul\":12057:12476   */\n    tag_46:\n        /* \"#utility.yul\":12223:12227   */\n      0x00\n        /* \"#utility.yul\":12261:12263   */\n      0x20\n        /* \"#utility.yul\":12250:12259   */\n      dup3\n        /* \"#utility.yul\":12246:12264   */\n      add\n        /* \"#utility.yul\":12238:12264   */\n      swap1\n      pop\n        /* \"#utility.yul\":12310:12319   */\n      dup2\n        /* \"#utility.yul\":12304:12308   */\n      dup2\n        /* \"#utility.yul\":12300:12320   */\n      sub\n        /* \"#utility.yul\":12296:12297   */\n      0x00\n        /* \"#utility.yul\":12285:12294   */\n      dup4\n        /* \"#utility.yul\":12281:12298   */\n      add\n        /* \"#utility.yul\":12274:12321   */\n      mstore\n        /* \"#utility.yul\":12338:12469   */\n      tag_260\n        /* \"#utility.yul\":12464:12468   */\n      dup2\n        /* \"#utility.yul\":12338:12469   */\n      tag_126\n      jump\t// in\n    tag_260:\n        /* \"#utility.yul\":12330:12469   */\n      swap1\n      pop\n        /* \"#utility.yul\":12057:12476   */\n      swap2\n      swap1\n      pop\n      jump\t// out\n        /* \"#utility.yul\":12482:12655   */\n    tag_127:\n        /* \"#utility.yul\":12622:12647   */\n      0x596f75722064617461207761732061636365737365642e000000000000000000\n        /* \"#utility.yul\":12618:12619   */\n      0x00\n        /* \"#utility.yul\":12610:12616   */\n      dup3\n        /* \"#utility.yul\":12606:12620   */\n      add\n        /* \"#utility.yul\":12599:12648   */\n      mstore\n        /* \"#utility.yul\":12482:12655   */\n      pop\n      jump\t// out\n        /* \"#utility.yul\":12661:13027   */\n    tag_128:\n        /* \"#utility.yul\":12803:12806   */\n      0x00\n        /* \"#utility.yul\":12824:12891   */\n      tag_263\n        /* \"#utility.yul\":12888:12890   */\n      0x17\n        /* \"#utility.yul\":12883:12886   */\n      dup4\n        /* \"#utility.yul\":12824:12891   */\n      tag_124\n      jump\t// in\n    tag_263:\n        /* \"#utility.yul\":12817:12891   */\n      swap2\n      pop\n        /* \"#utility.yul\":12900:12993   */\n      tag_264\n        /* \"#utility.yul\":12989:12992   */\n      dup3\n        /* \"#utility.yul\":12900:12993   */\n      tag_127\n      jump\t// in\n    tag_264:\n        /* \"#utility.yul\":13018:13020   */\n      0x20\n        /* \"#utility.yul\":13013:13016   */\n      dup3\n        /* \"#utility.yul\":13009:13021   */\n      add\n        /* \"#utility.yul\":13002:13021   */\n      swap1\n      pop\n        /* \"#utility.yul\":12661:13027   */\n      swap2\n      swap1\n      pop\n      jump\t// out\n        /* \"#utility.yul\":13033:13562   */\n    tag_48:\n        /* \"#utility.yul\":13227:13231   */\n      0x00\n        /* \"#utility.yul\":13265:13267   */\n      0x40\n        /* \"#utility.yul\":13254:13263   */\n      dup3\n        /* \"#utility.yul\":13250:13268   */\n      add\n        /* \"#utility.yul\":13242:13268   */\n      swap1\n      pop\n        /* \"#utility.yul\":13278:13349   */\n      tag_266\n        /* \"#utility.yul\":13346:13347   */\n      0x00\n        /* \"#utility.yul\":13335:13344   */\n      dup4\n        /* \"#utility.yul\":13331:13348   */\n      add\n        /* \"#utility.yul\":13322:13328   */\n      dup5\n        /* \"#utility.yul\":13278:13349   */\n      tag_113\n      jump\t// in\n    tag_266:\n        /* \"#utility.yul\":13396:13405   */\n      dup2\n        /* \"#utility.yul\":13390:13394   */\n      dup2\n        /* \"#utility.yul\":13386:13406   */\n      sub\n        /* \"#utility.yul\":13381:13383   */\n      0x20\n        /* \"#utility.yul\":13370:13379   */\n      dup4\n        /* \"#utility.yul\":13366:13384   */\n      add\n        /* \"#utility.yul\":13359:13407   */\n      mstore\n        /* \"#utility.yul\":13424:13555   */\n      tag_267\n        /* \"#utility.yul\":13550:13554   */\n      dup2\n        /* \"#utility.yul\":13424:13555   */\n      tag_128\n      jump\t// in\n    tag_267:\n        /* \"#utility.yul\":13416:13555   */\n      swap1\n      pop\n        /* \"#utility.yul\":13033:13562   */\n      swap3\n      swap2\n      pop\n      pop\n      jump\t// out\n        /* \"#utility.yul\":13568:13790   */\n    tag_66:\n        /* \"#utility.yul\":13661:13665   */\n      0x00\n        /* \"#utility.yul\":13699:13701   */\n      0x20\n        /* \"#utility.yul\":13688:13697   */\n      dup3\n        /* \"#utility.yul\":13684:13702   */\n      add\n        /* \"#utility.yul\":13676:13702   */\n      swap1\n      pop\n        /* \"#utility.yul\":13712:13783   */\n      tag_269\n        /* \"#utility.yul\":13780:13781   */\n      0x00\n        /* \"#utility.yul\":13769:13778   */\n      dup4\n        /* \"#utility.yul\":13765:13782   */\n      add\n        /* \"#utility.yul\":13756:13762   */\n      dup5\n        /* \"#utility.yul\":13712:13783   */\n      tag_113\n      jump\t// in\n    tag_269:\n        /* \"#utility.yul\":13568:13790   */\n      swap3\n      swap2\n      pop\n      pop\n      jump\t// out\n        /* \"#utility.yul\":13796:13903   */\n    tag_129:\n        /* \"#utility.yul\":13877:13878   */\n      0x04\n        /* \"#utility.yul\":13870:13875   */\n      dup2\n        /* \"#utility.yul\":13867:13879   */\n      lt\n        /* \"#utility.yul\":13857:13897   */\n      tag_271\n      jumpi\n        /* \"#utility.yul\":13893:13894   */\n      0x00\n        /* \"#utility.yul\":13890:13891   */\n      dup1\n        /* \"#utility.yul\":13883:13895   */\n      revert\n        /* \"#utility.yul\":13857:13897   */\n    tag_271:\n        /* \"#utility.yul\":13796:13903   */\n      pop\n      jump\t// out\n        /* \"#utility.yul\":13909:14068   */\n    tag_130:\n        /* \"#utility.yul\":13974:13979   */\n      0x00\n        /* \"#utility.yul\":14005:14011   */\n      dup2\n        /* \"#utility.yul\":13999:14012   */\n      mload\n        /* \"#utility.yul\":13990:14012   */\n      swap1\n      pop\n        /* \"#utility.yul\":14021:14062   */\n      tag_273\n        /* \"#utility.yul\":14056:14061   */\n      dup2\n        /* \"#utility.yul\":14021:14062   */\n      tag_129\n      jump\t// in\n    tag_273:\n        /* \"#utility.yul\":13909:14068   */\n      swap3\n      swap2\n      pop\n      pop\n      jump\t// out\n        /* \"#utility.yul\":14074:14441   */\n    tag_70:\n        /* \"#utility.yul\":14152:14158   */\n      0x00\n        /* \"#utility.yul\":14201:14203   */\n      0x20\n        /* \"#utility.yul\":14189:14198   */\n      dup3\n        /* \"#utility.yul\":14180:14187   */\n      dup5\n        /* \"#utility.yul\":14176:14199   */\n      sub\n        /* \"#utility.yul\":14172:14204   */\n      slt\n        /* \"#utility.yul\":14169:14288   */\n      iszero\n      tag_275\n      jumpi\n        /* \"#utility.yul\":14207:14286   */\n      tag_276\n      tag_93\n      jump\t// in\n    tag_276:\n        /* \"#utility.yul\":14169:14288   */\n    tag_275:\n        /* \"#utility.yul\":14327:14328   */\n      0x00\n        /* \"#utility.yul\":14352:14424   */\n      tag_277\n        /* \"#utility.yul\":14416:14423   */\n      dup5\n        /* \"#utility.yul\":14407:14413   */\n      dup3\n        /* \"#utility.yul\":14396:14405   */\n      dup6\n        /* \"#utility.yul\":14392:14414   */\n      add\n        /* \"#utility.yul\":14352:14424   */\n      tag_130\n      jump\t// in\n    tag_277:\n        /* \"#utility.yul\":14342:14424   */\n      swap2\n      pop\n        /* \"#utility.yul\":14298:14434   */\n      pop\n        /* \"#utility.yul\":14074:14441   */\n      swap3\n      swap2\n      pop\n      pop\n      jump\t// out\n        /* \"#utility.yul\":14447:14612   */\n    tag_131:\n        /* \"#utility.yul\":14587:14604   */\n      0x4e6f7420617574686f72697a6564210000000000000000000000000000000000\n        /* \"#utility.yul\":14583:14584   */\n      0x00\n        /* \"#utility.yul\":14575:14581   */\n      dup3\n        /* \"#utility.yul\":14571:14585   */\n      add\n        /* \"#utility.yul\":14564:14605   */\n      mstore\n        /* \"#utility.yul\":14447:14612   */\n      pop\n      jump\t// out\n        /* \"#utility.yul\":14618:14984   */\n    tag_132:\n        /* \"#utility.yul\":14760:14763   */\n      0x00\n        /* \"#utility.yul\":14781:14848   */\n      tag_280\n        /* \"#utility.yul\":14845:14847   */\n      0x0f\n        /* \"#utility.yul\":14840:14843   */\n      dup4\n        /* \"#utility.yul\":14781:14848   */\n      tag_124\n      jump\t// in\n    tag_280:\n        /* \"#utility.yul\":14774:14848   */\n      swap2\n      pop\n        /* \"#utility.yul\":14857:14950   */\n      tag_281\n        /* \"#utility.yul\":14946:14949   */\n      dup3\n        /* \"#utility.yul\":14857:14950   */\n      tag_131\n      jump\t// in\n    tag_281:\n        /* \"#utility.yul\":14975:14977   */\n      0x20\n        /* \"#utility.yul\":14970:14973   */\n      dup3\n        /* \"#utility.yul\":14966:14978   */\n      add\n        /* \"#utility.yul\":14959:14978   */\n      swap1\n      pop\n        /* \"#utility.yul\":14618:14984   */\n      swap2\n      swap1\n      pop\n      jump\t// out\n        /* \"#utility.yul\":14990:15409   */\n    tag_75:\n        /* \"#utility.yul\":15156:15160   */\n      0x00\n        /* \"#utility.yul\":15194:15196   */\n      0x20\n        /* \"#utility.yul\":15183:15192   */\n      dup3\n        /* \"#utility.yul\":15179:15197   */\n      add\n        /* \"#utility.yul\":15171:15197   */\n      swap1\n      pop\n        /* \"#utility.yul\":15243:15252   */\n      dup2\n        /* \"#utility.yul\":15237:15241   */\n      dup2\n        /* \"#utility.yul\":15233:15253   */\n      sub\n        /* \"#utility.yul\":15229:15230   */\n      0x00\n        /* \"#utility.yul\":15218:15227   */\n      dup4\n        /* \"#utility.yul\":15214:15231   */\n      add\n        /* \"#utility.yul\":15207:15254   */\n      mstore\n        /* \"#utility.yul\":15271:15402   */\n      tag_283\n        /* \"#utility.yul\":15397:15401   */\n      dup2\n        /* \"#utility.yul\":15271:15402   */\n      tag_132\n      jump\t// in\n    tag_283:\n        /* \"#utility.yul\":15263:15402   */\n      swap1\n      pop\n        /* \"#utility.yul\":14990:15409   */\n      swap2\n      swap1\n      pop\n      jump\t// out\n        /* \"#utility.yul\":15415:15580   */\n    tag_133:\n        /* \"#utility.yul\":15555:15572   */\n      0x4e657720646174612061646465642e0000000000000000000000000000000000\n        /* \"#utility.yul\":15551:15552   */\n      0x00\n        /* \"#utility.yul\":15543:15549   */\n      dup3\n        /* \"#utility.yul\":15539:15553   */\n      add\n        /* \"#utility.yul\":15532:15573   */\n      mstore\n        /* \"#utility.yul\":15415:15580   */\n      pop\n      jump\t// out\n        /* \"#utility.yul\":15586:15952   */\n    tag_134:\n        /* \"#utility.yul\":15728:15731   */\n      0x00\n        /* \"#utility.yul\":15749:15816   */\n      tag_286\n        /* \"#utility.yul\":15813:15815   */\n      0x0f\n        /* \"#utility.yul\":15808:15811   */\n      dup4\n        /* \"#utility.yul\":15749:15816   */\n      tag_124\n      jump\t// in\n    tag_286:\n        /* \"#utility.yul\":15742:15816   */\n      swap2\n      pop\n        /* \"#utility.yul\":15825:15918   */\n      tag_287\n        /* \"#utility.yul\":15914:15917   */\n      dup3\n        /* \"#utility.yul\":15825:15918   */\n      tag_133\n      jump\t// in\n    tag_287:\n        /* \"#utility.yul\":15943:15945   */\n      0x20\n        /* \"#utility.yul\":15938:15941   */\n      dup3\n        /* \"#utility.yul\":15934:15946   */\n      add\n        /* \"#utility.yul\":15927:15946   */\n      swap1\n      pop\n        /* \"#utility.yul\":15586:15952   */\n      swap2\n      swap1\n      pop\n      jump\t// out\n        /* \"#utility.yul\":15958:16487   */\n    tag_82:\n        /* \"#utility.yul\":16152:16156   */\n      0x00\n        /* \"#utility.yul\":16190:16192   */\n      0x40\n        /* \"#utility.yul\":16179:16188   */\n      dup3\n        /* \"#utility.yul\":16175:16193   */\n      add\n        /* \"#utility.yul\":16167:16193   */\n      swap1\n      pop\n        /* \"#utility.yul\":16203:16274   */\n      tag_289\n        /* \"#utility.yul\":16271:16272   */\n      0x00\n        /* \"#utility.yul\":16260:16269   */\n      dup4\n        /* \"#utility.yul\":16256:16273   */\n      add\n        /* \"#utility.yul\":16247:16253   */\n      dup5\n        /* \"#utility.yul\":16203:16274   */\n      tag_113\n      jump\t// in\n    tag_289:\n        /* \"#utility.yul\":16321:16330   */\n      dup2\n        /* \"#utility.yul\":16315:16319   */\n      dup2\n        /* \"#utility.yul\":16311:16331   */\n      sub\n        /* \"#utility.yul\":16306:16308   */\n      0x20\n        /* \"#utility.yul\":16295:16304   */\n      dup4\n        /* \"#utility.yul\":16291:16309   */\n      add\n        /* \"#utility.yul\":16284:16332   */\n      mstore\n        /* \"#utility.yul\":16349:16480   */\n      tag_290\n        /* \"#utility.yul\":16475:16479   */\n      dup2\n        /* \"#utility.yul\":16349:16480   */\n      tag_134\n      jump\t// in\n    tag_290:\n        /* \"#utility.yul\":16341:16480   */\n      swap1\n      pop\n        /* \"#utility.yul\":15958:16487   */\n      swap3\n      swap2\n      pop\n      pop\n      jump\t// out\n\n    auxdata: 0xa2646970667358221220936185935c54e1d91b7307b7ff4399566d1cdaf725367092b2ab2945077dd4db64736f6c634300080a0033\n}\n",
    "bytecode": {
      "linkReferences": {},
      "object": "60806040523480156200001157600080fd5b50604051620010173803806200101783398181016040528101906200003791906200016c565b826000806101000a81548173ffffffffffffffffffffffffffffffffffffffff021916908373ffffffffffffffffffffffffffffffffffffffff16021790555081600160006101000a81548173ffffffffffffffffffffffffffffffffffffffff021916908373ffffffffffffffffffffffffffffffffffffffff16021790555080600260006101000a81548173ffffffffffffffffffffffffffffffffffffffff021916908373ffffffffffffffffffffffffffffffffffffffff160217905550505050620001c8565b600080fd5b600073ffffffffffffffffffffffffffffffffffffffff82169050919050565b6000620001348262000107565b9050919050565b620001468162000127565b81146200015257600080fd5b50565b60008151905062000166816200013b565b92915050565b60008060006060848603121562000188576200018762000102565b5b6000620001988682870162000155565b9350506020620001ab8682870162000155565b9250506040620001be8682870162000155565b9150509250925092565b610e3f80620001d86000396000f3fe608060405234801561001057600080fd5b50600436106100625760003560e01c80631d7555791461006757806321bd17a01461008557806362a5fcf4146100b55780637b103999146100e8578063d9248a8414610106578063f3b0c8b714610122575b600080fd5b61006f610140565b60405161007c9190610711565b60405180910390f35b61009f600480360381019061009a9190610767565b610166565b6040516100ac919061091e565b60405180910390f35b6100cf60048036038101906100ca9190610976565b61039b565b6040516100df94939291906109d4565b60405180910390f35b6100f06103f5565b6040516100fd9190610a3a565b60405180910390f35b610120600480360381019061011b9190610a7a565b610419565b005b61012a61066c565b6040516101379190610b16565b60405180910390f35b600260009054906101000a900473ffffffffffffffffffffffffffffffffffffffff1681565b6060600160009054906101000a900473ffffffffffffffffffffffffffffffffffffffff1673ffffffffffffffffffffffffffffffffffffffff16634fb95bc683846040518363ffffffff1660e01b81526004016101c5929190610b31565b602060405180830381865afa1580156101e2573d6000803e3d6000fd5b505050506040513d601f19601f820116820180604052508101906102069190610b92565b610245576040517f08c379a000000000000000000000000000000000000000000000000000000000815260040161023c90610c1c565b60405180910390fd5b600260009054906101000a900473ffffffffffffffffffffffffffffffffffffffff1673ffffffffffffffffffffffffffffffffffffffff1663a2cf0c56836040518263ffffffff1660e01b81526004016102a09190610c88565b600060405180830381600087803b1580156102ba57600080fd5b505af11580156102ce573d6000803e3d6000fd5b5050505060036000838152602001908152602001600020805480602002602001604051908101604052809291908181526020016000905b828210156103905783829060005260206000209060040201604051806080016040529081600082015481526020016001820160009054906101000a900460ff166003811115610357576103566107cf565b5b6003811115610369576103686107cf565b5b81526020016002820154815260200160038201548152505081526020019060010190610305565b505050509050919050565b600360205281600052604060002081815481106103b757600080fd5b9060005260206000209060040201600091509150508060000154908060010160009054906101000a900460ff16908060020154908060030154905084565b60008054906101000a900473ffffffffffffffffffffffffffffffffffffffff1681565b6001600381111561042d5761042c6107cf565b5b60008054906101000a900473ffffffffffffffffffffffffffffffffffffffff1673ffffffffffffffffffffffffffffffffffffffff1663a95ceb64876040518263ffffffff1660e01b81526004016104869190610cb6565b602060405180830381865afa1580156104a3573d6000803e3d6000fd5b505050506040513d601f19601f820116820180604052508101906104c79190610cf6565b60038111156104d9576104d86107cf565b5b14610519576040517f08c379a000000000000000000000000000000000000000000000000000000000815260040161051090610d6f565b60405180910390fd5b6003600086815260200190815260200160002060405180608001604052808681526020018560038111156105505761054f6107cf565b5b81526020018481526020018381525090806001815401808255809150506001900390600052602060002090600402016000909190919091506000820151816000015560208201518160010160006101000a81548160ff021916908360038111156105bd576105bc6107cf565b5b021790555060408201518160020155606082015181600301555050600260009054906101000a900473ffffffffffffffffffffffffffffffffffffffff1673ffffffffffffffffffffffffffffffffffffffff1663a2cf0c56866040518263ffffffff1660e01b81526004016106339190610ddb565b600060405180830381600087803b15801561064d57600080fd5b505af1158015610661573d6000803e3d6000fd5b505050505050505050565b600160009054906101000a900473ffffffffffffffffffffffffffffffffffffffff1681565b600073ffffffffffffffffffffffffffffffffffffffff82169050919050565b6000819050919050565b60006106d76106d26106cd84610692565b6106b2565b610692565b9050919050565b60006106e9826106bc565b9050919050565b60006106fb826106de565b9050919050565b61070b816106f0565b82525050565b60006020820190506107266000830184610702565b92915050565b600080fd5b6000819050919050565b61074481610731565b811461074f57600080fd5b50565b6000813590506107618161073b565b92915050565b60006020828403121561077d5761077c61072c565b5b600061078b84828501610752565b91505092915050565b600081519050919050565b600082825260208201905092915050565b6000819050602082019050919050565b6107c981610731565b82525050565b7f4e487b7100000000000000000000000000000000000000000000000000000000600052602160045260246000fd5b6004811061080f5761080e6107cf565b5b50565b6000819050610820826107fe565b919050565b600061083082610812565b9050919050565b61084081610825565b82525050565b60808201600082015161085c60008501826107c0565b50602082015161086f6020850182610837565b50604082015161088260408501826107c0565b50606082015161089560608501826107c0565b50505050565b60006108a78383610846565b60808301905092915050565b6000602082019050919050565b60006108cb82610794565b6108d5818561079f565b93506108e0836107b0565b8060005b838110156109115781516108f8888261089b565b9750610903836108b3565b9250506001810190506108e4565b5085935050505092915050565b6000602082019050818103600083015261093881846108c0565b905092915050565b6000819050919050565b61095381610940565b811461095e57600080fd5b50565b6000813590506109708161094a565b92915050565b6000806040838503121561098d5761098c61072c565b5b600061099b85828601610752565b92505060206109ac85828601610961565b9150509250929050565b6109bf81610731565b82525050565b6109ce81610825565b82525050565b60006080820190506109e960008301876109b6565b6109f660208301866109c5565b610a0360408301856109b6565b610a1060608301846109b6565b95945050505050565b6000610a24826106de565b9050919050565b610a3481610a19565b82525050565b6000602082019050610a4f6000830184610a2b565b92915050565b60048110610a6257600080fd5b50565b600081359050610a7481610a55565b92915050565b600080600080600060a08688031215610a9657610a9561072c565b5b6000610aa488828901610752565b9550506020610ab588828901610752565b9450506040610ac688828901610a65565b9350506060610ad788828901610752565b9250506080610ae888828901610752565b9150509295509295909350565b6000610b00826106de565b9050919050565b610b1081610af5565b82525050565b6000602082019050610b2b6000830184610b07565b92915050565b6000604082019050610b4660008301856109b6565b610b5360208301846109b6565b9392505050565b60008115159050919050565b610b6f81610b5a565b8114610b7a57600080fd5b50565b600081519050610b8c81610b66565b92915050565b600060208284031215610ba857610ba761072c565b5b6000610bb684828501610b7d565b91505092915050565b600082825260208201905092915050565b7f4163636573732064656e69656421000000000000000000000000000000000000600082015250565b6000610c06600e83610bbf565b9150610c1182610bd0565b602082019050919050565b60006020820190508181036000830152610c3581610bf9565b9050919050565b7f596f75722064617461207761732061636365737365642e000000000000000000600082015250565b6000610c72601783610bbf565b9150610c7d82610c3c565b602082019050919050565b6000604082019050610c9d60008301846109b6565b8181036020830152610cae81610c65565b905092915050565b6000602082019050610ccb60008301846109b6565b92915050565b60048110610cde57600080fd5b50565b600081519050610cf081610cd1565b92915050565b600060208284031215610d0c57610d0b61072c565b5b6000610d1a84828501610ce1565b91505092915050565b7f4e6f7420617574686f72697a6564210000000000000000000000000000000000600082015250565b6000610d59600f83610bbf565b9150610d6482610d23565b602082019050919050565b60006020820190508181036000830152610d8881610d4c565b9050919050565b7f4e657720646174612061646465642e0000000000000000000000000000000000600082015250565b6000610dc5600f83610bbf565b9150610dd082610d8f565b602082019050919050565b6000604082019050610df060008301846109b6565b8181036020830152610e0181610db8565b90509291505056fea2646970667358221220936185935c54e1d91b7307b7ff4399566d1cdaf725367092b2ab2945077dd4db64736f6c634300080a0033",
      "opcodes": "PUSH1 0x80 PUSH1 0x40 MSTORE CALLVALUE DUP1 ISZERO PUSH3 0x11 JUMPI PUSH1 0x0 DUP1 REVERT JUMPDEST POP PUSH1 0x40 MLOAD PUSH3 0x1017 CODESIZE SUB DUP1 PUSH3 0x1017 DUP4 CODECOPY DUP2 DUP2 ADD PUSH1 0x40 MSTORE DUP2 ADD SWAP1 PUSH3 0x37 SWAP2 SWAP1 PUSH3 0x16C JUMP JUMPDEST DUP3 PUSH1 0x0 DUP1 PUSH2 0x100 EXP DUP2 SLOAD DUP2 PUSH20 0xFFFFFFFFFFFFFFFFFFFFFFFFFFFFFFFFFFFFFFFF MUL NOT AND SWAP1 DUP4 PUSH20 0xFFFFFFFFFFFFFFFFFFFFFFFFFFFFFFFFFFFFFFFF AND MUL OR SWAP1 SSTORE POP DUP2 PUSH1 0x1 PUSH1 0x0 PUSH2 0x100 EXP DUP2 SLOAD DUP2 PUSH20 0xFFFFFFFFFFFFFFFFFFFFFFFFFFFFFFFFFFFFFFFF MUL NOT AND SWAP1 DUP4 PUSH20 0xFFFFFFFFFFFFFFFFFFFFFFFFFFFFFFFFFFFFFFFF AND MUL OR SWAP1 SSTORE POP DUP1 PUSH1 0x2 PUSH1 0x0 PUSH2 0x100 EXP DUP2 SLOAD DUP2 PUSH20 0xFFFFFFFFFFFFFFFFFFFFFFFFFFFFFFFFFFFFFFFF MUL NOT AND SWAP1 DUP4 PUSH20 0xFFFFFFFFFFFFFFFFFFFFFFFFFFFFFFFFFFFFFFFF AND MUL OR SWAP1 SSTORE POP POP POP POP PUSH3 0x1C8 JUMP JUMPDEST PUSH1 0x0 DUP1 REVERT JUMPDEST PUSH1 0x0 PUSH20 0xFFFFFFFFFFFFFFFFFFFFFFFFFFFFFFFFFFFFFFFF DUP3 AND SWAP1 POP SWAP2 SWAP1 POP JUMP JUMPDEST PUSH1 0x0 PUSH3 0x134 DUP3 PUSH3 0x107 JUMP JUMPDEST SWAP1 POP SWAP2 SWAP1 POP JUMP JUMPDEST PUSH3 0x146 DUP2 PUSH3 0x127 JUMP JUMPDEST DUP2 EQ PUSH3 0x152 JUMPI PUSH1 0x0 DUP1 REVERT JUMPDEST POP JUMP JUMPDEST PUSH1 0x0 DUP2 MLOAD SWAP1 POP PUSH3 0x166 DUP2 PUSH3 0x13B JUMP JUMPDEST SWAP3 SWAP2 POP POP JUMP JUMPDEST PUSH1 0x0 DUP1 PUSH1 0x0 PUSH1 0x60 DUP5 DUP7 SUB SLT ISZERO PUSH3 0x188 JUMPI PUSH3 0x187 PUSH3 0x102 JUMP JUMPDEST JUMPDEST PUSH1 0x0 PUSH3 0x198 DUP7 DUP3 DUP8 ADD PUSH3 0x155 JUMP JUMPDEST SWAP4 POP POP PUSH1 0x20 PUSH3 0x1AB DUP7 DUP3 DUP8 ADD PUSH3 0x155 JUMP JUMPDEST SWAP3 POP POP PUSH1 0x40 PUSH3 0x1BE DUP7 DUP3 DUP8 ADD PUSH3 0x155 JUMP JUMPDEST SWAP2 POP POP SWAP3 POP SWAP3 POP SWAP3 JUMP JUMPDEST PUSH2 0xE3F DUP1 PUSH3 0x1D8 PUSH1 0x0 CODECOPY PUSH1 0x0 RETURN INVALID PUSH1 0x80 PUSH1 0x40 MSTORE CALLVALUE DUP1 ISZERO PUSH2 0x10 JUMPI PUSH1 0x0 DUP1 REVERT JUMPDEST POP PUSH1 0x4 CALLDATASIZE LT PUSH2 0x62 JUMPI PUSH1 0x0 CALLDATALOAD PUSH1 0xE0 SHR DUP1 PUSH4 0x1D755579 EQ PUSH2 0x67 JUMPI DUP1 PUSH4 0x21BD17A0 EQ PUSH2 0x85 JUMPI DUP1 PUSH4 0x62A5FCF4 EQ PUSH2 0xB5 JUMPI DUP1 PUSH4 0x7B103999 EQ PUSH2 0xE8 JUMPI DUP1 PUSH4 0xD9248A84 EQ PUSH2 0x106 JUMPI DUP1 PUSH4 0xF3B0C8B7 EQ PUSH2 0x122 JUMPI JUMPDEST PUSH1 0x0 DUP1 REVERT JUMPDEST PUSH2 0x6F PUSH2 0x140 JUMP JUMPDEST PUSH1 0x40 MLOAD PUSH2 0x7C SWAP2 SWAP1 PUSH2 0x711 JUMP JUMPDEST PUSH1 0x40 MLOAD DUP1 SWAP2 SUB SWAP1 RETURN JUMPDEST PUSH2 0x9F PUSH1 0x4 DUP1 CALLDATASIZE SUB DUP2 ADD SWAP1 PUSH2 0x9A SWAP2 SWAP1 PUSH2 0x767 JUMP JUMPDEST PUSH2 0x166 JUMP JUMPDEST PUSH1 0x40 MLOAD PUSH2 0xAC SWAP2 SWAP1 PUSH2 0x91E JUMP JUMPDEST PUSH1 0x40 MLOAD DUP1 SWAP2 SUB SWAP1 RETURN JUMPDEST PUSH2 0xCF PUSH1 0x4 DUP1 CALLDATASIZE SUB DUP2 ADD SWAP1 PUSH2 0xCA SWAP2 SWAP1 PUSH2 0x976 JUMP JUMPDEST PUSH2 0x39B JUMP JUMPDEST PUSH1 0x40 MLOAD PUSH2 0xDF SWAP5 SWAP4 SWAP3 SWAP2 SWAP1 PUSH2 0x9D4 JUMP JUMPDEST PUSH1 0x40 MLOAD DUP1 SWAP2 SUB SWAP1 RETURN JUMPDEST PUSH2 0xF0 PUSH2 0x3F5 JUMP JUMPDEST PUSH1 0x40 MLOAD PUSH2 0xFD SWAP2 SWAP1 PUSH2 0xA3A JUMP JUMPDEST PUSH1 0x40 MLOAD DUP1 SWAP2 SUB SWAP1 RETURN JUMPDEST PUSH2 0x120 PUSH1 0x4 DUP1 CALLDATASIZE SUB DUP2 ADD SWAP1 PUSH2 0x11B SWAP2 SWAP1 PUSH2 0xA7A JUMP JUMPDEST PUSH2 0x419 JUMP JUMPDEST STOP JUMPDEST PUSH2 0x12A PUSH2 0x66C JUMP JUMPDEST PUSH1 0x40 MLOAD PUSH2 0x137 SWAP2 SWAP1 PUSH2 0xB16 JUMP JUMPDEST PUSH1 0x40 MLOAD DUP1 SWAP2 SUB SWAP1 RETURN JUMPDEST PUSH1 0x2 PUSH1 0x0 SWAP1 SLOAD SWAP1 PUSH2 0x100 EXP SWAP1 DIV PUSH20 0xFFFFFFFFFFFFFFFFFFFFFFFFFFFFFFFFFFFFFFFF AND DUP2 JUMP JUMPDEST PUSH1 0x60 PUSH1 0x1 PUSH1 0x0 SWAP1 SLOAD SWAP1 PUSH2 0x100 EXP SWAP1 DIV PUSH20 0xFFFFFFFFFFFFFFFFFFFFFFFFFFFFFFFFFFFFFFFF AND PUSH20 0xFFFFFFFFFFFFFFFFFFFFFFFFFFFFFFFFFFFFFFFF AND PUSH4 0x4FB95BC6 DUP4 DUP5 PUSH1 0x40 MLOAD DUP4 PUSH4 0xFFFFFFFF AND PUSH1 0xE0 SHL DUP2 MSTORE PUSH1 0x4 ADD PUSH2 0x1C5 SWAP3 SWAP2 SWAP1 PUSH2 0xB31 JUMP JUMPDEST PUSH1 0x20 PUSH1 0x40 MLOAD DUP1 DUP4 SUB DUP2 DUP7 GAS STATICCALL ISZERO DUP1 ISZERO PUSH2 0x1E2 JUMPI RETURNDATASIZE PUSH1 0x0 DUP1 RETURNDATACOPY RETURNDATASIZE PUSH1 0x0 REVERT JUMPDEST POP POP POP POP PUSH1 0x40 MLOAD RETURNDATASIZE PUSH1 0x1F NOT PUSH1 0x1F DUP3 ADD AND DUP3 ADD DUP1 PUSH1 0x40 MSTORE POP DUP2 ADD SWAP1 PUSH2 0x206 SWAP2 SWAP1 PUSH2 0xB92 JUMP JUMPDEST PUSH2 0x245 JUMPI PUSH1 0x40 MLOAD PUSH32 0x8C379A000000000000000000000000000000000000000000000000000000000 DUP2 MSTORE PUSH1 0x4 ADD PUSH2 0x23C SWAP1 PUSH2 0xC1C JUMP JUMPDEST PUSH1 0x40 MLOAD DUP1 SWAP2 SUB SWAP1 REVERT JUMPDEST PUSH1 0x2 PUSH1 0x0 SWAP1 SLOAD SWAP1 PUSH2 0x100 EXP SWAP1 DIV PUSH20 0xFFFFFFFFFFFFFFFFFFFFFFFFFFFFFFFFFFFFFFFF AND PUSH20 0xFFFFFFFFFFFFFFFFFFFFFFFFFFFFFFFFFFFFFFFF AND PUSH4 0xA2CF0C56 DUP4 PUSH1 0x40 MLOAD DUP3 PUSH4 0xFFFFFFFF AND PUSH1 0xE0 SHL DUP2 MSTORE PUSH1 0x4 ADD PUSH2 0x2A0 SWAP2 SWAP1 PUSH2 0xC88 JUMP JUMPDEST PUSH1 0x0 PUSH1 0x40 MLOAD DUP1 DUP4 SUB DUP2 PUSH1 0x0 DUP8 DUP1 EXTCODESIZE ISZERO DUP1 ISZERO PUSH2 0x2BA JUMPI PUSH1 0x0 DUP1 REVERT JUMPDEST POP GAS CALL ISZERO DUP1 ISZERO PUSH2 0x2CE JUMPI RETURNDATASIZE PUSH1 0x0 DUP1 RETURNDATACOPY RETURNDATASIZE PUSH1 0x0 REVERT JUMPDEST POP POP POP POP PUSH1 0x3 PUSH1 0x0 DUP4 DUP2 MSTORE PUSH1 0x20 ADD SWAP1 DUP2 MSTORE PUSH1 0x20 ADD PUSH1 0x0 KECCAK256 DUP1 SLOAD DUP1 PUSH1 0x20 MUL PUSH1 0x20 ADD PUSH1 0x40 MLOAD SWAP1 DUP2 ADD PUSH1 0x40 MSTORE DUP1 SWAP3 SWAP2 SWAP1 DUP2 DUP2 MSTORE PUSH1 0x20 ADD PUSH1 0x0 SWAP1 JUMPDEST DUP3 DUP3 LT ISZERO PUSH2 0x390 JUMPI DUP4 DUP3 SWAP1 PUSH1 0x0 MSTORE PUSH1 0x20 PUSH1 0x0 KECCAK256 SWAP1 PUSH1 0x4 MUL ADD PUSH1 0x40 MLOAD DUP1 PUSH1 0x80 ADD PUSH1 0x40 MSTORE SWAP1 DUP2 PUSH1 0x0 DUP3 ADD SLOAD DUP2 MSTORE PUSH1 0x20 ADD PUSH1 0x1 DUP3 ADD PUSH1 0x0 SWAP1 SLOAD SWAP1 PUSH2 0x100 EXP SWAP1 DIV PUSH1 0xFF AND PUSH1 0x3 DUP2 GT ISZERO PUSH2 0x357 JUMPI PUSH2 0x356 PUSH2 0x7CF JUMP JUMPDEST JUMPDEST PUSH1 0x3 DUP2 GT ISZERO PUSH2 0x369 JUMPI PUSH2 0x368 PUSH2 0x7CF JUMP JUMPDEST JUMPDEST DUP2 MSTORE PUSH1 0x20 ADD PUSH1 0x2 DUP3 ADD SLOAD DUP2 MSTORE PUSH1 0x20 ADD PUSH1 0x3 DUP3 ADD SLOAD DUP2 MSTORE POP POP DUP2 MSTORE PUSH1 0x20 ADD SWAP1 PUSH1 0x1 ADD SWAP1 PUSH2 0x305 JUMP JUMPDEST POP POP POP POP SWAP1 POP SWAP2 SWAP1 POP JUMP JUMPDEST PUSH1 0x3 PUSH1 0x20 MSTORE DUP2 PUSH1 0x0 MSTORE PUSH1 0x40 PUSH1 0x0 KECCAK256 DUP2 DUP2 SLOAD DUP2 LT PUSH2 0x3B7 JUMPI PUSH1 0x0 DUP1 REVERT JUMPDEST SWAP1 PUSH1 0x0 MSTORE PUSH1 0x20 PUSH1 0x0 KECCAK256 SWAP1 PUSH1 0x4 MUL ADD PUSH1 0x0 SWAP2 POP SWAP2 POP POP DUP1 PUSH1 0x0 ADD SLOAD SWAP1 DUP1 PUSH1 0x1 ADD PUSH1 0x0 SWAP1 SLOAD SWAP1 PUSH2 0x100 EXP SWAP1 DIV PUSH1 0xFF AND SWAP1 DUP1 PUSH1 0x2 ADD SLOAD SWAP1 DUP1 PUSH1 0x3 ADD SLOAD SWAP1 POP DUP5 JUMP JUMPDEST PUSH1 0x0 DUP1 SLOAD SWAP1 PUSH2 0x100 EXP SWAP1 DIV PUSH20 0xFFFFFFFFFFFFFFFFFFFFFFFFFFFFFFFFFFFFFFFF AND DUP2 JUMP JUMPDEST PUSH1 0x1 PUSH1 0x3 DUP2 GT ISZERO PUSH2 0x42D JUMPI PUSH2 0x42C PUSH2 0x7CF JUMP JUMPDEST JUMPDEST PUSH1 0x0 DUP1 SLOAD SWAP1 PUSH2 0x100 EXP SWAP1 DIV PUSH20 0xFFFFFFFFFFFFFFFFFFFFFFFFFFFFFFFFFFFFFFFF AND PUSH20 0xFFFFFFFFFFFFFFFFFFFFFFFFFFFFFFFFFFFFFFFF AND PUSH4 0xA95CEB64 DUP8 PUSH1 0x40 MLOAD DUP3 PUSH4 0xFFFFFFFF AND PUSH1 0xE0 SHL DUP2 MSTORE PUSH1 0x4 ADD PUSH2 0x486 SWAP2 SWAP1 PUSH2 0xCB6 JUMP JUMPDEST PUSH1 0x20 PUSH1 0x40 MLOAD DUP1 DUP4 SUB DUP2 DUP7 GAS STATICCALL ISZERO DUP1 ISZERO PUSH2 0x4A3 JUMPI RETURNDATASIZE PUSH1 0x0 DUP1 RETURNDATACOPY RETURNDATASIZE PUSH1 0x0 REVERT JUMPDEST POP POP POP POP PUSH1 0x40 MLOAD RETURNDATASIZE PUSH1 0x1F NOT PUSH1 0x1F DUP3 ADD AND DUP3 ADD DUP1 PUSH1 0x40 MSTORE POP DUP2 ADD SWAP1 PUSH2 0x4C7 SWAP2 SWAP1 PUSH2 0xCF6 JUMP JUMPDEST PUSH1 0x3 DUP2 GT ISZERO PUSH2 0x4D9 JUMPI PUSH2 0x4D8 PUSH2 0x7CF JUMP JUMPDEST JUMPDEST EQ PUSH2 0x519 JUMPI PUSH1 0x40 MLOAD PUSH32 0x8C379A000000000000000000000000000000000000000000000000000000000 DUP2 MSTORE PUSH1 0x4 ADD PUSH2 0x510 SWAP1 PUSH2 0xD6F JUMP JUMPDEST PUSH1 0x40 MLOAD DUP1 SWAP2 SUB SWAP1 REVERT JUMPDEST PUSH1 0x3 PUSH1 0x0 DUP7 DUP2 MSTORE PUSH1 0x20 ADD SWAP1 DUP2 MSTORE PUSH1 0x20 ADD PUSH1 0x0 KECCAK256 PUSH1 0x40 MLOAD DUP1 PUSH1 0x80 ADD PUSH1 0x40 MSTORE DUP1 DUP7 DUP2 MSTORE PUSH1 0x20 ADD DUP6 PUSH1 0x3 DUP2 GT ISZERO PUSH2 0x550 JUMPI PUSH2 0x54F PUSH2 0x7CF JUMP JUMPDEST JUMPDEST DUP2 MSTORE PUSH1 0x20 ADD DUP5 DUP2 MSTORE PUSH1 0x20 ADD DUP4 DUP2 MSTORE POP SWAP1 DUP1 PUSH1 0x1 DUP2 SLOAD ADD DUP1 DUP3 SSTORE DUP1 SWAP2 POP POP PUSH1 0x1 SWAP1 SUB SWAP1 PUSH1 0x0 MSTORE PUSH1 0x20 PUSH1 0x0 KECCAK256 SWAP1 PUSH1 0x4 MUL ADD PUSH1 0x0 SWAP1 SWAP2 SWAP1 SWAP2 SWAP1 SWAP2 POP PUSH1 0x0 DUP3 ADD MLOAD DUP2 PUSH1 0x0 ADD SSTORE PUSH1 0x20 DUP3 ADD MLOAD DUP2 PUSH1 0x1 ADD PUSH1 0x0 PUSH2 0x100 EXP DUP2 SLOAD DUP2 PUSH1 0xFF MUL NOT AND SWAP1 DUP4 PUSH1 0x3 DUP2 GT ISZERO PUSH2 0x5BD JUMPI PUSH2 0x5BC PUSH2 0x7CF JUMP JUMPDEST JUMPDEST MUL OR SWAP1 SSTORE POP PUSH1 0x40 DUP3 ADD MLOAD DUP2 PUSH1 0x2 ADD SSTORE PUSH1 0x60 DUP3 ADD MLOAD DUP2 PUSH1 0x3 ADD SSTORE POP POP PUSH1 0x2 PUSH1 0x0 SWAP1 SLOAD SWAP1 PUSH2 0x100 EXP SWAP1 DIV PUSH20 0xFFFFFFFFFFFFFFFFFFFFFFFFFFFFFFFFFFFFFFFF AND PUSH20 0xFFFFFFFFFFFFFFFFFFFFFFFFFFFFFFFFFFFFFFFF AND PUSH4 0xA2CF0C56 DUP7 PUSH1 0x40 MLOAD DUP3 PUSH4 0xFFFFFFFF AND PUSH1 0xE0 SHL DUP2 MSTORE PUSH1 0x4 ADD PUSH2 0x633 SWAP2 SWAP1 PUSH2 0xDDB JUMP JUMPDEST PUSH1 0x0 PUSH1 0x40 MLOAD DUP1 DUP4 SUB DUP2 PUSH1 0x0 DUP8 DUP1 EXTCODESIZE ISZERO DUP1 ISZERO PUSH2 0x64D JUMPI PUSH1 0x0 DUP1 REVERT JUMPDEST POP GAS CALL ISZERO DUP1 ISZERO PUSH2 0x661 JUMPI RETURNDATASIZE PUSH1 0x0 DUP1 RETURNDATACOPY RETURNDATASIZE PUSH1 0x0 REVERT JUMPDEST POP POP POP POP POP POP POP POP POP JUMP JUMPDEST PUSH1 0x1 PUSH1 0x0 SWAP1 SLOAD SWAP1 PUSH2 0x100 EXP SWAP1 DIV PUSH20 0xFFFFFFFFFFFFFFFFFFFFFFFFFFFFFFFFFFFFFFFF AND DUP2 JUMP JUMPDEST PUSH1 0x0 PUSH20 0xFFFFFFFFFFFFFFFFFFFFFFFFFFFFFFFFFFFFFFFF DUP3 AND SWAP1 POP SWAP2 SWAP1 POP JUMP JUMPDEST PUSH1 0x0 DUP2 SWAP1 POP SWAP2 SWAP1 POP JUMP JUMPDEST PUSH1 0x0 PUSH2 0x6D7 PUSH2 0x6D2 PUSH2 0x6CD DUP5 PUSH2 0x692 JUMP JUMPDEST PUSH2 0x6B2 JUMP JUMPDEST PUSH2 0x692 JUMP JUMPDEST SWAP1 POP SWAP2 SWAP1 POP JUMP JUMPDEST PUSH1 0x0 PUSH2 0x6E9 DUP3 PUSH2 0x6BC JUMP JUMPDEST SWAP1 POP SWAP2 SWAP1 POP JUMP JUMPDEST PUSH1 0x0 PUSH2 0x6FB DUP3 PUSH2 0x6DE JUMP JUMPDEST SWAP1 POP SWAP2 SWAP1 POP JUMP JUMPDEST PUSH2 0x70B DUP2 PUSH2 0x6F0 JUMP JUMPDEST DUP3 MSTORE POP POP JUMP JUMPDEST PUSH1 0x0 PUSH1 0x20 DUP3 ADD SWAP1 POP PUSH2 0x726 PUSH1 0x0 DUP4 ADD DUP5 PUSH2 0x702 JUMP JUMPDEST SWAP3 SWAP2 POP POP JUMP JUMPDEST PUSH1 0x0 DUP1 REVERT JUMPDEST PUSH1 0x0 DUP2 SWAP1 POP SWAP2 SWAP1 POP JUMP JUMPDEST PUSH2 0x744 DUP2 PUSH2 0x731 JUMP JUMPDEST DUP2 EQ PUSH2 0x74F JUMPI PUSH1 0x0 DUP1 REVERT JUMPDEST POP JUMP JUMPDEST PUSH1 0x0 DUP2 CALLDATALOAD SWAP1 POP PUSH2 0x761 DUP2 PUSH2 0x73B JUMP JUMPDEST SWAP3 SWAP2 POP POP JUMP JUMPDEST PUSH1 0x0 PUSH1 0x20 DUP3 DUP5 SUB SLT ISZERO PUSH2 0x77D JUMPI PUSH2 0x77C PUSH2 0x72C JUMP JUMPDEST JUMPDEST PUSH1 0x0 PUSH2 0x78B DUP5 DUP3 DUP6 ADD PUSH2 0x752 JUMP JUMPDEST SWAP2 POP POP SWAP3 SWAP2 POP POP JUMP JUMPDEST PUSH1 0x0 DUP2 MLOAD SWAP1 POP SWAP2 SWAP1 POP JUMP JUMPDEST PUSH1 0x0 DUP3 DUP3 MSTORE PUSH1 0x20 DUP3 ADD SWAP1 POP SWAP3 SWAP2 POP POP JUMP JUMPDEST PUSH1 0x0 DUP2 SWAP1 POP PUSH1 0x20 DUP3 ADD SWAP1 POP SWAP2 SWAP1 POP JUMP JUMPDEST PUSH2 0x7C9 DUP2 PUSH2 0x731 JUMP JUMPDEST DUP3 MSTORE POP POP JUMP JUMPDEST PUSH32 0x4E487B7100000000000000000000000000000000000000000000000000000000 PUSH1 0x0 MSTORE PUSH1 0x21 PUSH1 0x4 MSTORE PUSH1 0x24 PUSH1 0x0 REVERT JUMPDEST PUSH1 0x4 DUP2 LT PUSH2 0x80F JUMPI PUSH2 0x80E PUSH2 0x7CF JUMP JUMPDEST JUMPDEST POP JUMP JUMPDEST PUSH1 0x0 DUP2 SWAP1 POP PUSH2 0x820 DUP3 PUSH2 0x7FE JUMP JUMPDEST SWAP2 SWAP1 POP JUMP JUMPDEST PUSH1 0x0 PUSH2 0x830 DUP3 PUSH2 0x812 JUMP JUMPDEST SWAP1 POP SWAP2 SWAP1 POP JUMP JUMPDEST PUSH2 0x840 DUP2 PUSH2 0x825 JUMP JUMPDEST DUP3 MSTORE POP POP JUMP JUMPDEST PUSH1 0x80 DUP3 ADD PUSH1 0x0 DUP3 ADD MLOAD PUSH2 0x85C PUSH1 0x0 DUP6 ADD DUP3 PUSH2 0x7C0 JUMP JUMPDEST POP PUSH1 0x20 DUP3 ADD MLOAD PUSH2 0x86F PUSH1 0x20 DUP6 ADD DUP3 PUSH2 0x837 JUMP JUMPDEST POP PUSH1 0x40 DUP3 ADD MLOAD PUSH2 0x882 PUSH1 0x40 DUP6 ADD DUP3 PUSH2 0x7C0 JUMP JUMPDEST POP PUSH1 0x60 DUP3 ADD MLOAD PUSH2 0x895 PUSH1 0x60 DUP6 ADD DUP3 PUSH2 0x7C0 JUMP JUMPDEST POP POP POP POP JUMP JUMPDEST PUSH1 0x0 PUSH2 0x8A7 DUP4 DUP4 PUSH2 0x846 JUMP JUMPDEST PUSH1 0x80 DUP4 ADD SWAP1 POP SWAP3 SWAP2 POP POP JUMP JUMPDEST PUSH1 0x0 PUSH1 0x20 DUP3 ADD SWAP1 POP SWAP2 SWAP1 POP JUMP JUMPDEST PUSH1 0x0 PUSH2 0x8CB DUP3 PUSH2 0x794 JUMP JUMPDEST PUSH2 0x8D5 DUP2 DUP6 PUSH2 0x79F JUMP JUMPDEST SWAP4 POP PUSH2 0x8E0 DUP4 PUSH2 0x7B0 JUMP JUMPDEST DUP1 PUSH1 0x0 JUMPDEST DUP4 DUP2 LT ISZERO PUSH2 0x911 JUMPI DUP2 MLOAD PUSH2 0x8F8 DUP9 DUP3 PUSH2 0x89B JUMP JUMPDEST SWAP8 POP PUSH2 0x903 DUP4 PUSH2 0x8B3 JUMP JUMPDEST SWAP3 POP POP PUSH1 0x1 DUP2 ADD SWAP1 POP PUSH2 0x8E4 JUMP JUMPDEST POP DUP6 SWAP4 POP POP POP POP SWAP3 SWAP2 POP POP JUMP JUMPDEST PUSH1 0x0 PUSH1 0x20 DUP3 ADD SWAP1 POP DUP2 DUP2 SUB PUSH1 0x0 DUP4 ADD MSTORE PUSH2 0x938 DUP2 DUP5 PUSH2 0x8C0 JUMP JUMPDEST SWAP1 POP SWAP3 SWAP2 POP POP JUMP JUMPDEST PUSH1 0x0 DUP2 SWAP1 POP SWAP2 SWAP1 POP JUMP JUMPDEST PUSH2 0x953 DUP2 PUSH2 0x940 JUMP JUMPDEST DUP2 EQ PUSH2 0x95E JUMPI PUSH1 0x0 DUP1 REVERT JUMPDEST POP JUMP JUMPDEST PUSH1 0x0 DUP2 CALLDATALOAD SWAP1 POP PUSH2 0x970 DUP2 PUSH2 0x94A JUMP JUMPDEST SWAP3 SWAP2 POP POP JUMP JUMPDEST PUSH1 0x0 DUP1 PUSH1 0x40 DUP4 DUP6 SUB SLT ISZERO PUSH2 0x98D JUMPI PUSH2 0x98C PUSH2 0x72C JUMP JUMPDEST JUMPDEST PUSH1 0x0 PUSH2 0x99B DUP6 DUP3 DUP7 ADD PUSH2 0x752 JUMP JUMPDEST SWAP3 POP POP PUSH1 0x20 PUSH2 0x9AC DUP6 DUP3 DUP7 ADD PUSH2 0x961 JUMP JUMPDEST SWAP2 POP POP SWAP3 POP SWAP3 SWAP1 POP JUMP JUMPDEST PUSH2 0x9BF DUP2 PUSH2 0x731 JUMP JUMPDEST DUP3 MSTORE POP POP JUMP JUMPDEST PUSH2 0x9CE DUP2 PUSH2 0x825 JUMP JUMPDEST DUP3 MSTORE POP POP JUMP JUMPDEST PUSH1 0x0 PUSH1 0x80 DUP3 ADD SWAP1 POP PUSH2 0x9E9 PUSH1 0x0 DUP4 ADD DUP8 PUSH2 0x9B6 JUMP JUMPDEST PUSH2 0x9F6 PUSH1 0x20 DUP4 ADD DUP7 PUSH2 0x9C5 JUMP JUMPDEST PUSH2 0xA03 PUSH1 0x40 DUP4 ADD DUP6 PUSH2 0x9B6 JUMP JUMPDEST PUSH2 0xA10 PUSH1 0x60 DUP4 ADD DUP5 PUSH2 0x9B6 JUMP JUMPDEST SWAP6 SWAP5 POP POP POP POP POP JUMP JUMPDEST PUSH1 0x0 PUSH2 0xA24 DUP3 PUSH2 0x6DE JUMP JUMPDEST SWAP1 POP SWAP2 SWAP1 POP JUMP JUMPDEST PUSH2 0xA34 DUP2 PUSH2 0xA19 JUMP JUMPDEST DUP3 MSTORE POP POP JUMP JUMPDEST PUSH1 0x0 PUSH1 0x20 DUP3 ADD SWAP1 POP PUSH2 0xA4F PUSH1 0x0 DUP4 ADD DUP5 PUSH2 0xA2B JUMP JUMPDEST SWAP3 SWAP2 POP POP JUMP JUMPDEST PUSH1 0x4 DUP2 LT PUSH2 0xA62 JUMPI PUSH1 0x0 DUP1 REVERT JUMPDEST POP JUMP JUMPDEST PUSH1 0x0 DUP2 CALLDATALOAD SWAP1 POP PUSH2 0xA74 DUP2 PUSH2 0xA55 JUMP JUMPDEST SWAP3 SWAP2 POP POP JUMP JUMPDEST PUSH1 0x0 DUP1 PUSH1 0x0 DUP1 PUSH1 0x0 PUSH1 0xA0 DUP7 DUP9 SUB SLT ISZERO PUSH2 0xA96 JUMPI PUSH2 0xA95 PUSH2 0x72C JUMP JUMPDEST JUMPDEST PUSH1 0x0 PUSH2 0xAA4 DUP9 DUP3 DUP10 ADD PUSH2 0x752 JUMP JUMPDEST SWAP6 POP POP PUSH1 0x20 PUSH2 0xAB5 DUP9 DUP3 DUP10 ADD PUSH2 0x752 JUMP JUMPDEST SWAP5 POP POP PUSH1 0x40 PUSH2 0xAC6 DUP9 DUP3 DUP10 ADD PUSH2 0xA65 JUMP JUMPDEST SWAP4 POP POP PUSH1 0x60 PUSH2 0xAD7 DUP9 DUP3 DUP10 ADD PUSH2 0x752 JUMP JUMPDEST SWAP3 POP POP PUSH1 0x80 PUSH2 0xAE8 DUP9 DUP3 DUP10 ADD PUSH2 0x752 JUMP JUMPDEST SWAP2 POP POP SWAP3 SWAP6 POP SWAP3 SWAP6 SWAP1 SWAP4 POP JUMP JUMPDEST PUSH1 0x0 PUSH2 0xB00 DUP3 PUSH2 0x6DE JUMP JUMPDEST SWAP1 POP SWAP2 SWAP1 POP JUMP JUMPDEST PUSH2 0xB10 DUP2 PUSH2 0xAF5 JUMP JUMPDEST DUP3 MSTORE POP POP JUMP JUMPDEST PUSH1 0x0 PUSH1 0x20 DUP3 ADD SWAP1 POP PUSH2 0xB2B PUSH1 0x0 DUP4 ADD DUP5 PUSH2 0xB07 JUMP JUMPDEST SWAP3 SWAP2 POP POP JUMP JUMPDEST PUSH1 0x0 PUSH1 0x40 DUP3 ADD SWAP1 POP PUSH2 0xB46 PUSH1 0x0 DUP4 ADD DUP6 PUSH2 0x9B6 JUMP JUMPDEST PUSH2 0xB53 PUSH1 0x20 DUP4 ADD DUP5 PUSH2 0x9B6 JUMP JUMPDEST SWAP4 SWAP3 POP POP POP JUMP JUMPDEST PUSH1 0x0 DUP2 ISZERO ISZERO SWAP1 POP SWAP2 SWAP1 POP JUMP JUMPDEST PUSH2 0xB6F DUP2 PUSH2 0xB5A JUMP JUMPDEST DUP2 EQ PUSH2 0xB7A JUMPI PUSH1 0x0 DUP1 REVERT JUMPDEST POP JUMP JUMPDEST PUSH1 0x0 DUP2 MLOAD SWAP1 POP PUSH2 0xB8C DUP2 PUSH2 0xB66 JUMP JUMPDEST SWAP3 SWAP2 POP POP JUMP JUMPDEST PUSH1 0x0 PUSH1 0x20 DUP3 DUP5 SUB SLT ISZERO PUSH2 0xBA8 JUMPI PUSH2 0xBA7 PUSH2 0x72C JUMP JUMPDEST JUMPDEST PUSH1 0x0 PUSH2 0xBB6 DUP5 DUP3 DUP6 ADD PUSH2 0xB7D JUMP JUMPDEST SWAP2 POP POP SWAP3 SWAP2 POP POP JUMP JUMPDEST PUSH1 0x0 DUP3 DUP3 MSTORE PUSH1 0x20 DUP3 ADD SWAP1 POP SWAP3 SWAP2 POP POP JUMP JUMPDEST PUSH32 0x4163636573732064656E69656421000000000000000000000000000000000000 PUSH1 0x0 DUP3 ADD MSTORE POP JUMP JUMPDEST PUSH1 0x0 PUSH2 0xC06 PUSH1 0xE DUP4 PUSH2 0xBBF JUMP JUMPDEST SWAP2 POP PUSH2 0xC11 DUP3 PUSH2 0xBD0 JUMP JUMPDEST PUSH1 0x20 DUP3 ADD SWAP1 POP SWAP2 SWAP1 POP JUMP JUMPDEST PUSH1 0x0 PUSH1 0x20 DUP3 ADD SWAP1 POP DUP2 DUP2 SUB PUSH1 0x0 DUP4 ADD MSTORE PUSH2 0xC35 DUP2 PUSH2 0xBF9 JUMP JUMPDEST SWAP1 POP SWAP2 SWAP1 POP JUMP JUMPDEST PUSH32 0x596F75722064617461207761732061636365737365642E000000000000000000 PUSH1 0x0 DUP3 ADD MSTORE POP JUMP JUMPDEST PUSH1 0x0 PUSH2 0xC72 PUSH1 0x17 DUP4 PUSH2 0xBBF JUMP JUMPDEST SWAP2 POP PUSH2 0xC7D DUP3 PUSH2 0xC3C JUMP JUMPDEST PUSH1 0x20 DUP3 ADD SWAP1 POP SWAP2 SWAP1 POP JUMP JUMPDEST PUSH1 0x0 PUSH1 0x40 DUP3 ADD SWAP1 POP PUSH2 0xC9D PUSH1 0x0 DUP4 ADD DUP5 PUSH2 0x9B6 JUMP JUMPDEST DUP2 DUP2 SUB PUSH1 0x20 DUP4 ADD MSTORE PUSH2 0xCAE DUP2 PUSH2 0xC65 JUMP JUMPDEST SWAP1 POP SWAP3 SWAP2 POP POP JUMP JUMPDEST PUSH1 0x0 PUSH1 0x20 DUP3 ADD SWAP1 POP PUSH2 0xCCB PUSH1 0x0 DUP4 ADD DUP5 PUSH2 0x9B6 JUMP JUMPDEST SWAP3 SWAP2 POP POP JUMP JUMPDEST PUSH1 0x4 DUP2 LT PUSH2 0xCDE JUMPI PUSH1 0x0 DUP1 REVERT JUMPDEST POP JUMP JUMPDEST PUSH1 0x0 DUP2 MLOAD SWAP1 POP PUSH2 0xCF0 DUP2 PUSH2 0xCD1 JUMP JUMPDEST SWAP3 SWAP2 POP POP JUMP JUMPDEST PUSH1 0x0 PUSH1 0x20 DUP3 DUP5 SUB SLT ISZERO PUSH2 0xD0C JUMPI PUSH2 0xD0B PUSH2 0x72C JUMP JUMPDEST JUMPDEST PUSH1 0x0 PUSH2 0xD1A DUP5 DUP3 DUP6 ADD PUSH2 0xCE1 JUMP JUMPDEST SWAP2 POP POP SWAP3 SWAP2 POP POP JUMP JUMPDEST PUSH32 0x4E6F7420617574686F72697A6564210000000000000000000000000000000000 PUSH1 0x0 DUP3 ADD MSTORE POP JUMP JUMPDEST PUSH1 0x0 PUSH2 0xD59 PUSH1 0xF DUP4 PUSH2 0xBBF JUMP JUMPDEST SWAP2 POP PUSH2 0xD64 DUP3 PUSH2 0xD23 JUMP JUMPDEST PUSH1 0x20 DUP3 ADD SWAP1 POP SWAP2 SWAP1 POP JUMP JUMPDEST PUSH1 0x0 PUSH1 0x20 DUP3 ADD SWAP1 POP DUP2 DUP2 SUB PUSH1 0x0 DUP4 ADD MSTORE PUSH2 0xD88 DUP2 PUSH2 0xD4C JUMP JUMPDEST SWAP1 POP SWAP2 SWAP1 POP JUMP JUMPDEST PUSH32 0x4E657720646174612061646465642E0000000000000000000000000000000000 PUSH1 0x0 DUP3 ADD MSTORE POP JUMP JUMPDEST PUSH1 0x0 PUSH2 0xDC5 PUSH1 0xF DUP4 PUSH2 0xBBF JUMP JUMPDEST SWAP2 POP PUSH2 0xDD0 DUP3 PUSH2 0xD8F JUMP JUMPDEST PUSH1 0x20 DUP3 ADD SWAP1 POP SWAP2 SWAP1 POP JUMP JUMPDEST PUSH1 0x0 PUSH1 0x40 DUP3 ADD SWAP1 POP PUSH2 0xDF0 PUSH1 0x0 DUP4 ADD DUP5 PUSH2 0x9B6 JUMP JUMPDEST DUP2 DUP2 SUB PUSH1 0x20 DUP4 ADD MSTORE PUSH2 0xE01 DUP2 PUSH2 0xDB8 JUMP JUMPDEST SWAP1 POP SWAP3 SWAP2 POP POP JUMP INVALID LOG2 PUSH5 0x6970667358 0x22 SLT KECCAK256 SWAP4 PUSH2 0x8593 0x5C SLOAD 0xE1 0xD9 SHL PUSH20 0x7B7FF4399566D1CDAF725367092B2AB2945077D 0xD4 0xDB PUSH5 0x736F6C6343 STOP ADDMOD EXP STOP CALLER "
    },
    "gasEstimates": {
      "creation": {
        "codeDepositCost": "729400",
        "executionCost": "infinite",
        "totalCost": "infinite"
      },
      "external": {
        "addEHRdata(bytes32,bytes32,uint8,bytes32,bytes32)": "infinite",
        "getPatientData(bytes32)": "infinite",
        "notificationManager()": "infinite",
        "patientData(bytes32,uint256)": "infinite",
        "permission()": "infinite",
        "registry()": "infinite"
      }
    },
    "methodIdentifiers": {
      "addEHRdata(bytes32,bytes32,uint8,bytes32,bytes32)": "d9248a84",
      "getPatientData(bytes32)": "21bd17a0",
      "notificationManager()": "1d755579",
      "patientData(bytes32,uint256)": "62a5fcf4",
      "permission()": "f3b0c8b7",
      "registry()": "7b103999"
    }
  },
  "storageLayout": {
    "storage": [
      {
        "astId": 66,
        "contract": "metadata.sol:Metadata",
        "label": "registry",
        "offset": 0,
        "slot": "0",
        "type": "t_contract(Registry)480"
      },
      {
        "astId": 69,
        "contract": "metadata.sol:Metadata",
        "label": "permission",
        "offset": 0,
        "slot": "1",
        "type": "t_contract(Permission)328"
      },
      {
        "astId": 72,
        "contract": "metadata.sol:Metadata",
        "label": "notificationManager",
        "offset": 0,
        "slot": "2",
        "type": "t_contract(NotificationManager)58"
      },
      {
        "astId": 93,
        "contract": "metadata.sol:Metadata",
        "label": "patientData",
        "offset": 0,
        "slot": "3",
        "type": "t_mapping(t_bytes32,t_array(t_struct(Data)87_storage)dyn_storage)"
      }
    ],
    "types": {
      "t_array(t_struct(Data)87_storage)dyn_storage": {
        "base": "t_struct(Data)87_storage",
        "encoding": "dynamic_array",
        "label": "struct Metadata.Data[]",
        "numberOfBytes": "32"
      },
      "t_bytes32": {
        "encoding": "inplace",
        "label": "bytes32",
        "numberOfBytes": "32"
      },
      "t_contract(NotificationManager)58": {
        "encoding": "inplace",
        "label": "contract NotificationManager",
        "numberOfBytes": "20"
      },
      "t_contract(Permission)328": {
        "encoding": "inplace",
        "label": "contract Permission",
        "numberOfBytes": "20"
      },
      "t_contract(Registry)480": {
        "encoding": "inplace",
        "label": "contract Registry",
        "numberOfBytes": "20"
      },
      "t_enum(DataType)77": {
        "encoding": "inplace",
        "label": "enum Metadata.DataType",
        "numberOfBytes": "1"
      },
      "t_mapping(t_bytes32,t_array(t_struct(Data)87_storage)dyn_storage)": {
        "encoding": "mapping",
        "key": "t_bytes32",
        "label": "mapping(bytes32 => struct Metadata.Data[])",
        "numberOfBytes": "32",
        "value": "t_array(t_struct(Data)87_storage)dyn_storage"
      },
      "t_struct(Data)87_storage": {
        "encoding": "inplace",
        "label": "struct Metadata.Data",
        "members": [
          {
            "astId": 79,
            "contract": "metadata.sol:Metadata",
            "label": "key",
            "offset": 0,
            "slot": "0",
            "type": "t_bytes32"
          },
          {
            "astId": 82,
            "contract": "metadata.sol:Metadata",
            "label": "dataType",
            "offset": 0,
            "slot": "1",
            "type": "t_enum(DataType)77"
          },
          {
            "astId": 84,
            "contract": "metadata.sol:Metadata",
            "label": "hashIndex",
            "offset": 0,
            "slot": "2",
            "type": "t_bytes32"
          },
          {
            "astId": 86,
            "contract": "metadata.sol:Metadata",
            "label": "encKey",
            "offset": 0,
            "slot": "3",
            "type": "t_bytes32"
          }
        ],
        "numberOfBytes": "128"
      }
    }
  },
  "userdoc": {
    "kind": "user",
    "methods": {},
    "version": 1
  }
}