{
  "abi": [
    {
      "inputs": [
        {
          "internalType": "address",
          "name": "_registryAddress",
          "type": "address"
        },
        {
          "internalType": "address",
          "name": "_permissionAddress",
          "type": "address"
        }
      ],
      "stateMutability": "nonpayable",
      "type": "constructor"
    },
    {
      "anonymous": false,
      "inputs": [
        {
          "indexed": false,
          "internalType": "string",
          "name": "message",
          "type": "string"
        }
      ],
      "name": "DataAdded",
      "type": "event"
    },
    {
      "anonymous": false,
      "inputs": [
        {
          "indexed": false,
          "internalType": "address",
          "name": "userAddress",
          "type": "address"
        },
        {
          "indexed": false,
          "internalType": "string",
          "name": "message",
          "type": "string"
        }
      ],
      "name": "NotifyUser",
      "type": "event"
    },
    {
      "inputs": [
        {
          "internalType": "address",
          "name": "_userAddress",
          "type": "address"
        },
        {
          "internalType": "bytes32",
          "name": "_key",
          "type": "bytes32"
        },
        {
          "internalType": "enum Metadata.DataType",
          "name": "_dataType",
          "type": "uint8"
        },
        {
          "internalType": "bytes32",
          "name": "_hashIndex",
          "type": "bytes32"
        },
        {
          "internalType": "bytes32",
          "name": "_encKey",
          "type": "bytes32"
        }
      ],
      "name": "addEHRdata",
      "outputs": [],
      "stateMutability": "nonpayable",
      "type": "function"
    },
    {
      "inputs": [
        {
          "internalType": "address",
          "name": "_userAddress",
          "type": "address"
        }
      ],
      "name": "getPatientData",
      "outputs": [
        {
          "components": [
            {
              "internalType": "bytes32",
              "name": "key",
              "type": "bytes32"
            },
            {
              "internalType": "enum Metadata.DataType",
              "name": "dataType",
              "type": "uint8"
            },
            {
              "internalType": "bytes32",
              "name": "hashIndex",
              "type": "bytes32"
            },
            {
              "internalType": "bytes32",
              "name": "encKey",
              "type": "bytes32"
            }
          ],
          "internalType": "struct Metadata.Data[]",
          "name": "",
          "type": "tuple[]"
        }
      ],
      "stateMutability": "view",
      "type": "function"
    },
    {
      "inputs": [
        {
          "internalType": "address",
          "name": "",
          "type": "address"
        },
        {
          "internalType": "uint256",
          "name": "",
          "type": "uint256"
        }
      ],
      "name": "patientData",
      "outputs": [
        {
          "internalType": "bytes32",
          "name": "key",
          "type": "bytes32"
        },
        {
          "internalType": "enum Metadata.DataType",
          "name": "dataType",
          "type": "uint8"
        },
        {
          "internalType": "bytes32",
          "name": "hashIndex",
          "type": "bytes32"
        },
        {
          "internalType": "bytes32",
          "name": "encKey",
          "type": "bytes32"
        }
      ],
      "stateMutability": "view",
      "type": "function"
    },
    {
      "inputs": [],
      "name": "permission",
      "outputs": [
        {
          "internalType": "contract Permission",
          "name": "",
          "type": "address"
        }
      ],
      "stateMutability": "view",
      "type": "function"
    },
    {
      "inputs": [],
      "name": "registry",
      "outputs": [
        {
          "internalType": "contract Registry",
          "name": "",
          "type": "address"
        }
      ],
      "stateMutability": "view",
      "type": "function"
    }
  ],
  "devdoc": {
    "kind": "dev",
    "methods": {},
    "version": 1
  },
  "evm": {
    "assembly": "    /* \"metadata.sol\":202:2207  contract Metadata {... */\n  mstore(0x40, 0x80)\n    /* \"metadata.sol\":808:1060  constructor(address _registryAddress, address _permissionAddress) {... */\n  callvalue\n  dup1\n  iszero\n  tag_1\n  jumpi\n  0x00\n  dup1\n  revert\ntag_1:\n  pop\n  mload(0x40)\n  sub(codesize, bytecodeSize)\n  dup1\n  bytecodeSize\n  dup4\n  codecopy\n  dup2\n  dup2\n  add\n  0x40\n  mstore\n  dup2\n  add\n  swap1\n  tag_2\n  swap2\n  swap1\n  tag_3\n  jump\t// in\ntag_2:\n    /* \"metadata.sol\":905:921  _registryAddress */\n  dup2\n    /* \"metadata.sol\":885:893  registry */\n  0x00\n  dup1\n    /* \"metadata.sol\":885:922  registry = Registry(_registryAddress) */\n  0x0100\n  exp\n  dup2\n  sload\n  dup2\n  0xffffffffffffffffffffffffffffffffffffffff\n  mul\n  not\n  and\n  swap1\n  dup4\n  0xffffffffffffffffffffffffffffffffffffffff\n  and\n  mul\n  or\n  swap1\n  sstore\n  pop\n    /* \"metadata.sol\":994:1012  _permissionAddress */\n  dup1\n    /* \"metadata.sol\":970:980  permission */\n  0x01\n  0x00\n    /* \"metadata.sol\":970:1013  permission = Permission(_permissionAddress) */\n  0x0100\n  exp\n  dup2\n  sload\n  dup2\n  0xffffffffffffffffffffffffffffffffffffffff\n  mul\n  not\n  and\n  swap1\n  dup4\n  0xffffffffffffffffffffffffffffffffffffffff\n  and\n  mul\n  or\n  swap1\n  sstore\n  pop\n    /* \"metadata.sol\":808:1060  constructor(address _registryAddress, address _permissionAddress) {... */\n  pop\n  pop\n    /* \"metadata.sol\":202:2207  contract Metadata {... */\n  jump(tag_6)\n    /* \"#utility.yul\":88:205   */\ntag_8:\n    /* \"#utility.yul\":197:198   */\n  0x00\n    /* \"#utility.yul\":194:195   */\n  dup1\n    /* \"#utility.yul\":187:199   */\n  revert\n    /* \"#utility.yul\":334:460   */\ntag_10:\n    /* \"#utility.yul\":371:378   */\n  0x00\n    /* \"#utility.yul\":411:453   */\n  0xffffffffffffffffffffffffffffffffffffffff\n    /* \"#utility.yul\":404:409   */\n  dup3\n    /* \"#utility.yul\":400:454   */\n  and\n    /* \"#utility.yul\":389:454   */\n  swap1\n  pop\n    /* \"#utility.yul\":334:460   */\n  swap2\n  swap1\n  pop\n  jump\t// out\n    /* \"#utility.yul\":466:562   */\ntag_11:\n    /* \"#utility.yul\":503:510   */\n  0x00\n    /* \"#utility.yul\":532:556   */\n  tag_20\n    /* \"#utility.yul\":550:555   */\n  dup3\n    /* \"#utility.yul\":532:556   */\n  tag_10\n  jump\t// in\ntag_20:\n    /* \"#utility.yul\":521:556   */\n  swap1\n  pop\n    /* \"#utility.yul\":466:562   */\n  swap2\n  swap1\n  pop\n  jump\t// out\n    /* \"#utility.yul\":568:690   */\ntag_12:\n    /* \"#utility.yul\":641:665   */\n  tag_22\n    /* \"#utility.yul\":659:664   */\n  dup2\n    /* \"#utility.yul\":641:665   */\n  tag_11\n  jump\t// in\ntag_22:\n    /* \"#utility.yul\":634:639   */\n  dup2\n    /* \"#utility.yul\":631:666   */\n  eq\n    /* \"#utility.yul\":621:684   */\n  tag_23\n  jumpi\n    /* \"#utility.yul\":680:681   */\n  0x00\n    /* \"#utility.yul\":677:678   */\n  dup1\n    /* \"#utility.yul\":670:682   */\n  revert\n    /* \"#utility.yul\":621:684   */\ntag_23:\n    /* \"#utility.yul\":568:690   */\n  pop\n  jump\t// out\n    /* \"#utility.yul\":696:839   */\ntag_13:\n    /* \"#utility.yul\":753:758   */\n  0x00\n    /* \"#utility.yul\":784:790   */\n  dup2\n    /* \"#utility.yul\":778:791   */\n  mload\n    /* \"#utility.yul\":769:791   */\n  swap1\n  pop\n    /* \"#utility.yul\":800:833   */\n  tag_25\n    /* \"#utility.yul\":827:832   */\n  dup2\n    /* \"#utility.yul\":800:833   */\n  tag_12\n  jump\t// in\ntag_25:\n    /* \"#utility.yul\":696:839   */\n  swap3\n  swap2\n  pop\n  pop\n  jump\t// out\n    /* \"#utility.yul\":845:1352   */\ntag_3:\n    /* \"#utility.yul\":924:930   */\n  0x00\n    /* \"#utility.yul\":932:938   */\n  dup1\n    /* \"#utility.yul\":981:983   */\n  0x40\n    /* \"#utility.yul\":969:978   */\n  dup4\n    /* \"#utility.yul\":960:967   */\n  dup6\n    /* \"#utility.yul\":956:979   */\n  sub\n    /* \"#utility.yul\":952:984   */\n  slt\n    /* \"#utility.yul\":949:1068   */\n  iszero\n  tag_27\n  jumpi\n    /* \"#utility.yul\":987:1066   */\n  tag_28\n  tag_8\n  jump\t// in\ntag_28:\n    /* \"#utility.yul\":949:1068   */\ntag_27:\n    /* \"#utility.yul\":1107:1108   */\n  0x00\n    /* \"#utility.yul\":1132:1196   */\n  tag_29\n    /* \"#utility.yul\":1188:1195   */\n  dup6\n    /* \"#utility.yul\":1179:1185   */\n  dup3\n    /* \"#utility.yul\":1168:1177   */\n  dup7\n    /* \"#utility.yul\":1164:1186   */\n  add\n    /* \"#utility.yul\":1132:1196   */\n  tag_13\n  jump\t// in\ntag_29:\n    /* \"#utility.yul\":1122:1196   */\n  swap3\n  pop\n    /* \"#utility.yul\":1078:1206   */\n  pop\n    /* \"#utility.yul\":1245:1247   */\n  0x20\n    /* \"#utility.yul\":1271:1335   */\n  tag_30\n    /* \"#utility.yul\":1327:1334   */\n  dup6\n    /* \"#utility.yul\":1318:1324   */\n  dup3\n    /* \"#utility.yul\":1307:1316   */\n  dup7\n    /* \"#utility.yul\":1303:1325   */\n  add\n    /* \"#utility.yul\":1271:1335   */\n  tag_13\n  jump\t// in\ntag_30:\n    /* \"#utility.yul\":1261:1335   */\n  swap2\n  pop\n    /* \"#utility.yul\":1216:1345   */\n  pop\n    /* \"#utility.yul\":845:1352   */\n  swap3\n  pop\n  swap3\n  swap1\n  pop\n  jump\t// out\n    /* \"metadata.sol\":202:2207  contract Metadata {... */\ntag_6:\n  dataSize(sub_0)\n  dup1\n  dataOffset(sub_0)\n  0x00\n  codecopy\n  0x00\n  return\nstop\n\nsub_0: assembly {\n        /* \"metadata.sol\":202:2207  contract Metadata {... */\n      mstore(0x40, 0x80)\n      callvalue\n      dup1\n      iszero\n      tag_1\n      jumpi\n      0x00\n      dup1\n      revert\n    tag_1:\n      pop\n      jumpi(tag_2, lt(calldatasize, 0x04))\n      shr(0xe0, calldataload(0x00))\n      dup1\n      0x48e81852\n      eq\n      tag_3\n      jumpi\n      dup1\n      0x5c62adc2\n      eq\n      tag_4\n      jumpi\n      dup1\n      0x7b103999\n      eq\n      tag_5\n      jumpi\n      dup1\n      0xbb92bdd9\n      eq\n      tag_6\n      jumpi\n      dup1\n      0xf3b0c8b7\n      eq\n      tag_7\n      jumpi\n    tag_2:\n      0x00\n      dup1\n      revert\n        /* \"metadata.sol\":1827:2204  function getPatientData(address _userAddress) public view returns (Data[] memory) {... */\n    tag_3:\n      tag_8\n      0x04\n      dup1\n      calldatasize\n      sub\n      dup2\n      add\n      swap1\n      tag_9\n      swap2\n      swap1\n      tag_10\n      jump\t// in\n    tag_9:\n      tag_11\n      jump\t// in\n    tag_8:\n      mload(0x40)\n      tag_12\n      swap2\n      swap1\n      tag_13\n      jump\t// in\n    tag_12:\n      mload(0x40)\n      dup1\n      swap2\n      sub\n      swap1\n      return\n        /* \"metadata.sol\":580:625  mapping(address => Data[]) public patientData */\n    tag_4:\n      tag_14\n      0x04\n      dup1\n      calldatasize\n      sub\n      dup2\n      add\n      swap1\n      tag_15\n      swap2\n      swap1\n      tag_16\n      jump\t// in\n    tag_15:\n      tag_17\n      jump\t// in\n    tag_14:\n      mload(0x40)\n      tag_18\n      swap5\n      swap4\n      swap3\n      swap2\n      swap1\n      tag_19\n      jump\t// in\n    tag_18:\n      mload(0x40)\n      dup1\n      swap2\n      sub\n      swap1\n      return\n        /* \"metadata.sol\":227:251  Registry public registry */\n    tag_5:\n      tag_20\n      tag_21\n      jump\t// in\n    tag_20:\n      mload(0x40)\n      tag_22\n      swap2\n      swap1\n      tag_23\n      jump\t// in\n    tag_22:\n      mload(0x40)\n      dup1\n      swap2\n      sub\n      swap1\n      return\n        /* \"metadata.sol\":1068:1752  function addEHRdata(... */\n    tag_6:\n      tag_24\n      0x04\n      dup1\n      calldatasize\n      sub\n      dup2\n      add\n      swap1\n      tag_25\n      swap2\n      swap1\n      tag_26\n      jump\t// in\n    tag_25:\n      tag_27\n      jump\t// in\n    tag_24:\n      stop\n        /* \"metadata.sol\":258:286  Permission public permission */\n    tag_7:\n      tag_28\n      tag_29\n      jump\t// in\n    tag_28:\n      mload(0x40)\n      tag_30\n      swap2\n      swap1\n      tag_31\n      jump\t// in\n    tag_30:\n      mload(0x40)\n      dup1\n      swap2\n      sub\n      swap1\n      return\n        /* \"metadata.sol\":1827:2204  function getPatientData(address _userAddress) public view returns (Data[] memory) {... */\n    tag_11:\n        /* \"metadata.sol\":1894:1907  Data[] memory */\n      0x60\n        /* \"metadata.sol\":2023:2033  permission */\n      0x01\n      0x00\n      swap1\n      sload\n      swap1\n      0x0100\n      exp\n      swap1\n      div\n      0xffffffffffffffffffffffffffffffffffffffff\n      and\n        /* \"metadata.sol\":2023:2049  permission.checkPermission */\n      0xffffffffffffffffffffffffffffffffffffffff\n      and\n      0x1a160fe9\n        /* \"metadata.sol\":2050:2060  msg.sender */\n      caller\n        /* \"metadata.sol\":2062:2074  _userAddress */\n      dup5\n        /* \"metadata.sol\":2023:2075  permission.checkPermission(msg.sender, _userAddress) */\n      mload(0x40)\n      dup4\n      0xffffffff\n      and\n      0xe0\n      shl\n      dup2\n      mstore\n      0x04\n      add\n      tag_33\n      swap3\n      swap2\n      swap1\n      tag_34\n      jump\t// in\n    tag_33:\n      0x20\n      mload(0x40)\n      dup1\n      dup4\n      sub\n      dup2\n      dup7\n      gas\n      staticcall\n      iszero\n      dup1\n      iszero\n      tag_36\n      jumpi\n      returndatasize\n      0x00\n      dup1\n      returndatacopy\n      revert(0x00, returndatasize)\n    tag_36:\n      pop\n      pop\n      pop\n      pop\n      mload(0x40)\n      returndatasize\n      not(0x1f)\n      0x1f\n      dup3\n      add\n      and\n      dup3\n      add\n      dup1\n      0x40\n      mstore\n      pop\n      dup2\n      add\n      swap1\n      tag_37\n      swap2\n      swap1\n      tag_38\n      jump\t// in\n    tag_37:\n        /* \"metadata.sol\":2001:2151  require(... */\n      tag_39\n      jumpi\n      mload(0x40)\n      0x08c379a000000000000000000000000000000000000000000000000000000000\n      dup2\n      mstore\n      0x04\n      add\n      tag_40\n      swap1\n      tag_41\n      jump\t// in\n    tag_40:\n      mload(0x40)\n      dup1\n      swap2\n      sub\n      swap1\n      revert\n    tag_39:\n        /* \"metadata.sol\":2171:2182  patientData */\n      0x02\n        /* \"metadata.sol\":2171:2196  patientData[_userAddress] */\n      0x00\n        /* \"metadata.sol\":2183:2195  _userAddress */\n      dup4\n        /* \"metadata.sol\":2171:2196  patientData[_userAddress] */\n      0xffffffffffffffffffffffffffffffffffffffff\n      and\n      0xffffffffffffffffffffffffffffffffffffffff\n      and\n      dup2\n      mstore\n      0x20\n      add\n      swap1\n      dup2\n      mstore\n      0x20\n      add\n      0x00\n      keccak256\n        /* \"metadata.sol\":2164:2196  return patientData[_userAddress] */\n      dup1\n      sload\n      dup1\n      0x20\n      mul\n      0x20\n      add\n      mload(0x40)\n      swap1\n      dup2\n      add\n      0x40\n      mstore\n      dup1\n      swap3\n      swap2\n      swap1\n      dup2\n      dup2\n      mstore\n      0x20\n      add\n      0x00\n      swap1\n    tag_42:\n      dup3\n      dup3\n      lt\n      iszero\n      tag_43\n      jumpi\n      dup4\n      dup3\n      swap1\n      0x00\n      mstore\n      keccak256(0x00, 0x20)\n      swap1\n      0x04\n      mul\n      add\n      mload(0x40)\n      dup1\n      0x80\n      add\n      0x40\n      mstore\n      swap1\n      dup2\n      0x00\n      dup3\n      add\n      sload\n      dup2\n      mstore\n      0x20\n      add\n      0x01\n      dup3\n      add\n      0x00\n      swap1\n      sload\n      swap1\n      0x0100\n      exp\n      swap1\n      div\n      0xff\n      and\n      0x03\n      dup2\n      gt\n      iszero\n      tag_45\n      jumpi\n      tag_46\n      tag_47\n      jump\t// in\n    tag_46:\n    tag_45:\n      0x03\n      dup2\n      gt\n      iszero\n      tag_48\n      jumpi\n      tag_49\n      tag_47\n      jump\t// in\n    tag_49:\n    tag_48:\n      dup2\n      mstore\n      0x20\n      add\n      0x02\n      dup3\n      add\n      sload\n      dup2\n      mstore\n      0x20\n      add\n      0x03\n      dup3\n      add\n      sload\n      dup2\n      mstore\n      pop\n      pop\n      dup2\n      mstore\n      0x20\n      add\n      swap1\n      0x01\n      add\n      swap1\n      jump(tag_42)\n    tag_43:\n      pop\n      pop\n      pop\n      pop\n      swap1\n      pop\n        /* \"metadata.sol\":1827:2204  function getPatientData(address _userAddress) public view returns (Data[] memory) {... */\n      swap2\n      swap1\n      pop\n      jump\t// out\n        /* \"metadata.sol\":580:625  mapping(address => Data[]) public patientData */\n    tag_17:\n      mstore(0x20, 0x02)\n      dup2\n      0x00\n      mstore\n      keccak256(0x00, 0x40)\n      dup2\n      dup2\n      sload\n      dup2\n      lt\n      tag_50\n      jumpi\n      0x00\n      dup1\n      revert\n    tag_50:\n      swap1\n      0x00\n      mstore\n      keccak256(0x00, 0x20)\n      swap1\n      0x04\n      mul\n      add\n      0x00\n      swap2\n      pop\n      swap2\n      pop\n      pop\n      dup1\n      0x00\n      add\n      sload\n      swap1\n      dup1\n      0x01\n      add\n      0x00\n      swap1\n      sload\n      swap1\n      0x0100\n      exp\n      swap1\n      div\n      0xff\n      and\n      swap1\n      dup1\n      0x02\n      add\n      sload\n      swap1\n      dup1\n      0x03\n      add\n      sload\n      swap1\n      pop\n      dup5\n      jump\t// out\n        /* \"metadata.sol\":227:251  Registry public registry */\n    tag_21:\n      0x00\n      dup1\n      sload\n      swap1\n      0x0100\n      exp\n      swap1\n      div\n      0xffffffffffffffffffffffffffffffffffffffff\n      and\n      dup2\n      jump\t// out\n        /* \"metadata.sol\":1068:1752  function addEHRdata(... */\n    tag_27:\n        /* \"metadata.sol\":1316:1342  Registry.Role.CareProvider */\n      0x01\n        /* \"metadata.sol\":1280:1342  registry.getUserRole(msg.sender) == Registry.Role.CareProvider */\n      0x03\n      dup2\n      gt\n      iszero\n      tag_53\n      jumpi\n      tag_54\n      tag_47\n      jump\t// in\n    tag_54:\n    tag_53:\n        /* \"metadata.sol\":1280:1288  registry */\n      0x00\n      dup1\n      sload\n      swap1\n      0x0100\n      exp\n      swap1\n      div\n      0xffffffffffffffffffffffffffffffffffffffff\n      and\n        /* \"metadata.sol\":1280:1300  registry.getUserRole */\n      0xffffffffffffffffffffffffffffffffffffffff\n      and\n      0x27820851\n        /* \"metadata.sol\":1301:1311  msg.sender */\n      caller\n        /* \"metadata.sol\":1280:1312  registry.getUserRole(msg.sender) */\n      mload(0x40)\n      dup3\n      0xffffffff\n      and\n      0xe0\n      shl\n      dup2\n      mstore\n      0x04\n      add\n      tag_55\n      swap2\n      swap1\n      tag_56\n      jump\t// in\n    tag_55:\n      0x20\n      mload(0x40)\n      dup1\n      dup4\n      sub\n      dup2\n      dup7\n      gas\n      staticcall\n      iszero\n      dup1\n      iszero\n      tag_58\n      jumpi\n      returndatasize\n      0x00\n      dup1\n      returndatacopy\n      revert(0x00, returndatasize)\n    tag_58:\n      pop\n      pop\n      pop\n      pop\n      mload(0x40)\n      returndatasize\n      not(0x1f)\n      0x1f\n      dup3\n      add\n      and\n      dup3\n      add\n      dup1\n      0x40\n      mstore\n      pop\n      dup2\n      add\n      swap1\n      tag_59\n      swap2\n      swap1\n      tag_60\n      jump\t// in\n    tag_59:\n        /* \"metadata.sol\":1280:1342  registry.getUserRole(msg.sender) == Registry.Role.CareProvider */\n      0x03\n      dup2\n      gt\n      iszero\n      tag_61\n      jumpi\n      tag_62\n      tag_47\n      jump\t// in\n    tag_62:\n    tag_61:\n      eq\n        /* \"metadata.sol\":1272:1370  require(registry.getUserRole(msg.sender) == Registry.Role.CareProvider, \"You are not authorized!\") */\n      tag_63\n      jumpi\n      mload(0x40)\n      0x08c379a000000000000000000000000000000000000000000000000000000000\n      dup2\n      mstore\n      0x04\n      add\n      tag_64\n      swap1\n      tag_65\n      jump\t// in\n    tag_64:\n      mload(0x40)\n      dup1\n      swap2\n      sub\n      swap1\n      revert\n    tag_63:\n        /* \"metadata.sol\":1441:1452  patientData */\n      0x02\n        /* \"metadata.sol\":1441:1466  patientData[_userAddress] */\n      0x00\n        /* \"metadata.sol\":1453:1465  _userAddress */\n      dup7\n        /* \"metadata.sol\":1441:1466  patientData[_userAddress] */\n      0xffffffffffffffffffffffffffffffffffffffff\n      and\n      0xffffffffffffffffffffffffffffffffffffffff\n      and\n      dup2\n      mstore\n      0x20\n      add\n      swap1\n      dup2\n      mstore\n      0x20\n      add\n      0x00\n      keccak256\n        /* \"metadata.sol\":1472:1613  Data({... */\n      mload(0x40)\n      dup1\n      0x80\n      add\n      0x40\n      mstore\n      dup1\n        /* \"metadata.sol\":1497:1501  _key */\n      dup7\n        /* \"metadata.sol\":1472:1613  Data({... */\n      dup2\n      mstore\n      0x20\n      add\n        /* \"metadata.sol\":1526:1535  _dataType */\n      dup6\n        /* \"metadata.sol\":1472:1613  Data({... */\n      0x03\n      dup2\n      gt\n      iszero\n      tag_66\n      jumpi\n      tag_67\n      tag_47\n      jump\t// in\n    tag_67:\n    tag_66:\n      dup2\n      mstore\n      0x20\n      add\n        /* \"metadata.sol\":1561:1571  _hashIndex */\n      dup5\n        /* \"metadata.sol\":1472:1613  Data({... */\n      dup2\n      mstore\n      0x20\n      add\n        /* \"metadata.sol\":1594:1601  _encKey */\n      dup4\n        /* \"metadata.sol\":1472:1613  Data({... */\n      dup2\n      mstore\n      pop\n        /* \"metadata.sol\":1441:1614  patientData[_userAddress].push(Data({... */\n      swap1\n      dup1\n      0x01\n      dup2\n      sload\n      add\n      dup1\n      dup3\n      sstore\n      dup1\n      swap2\n      pop\n      pop\n      0x01\n      swap1\n      sub\n      swap1\n      0x00\n      mstore\n      keccak256(0x00, 0x20)\n      swap1\n      0x04\n      mul\n      add\n      0x00\n      swap1\n      swap2\n      swap1\n      swap2\n      swap1\n      swap2\n      pop\n      0x00\n      dup3\n      add\n      mload\n      dup2\n      0x00\n      add\n      sstore\n      0x20\n      dup3\n      add\n      mload\n      dup2\n      0x01\n      add\n      exp(0x0100, 0x00)\n      dup2\n      sload\n      dup2\n      0xff\n      mul\n      not\n      and\n      swap1\n      dup4\n      0x03\n      dup2\n      gt\n      iszero\n      tag_69\n      jumpi\n      tag_70\n      tag_47\n      jump\t// in\n    tag_70:\n    tag_69:\n      mul\n      or\n      swap1\n      sstore\n      pop\n      0x40\n      dup3\n      add\n      mload\n      dup2\n      0x02\n      add\n      sstore\n      0x60\n      dup3\n      add\n      mload\n      dup2\n      0x03\n      add\n      sstore\n      pop\n      pop\n        /* \"metadata.sol\":1632:1669  DataAdded(\"Data added successfully!\") */\n      0x7d3bc02f99fcb6eaa98324a9a5db8aa3eaafe1a149e5ed494479d4406a0937b2\n      mload(0x40)\n      tag_71\n      swap1\n      tag_72\n      jump\t// in\n    tag_71:\n      mload(0x40)\n      dup1\n      swap2\n      sub\n      swap1\n      log1\n        /* \"metadata.sol\":1685:1744  NotifyUser(_userAddress, \"New data added to your account!\") */\n      0xdc77b9bfcade046bb2c76f2e066769addb2a971455c07e4d7be58654bc51a28d\n        /* \"metadata.sol\":1696:1708  _userAddress */\n      dup6\n        /* \"metadata.sol\":1685:1744  NotifyUser(_userAddress, \"New data added to your account!\") */\n      mload(0x40)\n      tag_73\n      swap2\n      swap1\n      tag_74\n      jump\t// in\n    tag_73:\n      mload(0x40)\n      dup1\n      swap2\n      sub\n      swap1\n      log1\n        /* \"metadata.sol\":1068:1752  function addEHRdata(... */\n      pop\n      pop\n      pop\n      pop\n      pop\n      jump\t// out\n        /* \"metadata.sol\":258:286  Permission public permission */\n    tag_29:\n      0x01\n      0x00\n      swap1\n      sload\n      swap1\n      0x0100\n      exp\n      swap1\n      div\n      0xffffffffffffffffffffffffffffffffffffffff\n      and\n      dup2\n      jump\t// out\n        /* \"#utility.yul\":88:205   */\n    tag_76:\n        /* \"#utility.yul\":197:198   */\n      0x00\n        /* \"#utility.yul\":194:195   */\n      dup1\n        /* \"#utility.yul\":187:199   */\n      revert\n        /* \"#utility.yul\":334:460   */\n    tag_78:\n        /* \"#utility.yul\":371:378   */\n      0x00\n        /* \"#utility.yul\":411:453   */\n      0xffffffffffffffffffffffffffffffffffffffff\n        /* \"#utility.yul\":404:409   */\n      dup3\n        /* \"#utility.yul\":400:454   */\n      and\n        /* \"#utility.yul\":389:454   */\n      swap1\n      pop\n        /* \"#utility.yul\":334:460   */\n      swap2\n      swap1\n      pop\n      jump\t// out\n        /* \"#utility.yul\":466:562   */\n    tag_79:\n        /* \"#utility.yul\":503:510   */\n      0x00\n        /* \"#utility.yul\":532:556   */\n      tag_132\n        /* \"#utility.yul\":550:555   */\n      dup3\n        /* \"#utility.yul\":532:556   */\n      tag_78\n      jump\t// in\n    tag_132:\n        /* \"#utility.yul\":521:556   */\n      swap1\n      pop\n        /* \"#utility.yul\":466:562   */\n      swap2\n      swap1\n      pop\n      jump\t// out\n        /* \"#utility.yul\":568:690   */\n    tag_80:\n        /* \"#utility.yul\":641:665   */\n      tag_134\n        /* \"#utility.yul\":659:664   */\n      dup2\n        /* \"#utility.yul\":641:665   */\n      tag_79\n      jump\t// in\n    tag_134:\n        /* \"#utility.yul\":634:639   */\n      dup2\n        /* \"#utility.yul\":631:666   */\n      eq\n        /* \"#utility.yul\":621:684   */\n      tag_135\n      jumpi\n        /* \"#utility.yul\":680:681   */\n      0x00\n        /* \"#utility.yul\":677:678   */\n      dup1\n        /* \"#utility.yul\":670:682   */\n      revert\n        /* \"#utility.yul\":621:684   */\n    tag_135:\n        /* \"#utility.yul\":568:690   */\n      pop\n      jump\t// out\n        /* \"#utility.yul\":696:835   */\n    tag_81:\n        /* \"#utility.yul\":742:747   */\n      0x00\n        /* \"#utility.yul\":780:786   */\n      dup2\n        /* \"#utility.yul\":767:787   */\n      calldataload\n        /* \"#utility.yul\":758:787   */\n      swap1\n      pop\n        /* \"#utility.yul\":796:829   */\n      tag_137\n        /* \"#utility.yul\":823:828   */\n      dup2\n        /* \"#utility.yul\":796:829   */\n      tag_80\n      jump\t// in\n    tag_137:\n        /* \"#utility.yul\":696:835   */\n      swap3\n      swap2\n      pop\n      pop\n      jump\t// out\n        /* \"#utility.yul\":841:1170   */\n    tag_10:\n        /* \"#utility.yul\":900:906   */\n      0x00\n        /* \"#utility.yul\":949:951   */\n      0x20\n        /* \"#utility.yul\":937:946   */\n      dup3\n        /* \"#utility.yul\":928:935   */\n      dup5\n        /* \"#utility.yul\":924:947   */\n      sub\n        /* \"#utility.yul\":920:952   */\n      slt\n        /* \"#utility.yul\":917:1036   */\n      iszero\n      tag_139\n      jumpi\n        /* \"#utility.yul\":955:1034   */\n      tag_140\n      tag_76\n      jump\t// in\n    tag_140:\n        /* \"#utility.yul\":917:1036   */\n    tag_139:\n        /* \"#utility.yul\":1075:1076   */\n      0x00\n        /* \"#utility.yul\":1100:1153   */\n      tag_141\n        /* \"#utility.yul\":1145:1152   */\n      dup5\n        /* \"#utility.yul\":1136:1142   */\n      dup3\n        /* \"#utility.yul\":1125:1134   */\n      dup6\n        /* \"#utility.yul\":1121:1143   */\n      add\n        /* \"#utility.yul\":1100:1153   */\n      tag_81\n      jump\t// in\n    tag_141:\n        /* \"#utility.yul\":1090:1153   */\n      swap2\n      pop\n        /* \"#utility.yul\":1046:1163   */\n      pop\n        /* \"#utility.yul\":841:1170   */\n      swap3\n      swap2\n      pop\n      pop\n      jump\t// out\n        /* \"#utility.yul\":1176:1310   */\n    tag_82:\n        /* \"#utility.yul\":1263:1269   */\n      0x00\n        /* \"#utility.yul\":1297:1302   */\n      dup2\n        /* \"#utility.yul\":1291:1303   */\n      mload\n        /* \"#utility.yul\":1281:1303   */\n      swap1\n      pop\n        /* \"#utility.yul\":1176:1310   */\n      swap2\n      swap1\n      pop\n      jump\t// out\n        /* \"#utility.yul\":1316:1520   */\n    tag_83:\n        /* \"#utility.yul\":1435:1446   */\n      0x00\n        /* \"#utility.yul\":1469:1475   */\n      dup3\n        /* \"#utility.yul\":1464:1467   */\n      dup3\n        /* \"#utility.yul\":1457:1476   */\n      mstore\n        /* \"#utility.yul\":1509:1513   */\n      0x20\n        /* \"#utility.yul\":1504:1507   */\n      dup3\n        /* \"#utility.yul\":1500:1514   */\n      add\n        /* \"#utility.yul\":1485:1514   */\n      swap1\n      pop\n        /* \"#utility.yul\":1316:1520   */\n      swap3\n      swap2\n      pop\n      pop\n      jump\t// out\n        /* \"#utility.yul\":1526:1678   */\n    tag_84:\n        /* \"#utility.yul\":1613:1617   */\n      0x00\n        /* \"#utility.yul\":1636:1639   */\n      dup2\n        /* \"#utility.yul\":1628:1639   */\n      swap1\n      pop\n        /* \"#utility.yul\":1666:1670   */\n      0x20\n        /* \"#utility.yul\":1661:1664   */\n      dup3\n        /* \"#utility.yul\":1657:1671   */\n      add\n        /* \"#utility.yul\":1649:1671   */\n      swap1\n      pop\n        /* \"#utility.yul\":1526:1678   */\n      swap2\n      swap1\n      pop\n      jump\t// out\n        /* \"#utility.yul\":1684:1761   */\n    tag_85:\n        /* \"#utility.yul\":1721:1728   */\n      0x00\n        /* \"#utility.yul\":1750:1755   */\n      dup2\n        /* \"#utility.yul\":1739:1755   */\n      swap1\n      pop\n        /* \"#utility.yul\":1684:1761   */\n      swap2\n      swap1\n      pop\n      jump\t// out\n        /* \"#utility.yul\":1767:1875   */\n    tag_86:\n        /* \"#utility.yul\":1844:1868   */\n      tag_147\n        /* \"#utility.yul\":1862:1867   */\n      dup2\n        /* \"#utility.yul\":1844:1868   */\n      tag_85\n      jump\t// in\n    tag_147:\n        /* \"#utility.yul\":1839:1842   */\n      dup3\n        /* \"#utility.yul\":1832:1869   */\n      mstore\n        /* \"#utility.yul\":1767:1875   */\n      pop\n      pop\n      jump\t// out\n        /* \"#utility.yul\":1881:2061   */\n    tag_47:\n        /* \"#utility.yul\":1929:2006   */\n      0x4e487b7100000000000000000000000000000000000000000000000000000000\n        /* \"#utility.yul\":1926:1927   */\n      0x00\n        /* \"#utility.yul\":1919:2007   */\n      mstore\n        /* \"#utility.yul\":2026:2030   */\n      0x21\n        /* \"#utility.yul\":2023:2024   */\n      0x04\n        /* \"#utility.yul\":2016:2031   */\n      mstore\n        /* \"#utility.yul\":2050:2054   */\n      0x24\n        /* \"#utility.yul\":2047:2048   */\n      0x00\n        /* \"#utility.yul\":2040:2055   */\n      revert\n        /* \"#utility.yul\":2067:2183   */\n    tag_87:\n        /* \"#utility.yul\":2151:2152   */\n      0x04\n        /* \"#utility.yul\":2144:2149   */\n      dup2\n        /* \"#utility.yul\":2141:2153   */\n      lt\n        /* \"#utility.yul\":2131:2177   */\n      tag_150\n      jumpi\n        /* \"#utility.yul\":2157:2175   */\n      tag_151\n      tag_47\n      jump\t// in\n    tag_151:\n        /* \"#utility.yul\":2131:2177   */\n    tag_150:\n        /* \"#utility.yul\":2067:2183   */\n      pop\n      jump\t// out\n        /* \"#utility.yul\":2189:2322   */\n    tag_88:\n        /* \"#utility.yul\":2237:2244   */\n      0x00\n        /* \"#utility.yul\":2266:2271   */\n      dup2\n        /* \"#utility.yul\":2255:2271   */\n      swap1\n      pop\n        /* \"#utility.yul\":2272:2316   */\n      tag_153\n        /* \"#utility.yul\":2310:2315   */\n      dup3\n        /* \"#utility.yul\":2272:2316   */\n      tag_87\n      jump\t// in\n    tag_153:\n        /* \"#utility.yul\":2189:2322   */\n      swap2\n      swap1\n      pop\n      jump\t// out\n        /* \"#utility.yul\":2328:2461   */\n    tag_89:\n        /* \"#utility.yul\":2387:2396   */\n      0x00\n        /* \"#utility.yul\":2420:2455   */\n      tag_155\n        /* \"#utility.yul\":2449:2454   */\n      dup3\n        /* \"#utility.yul\":2420:2455   */\n      tag_88\n      jump\t// in\n    tag_155:\n        /* \"#utility.yul\":2407:2455   */\n      swap1\n      pop\n        /* \"#utility.yul\":2328:2461   */\n      swap2\n      swap1\n      pop\n      jump\t// out\n        /* \"#utility.yul\":2467:2606   */\n    tag_90:\n        /* \"#utility.yul\":2553:2599   */\n      tag_157\n        /* \"#utility.yul\":2593:2598   */\n      dup2\n        /* \"#utility.yul\":2553:2599   */\n      tag_89\n      jump\t// in\n    tag_157:\n        /* \"#utility.yul\":2548:2551   */\n      dup3\n        /* \"#utility.yul\":2541:2600   */\n      mstore\n        /* \"#utility.yul\":2467:2606   */\n      pop\n      pop\n      jump\t// out\n        /* \"#utility.yul\":2664:3518   */\n    tag_91:\n        /* \"#utility.yul\":2791:2795   */\n      0x80\n        /* \"#utility.yul\":2786:2789   */\n      dup3\n        /* \"#utility.yul\":2782:2796   */\n      add\n        /* \"#utility.yul\":2877:2881   */\n      0x00\n        /* \"#utility.yul\":2870:2875   */\n      dup3\n        /* \"#utility.yul\":2866:2882   */\n      add\n        /* \"#utility.yul\":2860:2883   */\n      mload\n        /* \"#utility.yul\":2896:2959   */\n      tag_159\n        /* \"#utility.yul\":2953:2957   */\n      0x00\n        /* \"#utility.yul\":2948:2951   */\n      dup6\n        /* \"#utility.yul\":2944:2958   */\n      add\n        /* \"#utility.yul\":2930:2942   */\n      dup3\n        /* \"#utility.yul\":2896:2959   */\n      tag_86\n      jump\t// in\n    tag_159:\n        /* \"#utility.yul\":2806:2969   */\n      pop\n        /* \"#utility.yul\":3055:3059   */\n      0x20\n        /* \"#utility.yul\":3048:3053   */\n      dup3\n        /* \"#utility.yul\":3044:3060   */\n      add\n        /* \"#utility.yul\":3038:3061   */\n      mload\n        /* \"#utility.yul\":3074:3146   */\n      tag_160\n        /* \"#utility.yul\":3140:3144   */\n      0x20\n        /* \"#utility.yul\":3135:3138   */\n      dup6\n        /* \"#utility.yul\":3131:3145   */\n      add\n        /* \"#utility.yul\":3117:3129   */\n      dup3\n        /* \"#utility.yul\":3074:3146   */\n      tag_90\n      jump\t// in\n    tag_160:\n        /* \"#utility.yul\":2979:3156   */\n      pop\n        /* \"#utility.yul\":3243:3247   */\n      0x40\n        /* \"#utility.yul\":3236:3241   */\n      dup3\n        /* \"#utility.yul\":3232:3248   */\n      add\n        /* \"#utility.yul\":3226:3249   */\n      mload\n        /* \"#utility.yul\":3262:3325   */\n      tag_161\n        /* \"#utility.yul\":3319:3323   */\n      0x40\n        /* \"#utility.yul\":3314:3317   */\n      dup6\n        /* \"#utility.yul\":3310:3324   */\n      add\n        /* \"#utility.yul\":3296:3308   */\n      dup3\n        /* \"#utility.yul\":3262:3325   */\n      tag_86\n      jump\t// in\n    tag_161:\n        /* \"#utility.yul\":3166:3335   */\n      pop\n        /* \"#utility.yul\":3419:3423   */\n      0x60\n        /* \"#utility.yul\":3412:3417   */\n      dup3\n        /* \"#utility.yul\":3408:3424   */\n      add\n        /* \"#utility.yul\":3402:3425   */\n      mload\n        /* \"#utility.yul\":3438:3501   */\n      tag_162\n        /* \"#utility.yul\":3495:3499   */\n      0x60\n        /* \"#utility.yul\":3490:3493   */\n      dup6\n        /* \"#utility.yul\":3486:3500   */\n      add\n        /* \"#utility.yul\":3472:3484   */\n      dup3\n        /* \"#utility.yul\":3438:3501   */\n      tag_86\n      jump\t// in\n    tag_162:\n        /* \"#utility.yul\":3345:3511   */\n      pop\n        /* \"#utility.yul\":2760:3518   */\n      pop\n        /* \"#utility.yul\":2664:3518   */\n      pop\n      pop\n      jump\t// out\n        /* \"#utility.yul\":3524:3783   */\n    tag_92:\n        /* \"#utility.yul\":3633:3643   */\n      0x00\n        /* \"#utility.yul\":3654:3740   */\n      tag_164\n        /* \"#utility.yul\":3736:3739   */\n      dup4\n        /* \"#utility.yul\":3728:3734   */\n      dup4\n        /* \"#utility.yul\":3654:3740   */\n      tag_91\n      jump\t// in\n    tag_164:\n        /* \"#utility.yul\":3772:3776   */\n      0x80\n        /* \"#utility.yul\":3767:3770   */\n      dup4\n        /* \"#utility.yul\":3763:3777   */\n      add\n        /* \"#utility.yul\":3749:3777   */\n      swap1\n      pop\n        /* \"#utility.yul\":3524:3783   */\n      swap3\n      swap2\n      pop\n      pop\n      jump\t// out\n        /* \"#utility.yul\":3789:3922   */\n    tag_93:\n        /* \"#utility.yul\":3879:3883   */\n      0x00\n        /* \"#utility.yul\":3911:3915   */\n      0x20\n        /* \"#utility.yul\":3906:3909   */\n      dup3\n        /* \"#utility.yul\":3902:3916   */\n      add\n        /* \"#utility.yul\":3894:3916   */\n      swap1\n      pop\n        /* \"#utility.yul\":3789:3922   */\n      swap2\n      swap1\n      pop\n      jump\t// out\n        /* \"#utility.yul\":3984:4876   */\n    tag_94:\n        /* \"#utility.yul\":4143:4146   */\n      0x00\n        /* \"#utility.yul\":4172:4246   */\n      tag_167\n        /* \"#utility.yul\":4240:4245   */\n      dup3\n        /* \"#utility.yul\":4172:4246   */\n      tag_82\n      jump\t// in\n    tag_167:\n        /* \"#utility.yul\":4262:4368   */\n      tag_168\n        /* \"#utility.yul\":4361:4367   */\n      dup2\n        /* \"#utility.yul\":4356:4359   */\n      dup6\n        /* \"#utility.yul\":4262:4368   */\n      tag_83\n      jump\t// in\n    tag_168:\n        /* \"#utility.yul\":4255:4368   */\n      swap4\n      pop\n        /* \"#utility.yul\":4392:4468   */\n      tag_169\n        /* \"#utility.yul\":4462:4467   */\n      dup4\n        /* \"#utility.yul\":4392:4468   */\n      tag_84\n      jump\t// in\n    tag_169:\n        /* \"#utility.yul\":4491:4498   */\n      dup1\n        /* \"#utility.yul\":4522:4523   */\n      0x00\n        /* \"#utility.yul\":4507:4851   */\n    tag_170:\n        /* \"#utility.yul\":4532:4538   */\n      dup4\n        /* \"#utility.yul\":4529:4530   */\n      dup2\n        /* \"#utility.yul\":4526:4539   */\n      lt\n        /* \"#utility.yul\":4507:4851   */\n      iszero\n      tag_172\n      jumpi\n        /* \"#utility.yul\":4608:4614   */\n      dup2\n        /* \"#utility.yul\":4602:4615   */\n      mload\n        /* \"#utility.yul\":4635:4738   */\n      tag_173\n        /* \"#utility.yul\":4734:4737   */\n      dup9\n        /* \"#utility.yul\":4719:4732   */\n      dup3\n        /* \"#utility.yul\":4635:4738   */\n      tag_92\n      jump\t// in\n    tag_173:\n        /* \"#utility.yul\":4628:4738   */\n      swap8\n      pop\n        /* \"#utility.yul\":4761:4841   */\n      tag_174\n        /* \"#utility.yul\":4834:4840   */\n      dup4\n        /* \"#utility.yul\":4761:4841   */\n      tag_93\n      jump\t// in\n    tag_174:\n        /* \"#utility.yul\":4751:4841   */\n      swap3\n      pop\n        /* \"#utility.yul\":4567:4851   */\n      pop\n        /* \"#utility.yul\":4554:4555   */\n      0x01\n        /* \"#utility.yul\":4551:4552   */\n      dup2\n        /* \"#utility.yul\":4547:4556   */\n      add\n        /* \"#utility.yul\":4542:4556   */\n      swap1\n      pop\n        /* \"#utility.yul\":4507:4851   */\n      jump(tag_170)\n    tag_172:\n        /* \"#utility.yul\":4511:4525   */\n      pop\n        /* \"#utility.yul\":4867:4870   */\n      dup6\n        /* \"#utility.yul\":4860:4870   */\n      swap4\n      pop\n        /* \"#utility.yul\":4148:4876   */\n      pop\n      pop\n      pop\n        /* \"#utility.yul\":3984:4876   */\n      swap3\n      swap2\n      pop\n      pop\n      jump\t// out\n        /* \"#utility.yul\":4882:5335   */\n    tag_13:\n        /* \"#utility.yul\":5065:5069   */\n      0x00\n        /* \"#utility.yul\":5103:5105   */\n      0x20\n        /* \"#utility.yul\":5092:5101   */\n      dup3\n        /* \"#utility.yul\":5088:5106   */\n      add\n        /* \"#utility.yul\":5080:5106   */\n      swap1\n      pop\n        /* \"#utility.yul\":5152:5161   */\n      dup2\n        /* \"#utility.yul\":5146:5150   */\n      dup2\n        /* \"#utility.yul\":5142:5162   */\n      sub\n        /* \"#utility.yul\":5138:5139   */\n      0x00\n        /* \"#utility.yul\":5127:5136   */\n      dup4\n        /* \"#utility.yul\":5123:5140   */\n      add\n        /* \"#utility.yul\":5116:5163   */\n      mstore\n        /* \"#utility.yul\":5180:5328   */\n      tag_176\n        /* \"#utility.yul\":5323:5327   */\n      dup2\n        /* \"#utility.yul\":5314:5320   */\n      dup5\n        /* \"#utility.yul\":5180:5328   */\n      tag_94\n      jump\t// in\n    tag_176:\n        /* \"#utility.yul\":5172:5328   */\n      swap1\n      pop\n        /* \"#utility.yul\":4882:5335   */\n      swap3\n      swap2\n      pop\n      pop\n      jump\t// out\n        /* \"#utility.yul\":5341:5418   */\n    tag_95:\n        /* \"#utility.yul\":5378:5385   */\n      0x00\n        /* \"#utility.yul\":5407:5412   */\n      dup2\n        /* \"#utility.yul\":5396:5412   */\n      swap1\n      pop\n        /* \"#utility.yul\":5341:5418   */\n      swap2\n      swap1\n      pop\n      jump\t// out\n        /* \"#utility.yul\":5424:5546   */\n    tag_96:\n        /* \"#utility.yul\":5497:5521   */\n      tag_179\n        /* \"#utility.yul\":5515:5520   */\n      dup2\n        /* \"#utility.yul\":5497:5521   */\n      tag_95\n      jump\t// in\n    tag_179:\n        /* \"#utility.yul\":5490:5495   */\n      dup2\n        /* \"#utility.yul\":5487:5522   */\n      eq\n        /* \"#utility.yul\":5477:5540   */\n      tag_180\n      jumpi\n        /* \"#utility.yul\":5536:5537   */\n      0x00\n        /* \"#utility.yul\":5533:5534   */\n      dup1\n        /* \"#utility.yul\":5526:5538   */\n      revert\n        /* \"#utility.yul\":5477:5540   */\n    tag_180:\n        /* \"#utility.yul\":5424:5546   */\n      pop\n      jump\t// out\n        /* \"#utility.yul\":5552:5691   */\n    tag_97:\n        /* \"#utility.yul\":5598:5603   */\n      0x00\n        /* \"#utility.yul\":5636:5642   */\n      dup2\n        /* \"#utility.yul\":5623:5643   */\n      calldataload\n        /* \"#utility.yul\":5614:5643   */\n      swap1\n      pop\n        /* \"#utility.yul\":5652:5685   */\n      tag_182\n        /* \"#utility.yul\":5679:5684   */\n      dup2\n        /* \"#utility.yul\":5652:5685   */\n      tag_96\n      jump\t// in\n    tag_182:\n        /* \"#utility.yul\":5552:5691   */\n      swap3\n      swap2\n      pop\n      pop\n      jump\t// out\n        /* \"#utility.yul\":5697:6171   */\n    tag_16:\n        /* \"#utility.yul\":5765:5771   */\n      0x00\n        /* \"#utility.yul\":5773:5779   */\n      dup1\n        /* \"#utility.yul\":5822:5824   */\n      0x40\n        /* \"#utility.yul\":5810:5819   */\n      dup4\n        /* \"#utility.yul\":5801:5808   */\n      dup6\n        /* \"#utility.yul\":5797:5820   */\n      sub\n        /* \"#utility.yul\":5793:5825   */\n      slt\n        /* \"#utility.yul\":5790:5909   */\n      iszero\n      tag_184\n      jumpi\n        /* \"#utility.yul\":5828:5907   */\n      tag_185\n      tag_76\n      jump\t// in\n    tag_185:\n        /* \"#utility.yul\":5790:5909   */\n    tag_184:\n        /* \"#utility.yul\":5948:5949   */\n      0x00\n        /* \"#utility.yul\":5973:6026   */\n      tag_186\n        /* \"#utility.yul\":6018:6025   */\n      dup6\n        /* \"#utility.yul\":6009:6015   */\n      dup3\n        /* \"#utility.yul\":5998:6007   */\n      dup7\n        /* \"#utility.yul\":5994:6016   */\n      add\n        /* \"#utility.yul\":5973:6026   */\n      tag_81\n      jump\t// in\n    tag_186:\n        /* \"#utility.yul\":5963:6026   */\n      swap3\n      pop\n        /* \"#utility.yul\":5919:6036   */\n      pop\n        /* \"#utility.yul\":6075:6077   */\n      0x20\n        /* \"#utility.yul\":6101:6154   */\n      tag_187\n        /* \"#utility.yul\":6146:6153   */\n      dup6\n        /* \"#utility.yul\":6137:6143   */\n      dup3\n        /* \"#utility.yul\":6126:6135   */\n      dup7\n        /* \"#utility.yul\":6122:6144   */\n      add\n        /* \"#utility.yul\":6101:6154   */\n      tag_97\n      jump\t// in\n    tag_187:\n        /* \"#utility.yul\":6091:6154   */\n      swap2\n      pop\n        /* \"#utility.yul\":6046:6164   */\n      pop\n        /* \"#utility.yul\":5697:6171   */\n      swap3\n      pop\n      swap3\n      swap1\n      pop\n      jump\t// out\n        /* \"#utility.yul\":6177:6295   */\n    tag_98:\n        /* \"#utility.yul\":6264:6288   */\n      tag_189\n        /* \"#utility.yul\":6282:6287   */\n      dup2\n        /* \"#utility.yul\":6264:6288   */\n      tag_85\n      jump\t// in\n    tag_189:\n        /* \"#utility.yul\":6259:6262   */\n      dup3\n        /* \"#utility.yul\":6252:6289   */\n      mstore\n        /* \"#utility.yul\":6177:6295   */\n      pop\n      pop\n      jump\t// out\n        /* \"#utility.yul\":6301:6450   */\n    tag_99:\n        /* \"#utility.yul\":6397:6443   */\n      tag_191\n        /* \"#utility.yul\":6437:6442   */\n      dup2\n        /* \"#utility.yul\":6397:6443   */\n      tag_89\n      jump\t// in\n    tag_191:\n        /* \"#utility.yul\":6392:6395   */\n      dup3\n        /* \"#utility.yul\":6385:6444   */\n      mstore\n        /* \"#utility.yul\":6301:6450   */\n      pop\n      pop\n      jump\t// out\n        /* \"#utility.yul\":6456:7027   */\n    tag_19:\n        /* \"#utility.yul\":6642:6646   */\n      0x00\n        /* \"#utility.yul\":6680:6683   */\n      0x80\n        /* \"#utility.yul\":6669:6678   */\n      dup3\n        /* \"#utility.yul\":6665:6684   */\n      add\n        /* \"#utility.yul\":6657:6684   */\n      swap1\n      pop\n        /* \"#utility.yul\":6694:6765   */\n      tag_193\n        /* \"#utility.yul\":6762:6763   */\n      0x00\n        /* \"#utility.yul\":6751:6760   */\n      dup4\n        /* \"#utility.yul\":6747:6764   */\n      add\n        /* \"#utility.yul\":6738:6744   */\n      dup8\n        /* \"#utility.yul\":6694:6765   */\n      tag_98\n      jump\t// in\n    tag_193:\n        /* \"#utility.yul\":6775:6856   */\n      tag_194\n        /* \"#utility.yul\":6852:6854   */\n      0x20\n        /* \"#utility.yul\":6841:6850   */\n      dup4\n        /* \"#utility.yul\":6837:6855   */\n      add\n        /* \"#utility.yul\":6828:6834   */\n      dup7\n        /* \"#utility.yul\":6775:6856   */\n      tag_99\n      jump\t// in\n    tag_194:\n        /* \"#utility.yul\":6866:6938   */\n      tag_195\n        /* \"#utility.yul\":6934:6936   */\n      0x40\n        /* \"#utility.yul\":6923:6932   */\n      dup4\n        /* \"#utility.yul\":6919:6937   */\n      add\n        /* \"#utility.yul\":6910:6916   */\n      dup6\n        /* \"#utility.yul\":6866:6938   */\n      tag_98\n      jump\t// in\n    tag_195:\n        /* \"#utility.yul\":6948:7020   */\n      tag_196\n        /* \"#utility.yul\":7016:7018   */\n      0x60\n        /* \"#utility.yul\":7005:7014   */\n      dup4\n        /* \"#utility.yul\":7001:7019   */\n      add\n        /* \"#utility.yul\":6992:6998   */\n      dup5\n        /* \"#utility.yul\":6948:7020   */\n      tag_98\n      jump\t// in\n    tag_196:\n        /* \"#utility.yul\":6456:7027   */\n      swap6\n      swap5\n      pop\n      pop\n      pop\n      pop\n      pop\n      jump\t// out\n        /* \"#utility.yul\":7033:7093   */\n    tag_100:\n        /* \"#utility.yul\":7061:7064   */\n      0x00\n        /* \"#utility.yul\":7082:7087   */\n      dup2\n        /* \"#utility.yul\":7075:7087   */\n      swap1\n      pop\n        /* \"#utility.yul\":7033:7093   */\n      swap2\n      swap1\n      pop\n      jump\t// out\n        /* \"#utility.yul\":7099:7241   */\n    tag_101:\n        /* \"#utility.yul\":7149:7158   */\n      0x00\n        /* \"#utility.yul\":7182:7235   */\n      tag_199\n        /* \"#utility.yul\":7200:7234   */\n      tag_200\n        /* \"#utility.yul\":7209:7233   */\n      tag_201\n        /* \"#utility.yul\":7227:7232   */\n      dup5\n        /* \"#utility.yul\":7209:7233   */\n      tag_78\n      jump\t// in\n    tag_201:\n        /* \"#utility.yul\":7200:7234   */\n      tag_100\n      jump\t// in\n    tag_200:\n        /* \"#utility.yul\":7182:7235   */\n      tag_78\n      jump\t// in\n    tag_199:\n        /* \"#utility.yul\":7169:7235   */\n      swap1\n      pop\n        /* \"#utility.yul\":7099:7241   */\n      swap2\n      swap1\n      pop\n      jump\t// out\n        /* \"#utility.yul\":7247:7373   */\n    tag_102:\n        /* \"#utility.yul\":7297:7306   */\n      0x00\n        /* \"#utility.yul\":7330:7367   */\n      tag_203\n        /* \"#utility.yul\":7361:7366   */\n      dup3\n        /* \"#utility.yul\":7330:7367   */\n      tag_101\n      jump\t// in\n    tag_203:\n        /* \"#utility.yul\":7317:7367   */\n      swap1\n      pop\n        /* \"#utility.yul\":7247:7373   */\n      swap2\n      swap1\n      pop\n      jump\t// out\n        /* \"#utility.yul\":7379:7521   */\n    tag_103:\n        /* \"#utility.yul\":7445:7454   */\n      0x00\n        /* \"#utility.yul\":7478:7515   */\n      tag_205\n        /* \"#utility.yul\":7509:7514   */\n      dup3\n        /* \"#utility.yul\":7478:7515   */\n      tag_102\n      jump\t// in\n    tag_205:\n        /* \"#utility.yul\":7465:7515   */\n      swap1\n      pop\n        /* \"#utility.yul\":7379:7521   */\n      swap2\n      swap1\n      pop\n      jump\t// out\n        /* \"#utility.yul\":7527:7690   */\n    tag_104:\n        /* \"#utility.yul\":7630:7683   */\n      tag_207\n        /* \"#utility.yul\":7677:7682   */\n      dup2\n        /* \"#utility.yul\":7630:7683   */\n      tag_103\n      jump\t// in\n    tag_207:\n        /* \"#utility.yul\":7625:7628   */\n      dup3\n        /* \"#utility.yul\":7618:7684   */\n      mstore\n        /* \"#utility.yul\":7527:7690   */\n      pop\n      pop\n      jump\t// out\n        /* \"#utility.yul\":7696:7950   */\n    tag_23:\n        /* \"#utility.yul\":7805:7809   */\n      0x00\n        /* \"#utility.yul\":7843:7845   */\n      0x20\n        /* \"#utility.yul\":7832:7841   */\n      dup3\n        /* \"#utility.yul\":7828:7846   */\n      add\n        /* \"#utility.yul\":7820:7846   */\n      swap1\n      pop\n        /* \"#utility.yul\":7856:7943   */\n      tag_209\n        /* \"#utility.yul\":7940:7941   */\n      0x00\n        /* \"#utility.yul\":7929:7938   */\n      dup4\n        /* \"#utility.yul\":7925:7942   */\n      add\n        /* \"#utility.yul\":7916:7922   */\n      dup5\n        /* \"#utility.yul\":7856:7943   */\n      tag_104\n      jump\t// in\n    tag_209:\n        /* \"#utility.yul\":7696:7950   */\n      swap3\n      swap2\n      pop\n      pop\n      jump\t// out\n        /* \"#utility.yul\":7956:8078   */\n    tag_105:\n        /* \"#utility.yul\":8029:8053   */\n      tag_211\n        /* \"#utility.yul\":8047:8052   */\n      dup2\n        /* \"#utility.yul\":8029:8053   */\n      tag_85\n      jump\t// in\n    tag_211:\n        /* \"#utility.yul\":8022:8027   */\n      dup2\n        /* \"#utility.yul\":8019:8054   */\n      eq\n        /* \"#utility.yul\":8009:8072   */\n      tag_212\n      jumpi\n        /* \"#utility.yul\":8068:8069   */\n      0x00\n        /* \"#utility.yul\":8065:8066   */\n      dup1\n        /* \"#utility.yul\":8058:8070   */\n      revert\n        /* \"#utility.yul\":8009:8072   */\n    tag_212:\n        /* \"#utility.yul\":7956:8078   */\n      pop\n      jump\t// out\n        /* \"#utility.yul\":8084:8223   */\n    tag_106:\n        /* \"#utility.yul\":8130:8135   */\n      0x00\n        /* \"#utility.yul\":8168:8174   */\n      dup2\n        /* \"#utility.yul\":8155:8175   */\n      calldataload\n        /* \"#utility.yul\":8146:8175   */\n      swap1\n      pop\n        /* \"#utility.yul\":8184:8217   */\n      tag_214\n        /* \"#utility.yul\":8211:8216   */\n      dup2\n        /* \"#utility.yul\":8184:8217   */\n      tag_105\n      jump\t// in\n    tag_214:\n        /* \"#utility.yul\":8084:8223   */\n      swap3\n      swap2\n      pop\n      pop\n      jump\t// out\n        /* \"#utility.yul\":8229:8339   */\n    tag_107:\n        /* \"#utility.yul\":8313:8314   */\n      0x04\n        /* \"#utility.yul\":8306:8311   */\n      dup2\n        /* \"#utility.yul\":8303:8315   */\n      lt\n        /* \"#utility.yul\":8293:8333   */\n      tag_216\n      jumpi\n        /* \"#utility.yul\":8329:8330   */\n      0x00\n        /* \"#utility.yul\":8326:8327   */\n      dup1\n        /* \"#utility.yul\":8319:8331   */\n      revert\n        /* \"#utility.yul\":8293:8333   */\n    tag_216:\n        /* \"#utility.yul\":8229:8339   */\n      pop\n      jump\t// out\n        /* \"#utility.yul\":8345:8506   */\n    tag_108:\n        /* \"#utility.yul\":8402:8407   */\n      0x00\n        /* \"#utility.yul\":8440:8446   */\n      dup2\n        /* \"#utility.yul\":8427:8447   */\n      calldataload\n        /* \"#utility.yul\":8418:8447   */\n      swap1\n      pop\n        /* \"#utility.yul\":8456:8500   */\n      tag_218\n        /* \"#utility.yul\":8494:8499   */\n      dup2\n        /* \"#utility.yul\":8456:8500   */\n      tag_107\n      jump\t// in\n    tag_218:\n        /* \"#utility.yul\":8345:8506   */\n      swap3\n      swap2\n      pop\n      pop\n      jump\t// out\n        /* \"#utility.yul\":8512:9445   */\n    tag_26:\n        /* \"#utility.yul\":8618:8624   */\n      0x00\n        /* \"#utility.yul\":8626:8632   */\n      dup1\n        /* \"#utility.yul\":8634:8640   */\n      0x00\n        /* \"#utility.yul\":8642:8648   */\n      dup1\n        /* \"#utility.yul\":8650:8656   */\n      0x00\n        /* \"#utility.yul\":8699:8702   */\n      0xa0\n        /* \"#utility.yul\":8687:8696   */\n      dup7\n        /* \"#utility.yul\":8678:8685   */\n      dup9\n        /* \"#utility.yul\":8674:8697   */\n      sub\n        /* \"#utility.yul\":8670:8703   */\n      slt\n        /* \"#utility.yul\":8667:8787   */\n      iszero\n      tag_220\n      jumpi\n        /* \"#utility.yul\":8706:8785   */\n      tag_221\n      tag_76\n      jump\t// in\n    tag_221:\n        /* \"#utility.yul\":8667:8787   */\n    tag_220:\n        /* \"#utility.yul\":8826:8827   */\n      0x00\n        /* \"#utility.yul\":8851:8904   */\n      tag_222\n        /* \"#utility.yul\":8896:8903   */\n      dup9\n        /* \"#utility.yul\":8887:8893   */\n      dup3\n        /* \"#utility.yul\":8876:8885   */\n      dup10\n        /* \"#utility.yul\":8872:8894   */\n      add\n        /* \"#utility.yul\":8851:8904   */\n      tag_81\n      jump\t// in\n    tag_222:\n        /* \"#utility.yul\":8841:8904   */\n      swap6\n      pop\n        /* \"#utility.yul\":8797:8914   */\n      pop\n        /* \"#utility.yul\":8953:8955   */\n      0x20\n        /* \"#utility.yul\":8979:9032   */\n      tag_223\n        /* \"#utility.yul\":9024:9031   */\n      dup9\n        /* \"#utility.yul\":9015:9021   */\n      dup3\n        /* \"#utility.yul\":9004:9013   */\n      dup10\n        /* \"#utility.yul\":9000:9022   */\n      add\n        /* \"#utility.yul\":8979:9032   */\n      tag_106\n      jump\t// in\n    tag_223:\n        /* \"#utility.yul\":8969:9032   */\n      swap5\n      pop\n        /* \"#utility.yul\":8924:9042   */\n      pop\n        /* \"#utility.yul\":9081:9083   */\n      0x40\n        /* \"#utility.yul\":9107:9171   */\n      tag_224\n        /* \"#utility.yul\":9163:9170   */\n      dup9\n        /* \"#utility.yul\":9154:9160   */\n      dup3\n        /* \"#utility.yul\":9143:9152   */\n      dup10\n        /* \"#utility.yul\":9139:9161   */\n      add\n        /* \"#utility.yul\":9107:9171   */\n      tag_108\n      jump\t// in\n    tag_224:\n        /* \"#utility.yul\":9097:9171   */\n      swap4\n      pop\n        /* \"#utility.yul\":9052:9181   */\n      pop\n        /* \"#utility.yul\":9220:9222   */\n      0x60\n        /* \"#utility.yul\":9246:9299   */\n      tag_225\n        /* \"#utility.yul\":9291:9298   */\n      dup9\n        /* \"#utility.yul\":9282:9288   */\n      dup3\n        /* \"#utility.yul\":9271:9280   */\n      dup10\n        /* \"#utility.yul\":9267:9289   */\n      add\n        /* \"#utility.yul\":9246:9299   */\n      tag_106\n      jump\t// in\n    tag_225:\n        /* \"#utility.yul\":9236:9299   */\n      swap3\n      pop\n        /* \"#utility.yul\":9191:9309   */\n      pop\n        /* \"#utility.yul\":9348:9351   */\n      0x80\n        /* \"#utility.yul\":9375:9428   */\n      tag_226\n        /* \"#utility.yul\":9420:9427   */\n      dup9\n        /* \"#utility.yul\":9411:9417   */\n      dup3\n        /* \"#utility.yul\":9400:9409   */\n      dup10\n        /* \"#utility.yul\":9396:9418   */\n      add\n        /* \"#utility.yul\":9375:9428   */\n      tag_106\n      jump\t// in\n    tag_226:\n        /* \"#utility.yul\":9365:9428   */\n      swap2\n      pop\n        /* \"#utility.yul\":9319:9438   */\n      pop\n        /* \"#utility.yul\":8512:9445   */\n      swap3\n      swap6\n      pop\n      swap3\n      swap6\n      swap1\n      swap4\n      pop\n      jump\t// out\n        /* \"#utility.yul\":9451:9595   */\n    tag_109:\n        /* \"#utility.yul\":9519:9528   */\n      0x00\n        /* \"#utility.yul\":9552:9589   */\n      tag_228\n        /* \"#utility.yul\":9583:9588   */\n      dup3\n        /* \"#utility.yul\":9552:9589   */\n      tag_102\n      jump\t// in\n    tag_228:\n        /* \"#utility.yul\":9539:9589   */\n      swap1\n      pop\n        /* \"#utility.yul\":9451:9595   */\n      swap2\n      swap1\n      pop\n      jump\t// out\n        /* \"#utility.yul\":9601:9768   */\n    tag_110:\n        /* \"#utility.yul\":9706:9761   */\n      tag_230\n        /* \"#utility.yul\":9755:9760   */\n      dup2\n        /* \"#utility.yul\":9706:9761   */\n      tag_109\n      jump\t// in\n    tag_230:\n        /* \"#utility.yul\":9701:9704   */\n      dup3\n        /* \"#utility.yul\":9694:9762   */\n      mstore\n        /* \"#utility.yul\":9601:9768   */\n      pop\n      pop\n      jump\t// out\n        /* \"#utility.yul\":9774:10032   */\n    tag_31:\n        /* \"#utility.yul\":9885:9889   */\n      0x00\n        /* \"#utility.yul\":9923:9925   */\n      0x20\n        /* \"#utility.yul\":9912:9921   */\n      dup3\n        /* \"#utility.yul\":9908:9926   */\n      add\n        /* \"#utility.yul\":9900:9926   */\n      swap1\n      pop\n        /* \"#utility.yul\":9936:10025   */\n      tag_232\n        /* \"#utility.yul\":10022:10023   */\n      0x00\n        /* \"#utility.yul\":10011:10020   */\n      dup4\n        /* \"#utility.yul\":10007:10024   */\n      add\n        /* \"#utility.yul\":9998:10004   */\n      dup5\n        /* \"#utility.yul\":9936:10025   */\n      tag_110\n      jump\t// in\n    tag_232:\n        /* \"#utility.yul\":9774:10032   */\n      swap3\n      swap2\n      pop\n      pop\n      jump\t// out\n        /* \"#utility.yul\":10038:10156   */\n    tag_111:\n        /* \"#utility.yul\":10125:10149   */\n      tag_234\n        /* \"#utility.yul\":10143:10148   */\n      dup2\n        /* \"#utility.yul\":10125:10149   */\n      tag_79\n      jump\t// in\n    tag_234:\n        /* \"#utility.yul\":10120:10123   */\n      dup3\n        /* \"#utility.yul\":10113:10150   */\n      mstore\n        /* \"#utility.yul\":10038:10156   */\n      pop\n      pop\n      jump\t// out\n        /* \"#utility.yul\":10162:10494   */\n    tag_34:\n        /* \"#utility.yul\":10283:10287   */\n      0x00\n        /* \"#utility.yul\":10321:10323   */\n      0x40\n        /* \"#utility.yul\":10310:10319   */\n      dup3\n        /* \"#utility.yul\":10306:10324   */\n      add\n        /* \"#utility.yul\":10298:10324   */\n      swap1\n      pop\n        /* \"#utility.yul\":10334:10405   */\n      tag_236\n        /* \"#utility.yul\":10402:10403   */\n      0x00\n        /* \"#utility.yul\":10391:10400   */\n      dup4\n        /* \"#utility.yul\":10387:10404   */\n      add\n        /* \"#utility.yul\":10378:10384   */\n      dup6\n        /* \"#utility.yul\":10334:10405   */\n      tag_111\n      jump\t// in\n    tag_236:\n        /* \"#utility.yul\":10415:10487   */\n      tag_237\n        /* \"#utility.yul\":10483:10485   */\n      0x20\n        /* \"#utility.yul\":10472:10481   */\n      dup4\n        /* \"#utility.yul\":10468:10486   */\n      add\n        /* \"#utility.yul\":10459:10465   */\n      dup5\n        /* \"#utility.yul\":10415:10487   */\n      tag_111\n      jump\t// in\n    tag_237:\n        /* \"#utility.yul\":10162:10494   */\n      swap4\n      swap3\n      pop\n      pop\n      pop\n      jump\t// out\n        /* \"#utility.yul\":10500:10590   */\n    tag_112:\n        /* \"#utility.yul\":10534:10541   */\n      0x00\n        /* \"#utility.yul\":10577:10582   */\n      dup2\n        /* \"#utility.yul\":10570:10583   */\n      iszero\n        /* \"#utility.yul\":10563:10584   */\n      iszero\n        /* \"#utility.yul\":10552:10584   */\n      swap1\n      pop\n        /* \"#utility.yul\":10500:10590   */\n      swap2\n      swap1\n      pop\n      jump\t// out\n        /* \"#utility.yul\":10596:10712   */\n    tag_113:\n        /* \"#utility.yul\":10666:10687   */\n      tag_240\n        /* \"#utility.yul\":10681:10686   */\n      dup2\n        /* \"#utility.yul\":10666:10687   */\n      tag_112\n      jump\t// in\n    tag_240:\n        /* \"#utility.yul\":10659:10664   */\n      dup2\n        /* \"#utility.yul\":10656:10688   */\n      eq\n        /* \"#utility.yul\":10646:10706   */\n      tag_241\n      jumpi\n        /* \"#utility.yul\":10702:10703   */\n      0x00\n        /* \"#utility.yul\":10699:10700   */\n      dup1\n        /* \"#utility.yul\":10692:10704   */\n      revert\n        /* \"#utility.yul\":10646:10706   */\n    tag_241:\n        /* \"#utility.yul\":10596:10712   */\n      pop\n      jump\t// out\n        /* \"#utility.yul\":10718:10855   */\n    tag_114:\n        /* \"#utility.yul\":10772:10777   */\n      0x00\n        /* \"#utility.yul\":10803:10809   */\n      dup2\n        /* \"#utility.yul\":10797:10810   */\n      mload\n        /* \"#utility.yul\":10788:10810   */\n      swap1\n      pop\n        /* \"#utility.yul\":10819:10849   */\n      tag_243\n        /* \"#utility.yul\":10843:10848   */\n      dup2\n        /* \"#utility.yul\":10819:10849   */\n      tag_113\n      jump\t// in\n    tag_243:\n        /* \"#utility.yul\":10718:10855   */\n      swap3\n      swap2\n      pop\n      pop\n      jump\t// out\n        /* \"#utility.yul\":10861:11206   */\n    tag_38:\n        /* \"#utility.yul\":10928:10934   */\n      0x00\n        /* \"#utility.yul\":10977:10979   */\n      0x20\n        /* \"#utility.yul\":10965:10974   */\n      dup3\n        /* \"#utility.yul\":10956:10963   */\n      dup5\n        /* \"#utility.yul\":10952:10975   */\n      sub\n        /* \"#utility.yul\":10948:10980   */\n      slt\n        /* \"#utility.yul\":10945:11064   */\n      iszero\n      tag_245\n      jumpi\n        /* \"#utility.yul\":10983:11062   */\n      tag_246\n      tag_76\n      jump\t// in\n    tag_246:\n        /* \"#utility.yul\":10945:11064   */\n    tag_245:\n        /* \"#utility.yul\":11103:11104   */\n      0x00\n        /* \"#utility.yul\":11128:11189   */\n      tag_247\n        /* \"#utility.yul\":11181:11188   */\n      dup5\n        /* \"#utility.yul\":11172:11178   */\n      dup3\n        /* \"#utility.yul\":11161:11170   */\n      dup6\n        /* \"#utility.yul\":11157:11179   */\n      add\n        /* \"#utility.yul\":11128:11189   */\n      tag_114\n      jump\t// in\n    tag_247:\n        /* \"#utility.yul\":11118:11189   */\n      swap2\n      pop\n        /* \"#utility.yul\":11074:11199   */\n      pop\n        /* \"#utility.yul\":10861:11206   */\n      swap3\n      swap2\n      pop\n      pop\n      jump\t// out\n        /* \"#utility.yul\":11212:11381   */\n    tag_115:\n        /* \"#utility.yul\":11296:11307   */\n      0x00\n        /* \"#utility.yul\":11330:11336   */\n      dup3\n        /* \"#utility.yul\":11325:11328   */\n      dup3\n        /* \"#utility.yul\":11318:11337   */\n      mstore\n        /* \"#utility.yul\":11370:11374   */\n      0x20\n        /* \"#utility.yul\":11365:11368   */\n      dup3\n        /* \"#utility.yul\":11361:11375   */\n      add\n        /* \"#utility.yul\":11346:11375   */\n      swap1\n      pop\n        /* \"#utility.yul\":11212:11381   */\n      swap3\n      swap2\n      pop\n      pop\n      jump\t// out\n        /* \"#utility.yul\":11387:11621   */\n    tag_116:\n        /* \"#utility.yul\":11527:11561   */\n      0x596f7520646f206e6f742068617665207065726d697373696f6e20746f206163\n        /* \"#utility.yul\":11523:11524   */\n      0x00\n        /* \"#utility.yul\":11515:11521   */\n      dup3\n        /* \"#utility.yul\":11511:11525   */\n      add\n        /* \"#utility.yul\":11504:11562   */\n      mstore\n        /* \"#utility.yul\":11596:11613   */\n      0x6365737320746869732064617461210000000000000000000000000000000000\n        /* \"#utility.yul\":11591:11593   */\n      0x20\n        /* \"#utility.yul\":11583:11589   */\n      dup3\n        /* \"#utility.yul\":11579:11594   */\n      add\n        /* \"#utility.yul\":11572:11614   */\n      mstore\n        /* \"#utility.yul\":11387:11621   */\n      pop\n      jump\t// out\n        /* \"#utility.yul\":11627:11993   */\n    tag_117:\n        /* \"#utility.yul\":11769:11772   */\n      0x00\n        /* \"#utility.yul\":11790:11857   */\n      tag_251\n        /* \"#utility.yul\":11854:11856   */\n      0x2f\n        /* \"#utility.yul\":11849:11852   */\n      dup4\n        /* \"#utility.yul\":11790:11857   */\n      tag_115\n      jump\t// in\n    tag_251:\n        /* \"#utility.yul\":11783:11857   */\n      swap2\n      pop\n        /* \"#utility.yul\":11866:11959   */\n      tag_252\n        /* \"#utility.yul\":11955:11958   */\n      dup3\n        /* \"#utility.yul\":11866:11959   */\n      tag_116\n      jump\t// in\n    tag_252:\n        /* \"#utility.yul\":11984:11986   */\n      0x40\n        /* \"#utility.yul\":11979:11982   */\n      dup3\n        /* \"#utility.yul\":11975:11987   */\n      add\n        /* \"#utility.yul\":11968:11987   */\n      swap1\n      pop\n        /* \"#utility.yul\":11627:11993   */\n      swap2\n      swap1\n      pop\n      jump\t// out\n        /* \"#utility.yul\":11999:12418   */\n    tag_41:\n        /* \"#utility.yul\":12165:12169   */\n      0x00\n        /* \"#utility.yul\":12203:12205   */\n      0x20\n        /* \"#utility.yul\":12192:12201   */\n      dup3\n        /* \"#utility.yul\":12188:12206   */\n      add\n        /* \"#utility.yul\":12180:12206   */\n      swap1\n      pop\n        /* \"#utility.yul\":12252:12261   */\n      dup2\n        /* \"#utility.yul\":12246:12250   */\n      dup2\n        /* \"#utility.yul\":12242:12262   */\n      sub\n        /* \"#utility.yul\":12238:12239   */\n      0x00\n        /* \"#utility.yul\":12227:12236   */\n      dup4\n        /* \"#utility.yul\":12223:12240   */\n      add\n        /* \"#utility.yul\":12216:12263   */\n      mstore\n        /* \"#utility.yul\":12280:12411   */\n      tag_254\n        /* \"#utility.yul\":12406:12410   */\n      dup2\n        /* \"#utility.yul\":12280:12411   */\n      tag_117\n      jump\t// in\n    tag_254:\n        /* \"#utility.yul\":12272:12411   */\n      swap1\n      pop\n        /* \"#utility.yul\":11999:12418   */\n      swap2\n      swap1\n      pop\n      jump\t// out\n        /* \"#utility.yul\":12424:12646   */\n    tag_56:\n        /* \"#utility.yul\":12517:12521   */\n      0x00\n        /* \"#utility.yul\":12555:12557   */\n      0x20\n        /* \"#utility.yul\":12544:12553   */\n      dup3\n        /* \"#utility.yul\":12540:12558   */\n      add\n        /* \"#utility.yul\":12532:12558   */\n      swap1\n      pop\n        /* \"#utility.yul\":12568:12639   */\n      tag_256\n        /* \"#utility.yul\":12636:12637   */\n      0x00\n        /* \"#utility.yul\":12625:12634   */\n      dup4\n        /* \"#utility.yul\":12621:12638   */\n      add\n        /* \"#utility.yul\":12612:12618   */\n      dup5\n        /* \"#utility.yul\":12568:12639   */\n      tag_111\n      jump\t// in\n    tag_256:\n        /* \"#utility.yul\":12424:12646   */\n      swap3\n      swap2\n      pop\n      pop\n      jump\t// out\n        /* \"#utility.yul\":12652:12759   */\n    tag_118:\n        /* \"#utility.yul\":12733:12734   */\n      0x04\n        /* \"#utility.yul\":12726:12731   */\n      dup2\n        /* \"#utility.yul\":12723:12735   */\n      lt\n        /* \"#utility.yul\":12713:12753   */\n      tag_258\n      jumpi\n        /* \"#utility.yul\":12749:12750   */\n      0x00\n        /* \"#utility.yul\":12746:12747   */\n      dup1\n        /* \"#utility.yul\":12739:12751   */\n      revert\n        /* \"#utility.yul\":12713:12753   */\n    tag_258:\n        /* \"#utility.yul\":12652:12759   */\n      pop\n      jump\t// out\n        /* \"#utility.yul\":12765:12924   */\n    tag_119:\n        /* \"#utility.yul\":12830:12835   */\n      0x00\n        /* \"#utility.yul\":12861:12867   */\n      dup2\n        /* \"#utility.yul\":12855:12868   */\n      mload\n        /* \"#utility.yul\":12846:12868   */\n      swap1\n      pop\n        /* \"#utility.yul\":12877:12918   */\n      tag_260\n        /* \"#utility.yul\":12912:12917   */\n      dup2\n        /* \"#utility.yul\":12877:12918   */\n      tag_118\n      jump\t// in\n    tag_260:\n        /* \"#utility.yul\":12765:12924   */\n      swap3\n      swap2\n      pop\n      pop\n      jump\t// out\n        /* \"#utility.yul\":12930:13297   */\n    tag_60:\n        /* \"#utility.yul\":13008:13014   */\n      0x00\n        /* \"#utility.yul\":13057:13059   */\n      0x20\n        /* \"#utility.yul\":13045:13054   */\n      dup3\n        /* \"#utility.yul\":13036:13043   */\n      dup5\n        /* \"#utility.yul\":13032:13055   */\n      sub\n        /* \"#utility.yul\":13028:13060   */\n      slt\n        /* \"#utility.yul\":13025:13144   */\n      iszero\n      tag_262\n      jumpi\n        /* \"#utility.yul\":13063:13142   */\n      tag_263\n      tag_76\n      jump\t// in\n    tag_263:\n        /* \"#utility.yul\":13025:13144   */\n    tag_262:\n        /* \"#utility.yul\":13183:13184   */\n      0x00\n        /* \"#utility.yul\":13208:13280   */\n      tag_264\n        /* \"#utility.yul\":13272:13279   */\n      dup5\n        /* \"#utility.yul\":13263:13269   */\n      dup3\n        /* \"#utility.yul\":13252:13261   */\n      dup6\n        /* \"#utility.yul\":13248:13270   */\n      add\n        /* \"#utility.yul\":13208:13280   */\n      tag_119\n      jump\t// in\n    tag_264:\n        /* \"#utility.yul\":13198:13280   */\n      swap2\n      pop\n        /* \"#utility.yul\":13154:13290   */\n      pop\n        /* \"#utility.yul\":12930:13297   */\n      swap3\n      swap2\n      pop\n      pop\n      jump\t// out\n        /* \"#utility.yul\":13303:13476   */\n    tag_120:\n        /* \"#utility.yul\":13443:13468   */\n      0x596f7520617265206e6f7420617574686f72697a656421000000000000000000\n        /* \"#utility.yul\":13439:13440   */\n      0x00\n        /* \"#utility.yul\":13431:13437   */\n      dup3\n        /* \"#utility.yul\":13427:13441   */\n      add\n        /* \"#utility.yul\":13420:13469   */\n      mstore\n        /* \"#utility.yul\":13303:13476   */\n      pop\n      jump\t// out\n        /* \"#utility.yul\":13482:13848   */\n    tag_121:\n        /* \"#utility.yul\":13624:13627   */\n      0x00\n        /* \"#utility.yul\":13645:13712   */\n      tag_267\n        /* \"#utility.yul\":13709:13711   */\n      0x17\n        /* \"#utility.yul\":13704:13707   */\n      dup4\n        /* \"#utility.yul\":13645:13712   */\n      tag_115\n      jump\t// in\n    tag_267:\n        /* \"#utility.yul\":13638:13712   */\n      swap2\n      pop\n        /* \"#utility.yul\":13721:13814   */\n      tag_268\n        /* \"#utility.yul\":13810:13813   */\n      dup3\n        /* \"#utility.yul\":13721:13814   */\n      tag_120\n      jump\t// in\n    tag_268:\n        /* \"#utility.yul\":13839:13841   */\n      0x20\n        /* \"#utility.yul\":13834:13837   */\n      dup3\n        /* \"#utility.yul\":13830:13842   */\n      add\n        /* \"#utility.yul\":13823:13842   */\n      swap1\n      pop\n        /* \"#utility.yul\":13482:13848   */\n      swap2\n      swap1\n      pop\n      jump\t// out\n        /* \"#utility.yul\":13854:14273   */\n    tag_65:\n        /* \"#utility.yul\":14020:14024   */\n      0x00\n        /* \"#utility.yul\":14058:14060   */\n      0x20\n        /* \"#utility.yul\":14047:14056   */\n      dup3\n        /* \"#utility.yul\":14043:14061   */\n      add\n        /* \"#utility.yul\":14035:14061   */\n      swap1\n      pop\n        /* \"#utility.yul\":14107:14116   */\n      dup2\n        /* \"#utility.yul\":14101:14105   */\n      dup2\n        /* \"#utility.yul\":14097:14117   */\n      sub\n        /* \"#utility.yul\":14093:14094   */\n      0x00\n        /* \"#utility.yul\":14082:14091   */\n      dup4\n        /* \"#utility.yul\":14078:14095   */\n      add\n        /* \"#utility.yul\":14071:14118   */\n      mstore\n        /* \"#utility.yul\":14135:14266   */\n      tag_270\n        /* \"#utility.yul\":14261:14265   */\n      dup2\n        /* \"#utility.yul\":14135:14266   */\n      tag_121\n      jump\t// in\n    tag_270:\n        /* \"#utility.yul\":14127:14266   */\n      swap1\n      pop\n        /* \"#utility.yul\":13854:14273   */\n      swap2\n      swap1\n      pop\n      jump\t// out\n        /* \"#utility.yul\":14279:14453   */\n    tag_122:\n        /* \"#utility.yul\":14419:14445   */\n      0x44617461206164646564207375636365737366756c6c79210000000000000000\n        /* \"#utility.yul\":14415:14416   */\n      0x00\n        /* \"#utility.yul\":14407:14413   */\n      dup3\n        /* \"#utility.yul\":14403:14417   */\n      add\n        /* \"#utility.yul\":14396:14446   */\n      mstore\n        /* \"#utility.yul\":14279:14453   */\n      pop\n      jump\t// out\n        /* \"#utility.yul\":14459:14825   */\n    tag_123:\n        /* \"#utility.yul\":14601:14604   */\n      0x00\n        /* \"#utility.yul\":14622:14689   */\n      tag_273\n        /* \"#utility.yul\":14686:14688   */\n      0x18\n        /* \"#utility.yul\":14681:14684   */\n      dup4\n        /* \"#utility.yul\":14622:14689   */\n      tag_115\n      jump\t// in\n    tag_273:\n        /* \"#utility.yul\":14615:14689   */\n      swap2\n      pop\n        /* \"#utility.yul\":14698:14791   */\n      tag_274\n        /* \"#utility.yul\":14787:14790   */\n      dup3\n        /* \"#utility.yul\":14698:14791   */\n      tag_122\n      jump\t// in\n    tag_274:\n        /* \"#utility.yul\":14816:14818   */\n      0x20\n        /* \"#utility.yul\":14811:14814   */\n      dup3\n        /* \"#utility.yul\":14807:14819   */\n      add\n        /* \"#utility.yul\":14800:14819   */\n      swap1\n      pop\n        /* \"#utility.yul\":14459:14825   */\n      swap2\n      swap1\n      pop\n      jump\t// out\n        /* \"#utility.yul\":14831:15250   */\n    tag_72:\n        /* \"#utility.yul\":14997:15001   */\n      0x00\n        /* \"#utility.yul\":15035:15037   */\n      0x20\n        /* \"#utility.yul\":15024:15033   */\n      dup3\n        /* \"#utility.yul\":15020:15038   */\n      add\n        /* \"#utility.yul\":15012:15038   */\n      swap1\n      pop\n        /* \"#utility.yul\":15084:15093   */\n      dup2\n        /* \"#utility.yul\":15078:15082   */\n      dup2\n        /* \"#utility.yul\":15074:15094   */\n      sub\n        /* \"#utility.yul\":15070:15071   */\n      0x00\n        /* \"#utility.yul\":15059:15068   */\n      dup4\n        /* \"#utility.yul\":15055:15072   */\n      add\n        /* \"#utility.yul\":15048:15095   */\n      mstore\n        /* \"#utility.yul\":15112:15243   */\n      tag_276\n        /* \"#utility.yul\":15238:15242   */\n      dup2\n        /* \"#utility.yul\":15112:15243   */\n      tag_123\n      jump\t// in\n    tag_276:\n        /* \"#utility.yul\":15104:15243   */\n      swap1\n      pop\n        /* \"#utility.yul\":14831:15250   */\n      swap2\n      swap1\n      pop\n      jump\t// out\n        /* \"#utility.yul\":15256:15437   */\n    tag_124:\n        /* \"#utility.yul\":15396:15429   */\n      0x4e6577206461746120616464656420746f20796f7572206163636f756e742100\n        /* \"#utility.yul\":15392:15393   */\n      0x00\n        /* \"#utility.yul\":15384:15390   */\n      dup3\n        /* \"#utility.yul\":15380:15394   */\n      add\n        /* \"#utility.yul\":15373:15430   */\n      mstore\n        /* \"#utility.yul\":15256:15437   */\n      pop\n      jump\t// out\n        /* \"#utility.yul\":15443:15809   */\n    tag_125:\n        /* \"#utility.yul\":15585:15588   */\n      0x00\n        /* \"#utility.yul\":15606:15673   */\n      tag_279\n        /* \"#utility.yul\":15670:15672   */\n      0x1f\n        /* \"#utility.yul\":15665:15668   */\n      dup4\n        /* \"#utility.yul\":15606:15673   */\n      tag_115\n      jump\t// in\n    tag_279:\n        /* \"#utility.yul\":15599:15673   */\n      swap2\n      pop\n        /* \"#utility.yul\":15682:15775   */\n      tag_280\n        /* \"#utility.yul\":15771:15774   */\n      dup3\n        /* \"#utility.yul\":15682:15775   */\n      tag_124\n      jump\t// in\n    tag_280:\n        /* \"#utility.yul\":15800:15802   */\n      0x20\n        /* \"#utility.yul\":15795:15798   */\n      dup3\n        /* \"#utility.yul\":15791:15803   */\n      add\n        /* \"#utility.yul\":15784:15803   */\n      swap1\n      pop\n        /* \"#utility.yul\":15443:15809   */\n      swap2\n      swap1\n      pop\n      jump\t// out\n        /* \"#utility.yul\":15815:16344   */\n    tag_74:\n        /* \"#utility.yul\":16009:16013   */\n      0x00\n        /* \"#utility.yul\":16047:16049   */\n      0x40\n        /* \"#utility.yul\":16036:16045   */\n      dup3\n        /* \"#utility.yul\":16032:16050   */\n      add\n        /* \"#utility.yul\":16024:16050   */\n      swap1\n      pop\n        /* \"#utility.yul\":16060:16131   */\n      tag_282\n        /* \"#utility.yul\":16128:16129   */\n      0x00\n        /* \"#utility.yul\":16117:16126   */\n      dup4\n        /* \"#utility.yul\":16113:16130   */\n      add\n        /* \"#utility.yul\":16104:16110   */\n      dup5\n        /* \"#utility.yul\":16060:16131   */\n      tag_111\n      jump\t// in\n    tag_282:\n        /* \"#utility.yul\":16178:16187   */\n      dup2\n        /* \"#utility.yul\":16172:16176   */\n      dup2\n        /* \"#utility.yul\":16168:16188   */\n      sub\n        /* \"#utility.yul\":16163:16165   */\n      0x20\n        /* \"#utility.yul\":16152:16161   */\n      dup4\n        /* \"#utility.yul\":16148:16166   */\n      add\n        /* \"#utility.yul\":16141:16189   */\n      mstore\n        /* \"#utility.yul\":16206:16337   */\n      tag_283\n        /* \"#utility.yul\":16332:16336   */\n      dup2\n        /* \"#utility.yul\":16206:16337   */\n      tag_125\n      jump\t// in\n    tag_283:\n        /* \"#utility.yul\":16198:16337   */\n      swap1\n      pop\n        /* \"#utility.yul\":15815:16344   */\n      swap3\n      swap2\n      pop\n      pop\n      jump\t// out\n\n    auxdata: 0xa2646970667358221220986b8f5dded5a02afd04f8ed65edf74da71f060bd673b96677d744625c1b916864736f6c634300080a0033\n}\n",
    "bytecode": {
      "linkReferences": {},
      "object": "60806040523480156200001157600080fd5b5060405162000f4438038062000f4483398181016040528101906200003791906200012a565b816000806101000a81548173ffffffffffffffffffffffffffffffffffffffff021916908373ffffffffffffffffffffffffffffffffffffffff16021790555080600160006101000a81548173ffffffffffffffffffffffffffffffffffffffff021916908373ffffffffffffffffffffffffffffffffffffffff160217905550505062000171565b600080fd5b600073ffffffffffffffffffffffffffffffffffffffff82169050919050565b6000620000f282620000c5565b9050919050565b6200010481620000e5565b81146200011057600080fd5b50565b6000815190506200012481620000f9565b92915050565b60008060408385031215620001445762000143620000c0565b5b6000620001548582860162000113565b9250506020620001678582860162000113565b9150509250929050565b610dc380620001816000396000f3fe608060405234801561001057600080fd5b50600436106100575760003560e01c806348e818521461005c5780635c62adc21461008c5780637b103999146100bf578063bb92bdd9146100dd578063f3b0c8b7146100f9575b600080fd5b61007660048036038101906100719190610650565b610117565b6040516100839190610811565b60405180910390f35b6100a660048036038101906100a19190610869565b6102eb565b6040516100b694939291906108c7565b60405180910390f35b6100c7610345565b6040516100d4919061096b565b60405180910390f35b6100f760048036038101906100f291906109d7565b610369565b005b6101016105c7565b60405161010e9190610a73565b60405180910390f35b6060600160009054906101000a900473ffffffffffffffffffffffffffffffffffffffff1673ffffffffffffffffffffffffffffffffffffffff16631a160fe933846040518363ffffffff1660e01b8152600401610176929190610a9d565b602060405180830381865afa158015610193573d6000803e3d6000fd5b505050506040513d601f19601f820116820180604052508101906101b79190610afe565b6101f6576040517f08c379a00000000000000000000000000000000000000000000000000000000081526004016101ed90610bae565b60405180910390fd5b600260008373ffffffffffffffffffffffffffffffffffffffff1673ffffffffffffffffffffffffffffffffffffffff168152602001908152602001600020805480602002602001604051908101604052809291908181526020016000905b828210156102e05783829060005260206000209060040201604051806080016040529081600082015481526020016001820160009054906101000a900460ff1660038111156102a7576102a66106c2565b5b60038111156102b9576102b86106c2565b5b81526020016002820154815260200160038201548152505081526020019060010190610255565b505050509050919050565b6002602052816000526040600020818154811061030757600080fd5b9060005260206000209060040201600091509150508060000154908060010160009054906101000a900460ff16908060020154908060030154905084565b60008054906101000a900473ffffffffffffffffffffffffffffffffffffffff1681565b6001600381111561037d5761037c6106c2565b5b60008054906101000a900473ffffffffffffffffffffffffffffffffffffffff1673ffffffffffffffffffffffffffffffffffffffff166327820851336040518263ffffffff1660e01b81526004016103d69190610bce565b602060405180830381865afa1580156103f3573d6000803e3d6000fd5b505050506040513d601f19601f820116820180604052508101906104179190610c0e565b6003811115610429576104286106c2565b5b14610469576040517f08c379a000000000000000000000000000000000000000000000000000000000815260040161046090610c87565b60405180910390fd5b600260008673ffffffffffffffffffffffffffffffffffffffff1673ffffffffffffffffffffffffffffffffffffffff16815260200190815260200160002060405180608001604052808681526020018560038111156104cc576104cb6106c2565b5b81526020018481526020018381525090806001815401808255809150506001900390600052602060002090600402016000909190919091506000820151816000015560208201518160010160006101000a81548160ff02191690836003811115610539576105386106c2565b5b0217905550604082015181600201556060820151816003015550507f7d3bc02f99fcb6eaa98324a9a5db8aa3eaafe1a149e5ed494479d4406a0937b260405161058190610cf3565b60405180910390a17fdc77b9bfcade046bb2c76f2e066769addb2a971455c07e4d7be58654bc51a28d856040516105b89190610d5f565b60405180910390a15050505050565b600160009054906101000a900473ffffffffffffffffffffffffffffffffffffffff1681565b600080fd5b600073ffffffffffffffffffffffffffffffffffffffff82169050919050565b600061061d826105f2565b9050919050565b61062d81610612565b811461063857600080fd5b50565b60008135905061064a81610624565b92915050565b600060208284031215610666576106656105ed565b5b60006106748482850161063b565b91505092915050565b600081519050919050565b600082825260208201905092915050565b6000819050602082019050919050565b6000819050919050565b6106bc816106a9565b82525050565b7f4e487b7100000000000000000000000000000000000000000000000000000000600052602160045260246000fd5b60048110610702576107016106c2565b5b50565b6000819050610713826106f1565b919050565b600061072382610705565b9050919050565b61073381610718565b82525050565b60808201600082015161074f60008501826106b3565b506020820151610762602085018261072a565b50604082015161077560408501826106b3565b50606082015161078860608501826106b3565b50505050565b600061079a8383610739565b60808301905092915050565b6000602082019050919050565b60006107be8261067d565b6107c88185610688565b93506107d383610699565b8060005b838110156108045781516107eb888261078e565b97506107f6836107a6565b9250506001810190506107d7565b5085935050505092915050565b6000602082019050818103600083015261082b81846107b3565b905092915050565b6000819050919050565b61084681610833565b811461085157600080fd5b50565b6000813590506108638161083d565b92915050565b600080604083850312156108805761087f6105ed565b5b600061088e8582860161063b565b925050602061089f85828601610854565b9150509250929050565b6108b2816106a9565b82525050565b6108c181610718565b82525050565b60006080820190506108dc60008301876108a9565b6108e960208301866108b8565b6108f660408301856108a9565b61090360608301846108a9565b95945050505050565b6000819050919050565b600061093161092c610927846105f2565b61090c565b6105f2565b9050919050565b600061094382610916565b9050919050565b600061095582610938565b9050919050565b6109658161094a565b82525050565b6000602082019050610980600083018461095c565b92915050565b61098f816106a9565b811461099a57600080fd5b50565b6000813590506109ac81610986565b92915050565b600481106109bf57600080fd5b50565b6000813590506109d1816109b2565b92915050565b600080600080600060a086880312156109f3576109f26105ed565b5b6000610a018882890161063b565b9550506020610a128882890161099d565b9450506040610a23888289016109c2565b9350506060610a348882890161099d565b9250506080610a458882890161099d565b9150509295509295909350565b6000610a5d82610938565b9050919050565b610a6d81610a52565b82525050565b6000602082019050610a886000830184610a64565b92915050565b610a9781610612565b82525050565b6000604082019050610ab26000830185610a8e565b610abf6020830184610a8e565b9392505050565b60008115159050919050565b610adb81610ac6565b8114610ae657600080fd5b50565b600081519050610af881610ad2565b92915050565b600060208284031215610b1457610b136105ed565b5b6000610b2284828501610ae9565b91505092915050565b600082825260208201905092915050565b7f596f7520646f206e6f742068617665207065726d697373696f6e20746f20616360008201527f6365737320746869732064617461210000000000000000000000000000000000602082015250565b6000610b98602f83610b2b565b9150610ba382610b3c565b604082019050919050565b60006020820190508181036000830152610bc781610b8b565b9050919050565b6000602082019050610be36000830184610a8e565b92915050565b60048110610bf657600080fd5b50565b600081519050610c0881610be9565b92915050565b600060208284031215610c2457610c236105ed565b5b6000610c3284828501610bf9565b91505092915050565b7f596f7520617265206e6f7420617574686f72697a656421000000000000000000600082015250565b6000610c71601783610b2b565b9150610c7c82610c3b565b602082019050919050565b60006020820190508181036000830152610ca081610c64565b9050919050565b7f44617461206164646564207375636365737366756c6c79210000000000000000600082015250565b6000610cdd601883610b2b565b9150610ce882610ca7565b602082019050919050565b60006020820190508181036000830152610d0c81610cd0565b9050919050565b7f4e6577206461746120616464656420746f20796f7572206163636f756e742100600082015250565b6000610d49601f83610b2b565b9150610d5482610d13565b602082019050919050565b6000604082019050610d746000830184610a8e565b8181036020830152610d8581610d3c565b90509291505056fea2646970667358221220986b8f5dded5a02afd04f8ed65edf74da71f060bd673b96677d744625c1b916864736f6c634300080a0033",
      "opcodes": "PUSH1 0x80 PUSH1 0x40 MSTORE CALLVALUE DUP1 ISZERO PUSH3 0x11 JUMPI PUSH1 0x0 DUP1 REVERT JUMPDEST POP PUSH1 0x40 MLOAD PUSH3 0xF44 CODESIZE SUB DUP1 PUSH3 0xF44 DUP4 CODECOPY DUP2 DUP2 ADD PUSH1 0x40 MSTORE DUP2 ADD SWAP1 PUSH3 0x37 SWAP2 SWAP1 PUSH3 0x12A JUMP JUMPDEST DUP2 PUSH1 0x0 DUP1 PUSH2 0x100 EXP DUP2 SLOAD DUP2 PUSH20 0xFFFFFFFFFFFFFFFFFFFFFFFFFFFFFFFFFFFFFFFF MUL NOT AND SWAP1 DUP4 PUSH20 0xFFFFFFFFFFFFFFFFFFFFFFFFFFFFFFFFFFFFFFFF AND MUL OR SWAP1 SSTORE POP DUP1 PUSH1 0x1 PUSH1 0x0 PUSH2 0x100 EXP DUP2 SLOAD DUP2 PUSH20 0xFFFFFFFFFFFFFFFFFFFFFFFFFFFFFFFFFFFFFFFF MUL NOT AND SWAP1 DUP4 PUSH20 0xFFFFFFFFFFFFFFFFFFFFFFFFFFFFFFFFFFFFFFFF AND MUL OR SWAP1 SSTORE POP POP POP PUSH3 0x171 JUMP JUMPDEST PUSH1 0x0 DUP1 REVERT JUMPDEST PUSH1 0x0 PUSH20 0xFFFFFFFFFFFFFFFFFFFFFFFFFFFFFFFFFFFFFFFF DUP3 AND SWAP1 POP SWAP2 SWAP1 POP JUMP JUMPDEST PUSH1 0x0 PUSH3 0xF2 DUP3 PUSH3 0xC5 JUMP JUMPDEST SWAP1 POP SWAP2 SWAP1 POP JUMP JUMPDEST PUSH3 0x104 DUP2 PUSH3 0xE5 JUMP JUMPDEST DUP2 EQ PUSH3 0x110 JUMPI PUSH1 0x0 DUP1 REVERT JUMPDEST POP JUMP JUMPDEST PUSH1 0x0 DUP2 MLOAD SWAP1 POP PUSH3 0x124 DUP2 PUSH3 0xF9 JUMP JUMPDEST SWAP3 SWAP2 POP POP JUMP JUMPDEST PUSH1 0x0 DUP1 PUSH1 0x40 DUP4 DUP6 SUB SLT ISZERO PUSH3 0x144 JUMPI PUSH3 0x143 PUSH3 0xC0 JUMP JUMPDEST JUMPDEST PUSH1 0x0 PUSH3 0x154 DUP6 DUP3 DUP7 ADD PUSH3 0x113 JUMP JUMPDEST SWAP3 POP POP PUSH1 0x20 PUSH3 0x167 DUP6 DUP3 DUP7 ADD PUSH3 0x113 JUMP JUMPDEST SWAP2 POP POP SWAP3 POP SWAP3 SWAP1 POP JUMP JUMPDEST PUSH2 0xDC3 DUP1 PUSH3 0x181 PUSH1 0x0 CODECOPY PUSH1 0x0 RETURN INVALID PUSH1 0x80 PUSH1 0x40 MSTORE CALLVALUE DUP1 ISZERO PUSH2 0x10 JUMPI PUSH1 0x0 DUP1 REVERT JUMPDEST POP PUSH1 0x4 CALLDATASIZE LT PUSH2 0x57 JUMPI PUSH1 0x0 CALLDATALOAD PUSH1 0xE0 SHR DUP1 PUSH4 0x48E81852 EQ PUSH2 0x5C JUMPI DUP1 PUSH4 0x5C62ADC2 EQ PUSH2 0x8C JUMPI DUP1 PUSH4 0x7B103999 EQ PUSH2 0xBF JUMPI DUP1 PUSH4 0xBB92BDD9 EQ PUSH2 0xDD JUMPI DUP1 PUSH4 0xF3B0C8B7 EQ PUSH2 0xF9 JUMPI JUMPDEST PUSH1 0x0 DUP1 REVERT JUMPDEST PUSH2 0x76 PUSH1 0x4 DUP1 CALLDATASIZE SUB DUP2 ADD SWAP1 PUSH2 0x71 SWAP2 SWAP1 PUSH2 0x650 JUMP JUMPDEST PUSH2 0x117 JUMP JUMPDEST PUSH1 0x40 MLOAD PUSH2 0x83 SWAP2 SWAP1 PUSH2 0x811 JUMP JUMPDEST PUSH1 0x40 MLOAD DUP1 SWAP2 SUB SWAP1 RETURN JUMPDEST PUSH2 0xA6 PUSH1 0x4 DUP1 CALLDATASIZE SUB DUP2 ADD SWAP1 PUSH2 0xA1 SWAP2 SWAP1 PUSH2 0x869 JUMP JUMPDEST PUSH2 0x2EB JUMP JUMPDEST PUSH1 0x40 MLOAD PUSH2 0xB6 SWAP5 SWAP4 SWAP3 SWAP2 SWAP1 PUSH2 0x8C7 JUMP JUMPDEST PUSH1 0x40 MLOAD DUP1 SWAP2 SUB SWAP1 RETURN JUMPDEST PUSH2 0xC7 PUSH2 0x345 JUMP JUMPDEST PUSH1 0x40 MLOAD PUSH2 0xD4 SWAP2 SWAP1 PUSH2 0x96B JUMP JUMPDEST PUSH1 0x40 MLOAD DUP1 SWAP2 SUB SWAP1 RETURN JUMPDEST PUSH2 0xF7 PUSH1 0x4 DUP1 CALLDATASIZE SUB DUP2 ADD SWAP1 PUSH2 0xF2 SWAP2 SWAP1 PUSH2 0x9D7 JUMP JUMPDEST PUSH2 0x369 JUMP JUMPDEST STOP JUMPDEST PUSH2 0x101 PUSH2 0x5C7 JUMP JUMPDEST PUSH1 0x40 MLOAD PUSH2 0x10E SWAP2 SWAP1 PUSH2 0xA73 JUMP JUMPDEST PUSH1 0x40 MLOAD DUP1 SWAP2 SUB SWAP1 RETURN JUMPDEST PUSH1 0x60 PUSH1 0x1 PUSH1 0x0 SWAP1 SLOAD SWAP1 PUSH2 0x100 EXP SWAP1 DIV PUSH20 0xFFFFFFFFFFFFFFFFFFFFFFFFFFFFFFFFFFFFFFFF AND PUSH20 0xFFFFFFFFFFFFFFFFFFFFFFFFFFFFFFFFFFFFFFFF AND PUSH4 0x1A160FE9 CALLER DUP5 PUSH1 0x40 MLOAD DUP4 PUSH4 0xFFFFFFFF AND PUSH1 0xE0 SHL DUP2 MSTORE PUSH1 0x4 ADD PUSH2 0x176 SWAP3 SWAP2 SWAP1 PUSH2 0xA9D JUMP JUMPDEST PUSH1 0x20 PUSH1 0x40 MLOAD DUP1 DUP4 SUB DUP2 DUP7 GAS STATICCALL ISZERO DUP1 ISZERO PUSH2 0x193 JUMPI RETURNDATASIZE PUSH1 0x0 DUP1 RETURNDATACOPY RETURNDATASIZE PUSH1 0x0 REVERT JUMPDEST POP POP POP POP PUSH1 0x40 MLOAD RETURNDATASIZE PUSH1 0x1F NOT PUSH1 0x1F DUP3 ADD AND DUP3 ADD DUP1 PUSH1 0x40 MSTORE POP DUP2 ADD SWAP1 PUSH2 0x1B7 SWAP2 SWAP1 PUSH2 0xAFE JUMP JUMPDEST PUSH2 0x1F6 JUMPI PUSH1 0x40 MLOAD PUSH32 0x8C379A000000000000000000000000000000000000000000000000000000000 DUP2 MSTORE PUSH1 0x4 ADD PUSH2 0x1ED SWAP1 PUSH2 0xBAE JUMP JUMPDEST PUSH1 0x40 MLOAD DUP1 SWAP2 SUB SWAP1 REVERT JUMPDEST PUSH1 0x2 PUSH1 0x0 DUP4 PUSH20 0xFFFFFFFFFFFFFFFFFFFFFFFFFFFFFFFFFFFFFFFF AND PUSH20 0xFFFFFFFFFFFFFFFFFFFFFFFFFFFFFFFFFFFFFFFF AND DUP2 MSTORE PUSH1 0x20 ADD SWAP1 DUP2 MSTORE PUSH1 0x20 ADD PUSH1 0x0 KECCAK256 DUP1 SLOAD DUP1 PUSH1 0x20 MUL PUSH1 0x20 ADD PUSH1 0x40 MLOAD SWAP1 DUP2 ADD PUSH1 0x40 MSTORE DUP1 SWAP3 SWAP2 SWAP1 DUP2 DUP2 MSTORE PUSH1 0x20 ADD PUSH1 0x0 SWAP1 JUMPDEST DUP3 DUP3 LT ISZERO PUSH2 0x2E0 JUMPI DUP4 DUP3 SWAP1 PUSH1 0x0 MSTORE PUSH1 0x20 PUSH1 0x0 KECCAK256 SWAP1 PUSH1 0x4 MUL ADD PUSH1 0x40 MLOAD DUP1 PUSH1 0x80 ADD PUSH1 0x40 MSTORE SWAP1 DUP2 PUSH1 0x0 DUP3 ADD SLOAD DUP2 MSTORE PUSH1 0x20 ADD PUSH1 0x1 DUP3 ADD PUSH1 0x0 SWAP1 SLOAD SWAP1 PUSH2 0x100 EXP SWAP1 DIV PUSH1 0xFF AND PUSH1 0x3 DUP2 GT ISZERO PUSH2 0x2A7 JUMPI PUSH2 0x2A6 PUSH2 0x6C2 JUMP JUMPDEST JUMPDEST PUSH1 0x3 DUP2 GT ISZERO PUSH2 0x2B9 JUMPI PUSH2 0x2B8 PUSH2 0x6C2 JUMP JUMPDEST JUMPDEST DUP2 MSTORE PUSH1 0x20 ADD PUSH1 0x2 DUP3 ADD SLOAD DUP2 MSTORE PUSH1 0x20 ADD PUSH1 0x3 DUP3 ADD SLOAD DUP2 MSTORE POP POP DUP2 MSTORE PUSH1 0x20 ADD SWAP1 PUSH1 0x1 ADD SWAP1 PUSH2 0x255 JUMP JUMPDEST POP POP POP POP SWAP1 POP SWAP2 SWAP1 POP JUMP JUMPDEST PUSH1 0x2 PUSH1 0x20 MSTORE DUP2 PUSH1 0x0 MSTORE PUSH1 0x40 PUSH1 0x0 KECCAK256 DUP2 DUP2 SLOAD DUP2 LT PUSH2 0x307 JUMPI PUSH1 0x0 DUP1 REVERT JUMPDEST SWAP1 PUSH1 0x0 MSTORE PUSH1 0x20 PUSH1 0x0 KECCAK256 SWAP1 PUSH1 0x4 MUL ADD PUSH1 0x0 SWAP2 POP SWAP2 POP POP DUP1 PUSH1 0x0 ADD SLOAD SWAP1 DUP1 PUSH1 0x1 ADD PUSH1 0x0 SWAP1 SLOAD SWAP1 PUSH2 0x100 EXP SWAP1 DIV PUSH1 0xFF AND SWAP1 DUP1 PUSH1 0x2 ADD SLOAD SWAP1 DUP1 PUSH1 0x3 ADD SLOAD SWAP1 POP DUP5 JUMP JUMPDEST PUSH1 0x0 DUP1 SLOAD SWAP1 PUSH2 0x100 EXP SWAP1 DIV PUSH20 0xFFFFFFFFFFFFFFFFFFFFFFFFFFFFFFFFFFFFFFFF AND DUP2 JUMP JUMPDEST PUSH1 0x1 PUSH1 0x3 DUP2 GT ISZERO PUSH2 0x37D JUMPI PUSH2 0x37C PUSH2 0x6C2 JUMP JUMPDEST JUMPDEST PUSH1 0x0 DUP1 SLOAD SWAP1 PUSH2 0x100 EXP SWAP1 DIV PUSH20 0xFFFFFFFFFFFFFFFFFFFFFFFFFFFFFFFFFFFFFFFF AND PUSH20 0xFFFFFFFFFFFFFFFFFFFFFFFFFFFFFFFFFFFFFFFF AND PUSH4 0x27820851 CALLER PUSH1 0x40 MLOAD DUP3 PUSH4 0xFFFFFFFF AND PUSH1 0xE0 SHL DUP2 MSTORE PUSH1 0x4 ADD PUSH2 0x3D6 SWAP2 SWAP1 PUSH2 0xBCE JUMP JUMPDEST PUSH1 0x20 PUSH1 0x40 MLOAD DUP1 DUP4 SUB DUP2 DUP7 GAS STATICCALL ISZERO DUP1 ISZERO PUSH2 0x3F3 JUMPI RETURNDATASIZE PUSH1 0x0 DUP1 RETURNDATACOPY RETURNDATASIZE PUSH1 0x0 REVERT JUMPDEST POP POP POP POP PUSH1 0x40 MLOAD RETURNDATASIZE PUSH1 0x1F NOT PUSH1 0x1F DUP3 ADD AND DUP3 ADD DUP1 PUSH1 0x40 MSTORE POP DUP2 ADD SWAP1 PUSH2 0x417 SWAP2 SWAP1 PUSH2 0xC0E JUMP JUMPDEST PUSH1 0x3 DUP2 GT ISZERO PUSH2 0x429 JUMPI PUSH2 0x428 PUSH2 0x6C2 JUMP JUMPDEST JUMPDEST EQ PUSH2 0x469 JUMPI PUSH1 0x40 MLOAD PUSH32 0x8C379A000000000000000000000000000000000000000000000000000000000 DUP2 MSTORE PUSH1 0x4 ADD PUSH2 0x460 SWAP1 PUSH2 0xC87 JUMP JUMPDEST PUSH1 0x40 MLOAD DUP1 SWAP2 SUB SWAP1 REVERT JUMPDEST PUSH1 0x2 PUSH1 0x0 DUP7 PUSH20 0xFFFFFFFFFFFFFFFFFFFFFFFFFFFFFFFFFFFFFFFF AND PUSH20 0xFFFFFFFFFFFFFFFFFFFFFFFFFFFFFFFFFFFFFFFF AND DUP2 MSTORE PUSH1 0x20 ADD SWAP1 DUP2 MSTORE PUSH1 0x20 ADD PUSH1 0x0 KECCAK256 PUSH1 0x40 MLOAD DUP1 PUSH1 0x80 ADD PUSH1 0x40 MSTORE DUP1 DUP7 DUP2 MSTORE PUSH1 0x20 ADD DUP6 PUSH1 0x3 DUP2 GT ISZERO PUSH2 0x4CC JUMPI PUSH2 0x4CB PUSH2 0x6C2 JUMP JUMPDEST JUMPDEST DUP2 MSTORE PUSH1 0x20 ADD DUP5 DUP2 MSTORE PUSH1 0x20 ADD DUP4 DUP2 MSTORE POP SWAP1 DUP1 PUSH1 0x1 DUP2 SLOAD ADD DUP1 DUP3 SSTORE DUP1 SWAP2 POP POP PUSH1 0x1 SWAP1 SUB SWAP1 PUSH1 0x0 MSTORE PUSH1 0x20 PUSH1 0x0 KECCAK256 SWAP1 PUSH1 0x4 MUL ADD PUSH1 0x0 SWAP1 SWAP2 SWAP1 SWAP2 SWAP1 SWAP2 POP PUSH1 0x0 DUP3 ADD MLOAD DUP2 PUSH1 0x0 ADD SSTORE PUSH1 0x20 DUP3 ADD MLOAD DUP2 PUSH1 0x1 ADD PUSH1 0x0 PUSH2 0x100 EXP DUP2 SLOAD DUP2 PUSH1 0xFF MUL NOT AND SWAP1 DUP4 PUSH1 0x3 DUP2 GT ISZERO PUSH2 0x539 JUMPI PUSH2 0x538 PUSH2 0x6C2 JUMP JUMPDEST JUMPDEST MUL OR SWAP1 SSTORE POP PUSH1 0x40 DUP3 ADD MLOAD DUP2 PUSH1 0x2 ADD SSTORE PUSH1 0x60 DUP3 ADD MLOAD DUP2 PUSH1 0x3 ADD SSTORE POP POP PUSH32 0x7D3BC02F99FCB6EAA98324A9A5DB8AA3EAAFE1A149E5ED494479D4406A0937B2 PUSH1 0x40 MLOAD PUSH2 0x581 SWAP1 PUSH2 0xCF3 JUMP JUMPDEST PUSH1 0x40 MLOAD DUP1 SWAP2 SUB SWAP1 LOG1 PUSH32 0xDC77B9BFCADE046BB2C76F2E066769ADDB2A971455C07E4D7BE58654BC51A28D DUP6 PUSH1 0x40 MLOAD PUSH2 0x5B8 SWAP2 SWAP1 PUSH2 0xD5F JUMP JUMPDEST PUSH1 0x40 MLOAD DUP1 SWAP2 SUB SWAP1 LOG1 POP POP POP POP POP JUMP JUMPDEST PUSH1 0x1 PUSH1 0x0 SWAP1 SLOAD SWAP1 PUSH2 0x100 EXP SWAP1 DIV PUSH20 0xFFFFFFFFFFFFFFFFFFFFFFFFFFFFFFFFFFFFFFFF AND DUP2 JUMP JUMPDEST PUSH1 0x0 DUP1 REVERT JUMPDEST PUSH1 0x0 PUSH20 0xFFFFFFFFFFFFFFFFFFFFFFFFFFFFFFFFFFFFFFFF DUP3 AND SWAP1 POP SWAP2 SWAP1 POP JUMP JUMPDEST PUSH1 0x0 PUSH2 0x61D DUP3 PUSH2 0x5F2 JUMP JUMPDEST SWAP1 POP SWAP2 SWAP1 POP JUMP JUMPDEST PUSH2 0x62D DUP2 PUSH2 0x612 JUMP JUMPDEST DUP2 EQ PUSH2 0x638 JUMPI PUSH1 0x0 DUP1 REVERT JUMPDEST POP JUMP JUMPDEST PUSH1 0x0 DUP2 CALLDATALOAD SWAP1 POP PUSH2 0x64A DUP2 PUSH2 0x624 JUMP JUMPDEST SWAP3 SWAP2 POP POP JUMP JUMPDEST PUSH1 0x0 PUSH1 0x20 DUP3 DUP5 SUB SLT ISZERO PUSH2 0x666 JUMPI PUSH2 0x665 PUSH2 0x5ED JUMP JUMPDEST JUMPDEST PUSH1 0x0 PUSH2 0x674 DUP5 DUP3 DUP6 ADD PUSH2 0x63B JUMP JUMPDEST SWAP2 POP POP SWAP3 SWAP2 POP POP JUMP JUMPDEST PUSH1 0x0 DUP2 MLOAD SWAP1 POP SWAP2 SWAP1 POP JUMP JUMPDEST PUSH1 0x0 DUP3 DUP3 MSTORE PUSH1 0x20 DUP3 ADD SWAP1 POP SWAP3 SWAP2 POP POP JUMP JUMPDEST PUSH1 0x0 DUP2 SWAP1 POP PUSH1 0x20 DUP3 ADD SWAP1 POP SWAP2 SWAP1 POP JUMP JUMPDEST PUSH1 0x0 DUP2 SWAP1 POP SWAP2 SWAP1 POP JUMP JUMPDEST PUSH2 0x6BC DUP2 PUSH2 0x6A9 JUMP JUMPDEST DUP3 MSTORE POP POP JUMP JUMPDEST PUSH32 0x4E487B7100000000000000000000000000000000000000000000000000000000 PUSH1 0x0 MSTORE PUSH1 0x21 PUSH1 0x4 MSTORE PUSH1 0x24 PUSH1 0x0 REVERT JUMPDEST PUSH1 0x4 DUP2 LT PUSH2 0x702 JUMPI PUSH2 0x701 PUSH2 0x6C2 JUMP JUMPDEST JUMPDEST POP JUMP JUMPDEST PUSH1 0x0 DUP2 SWAP1 POP PUSH2 0x713 DUP3 PUSH2 0x6F1 JUMP JUMPDEST SWAP2 SWAP1 POP JUMP JUMPDEST PUSH1 0x0 PUSH2 0x723 DUP3 PUSH2 0x705 JUMP JUMPDEST SWAP1 POP SWAP2 SWAP1 POP JUMP JUMPDEST PUSH2 0x733 DUP2 PUSH2 0x718 JUMP JUMPDEST DUP3 MSTORE POP POP JUMP JUMPDEST PUSH1 0x80 DUP3 ADD PUSH1 0x0 DUP3 ADD MLOAD PUSH2 0x74F PUSH1 0x0 DUP6 ADD DUP3 PUSH2 0x6B3 JUMP JUMPDEST POP PUSH1 0x20 DUP3 ADD MLOAD PUSH2 0x762 PUSH1 0x20 DUP6 ADD DUP3 PUSH2 0x72A JUMP JUMPDEST POP PUSH1 0x40 DUP3 ADD MLOAD PUSH2 0x775 PUSH1 0x40 DUP6 ADD DUP3 PUSH2 0x6B3 JUMP JUMPDEST POP PUSH1 0x60 DUP3 ADD MLOAD PUSH2 0x788 PUSH1 0x60 DUP6 ADD DUP3 PUSH2 0x6B3 JUMP JUMPDEST POP POP POP POP JUMP JUMPDEST PUSH1 0x0 PUSH2 0x79A DUP4 DUP4 PUSH2 0x739 JUMP JUMPDEST PUSH1 0x80 DUP4 ADD SWAP1 POP SWAP3 SWAP2 POP POP JUMP JUMPDEST PUSH1 0x0 PUSH1 0x20 DUP3 ADD SWAP1 POP SWAP2 SWAP1 POP JUMP JUMPDEST PUSH1 0x0 PUSH2 0x7BE DUP3 PUSH2 0x67D JUMP JUMPDEST PUSH2 0x7C8 DUP2 DUP6 PUSH2 0x688 JUMP JUMPDEST SWAP4 POP PUSH2 0x7D3 DUP4 PUSH2 0x699 JUMP JUMPDEST DUP1 PUSH1 0x0 JUMPDEST DUP4 DUP2 LT ISZERO PUSH2 0x804 JUMPI DUP2 MLOAD PUSH2 0x7EB DUP9 DUP3 PUSH2 0x78E JUMP JUMPDEST SWAP8 POP PUSH2 0x7F6 DUP4 PUSH2 0x7A6 JUMP JUMPDEST SWAP3 POP POP PUSH1 0x1 DUP2 ADD SWAP1 POP PUSH2 0x7D7 JUMP JUMPDEST POP DUP6 SWAP4 POP POP POP POP SWAP3 SWAP2 POP POP JUMP JUMPDEST PUSH1 0x0 PUSH1 0x20 DUP3 ADD SWAP1 POP DUP2 DUP2 SUB PUSH1 0x0 DUP4 ADD MSTORE PUSH2 0x82B DUP2 DUP5 PUSH2 0x7B3 JUMP JUMPDEST SWAP1 POP SWAP3 SWAP2 POP POP JUMP JUMPDEST PUSH1 0x0 DUP2 SWAP1 POP SWAP2 SWAP1 POP JUMP JUMPDEST PUSH2 0x846 DUP2 PUSH2 0x833 JUMP JUMPDEST DUP2 EQ PUSH2 0x851 JUMPI PUSH1 0x0 DUP1 REVERT JUMPDEST POP JUMP JUMPDEST PUSH1 0x0 DUP2 CALLDATALOAD SWAP1 POP PUSH2 0x863 DUP2 PUSH2 0x83D JUMP JUMPDEST SWAP3 SWAP2 POP POP JUMP JUMPDEST PUSH1 0x0 DUP1 PUSH1 0x40 DUP4 DUP6 SUB SLT ISZERO PUSH2 0x880 JUMPI PUSH2 0x87F PUSH2 0x5ED JUMP JUMPDEST JUMPDEST PUSH1 0x0 PUSH2 0x88E DUP6 DUP3 DUP7 ADD PUSH2 0x63B JUMP JUMPDEST SWAP3 POP POP PUSH1 0x20 PUSH2 0x89F DUP6 DUP3 DUP7 ADD PUSH2 0x854 JUMP JUMPDEST SWAP2 POP POP SWAP3 POP SWAP3 SWAP1 POP JUMP JUMPDEST PUSH2 0x8B2 DUP2 PUSH2 0x6A9 JUMP JUMPDEST DUP3 MSTORE POP POP JUMP JUMPDEST PUSH2 0x8C1 DUP2 PUSH2 0x718 JUMP JUMPDEST DUP3 MSTORE POP POP JUMP JUMPDEST PUSH1 0x0 PUSH1 0x80 DUP3 ADD SWAP1 POP PUSH2 0x8DC PUSH1 0x0 DUP4 ADD DUP8 PUSH2 0x8A9 JUMP JUMPDEST PUSH2 0x8E9 PUSH1 0x20 DUP4 ADD DUP7 PUSH2 0x8B8 JUMP JUMPDEST PUSH2 0x8F6 PUSH1 0x40 DUP4 ADD DUP6 PUSH2 0x8A9 JUMP JUMPDEST PUSH2 0x903 PUSH1 0x60 DUP4 ADD DUP5 PUSH2 0x8A9 JUMP JUMPDEST SWAP6 SWAP5 POP POP POP POP POP JUMP JUMPDEST PUSH1 0x0 DUP2 SWAP1 POP SWAP2 SWAP1 POP JUMP JUMPDEST PUSH1 0x0 PUSH2 0x931 PUSH2 0x92C PUSH2 0x927 DUP5 PUSH2 0x5F2 JUMP JUMPDEST PUSH2 0x90C JUMP JUMPDEST PUSH2 0x5F2 JUMP JUMPDEST SWAP1 POP SWAP2 SWAP1 POP JUMP JUMPDEST PUSH1 0x0 PUSH2 0x943 DUP3 PUSH2 0x916 JUMP JUMPDEST SWAP1 POP SWAP2 SWAP1 POP JUMP JUMPDEST PUSH1 0x0 PUSH2 0x955 DUP3 PUSH2 0x938 JUMP JUMPDEST SWAP1 POP SWAP2 SWAP1 POP JUMP JUMPDEST PUSH2 0x965 DUP2 PUSH2 0x94A JUMP JUMPDEST DUP3 MSTORE POP POP JUMP JUMPDEST PUSH1 0x0 PUSH1 0x20 DUP3 ADD SWAP1 POP PUSH2 0x980 PUSH1 0x0 DUP4 ADD DUP5 PUSH2 0x95C JUMP JUMPDEST SWAP3 SWAP2 POP POP JUMP JUMPDEST PUSH2 0x98F DUP2 PUSH2 0x6A9 JUMP JUMPDEST DUP2 EQ PUSH2 0x99A JUMPI PUSH1 0x0 DUP1 REVERT JUMPDEST POP JUMP JUMPDEST PUSH1 0x0 DUP2 CALLDATALOAD SWAP1 POP PUSH2 0x9AC DUP2 PUSH2 0x986 JUMP JUMPDEST SWAP3 SWAP2 POP POP JUMP JUMPDEST PUSH1 0x4 DUP2 LT PUSH2 0x9BF JUMPI PUSH1 0x0 DUP1 REVERT JUMPDEST POP JUMP JUMPDEST PUSH1 0x0 DUP2 CALLDATALOAD SWAP1 POP PUSH2 0x9D1 DUP2 PUSH2 0x9B2 JUMP JUMPDEST SWAP3 SWAP2 POP POP JUMP JUMPDEST PUSH1 0x0 DUP1 PUSH1 0x0 DUP1 PUSH1 0x0 PUSH1 0xA0 DUP7 DUP9 SUB SLT ISZERO PUSH2 0x9F3 JUMPI PUSH2 0x9F2 PUSH2 0x5ED JUMP JUMPDEST JUMPDEST PUSH1 0x0 PUSH2 0xA01 DUP9 DUP3 DUP10 ADD PUSH2 0x63B JUMP JUMPDEST SWAP6 POP POP PUSH1 0x20 PUSH2 0xA12 DUP9 DUP3 DUP10 ADD PUSH2 0x99D JUMP JUMPDEST SWAP5 POP POP PUSH1 0x40 PUSH2 0xA23 DUP9 DUP3 DUP10 ADD PUSH2 0x9C2 JUMP JUMPDEST SWAP4 POP POP PUSH1 0x60 PUSH2 0xA34 DUP9 DUP3 DUP10 ADD PUSH2 0x99D JUMP JUMPDEST SWAP3 POP POP PUSH1 0x80 PUSH2 0xA45 DUP9 DUP3 DUP10 ADD PUSH2 0x99D JUMP JUMPDEST SWAP2 POP POP SWAP3 SWAP6 POP SWAP3 SWAP6 SWAP1 SWAP4 POP JUMP JUMPDEST PUSH1 0x0 PUSH2 0xA5D DUP3 PUSH2 0x938 JUMP JUMPDEST SWAP1 POP SWAP2 SWAP1 POP JUMP JUMPDEST PUSH2 0xA6D DUP2 PUSH2 0xA52 JUMP JUMPDEST DUP3 MSTORE POP POP JUMP JUMPDEST PUSH1 0x0 PUSH1 0x20 DUP3 ADD SWAP1 POP PUSH2 0xA88 PUSH1 0x0 DUP4 ADD DUP5 PUSH2 0xA64 JUMP JUMPDEST SWAP3 SWAP2 POP POP JUMP JUMPDEST PUSH2 0xA97 DUP2 PUSH2 0x612 JUMP JUMPDEST DUP3 MSTORE POP POP JUMP JUMPDEST PUSH1 0x0 PUSH1 0x40 DUP3 ADD SWAP1 POP PUSH2 0xAB2 PUSH1 0x0 DUP4 ADD DUP6 PUSH2 0xA8E JUMP JUMPDEST PUSH2 0xABF PUSH1 0x20 DUP4 ADD DUP5 PUSH2 0xA8E JUMP JUMPDEST SWAP4 SWAP3 POP POP POP JUMP JUMPDEST PUSH1 0x0 DUP2 ISZERO ISZERO SWAP1 POP SWAP2 SWAP1 POP JUMP JUMPDEST PUSH2 0xADB DUP2 PUSH2 0xAC6 JUMP JUMPDEST DUP2 EQ PUSH2 0xAE6 JUMPI PUSH1 0x0 DUP1 REVERT JUMPDEST POP JUMP JUMPDEST PUSH1 0x0 DUP2 MLOAD SWAP1 POP PUSH2 0xAF8 DUP2 PUSH2 0xAD2 JUMP JUMPDEST SWAP3 SWAP2 POP POP JUMP JUMPDEST PUSH1 0x0 PUSH1 0x20 DUP3 DUP5 SUB SLT ISZERO PUSH2 0xB14 JUMPI PUSH2 0xB13 PUSH2 0x5ED JUMP JUMPDEST JUMPDEST PUSH1 0x0 PUSH2 0xB22 DUP5 DUP3 DUP6 ADD PUSH2 0xAE9 JUMP JUMPDEST SWAP2 POP POP SWAP3 SWAP2 POP POP JUMP JUMPDEST PUSH1 0x0 DUP3 DUP3 MSTORE PUSH1 0x20 DUP3 ADD SWAP1 POP SWAP3 SWAP2 POP POP JUMP JUMPDEST PUSH32 0x596F7520646F206E6F742068617665207065726D697373696F6E20746F206163 PUSH1 0x0 DUP3 ADD MSTORE PUSH32 0x6365737320746869732064617461210000000000000000000000000000000000 PUSH1 0x20 DUP3 ADD MSTORE POP JUMP JUMPDEST PUSH1 0x0 PUSH2 0xB98 PUSH1 0x2F DUP4 PUSH2 0xB2B JUMP JUMPDEST SWAP2 POP PUSH2 0xBA3 DUP3 PUSH2 0xB3C JUMP JUMPDEST PUSH1 0x40 DUP3 ADD SWAP1 POP SWAP2 SWAP1 POP JUMP JUMPDEST PUSH1 0x0 PUSH1 0x20 DUP3 ADD SWAP1 POP DUP2 DUP2 SUB PUSH1 0x0 DUP4 ADD MSTORE PUSH2 0xBC7 DUP2 PUSH2 0xB8B JUMP JUMPDEST SWAP1 POP SWAP2 SWAP1 POP JUMP JUMPDEST PUSH1 0x0 PUSH1 0x20 DUP3 ADD SWAP1 POP PUSH2 0xBE3 PUSH1 0x0 DUP4 ADD DUP5 PUSH2 0xA8E JUMP JUMPDEST SWAP3 SWAP2 POP POP JUMP JUMPDEST PUSH1 0x4 DUP2 LT PUSH2 0xBF6 JUMPI PUSH1 0x0 DUP1 REVERT JUMPDEST POP JUMP JUMPDEST PUSH1 0x0 DUP2 MLOAD SWAP1 POP PUSH2 0xC08 DUP2 PUSH2 0xBE9 JUMP JUMPDEST SWAP3 SWAP2 POP POP JUMP JUMPDEST PUSH1 0x0 PUSH1 0x20 DUP3 DUP5 SUB SLT ISZERO PUSH2 0xC24 JUMPI PUSH2 0xC23 PUSH2 0x5ED JUMP JUMPDEST JUMPDEST PUSH1 0x0 PUSH2 0xC32 DUP5 DUP3 DUP6 ADD PUSH2 0xBF9 JUMP JUMPDEST SWAP2 POP POP SWAP3 SWAP2 POP POP JUMP JUMPDEST PUSH32 0x596F7520617265206E6F7420617574686F72697A656421000000000000000000 PUSH1 0x0 DUP3 ADD MSTORE POP JUMP JUMPDEST PUSH1 0x0 PUSH2 0xC71 PUSH1 0x17 DUP4 PUSH2 0xB2B JUMP JUMPDEST SWAP2 POP PUSH2 0xC7C DUP3 PUSH2 0xC3B JUMP JUMPDEST PUSH1 0x20 DUP3 ADD SWAP1 POP SWAP2 SWAP1 POP JUMP JUMPDEST PUSH1 0x0 PUSH1 0x20 DUP3 ADD SWAP1 POP DUP2 DUP2 SUB PUSH1 0x0 DUP4 ADD MSTORE PUSH2 0xCA0 DUP2 PUSH2 0xC64 JUMP JUMPDEST SWAP1 POP SWAP2 SWAP1 POP JUMP JUMPDEST PUSH32 0x44617461206164646564207375636365737366756C6C79210000000000000000 PUSH1 0x0 DUP3 ADD MSTORE POP JUMP JUMPDEST PUSH1 0x0 PUSH2 0xCDD PUSH1 0x18 DUP4 PUSH2 0xB2B JUMP JUMPDEST SWAP2 POP PUSH2 0xCE8 DUP3 PUSH2 0xCA7 JUMP JUMPDEST PUSH1 0x20 DUP3 ADD SWAP1 POP SWAP2 SWAP1 POP JUMP JUMPDEST PUSH1 0x0 PUSH1 0x20 DUP3 ADD SWAP1 POP DUP2 DUP2 SUB PUSH1 0x0 DUP4 ADD MSTORE PUSH2 0xD0C DUP2 PUSH2 0xCD0 JUMP JUMPDEST SWAP1 POP SWAP2 SWAP1 POP JUMP JUMPDEST PUSH32 0x4E6577206461746120616464656420746F20796F7572206163636F756E742100 PUSH1 0x0 DUP3 ADD MSTORE POP JUMP JUMPDEST PUSH1 0x0 PUSH2 0xD49 PUSH1 0x1F DUP4 PUSH2 0xB2B JUMP JUMPDEST SWAP2 POP PUSH2 0xD54 DUP3 PUSH2 0xD13 JUMP JUMPDEST PUSH1 0x20 DUP3 ADD SWAP1 POP SWAP2 SWAP1 POP JUMP JUMPDEST PUSH1 0x0 PUSH1 0x40 DUP3 ADD SWAP1 POP PUSH2 0xD74 PUSH1 0x0 DUP4 ADD DUP5 PUSH2 0xA8E JUMP JUMPDEST DUP2 DUP2 SUB PUSH1 0x20 DUP4 ADD MSTORE PUSH2 0xD85 DUP2 PUSH2 0xD3C JUMP JUMPDEST SWAP1 POP SWAP3 SWAP2 POP POP JUMP INVALID LOG2 PUSH5 0x6970667358 0x22 SLT KECCAK256 SWAP9 PUSH12 0x8F5DDED5A02AFD04F8ED65ED 0xF7 0x4D 0xA7 0x1F MOD SIGNEXTEND 0xD6 PUSH20 0xB96677D744625C1B916864736F6C634300080A00 CALLER "
    },
    "gasEstimates": {
      "creation": {
        "codeDepositCost": "704600",
        "executionCost": "infinite",
        "totalCost": "infinite"
      },
      "external": {
        "addEHRdata(address,bytes32,uint8,bytes32,bytes32)": "infinite",
        "getPatientData(address)": "infinite",
        "patientData(address,uint256)": "infinite",
        "permission()": "infinite",
        "registry()": "infinite"
      }
    },
    "methodIdentifiers": {
      "addEHRdata(address,bytes32,uint8,bytes32,bytes32)": "bb92bdd9",
      "getPatientData(address)": "48e81852",
      "patientData(address,uint256)": "5c62adc2",
      "permission()": "f3b0c8b7",
      "registry()": "7b103999"
    }
  },
  "storageLayout": {
    "storage": [
      {
        "astId": 6,
        "contract": "metadata.sol:Metadata",
        "label": "registry",
        "offset": 0,
        "slot": "0",
        "type": "t_contract(Registry)494"
      },
      {
        "astId": 9,
        "contract": "metadata.sol:Metadata",
        "label": "permission",
        "offset": 0,
        "slot": "1",
        "type": "t_contract(Permission)301"
      },
      {
        "astId": 30,
        "contract": "metadata.sol:Metadata",
        "label": "patientData",
        "offset": 0,
        "slot": "2",
        "type": "t_mapping(t_address,t_array(t_struct(Data)24_storage)dyn_storage)"
      }
    ],
    "types": {
      "t_address": {
        "encoding": "inplace",
        "label": "address",
        "numberOfBytes": "20"
      },
      "t_array(t_struct(Data)24_storage)dyn_storage": {
        "base": "t_struct(Data)24_storage",
        "encoding": "dynamic_array",
        "label": "struct Metadata.Data[]",
        "numberOfBytes": "32"
      },
      "t_bytes32": {
        "encoding": "inplace",
        "label": "bytes32",
        "numberOfBytes": "32"
      },
      "t_contract(Permission)301": {
        "encoding": "inplace",
        "label": "contract Permission",
        "numberOfBytes": "20"
      },
      "t_contract(Registry)494": {
        "encoding": "inplace",
        "label": "contract Registry",
        "numberOfBytes": "20"
      },
      "t_enum(DataType)14": {
        "encoding": "inplace",
        "label": "enum Metadata.DataType",
        "numberOfBytes": "1"
      },
      "t_mapping(t_address,t_array(t_struct(Data)24_storage)dyn_storage)": {
        "encoding": "mapping",
        "key": "t_address",
        "label": "mapping(address => struct Metadata.Data[])",
        "numberOfBytes": "32",
        "value": "t_array(t_struct(Data)24_storage)dyn_storage"
      },
      "t_struct(Data)24_storage": {
        "encoding": "inplace",
        "label": "struct Metadata.Data",
        "members": [
          {
            "astId": 16,
            "contract": "metadata.sol:Metadata",
            "label": "key",
            "offset": 0,
            "slot": "0",
            "type": "t_bytes32"
          },
          {
            "astId": 19,
            "contract": "metadata.sol:Metadata",
            "label": "dataType",
            "offset": 0,
            "slot": "1",
            "type": "t_enum(DataType)14"
          },
          {
            "astId": 21,
            "contract": "metadata.sol:Metadata",
            "label": "hashIndex",
            "offset": 0,
            "slot": "2",
            "type": "t_bytes32"
          },
          {
            "astId": 23,
            "contract": "metadata.sol:Metadata",
            "label": "encKey",
            "offset": 0,
            "slot": "3",
            "type": "t_bytes32"
          }
        ],
        "numberOfBytes": "128"
      }
    }
  },
  "userdoc": {
    "kind": "user",
    "methods": {},
    "version": 1
  }
}