{
  "abi": [
    {
      "inputs": [
        {
          "internalType": "address",
          "name": "_registryAddress",
          "type": "address"
        },
        {
          "internalType": "address",
          "name": "_notificationManagerAddress",
          "type": "address"
        }
      ],
      "stateMutability": "nonpayable",
      "type": "constructor"
    },
    {
      "inputs": [
        {
          "internalType": "bytes32",
          "name": "requesterKey",
          "type": "bytes32"
        },
        {
          "internalType": "bytes32",
          "name": "granterKey",
          "type": "bytes32"
        },
        {
          "internalType": "bool",
          "name": "allow",
          "type": "bool"
        }
      ],
      "name": "approvePermission",
      "outputs": [],
      "stateMutability": "nonpayable",
      "type": "function"
    },
    {
      "inputs": [
        {
          "internalType": "bytes32",
          "name": "requesterKey",
          "type": "bytes32"
        },
        {
          "internalType": "bytes32",
          "name": "granterKey",
          "type": "bytes32"
        }
      ],
      "name": "checkPermission",
      "outputs": [
        {
          "internalType": "bool",
          "name": "",
          "type": "bool"
        }
      ],
      "stateMutability": "view",
      "type": "function"
    },
    {
      "inputs": [
        {
          "internalType": "bytes32",
          "name": "",
          "type": "bytes32"
        }
      ],
      "name": "link",
      "outputs": [
        {
          "internalType": "bytes32",
          "name": "",
          "type": "bytes32"
        }
      ],
      "stateMutability": "view",
      "type": "function"
    },
    {
      "inputs": [],
      "name": "notificationManager",
      "outputs": [
        {
          "internalType": "contract NotificationManager",
          "name": "",
          "type": "address"
        }
      ],
      "stateMutability": "view",
      "type": "function"
    },
    {
      "inputs": [
        {
          "internalType": "bytes32",
          "name": "",
          "type": "bytes32"
        },
        {
          "internalType": "bytes32",
          "name": "",
          "type": "bytes32"
        }
      ],
      "name": "permissions",
      "outputs": [
        {
          "internalType": "bool",
          "name": "",
          "type": "bool"
        }
      ],
      "stateMutability": "view",
      "type": "function"
    },
    {
      "inputs": [],
      "name": "registry",
      "outputs": [
        {
          "internalType": "contract Registry",
          "name": "",
          "type": "address"
        }
      ],
      "stateMutability": "view",
      "type": "function"
    },
    {
      "inputs": [
        {
          "internalType": "bytes32",
          "name": "requesterKey",
          "type": "bytes32"
        },
        {
          "internalType": "bytes32",
          "name": "granterKey",
          "type": "bytes32"
        }
      ],
      "name": "requestPermission",
      "outputs": [],
      "stateMutability": "nonpayable",
      "type": "function"
    }
  ],
  "devdoc": {
    "kind": "dev",
    "methods": {},
    "version": 1
  },
  "evm": {
    "assembly": "    /* \"permission.sol\":125:1506  contract Permission {... */\n  mstore(0x40, 0x80)\n    /* \"permission.sol\":356:568  constructor(address _registryAddress, address _notificationManagerAddress) {... */\n  callvalue\n  dup1\n  iszero\n  tag_1\n  jumpi\n  0x00\n  dup1\n  revert\ntag_1:\n  pop\n  mload(0x40)\n  sub(codesize, bytecodeSize)\n  dup1\n  bytecodeSize\n  dup4\n  codecopy\n  dup2\n  dup2\n  add\n  0x40\n  mstore\n  dup2\n  add\n  swap1\n  tag_2\n  swap2\n  swap1\n  tag_3\n  jump\t// in\ntag_2:\n    /* \"permission.sol\":462:478  _registryAddress */\n  dup2\n    /* \"permission.sol\":442:450  registry */\n  0x00\n  dup1\n    /* \"permission.sol\":442:479  registry = Registry(_registryAddress) */\n  0x0100\n  exp\n  dup2\n  sload\n  dup2\n  0xffffffffffffffffffffffffffffffffffffffff\n  mul\n  not\n  and\n  swap1\n  dup4\n  0xffffffffffffffffffffffffffffffffffffffff\n  and\n  mul\n  or\n  swap1\n  sstore\n  pop\n    /* \"permission.sol\":532:559  _notificationManagerAddress */\n  dup1\n    /* \"permission.sol\":490:509  notificationManager */\n  0x01\n  0x00\n    /* \"permission.sol\":490:560  notificationManager = NotificationManager(_notificationManagerAddress) */\n  0x0100\n  exp\n  dup2\n  sload\n  dup2\n  0xffffffffffffffffffffffffffffffffffffffff\n  mul\n  not\n  and\n  swap1\n  dup4\n  0xffffffffffffffffffffffffffffffffffffffff\n  and\n  mul\n  or\n  swap1\n  sstore\n  pop\n    /* \"permission.sol\":356:568  constructor(address _registryAddress, address _notificationManagerAddress) {... */\n  pop\n  pop\n    /* \"permission.sol\":125:1506  contract Permission {... */\n  jump(tag_6)\n    /* \"#utility.yul\":88:205   */\ntag_8:\n    /* \"#utility.yul\":197:198   */\n  0x00\n    /* \"#utility.yul\":194:195   */\n  dup1\n    /* \"#utility.yul\":187:199   */\n  revert\n    /* \"#utility.yul\":334:460   */\ntag_10:\n    /* \"#utility.yul\":371:378   */\n  0x00\n    /* \"#utility.yul\":411:453   */\n  0xffffffffffffffffffffffffffffffffffffffff\n    /* \"#utility.yul\":404:409   */\n  dup3\n    /* \"#utility.yul\":400:454   */\n  and\n    /* \"#utility.yul\":389:454   */\n  swap1\n  pop\n    /* \"#utility.yul\":334:460   */\n  swap2\n  swap1\n  pop\n  jump\t// out\n    /* \"#utility.yul\":466:562   */\ntag_11:\n    /* \"#utility.yul\":503:510   */\n  0x00\n    /* \"#utility.yul\":532:556   */\n  tag_20\n    /* \"#utility.yul\":550:555   */\n  dup3\n    /* \"#utility.yul\":532:556   */\n  tag_10\n  jump\t// in\ntag_20:\n    /* \"#utility.yul\":521:556   */\n  swap1\n  pop\n    /* \"#utility.yul\":466:562   */\n  swap2\n  swap1\n  pop\n  jump\t// out\n    /* \"#utility.yul\":568:690   */\ntag_12:\n    /* \"#utility.yul\":641:665   */\n  tag_22\n    /* \"#utility.yul\":659:664   */\n  dup2\n    /* \"#utility.yul\":641:665   */\n  tag_11\n  jump\t// in\ntag_22:\n    /* \"#utility.yul\":634:639   */\n  dup2\n    /* \"#utility.yul\":631:666   */\n  eq\n    /* \"#utility.yul\":621:684   */\n  tag_23\n  jumpi\n    /* \"#utility.yul\":680:681   */\n  0x00\n    /* \"#utility.yul\":677:678   */\n  dup1\n    /* \"#utility.yul\":670:682   */\n  revert\n    /* \"#utility.yul\":621:684   */\ntag_23:\n    /* \"#utility.yul\":568:690   */\n  pop\n  jump\t// out\n    /* \"#utility.yul\":696:839   */\ntag_13:\n    /* \"#utility.yul\":753:758   */\n  0x00\n    /* \"#utility.yul\":784:790   */\n  dup2\n    /* \"#utility.yul\":778:791   */\n  mload\n    /* \"#utility.yul\":769:791   */\n  swap1\n  pop\n    /* \"#utility.yul\":800:833   */\n  tag_25\n    /* \"#utility.yul\":827:832   */\n  dup2\n    /* \"#utility.yul\":800:833   */\n  tag_12\n  jump\t// in\ntag_25:\n    /* \"#utility.yul\":696:839   */\n  swap3\n  swap2\n  pop\n  pop\n  jump\t// out\n    /* \"#utility.yul\":845:1352   */\ntag_3:\n    /* \"#utility.yul\":924:930   */\n  0x00\n    /* \"#utility.yul\":932:938   */\n  dup1\n    /* \"#utility.yul\":981:983   */\n  0x40\n    /* \"#utility.yul\":969:978   */\n  dup4\n    /* \"#utility.yul\":960:967   */\n  dup6\n    /* \"#utility.yul\":956:979   */\n  sub\n    /* \"#utility.yul\":952:984   */\n  slt\n    /* \"#utility.yul\":949:1068   */\n  iszero\n  tag_27\n  jumpi\n    /* \"#utility.yul\":987:1066   */\n  tag_28\n  tag_8\n  jump\t// in\ntag_28:\n    /* \"#utility.yul\":949:1068   */\ntag_27:\n    /* \"#utility.yul\":1107:1108   */\n  0x00\n    /* \"#utility.yul\":1132:1196   */\n  tag_29\n    /* \"#utility.yul\":1188:1195   */\n  dup6\n    /* \"#utility.yul\":1179:1185   */\n  dup3\n    /* \"#utility.yul\":1168:1177   */\n  dup7\n    /* \"#utility.yul\":1164:1186   */\n  add\n    /* \"#utility.yul\":1132:1196   */\n  tag_13\n  jump\t// in\ntag_29:\n    /* \"#utility.yul\":1122:1196   */\n  swap3\n  pop\n    /* \"#utility.yul\":1078:1206   */\n  pop\n    /* \"#utility.yul\":1245:1247   */\n  0x20\n    /* \"#utility.yul\":1271:1335   */\n  tag_30\n    /* \"#utility.yul\":1327:1334   */\n  dup6\n    /* \"#utility.yul\":1318:1324   */\n  dup3\n    /* \"#utility.yul\":1307:1316   */\n  dup7\n    /* \"#utility.yul\":1303:1325   */\n  add\n    /* \"#utility.yul\":1271:1335   */\n  tag_13\n  jump\t// in\ntag_30:\n    /* \"#utility.yul\":1261:1335   */\n  swap2\n  pop\n    /* \"#utility.yul\":1216:1345   */\n  pop\n    /* \"#utility.yul\":845:1352   */\n  swap3\n  pop\n  swap3\n  swap1\n  pop\n  jump\t// out\n    /* \"permission.sol\":125:1506  contract Permission {... */\ntag_6:\n  dataSize(sub_0)\n  dup1\n  dataOffset(sub_0)\n  0x00\n  codecopy\n  0x00\n  return\nstop\n\nsub_0: assembly {\n        /* \"permission.sol\":125:1506  contract Permission {... */\n      mstore(0x40, 0x80)\n      callvalue\n      dup1\n      iszero\n      tag_1\n      jumpi\n      0x00\n      dup1\n      revert\n    tag_1:\n      pop\n      jumpi(tag_2, lt(calldatasize, 0x04))\n      shr(0xe0, calldataload(0x00))\n      dup1\n      0x7b103999\n      gt\n      tag_10\n      jumpi\n      dup1\n      0x7b103999\n      eq\n      tag_6\n      jumpi\n      dup1\n      0x7ed764b4\n      eq\n      tag_7\n      jumpi\n      dup1\n      0x91616412\n      eq\n      tag_8\n      jumpi\n      dup1\n      0xcb2e781d\n      eq\n      tag_9\n      jumpi\n      jump(tag_2)\n    tag_10:\n      dup1\n      0x1d755579\n      eq\n      tag_3\n      jumpi\n      dup1\n      0x4fb95bc6\n      eq\n      tag_4\n      jumpi\n      dup1\n      0x6938323a\n      eq\n      tag_5\n      jumpi\n    tag_2:\n      0x00\n      dup1\n      revert\n        /* \"permission.sol\":183:229  NotificationManager public notificationManager */\n    tag_3:\n      tag_11\n      tag_12\n      jump\t// in\n    tag_11:\n      mload(0x40)\n      tag_13\n      swap2\n      swap1\n      tag_14\n      jump\t// in\n    tag_13:\n      mload(0x40)\n      dup1\n      swap2\n      sub\n      swap1\n      return\n        /* \"permission.sol\":1346:1503  function checkPermission(bytes32 requesterKey, bytes32 granterKey) public view returns (bool) {... */\n    tag_4:\n      tag_15\n      0x04\n      dup1\n      calldatasize\n      sub\n      dup2\n      add\n      swap1\n      tag_16\n      swap2\n      swap1\n      tag_17\n      jump\t// in\n    tag_16:\n      tag_18\n      jump\t// in\n    tag_15:\n      mload(0x40)\n      tag_19\n      swap2\n      swap1\n      tag_20\n      jump\t// in\n    tag_19:\n      mload(0x40)\n      dup1\n      swap2\n      sub\n      swap1\n      return\n        /* \"permission.sol\":576:826  function requestPermission(bytes32 requesterKey, bytes32 granterKey) public {... */\n    tag_5:\n      tag_21\n      0x04\n      dup1\n      calldatasize\n      sub\n      dup2\n      add\n      swap1\n      tag_22\n      swap2\n      swap1\n      tag_17\n      jump\t// in\n    tag_22:\n      tag_23\n      jump\t// in\n    tag_21:\n      stop\n        /* \"permission.sol\":152:176  Registry public registry */\n    tag_6:\n      tag_24\n      tag_25\n      jump\t// in\n    tag_24:\n      mload(0x40)\n      tag_26\n      swap2\n      swap1\n      tag_27\n      jump\t// in\n    tag_26:\n      mload(0x40)\n      dup1\n      swap2\n      sub\n      swap1\n      return\n        /* \"permission.sol\":834:1338  function approvePermission(bytes32 requesterKey, bytes32 granterKey, bool allow) public {... */\n    tag_7:\n      tag_28\n      0x04\n      dup1\n      calldatasize\n      sub\n      dup2\n      add\n      swap1\n      tag_29\n      swap2\n      swap1\n      tag_30\n      jump\t// in\n    tag_29:\n      tag_31\n      jump\t// in\n    tag_28:\n      stop\n        /* \"permission.sol\":238:277  mapping(bytes32 => bytes32) public link */\n    tag_8:\n      tag_32\n      0x04\n      dup1\n      calldatasize\n      sub\n      dup2\n      add\n      swap1\n      tag_33\n      swap2\n      swap1\n      tag_34\n      jump\t// in\n    tag_33:\n      tag_35\n      jump\t// in\n    tag_32:\n      mload(0x40)\n      tag_36\n      swap2\n      swap1\n      tag_37\n      jump\t// in\n    tag_36:\n      mload(0x40)\n      dup1\n      swap2\n      sub\n      swap1\n      return\n        /* \"permission.sol\":284:347  mapping(bytes32 => mapping(bytes32 => bool)) public permissions */\n    tag_9:\n      tag_38\n      0x04\n      dup1\n      calldatasize\n      sub\n      dup2\n      add\n      swap1\n      tag_39\n      swap2\n      swap1\n      tag_17\n      jump\t// in\n    tag_39:\n      tag_40\n      jump\t// in\n    tag_38:\n      mload(0x40)\n      tag_41\n      swap2\n      swap1\n      tag_20\n      jump\t// in\n    tag_41:\n      mload(0x40)\n      dup1\n      swap2\n      sub\n      swap1\n      return\n        /* \"permission.sol\":183:229  NotificationManager public notificationManager */\n    tag_12:\n      0x01\n      0x00\n      swap1\n      sload\n      swap1\n      0x0100\n      exp\n      swap1\n      div\n      0xffffffffffffffffffffffffffffffffffffffff\n      and\n      dup2\n      jump\t// out\n        /* \"permission.sol\":1346:1503  function checkPermission(bytes32 requesterKey, bytes32 granterKey) public view returns (bool) {... */\n    tag_18:\n        /* \"permission.sol\":1434:1438  bool */\n      0x00\n        /* \"permission.sol\":1458:1469  permissions */\n      0x03\n        /* \"permission.sol\":1458:1483  permissions[requesterKey] */\n      0x00\n        /* \"permission.sol\":1470:1482  requesterKey */\n      dup5\n        /* \"permission.sol\":1458:1483  permissions[requesterKey] */\n      dup2\n      mstore\n      0x20\n      add\n      swap1\n      dup2\n      mstore\n      0x20\n      add\n      0x00\n      keccak256\n        /* \"permission.sol\":1458:1495  permissions[requesterKey][granterKey] */\n      0x00\n        /* \"permission.sol\":1484:1494  granterKey */\n      dup4\n        /* \"permission.sol\":1458:1495  permissions[requesterKey][granterKey] */\n      dup2\n      mstore\n      0x20\n      add\n      swap1\n      dup2\n      mstore\n      0x20\n      add\n      0x00\n      keccak256\n      0x00\n      swap1\n      sload\n      swap1\n      0x0100\n      exp\n      swap1\n      div\n      0xff\n      and\n        /* \"permission.sol\":1451:1495  return permissions[requesterKey][granterKey] */\n      swap1\n      pop\n        /* \"permission.sol\":1346:1503  function checkPermission(bytes32 requesterKey, bytes32 granterKey) public view returns (bool) {... */\n      swap3\n      swap2\n      pop\n      pop\n      jump\t// out\n        /* \"permission.sol\":576:826  function requestPermission(bytes32 requesterKey, bytes32 granterKey) public {... */\n    tag_23:\n        /* \"permission.sol\":671:679  registry */\n      0x00\n      dup1\n      sload\n      swap1\n      0x0100\n      exp\n      swap1\n      div\n      0xffffffffffffffffffffffffffffffffffffffff\n      and\n        /* \"permission.sol\":671:689  registry.checkUser */\n      0xffffffffffffffffffffffffffffffffffffffff\n      and\n      0x0b2551c2\n        /* \"permission.sol\":690:702  requesterKey */\n      dup4\n        /* \"permission.sol\":671:703  registry.checkUser(requesterKey) */\n      mload(0x40)\n      dup3\n      0xffffffff\n      and\n      0xe0\n      shl\n      dup2\n      mstore\n      0x04\n      add\n      tag_44\n      swap2\n      swap1\n      tag_37\n      jump\t// in\n    tag_44:\n      0x20\n      mload(0x40)\n      dup1\n      dup4\n      sub\n      dup2\n      dup7\n      gas\n      staticcall\n      iszero\n      dup1\n      iszero\n      tag_46\n      jumpi\n      returndatasize\n      0x00\n      dup1\n      returndatacopy\n      revert(0x00, returndatasize)\n    tag_46:\n      pop\n      pop\n      pop\n      pop\n      mload(0x40)\n      returndatasize\n      not(0x1f)\n      0x1f\n      dup3\n      add\n      and\n      dup3\n      add\n      dup1\n      0x40\n      mstore\n      pop\n      dup2\n      add\n      swap1\n      tag_47\n      swap2\n      swap1\n      tag_48\n      jump\t// in\n    tag_47:\n        /* \"permission.sol\":663:733  require(registry.checkUser(requesterKey), \"Requester not registered!\") */\n      tag_49\n      jumpi\n      mload(0x40)\n      0x08c379a000000000000000000000000000000000000000000000000000000000\n      dup2\n      mstore\n      0x04\n      add\n      tag_50\n      swap1\n      tag_51\n      jump\t// in\n    tag_50:\n      mload(0x40)\n      dup1\n      swap2\n      sub\n      swap1\n      revert\n    tag_49:\n        /* \"permission.sol\":744:763  notificationManager */\n      0x01\n      0x00\n      swap1\n      sload\n      swap1\n      0x0100\n      exp\n      swap1\n      div\n      0xffffffffffffffffffffffffffffffffffffffff\n      and\n        /* \"permission.sol\":744:779  notificationManager.addNotification */\n      0xffffffffffffffffffffffffffffffffffffffff\n      and\n      0xa2cf0c56\n        /* \"permission.sol\":780:790  granterKey */\n      dup3\n        /* \"permission.sol\":744:818  notificationManager.addNotification(granterKey, \"New permission request.\") */\n      mload(0x40)\n      dup3\n      0xffffffff\n      and\n      0xe0\n      shl\n      dup2\n      mstore\n      0x04\n      add\n      tag_52\n      swap2\n      swap1\n      tag_53\n      jump\t// in\n    tag_52:\n      0x00\n      mload(0x40)\n      dup1\n      dup4\n      sub\n      dup2\n      0x00\n      dup8\n      dup1\n      extcodesize\n      iszero\n      dup1\n      iszero\n      tag_54\n      jumpi\n      0x00\n      dup1\n      revert\n    tag_54:\n      pop\n      gas\n      call\n      iszero\n      dup1\n      iszero\n      tag_56\n      jumpi\n      returndatasize\n      0x00\n      dup1\n      returndatacopy\n      revert(0x00, returndatasize)\n    tag_56:\n      pop\n      pop\n      pop\n      pop\n        /* \"permission.sol\":576:826  function requestPermission(bytes32 requesterKey, bytes32 granterKey) public {... */\n      pop\n      pop\n      jump\t// out\n        /* \"permission.sol\":152:176  Registry public registry */\n    tag_25:\n      0x00\n      dup1\n      sload\n      swap1\n      0x0100\n      exp\n      swap1\n      div\n      0xffffffffffffffffffffffffffffffffffffffff\n      and\n      dup2\n      jump\t// out\n        /* \"permission.sol\":834:1338  function approvePermission(bytes32 requesterKey, bytes32 granterKey, bool allow) public {... */\n    tag_31:\n        /* \"permission.sol\":941:949  registry */\n      0x00\n      dup1\n      sload\n      swap1\n      0x0100\n      exp\n      swap1\n      div\n      0xffffffffffffffffffffffffffffffffffffffff\n      and\n        /* \"permission.sol\":941:959  registry.checkUser */\n      0xffffffffffffffffffffffffffffffffffffffff\n      and\n      0x0b2551c2\n        /* \"permission.sol\":960:970  granterKey */\n      dup4\n        /* \"permission.sol\":941:971  registry.checkUser(granterKey) */\n      mload(0x40)\n      dup3\n      0xffffffff\n      and\n      0xe0\n      shl\n      dup2\n      mstore\n      0x04\n      add\n      tag_58\n      swap2\n      swap1\n      tag_37\n      jump\t// in\n    tag_58:\n      0x20\n      mload(0x40)\n      dup1\n      dup4\n      sub\n      dup2\n      dup7\n      gas\n      staticcall\n      iszero\n      dup1\n      iszero\n      tag_60\n      jumpi\n      returndatasize\n      0x00\n      dup1\n      returndatacopy\n      revert(0x00, returndatasize)\n    tag_60:\n      pop\n      pop\n      pop\n      pop\n      mload(0x40)\n      returndatasize\n      not(0x1f)\n      0x1f\n      dup3\n      add\n      and\n      dup3\n      add\n      dup1\n      0x40\n      mstore\n      pop\n      dup2\n      add\n      swap1\n      tag_61\n      swap2\n      swap1\n      tag_48\n      jump\t// in\n    tag_61:\n        /* \"permission.sol\":933:999  require(registry.checkUser(granterKey), \"Granter not registered!\") */\n      tag_62\n      jumpi\n      mload(0x40)\n      0x08c379a000000000000000000000000000000000000000000000000000000000\n      dup2\n      mstore\n      0x04\n      add\n      tag_63\n      swap1\n      tag_64\n      jump\t// in\n    tag_63:\n      mload(0x40)\n      dup1\n      swap2\n      sub\n      swap1\n      revert\n    tag_62:\n        /* \"permission.sol\":1016:1021  allow */\n      dup1\n        /* \"permission.sol\":1012:1331  if (allow) {... */\n      iszero\n      tag_65\n      jumpi\n        /* \"permission.sol\":1059:1069  granterKey */\n      dup2\n        /* \"permission.sol\":1038:1042  link */\n      0x02\n        /* \"permission.sol\":1038:1056  link[requesterKey] */\n      0x00\n        /* \"permission.sol\":1043:1055  requesterKey */\n      dup6\n        /* \"permission.sol\":1038:1056  link[requesterKey] */\n      dup2\n      mstore\n      0x20\n      add\n      swap1\n      dup2\n      mstore\n      0x20\n      add\n      0x00\n      keccak256\n        /* \"permission.sol\":1038:1069  link[requesterKey] = granterKey */\n      dup2\n      swap1\n      sstore\n      pop\n        /* \"permission.sol\":1124:1128  true */\n      0x01\n        /* \"permission.sol\":1084:1095  permissions */\n      0x03\n        /* \"permission.sol\":1084:1109  permissions[requesterKey] */\n      0x00\n        /* \"permission.sol\":1096:1108  requesterKey */\n      dup6\n        /* \"permission.sol\":1084:1109  permissions[requesterKey] */\n      dup2\n      mstore\n      0x20\n      add\n      swap1\n      dup2\n      mstore\n      0x20\n      add\n      0x00\n      keccak256\n        /* \"permission.sol\":1084:1121  permissions[requesterKey][granterKey] */\n      0x00\n        /* \"permission.sol\":1110:1120  granterKey */\n      dup5\n        /* \"permission.sol\":1084:1121  permissions[requesterKey][granterKey] */\n      dup2\n      mstore\n      0x20\n      add\n      swap1\n      dup2\n      mstore\n      0x20\n      add\n      0x00\n      keccak256\n      0x00\n        /* \"permission.sol\":1084:1128  permissions[requesterKey][granterKey] = true */\n      0x0100\n      exp\n      dup2\n      sload\n      dup2\n      0xff\n      mul\n      not\n      and\n      swap1\n      dup4\n      iszero\n      iszero\n      mul\n      or\n      swap1\n      sstore\n      pop\n        /* \"permission.sol\":1143:1162  notificationManager */\n      0x01\n      0x00\n      swap1\n      sload\n      swap1\n      0x0100\n      exp\n      swap1\n      div\n      0xffffffffffffffffffffffffffffffffffffffff\n      and\n        /* \"permission.sol\":1143:1178  notificationManager.addNotification */\n      0xffffffffffffffffffffffffffffffffffffffff\n      and\n      0xa2cf0c56\n        /* \"permission.sol\":1179:1191  requesterKey */\n      dup5\n        /* \"permission.sol\":1143:1215  notificationManager.addNotification(requesterKey, \"Permission granted.\") */\n      mload(0x40)\n      dup3\n      0xffffffff\n      and\n      0xe0\n      shl\n      dup2\n      mstore\n      0x04\n      add\n      tag_66\n      swap2\n      swap1\n      tag_67\n      jump\t// in\n    tag_66:\n      0x00\n      mload(0x40)\n      dup1\n      dup4\n      sub\n      dup2\n      0x00\n      dup8\n      dup1\n      extcodesize\n      iszero\n      dup1\n      iszero\n      tag_68\n      jumpi\n      0x00\n      dup1\n      revert\n    tag_68:\n      pop\n      gas\n      call\n      iszero\n      dup1\n      iszero\n      tag_70\n      jumpi\n      returndatasize\n      0x00\n      dup1\n      returndatacopy\n      revert(0x00, returndatasize)\n    tag_70:\n      pop\n      pop\n      pop\n      pop\n        /* \"permission.sol\":1012:1331  if (allow) {... */\n      jump(tag_71)\n    tag_65:\n        /* \"permission.sol\":1248:1267  notificationManager */\n      0x01\n      0x00\n      swap1\n      sload\n      swap1\n      0x0100\n      exp\n      swap1\n      div\n      0xffffffffffffffffffffffffffffffffffffffff\n      and\n        /* \"permission.sol\":1248:1283  notificationManager.addNotification */\n      0xffffffffffffffffffffffffffffffffffffffff\n      and\n      0xa2cf0c56\n        /* \"permission.sol\":1284:1296  requesterKey */\n      dup5\n        /* \"permission.sol\":1248:1319  notificationManager.addNotification(requesterKey, \"Permission denied.\") */\n      mload(0x40)\n      dup3\n      0xffffffff\n      and\n      0xe0\n      shl\n      dup2\n      mstore\n      0x04\n      add\n      tag_72\n      swap2\n      swap1\n      tag_73\n      jump\t// in\n    tag_72:\n      0x00\n      mload(0x40)\n      dup1\n      dup4\n      sub\n      dup2\n      0x00\n      dup8\n      dup1\n      extcodesize\n      iszero\n      dup1\n      iszero\n      tag_74\n      jumpi\n      0x00\n      dup1\n      revert\n    tag_74:\n      pop\n      gas\n      call\n      iszero\n      dup1\n      iszero\n      tag_76\n      jumpi\n      returndatasize\n      0x00\n      dup1\n      returndatacopy\n      revert(0x00, returndatasize)\n    tag_76:\n      pop\n      pop\n      pop\n      pop\n        /* \"permission.sol\":1012:1331  if (allow) {... */\n    tag_71:\n        /* \"permission.sol\":834:1338  function approvePermission(bytes32 requesterKey, bytes32 granterKey, bool allow) public {... */\n      pop\n      pop\n      pop\n      jump\t// out\n        /* \"permission.sol\":238:277  mapping(bytes32 => bytes32) public link */\n    tag_35:\n      mstore(0x20, 0x02)\n      dup1\n      0x00\n      mstore\n      keccak256(0x00, 0x40)\n      0x00\n      swap2\n      pop\n      swap1\n      pop\n      sload\n      dup2\n      jump\t// out\n        /* \"permission.sol\":284:347  mapping(bytes32 => mapping(bytes32 => bool)) public permissions */\n    tag_40:\n      mstore(0x20, 0x03)\n      dup2\n      0x00\n      mstore\n      mstore(0x20, keccak256(0x00, 0x40))\n      dup1\n      0x00\n      mstore\n      keccak256(0x00, 0x40)\n      0x00\n      swap2\n      pop\n      swap2\n      pop\n      swap1\n      sload\n      swap1\n      0x0100\n      exp\n      swap1\n      div\n      0xff\n      and\n      dup2\n      jump\t// out\n        /* \"#utility.yul\":7:133   */\n    tag_77:\n        /* \"#utility.yul\":44:51   */\n      0x00\n        /* \"#utility.yul\":84:126   */\n      0xffffffffffffffffffffffffffffffffffffffff\n        /* \"#utility.yul\":77:82   */\n      dup3\n        /* \"#utility.yul\":73:127   */\n      and\n        /* \"#utility.yul\":62:127   */\n      swap1\n      pop\n        /* \"#utility.yul\":7:133   */\n      swap2\n      swap1\n      pop\n      jump\t// out\n        /* \"#utility.yul\":139:199   */\n    tag_78:\n        /* \"#utility.yul\":167:170   */\n      0x00\n        /* \"#utility.yul\":188:193   */\n      dup2\n        /* \"#utility.yul\":181:193   */\n      swap1\n      pop\n        /* \"#utility.yul\":139:199   */\n      swap2\n      swap1\n      pop\n      jump\t// out\n        /* \"#utility.yul\":205:347   */\n    tag_79:\n        /* \"#utility.yul\":255:264   */\n      0x00\n        /* \"#utility.yul\":288:341   */\n      tag_112\n        /* \"#utility.yul\":306:340   */\n      tag_113\n        /* \"#utility.yul\":315:339   */\n      tag_114\n        /* \"#utility.yul\":333:338   */\n      dup5\n        /* \"#utility.yul\":315:339   */\n      tag_77\n      jump\t// in\n    tag_114:\n        /* \"#utility.yul\":306:340   */\n      tag_78\n      jump\t// in\n    tag_113:\n        /* \"#utility.yul\":288:341   */\n      tag_77\n      jump\t// in\n    tag_112:\n        /* \"#utility.yul\":275:341   */\n      swap1\n      pop\n        /* \"#utility.yul\":205:347   */\n      swap2\n      swap1\n      pop\n      jump\t// out\n        /* \"#utility.yul\":353:479   */\n    tag_80:\n        /* \"#utility.yul\":403:412   */\n      0x00\n        /* \"#utility.yul\":436:473   */\n      tag_116\n        /* \"#utility.yul\":467:472   */\n      dup3\n        /* \"#utility.yul\":436:473   */\n      tag_79\n      jump\t// in\n    tag_116:\n        /* \"#utility.yul\":423:473   */\n      swap1\n      pop\n        /* \"#utility.yul\":353:479   */\n      swap2\n      swap1\n      pop\n      jump\t// out\n        /* \"#utility.yul\":485:637   */\n    tag_81:\n        /* \"#utility.yul\":561:570   */\n      0x00\n        /* \"#utility.yul\":594:631   */\n      tag_118\n        /* \"#utility.yul\":625:630   */\n      dup3\n        /* \"#utility.yul\":594:631   */\n      tag_80\n      jump\t// in\n    tag_118:\n        /* \"#utility.yul\":581:631   */\n      swap1\n      pop\n        /* \"#utility.yul\":485:637   */\n      swap2\n      swap1\n      pop\n      jump\t// out\n        /* \"#utility.yul\":643:826   */\n    tag_82:\n        /* \"#utility.yul\":756:819   */\n      tag_120\n        /* \"#utility.yul\":813:818   */\n      dup2\n        /* \"#utility.yul\":756:819   */\n      tag_81\n      jump\t// in\n    tag_120:\n        /* \"#utility.yul\":751:754   */\n      dup3\n        /* \"#utility.yul\":744:820   */\n      mstore\n        /* \"#utility.yul\":643:826   */\n      pop\n      pop\n      jump\t// out\n        /* \"#utility.yul\":832:1106   */\n    tag_14:\n        /* \"#utility.yul\":951:955   */\n      0x00\n        /* \"#utility.yul\":989:991   */\n      0x20\n        /* \"#utility.yul\":978:987   */\n      dup3\n        /* \"#utility.yul\":974:992   */\n      add\n        /* \"#utility.yul\":966:992   */\n      swap1\n      pop\n        /* \"#utility.yul\":1002:1099   */\n      tag_122\n        /* \"#utility.yul\":1096:1097   */\n      0x00\n        /* \"#utility.yul\":1085:1094   */\n      dup4\n        /* \"#utility.yul\":1081:1098   */\n      add\n        /* \"#utility.yul\":1072:1078   */\n      dup5\n        /* \"#utility.yul\":1002:1099   */\n      tag_82\n      jump\t// in\n    tag_122:\n        /* \"#utility.yul\":832:1106   */\n      swap3\n      swap2\n      pop\n      pop\n      jump\t// out\n        /* \"#utility.yul\":1193:1310   */\n    tag_84:\n        /* \"#utility.yul\":1302:1303   */\n      0x00\n        /* \"#utility.yul\":1299:1300   */\n      dup1\n        /* \"#utility.yul\":1292:1304   */\n      revert\n        /* \"#utility.yul\":1439:1516   */\n    tag_86:\n        /* \"#utility.yul\":1476:1483   */\n      0x00\n        /* \"#utility.yul\":1505:1510   */\n      dup2\n        /* \"#utility.yul\":1494:1510   */\n      swap1\n      pop\n        /* \"#utility.yul\":1439:1516   */\n      swap2\n      swap1\n      pop\n      jump\t// out\n        /* \"#utility.yul\":1522:1644   */\n    tag_87:\n        /* \"#utility.yul\":1595:1619   */\n      tag_128\n        /* \"#utility.yul\":1613:1618   */\n      dup2\n        /* \"#utility.yul\":1595:1619   */\n      tag_86\n      jump\t// in\n    tag_128:\n        /* \"#utility.yul\":1588:1593   */\n      dup2\n        /* \"#utility.yul\":1585:1620   */\n      eq\n        /* \"#utility.yul\":1575:1638   */\n      tag_129\n      jumpi\n        /* \"#utility.yul\":1634:1635   */\n      0x00\n        /* \"#utility.yul\":1631:1632   */\n      dup1\n        /* \"#utility.yul\":1624:1636   */\n      revert\n        /* \"#utility.yul\":1575:1638   */\n    tag_129:\n        /* \"#utility.yul\":1522:1644   */\n      pop\n      jump\t// out\n        /* \"#utility.yul\":1650:1789   */\n    tag_88:\n        /* \"#utility.yul\":1696:1701   */\n      0x00\n        /* \"#utility.yul\":1734:1740   */\n      dup2\n        /* \"#utility.yul\":1721:1741   */\n      calldataload\n        /* \"#utility.yul\":1712:1741   */\n      swap1\n      pop\n        /* \"#utility.yul\":1750:1783   */\n      tag_131\n        /* \"#utility.yul\":1777:1782   */\n      dup2\n        /* \"#utility.yul\":1750:1783   */\n      tag_87\n      jump\t// in\n    tag_131:\n        /* \"#utility.yul\":1650:1789   */\n      swap3\n      swap2\n      pop\n      pop\n      jump\t// out\n        /* \"#utility.yul\":1795:2269   */\n    tag_17:\n        /* \"#utility.yul\":1863:1869   */\n      0x00\n        /* \"#utility.yul\":1871:1877   */\n      dup1\n        /* \"#utility.yul\":1920:1922   */\n      0x40\n        /* \"#utility.yul\":1908:1917   */\n      dup4\n        /* \"#utility.yul\":1899:1906   */\n      dup6\n        /* \"#utility.yul\":1895:1918   */\n      sub\n        /* \"#utility.yul\":1891:1923   */\n      slt\n        /* \"#utility.yul\":1888:2007   */\n      iszero\n      tag_133\n      jumpi\n        /* \"#utility.yul\":1926:2005   */\n      tag_134\n      tag_84\n      jump\t// in\n    tag_134:\n        /* \"#utility.yul\":1888:2007   */\n    tag_133:\n        /* \"#utility.yul\":2046:2047   */\n      0x00\n        /* \"#utility.yul\":2071:2124   */\n      tag_135\n        /* \"#utility.yul\":2116:2123   */\n      dup6\n        /* \"#utility.yul\":2107:2113   */\n      dup3\n        /* \"#utility.yul\":2096:2105   */\n      dup7\n        /* \"#utility.yul\":2092:2114   */\n      add\n        /* \"#utility.yul\":2071:2124   */\n      tag_88\n      jump\t// in\n    tag_135:\n        /* \"#utility.yul\":2061:2124   */\n      swap3\n      pop\n        /* \"#utility.yul\":2017:2134   */\n      pop\n        /* \"#utility.yul\":2173:2175   */\n      0x20\n        /* \"#utility.yul\":2199:2252   */\n      tag_136\n        /* \"#utility.yul\":2244:2251   */\n      dup6\n        /* \"#utility.yul\":2235:2241   */\n      dup3\n        /* \"#utility.yul\":2224:2233   */\n      dup7\n        /* \"#utility.yul\":2220:2242   */\n      add\n        /* \"#utility.yul\":2199:2252   */\n      tag_88\n      jump\t// in\n    tag_136:\n        /* \"#utility.yul\":2189:2252   */\n      swap2\n      pop\n        /* \"#utility.yul\":2144:2262   */\n      pop\n        /* \"#utility.yul\":1795:2269   */\n      swap3\n      pop\n      swap3\n      swap1\n      pop\n      jump\t// out\n        /* \"#utility.yul\":2275:2365   */\n    tag_89:\n        /* \"#utility.yul\":2309:2316   */\n      0x00\n        /* \"#utility.yul\":2352:2357   */\n      dup2\n        /* \"#utility.yul\":2345:2358   */\n      iszero\n        /* \"#utility.yul\":2338:2359   */\n      iszero\n        /* \"#utility.yul\":2327:2359   */\n      swap1\n      pop\n        /* \"#utility.yul\":2275:2365   */\n      swap2\n      swap1\n      pop\n      jump\t// out\n        /* \"#utility.yul\":2371:2480   */\n    tag_90:\n        /* \"#utility.yul\":2452:2473   */\n      tag_139\n        /* \"#utility.yul\":2467:2472   */\n      dup2\n        /* \"#utility.yul\":2452:2473   */\n      tag_89\n      jump\t// in\n    tag_139:\n        /* \"#utility.yul\":2447:2450   */\n      dup3\n        /* \"#utility.yul\":2440:2474   */\n      mstore\n        /* \"#utility.yul\":2371:2480   */\n      pop\n      pop\n      jump\t// out\n        /* \"#utility.yul\":2486:2696   */\n    tag_20:\n        /* \"#utility.yul\":2573:2577   */\n      0x00\n        /* \"#utility.yul\":2611:2613   */\n      0x20\n        /* \"#utility.yul\":2600:2609   */\n      dup3\n        /* \"#utility.yul\":2596:2614   */\n      add\n        /* \"#utility.yul\":2588:2614   */\n      swap1\n      pop\n        /* \"#utility.yul\":2624:2689   */\n      tag_141\n        /* \"#utility.yul\":2686:2687   */\n      0x00\n        /* \"#utility.yul\":2675:2684   */\n      dup4\n        /* \"#utility.yul\":2671:2688   */\n      add\n        /* \"#utility.yul\":2662:2668   */\n      dup5\n        /* \"#utility.yul\":2624:2689   */\n      tag_90\n      jump\t// in\n    tag_141:\n        /* \"#utility.yul\":2486:2696   */\n      swap3\n      swap2\n      pop\n      pop\n      jump\t// out\n        /* \"#utility.yul\":2702:2844   */\n    tag_91:\n        /* \"#utility.yul\":2768:2777   */\n      0x00\n        /* \"#utility.yul\":2801:2838   */\n      tag_143\n        /* \"#utility.yul\":2832:2837   */\n      dup3\n        /* \"#utility.yul\":2801:2838   */\n      tag_80\n      jump\t// in\n    tag_143:\n        /* \"#utility.yul\":2788:2838   */\n      swap1\n      pop\n        /* \"#utility.yul\":2702:2844   */\n      swap2\n      swap1\n      pop\n      jump\t// out\n        /* \"#utility.yul\":2850:3013   */\n    tag_92:\n        /* \"#utility.yul\":2953:3006   */\n      tag_145\n        /* \"#utility.yul\":3000:3005   */\n      dup2\n        /* \"#utility.yul\":2953:3006   */\n      tag_91\n      jump\t// in\n    tag_145:\n        /* \"#utility.yul\":2948:2951   */\n      dup3\n        /* \"#utility.yul\":2941:3007   */\n      mstore\n        /* \"#utility.yul\":2850:3013   */\n      pop\n      pop\n      jump\t// out\n        /* \"#utility.yul\":3019:3273   */\n    tag_27:\n        /* \"#utility.yul\":3128:3132   */\n      0x00\n        /* \"#utility.yul\":3166:3168   */\n      0x20\n        /* \"#utility.yul\":3155:3164   */\n      dup3\n        /* \"#utility.yul\":3151:3169   */\n      add\n        /* \"#utility.yul\":3143:3169   */\n      swap1\n      pop\n        /* \"#utility.yul\":3179:3266   */\n      tag_147\n        /* \"#utility.yul\":3263:3264   */\n      0x00\n        /* \"#utility.yul\":3252:3261   */\n      dup4\n        /* \"#utility.yul\":3248:3265   */\n      add\n        /* \"#utility.yul\":3239:3245   */\n      dup5\n        /* \"#utility.yul\":3179:3266   */\n      tag_92\n      jump\t// in\n    tag_147:\n        /* \"#utility.yul\":3019:3273   */\n      swap3\n      swap2\n      pop\n      pop\n      jump\t// out\n        /* \"#utility.yul\":3279:3395   */\n    tag_93:\n        /* \"#utility.yul\":3349:3370   */\n      tag_149\n        /* \"#utility.yul\":3364:3369   */\n      dup2\n        /* \"#utility.yul\":3349:3370   */\n      tag_89\n      jump\t// in\n    tag_149:\n        /* \"#utility.yul\":3342:3347   */\n      dup2\n        /* \"#utility.yul\":3339:3371   */\n      eq\n        /* \"#utility.yul\":3329:3389   */\n      tag_150\n      jumpi\n        /* \"#utility.yul\":3385:3386   */\n      0x00\n        /* \"#utility.yul\":3382:3383   */\n      dup1\n        /* \"#utility.yul\":3375:3387   */\n      revert\n        /* \"#utility.yul\":3329:3389   */\n    tag_150:\n        /* \"#utility.yul\":3279:3395   */\n      pop\n      jump\t// out\n        /* \"#utility.yul\":3401:3534   */\n    tag_94:\n        /* \"#utility.yul\":3444:3449   */\n      0x00\n        /* \"#utility.yul\":3482:3488   */\n      dup2\n        /* \"#utility.yul\":3469:3489   */\n      calldataload\n        /* \"#utility.yul\":3460:3489   */\n      swap1\n      pop\n        /* \"#utility.yul\":3498:3528   */\n      tag_152\n        /* \"#utility.yul\":3522:3527   */\n      dup2\n        /* \"#utility.yul\":3498:3528   */\n      tag_93\n      jump\t// in\n    tag_152:\n        /* \"#utility.yul\":3401:3534   */\n      swap3\n      swap2\n      pop\n      pop\n      jump\t// out\n        /* \"#utility.yul\":3540:4153   */\n    tag_30:\n        /* \"#utility.yul\":3614:3620   */\n      0x00\n        /* \"#utility.yul\":3622:3628   */\n      dup1\n        /* \"#utility.yul\":3630:3636   */\n      0x00\n        /* \"#utility.yul\":3679:3681   */\n      0x60\n        /* \"#utility.yul\":3667:3676   */\n      dup5\n        /* \"#utility.yul\":3658:3665   */\n      dup7\n        /* \"#utility.yul\":3654:3677   */\n      sub\n        /* \"#utility.yul\":3650:3682   */\n      slt\n        /* \"#utility.yul\":3647:3766   */\n      iszero\n      tag_154\n      jumpi\n        /* \"#utility.yul\":3685:3764   */\n      tag_155\n      tag_84\n      jump\t// in\n    tag_155:\n        /* \"#utility.yul\":3647:3766   */\n    tag_154:\n        /* \"#utility.yul\":3805:3806   */\n      0x00\n        /* \"#utility.yul\":3830:3883   */\n      tag_156\n        /* \"#utility.yul\":3875:3882   */\n      dup7\n        /* \"#utility.yul\":3866:3872   */\n      dup3\n        /* \"#utility.yul\":3855:3864   */\n      dup8\n        /* \"#utility.yul\":3851:3873   */\n      add\n        /* \"#utility.yul\":3830:3883   */\n      tag_88\n      jump\t// in\n    tag_156:\n        /* \"#utility.yul\":3820:3883   */\n      swap4\n      pop\n        /* \"#utility.yul\":3776:3893   */\n      pop\n        /* \"#utility.yul\":3932:3934   */\n      0x20\n        /* \"#utility.yul\":3958:4011   */\n      tag_157\n        /* \"#utility.yul\":4003:4010   */\n      dup7\n        /* \"#utility.yul\":3994:4000   */\n      dup3\n        /* \"#utility.yul\":3983:3992   */\n      dup8\n        /* \"#utility.yul\":3979:4001   */\n      add\n        /* \"#utility.yul\":3958:4011   */\n      tag_88\n      jump\t// in\n    tag_157:\n        /* \"#utility.yul\":3948:4011   */\n      swap3\n      pop\n        /* \"#utility.yul\":3903:4021   */\n      pop\n        /* \"#utility.yul\":4060:4062   */\n      0x40\n        /* \"#utility.yul\":4086:4136   */\n      tag_158\n        /* \"#utility.yul\":4128:4135   */\n      dup7\n        /* \"#utility.yul\":4119:4125   */\n      dup3\n        /* \"#utility.yul\":4108:4117   */\n      dup8\n        /* \"#utility.yul\":4104:4126   */\n      add\n        /* \"#utility.yul\":4086:4136   */\n      tag_94\n      jump\t// in\n    tag_158:\n        /* \"#utility.yul\":4076:4136   */\n      swap2\n      pop\n        /* \"#utility.yul\":4031:4146   */\n      pop\n        /* \"#utility.yul\":3540:4153   */\n      swap3\n      pop\n      swap3\n      pop\n      swap3\n      jump\t// out\n        /* \"#utility.yul\":4159:4488   */\n    tag_34:\n        /* \"#utility.yul\":4218:4224   */\n      0x00\n        /* \"#utility.yul\":4267:4269   */\n      0x20\n        /* \"#utility.yul\":4255:4264   */\n      dup3\n        /* \"#utility.yul\":4246:4253   */\n      dup5\n        /* \"#utility.yul\":4242:4265   */\n      sub\n        /* \"#utility.yul\":4238:4270   */\n      slt\n        /* \"#utility.yul\":4235:4354   */\n      iszero\n      tag_160\n      jumpi\n        /* \"#utility.yul\":4273:4352   */\n      tag_161\n      tag_84\n      jump\t// in\n    tag_161:\n        /* \"#utility.yul\":4235:4354   */\n    tag_160:\n        /* \"#utility.yul\":4393:4394   */\n      0x00\n        /* \"#utility.yul\":4418:4471   */\n      tag_162\n        /* \"#utility.yul\":4463:4470   */\n      dup5\n        /* \"#utility.yul\":4454:4460   */\n      dup3\n        /* \"#utility.yul\":4443:4452   */\n      dup6\n        /* \"#utility.yul\":4439:4461   */\n      add\n        /* \"#utility.yul\":4418:4471   */\n      tag_88\n      jump\t// in\n    tag_162:\n        /* \"#utility.yul\":4408:4471   */\n      swap2\n      pop\n        /* \"#utility.yul\":4364:4481   */\n      pop\n        /* \"#utility.yul\":4159:4488   */\n      swap3\n      swap2\n      pop\n      pop\n      jump\t// out\n        /* \"#utility.yul\":4494:4612   */\n    tag_95:\n        /* \"#utility.yul\":4581:4605   */\n      tag_164\n        /* \"#utility.yul\":4599:4604   */\n      dup2\n        /* \"#utility.yul\":4581:4605   */\n      tag_86\n      jump\t// in\n    tag_164:\n        /* \"#utility.yul\":4576:4579   */\n      dup3\n        /* \"#utility.yul\":4569:4606   */\n      mstore\n        /* \"#utility.yul\":4494:4612   */\n      pop\n      pop\n      jump\t// out\n        /* \"#utility.yul\":4618:4840   */\n    tag_37:\n        /* \"#utility.yul\":4711:4715   */\n      0x00\n        /* \"#utility.yul\":4749:4751   */\n      0x20\n        /* \"#utility.yul\":4738:4747   */\n      dup3\n        /* \"#utility.yul\":4734:4752   */\n      add\n        /* \"#utility.yul\":4726:4752   */\n      swap1\n      pop\n        /* \"#utility.yul\":4762:4833   */\n      tag_166\n        /* \"#utility.yul\":4830:4831   */\n      0x00\n        /* \"#utility.yul\":4819:4828   */\n      dup4\n        /* \"#utility.yul\":4815:4832   */\n      add\n        /* \"#utility.yul\":4806:4812   */\n      dup5\n        /* \"#utility.yul\":4762:4833   */\n      tag_95\n      jump\t// in\n    tag_166:\n        /* \"#utility.yul\":4618:4840   */\n      swap3\n      swap2\n      pop\n      pop\n      jump\t// out\n        /* \"#utility.yul\":4846:4983   */\n    tag_96:\n        /* \"#utility.yul\":4900:4905   */\n      0x00\n        /* \"#utility.yul\":4931:4937   */\n      dup2\n        /* \"#utility.yul\":4925:4938   */\n      mload\n        /* \"#utility.yul\":4916:4938   */\n      swap1\n      pop\n        /* \"#utility.yul\":4947:4977   */\n      tag_168\n        /* \"#utility.yul\":4971:4976   */\n      dup2\n        /* \"#utility.yul\":4947:4977   */\n      tag_93\n      jump\t// in\n    tag_168:\n        /* \"#utility.yul\":4846:4983   */\n      swap3\n      swap2\n      pop\n      pop\n      jump\t// out\n        /* \"#utility.yul\":4989:5334   */\n    tag_48:\n        /* \"#utility.yul\":5056:5062   */\n      0x00\n        /* \"#utility.yul\":5105:5107   */\n      0x20\n        /* \"#utility.yul\":5093:5102   */\n      dup3\n        /* \"#utility.yul\":5084:5091   */\n      dup5\n        /* \"#utility.yul\":5080:5103   */\n      sub\n        /* \"#utility.yul\":5076:5108   */\n      slt\n        /* \"#utility.yul\":5073:5192   */\n      iszero\n      tag_170\n      jumpi\n        /* \"#utility.yul\":5111:5190   */\n      tag_171\n      tag_84\n      jump\t// in\n    tag_171:\n        /* \"#utility.yul\":5073:5192   */\n    tag_170:\n        /* \"#utility.yul\":5231:5232   */\n      0x00\n        /* \"#utility.yul\":5256:5317   */\n      tag_172\n        /* \"#utility.yul\":5309:5316   */\n      dup5\n        /* \"#utility.yul\":5300:5306   */\n      dup3\n        /* \"#utility.yul\":5289:5298   */\n      dup6\n        /* \"#utility.yul\":5285:5307   */\n      add\n        /* \"#utility.yul\":5256:5317   */\n      tag_96\n      jump\t// in\n    tag_172:\n        /* \"#utility.yul\":5246:5317   */\n      swap2\n      pop\n        /* \"#utility.yul\":5202:5327   */\n      pop\n        /* \"#utility.yul\":4989:5334   */\n      swap3\n      swap2\n      pop\n      pop\n      jump\t// out\n        /* \"#utility.yul\":5340:5509   */\n    tag_97:\n        /* \"#utility.yul\":5424:5435   */\n      0x00\n        /* \"#utility.yul\":5458:5464   */\n      dup3\n        /* \"#utility.yul\":5453:5456   */\n      dup3\n        /* \"#utility.yul\":5446:5465   */\n      mstore\n        /* \"#utility.yul\":5498:5502   */\n      0x20\n        /* \"#utility.yul\":5493:5496   */\n      dup3\n        /* \"#utility.yul\":5489:5503   */\n      add\n        /* \"#utility.yul\":5474:5503   */\n      swap1\n      pop\n        /* \"#utility.yul\":5340:5509   */\n      swap3\n      swap2\n      pop\n      pop\n      jump\t// out\n        /* \"#utility.yul\":5515:5690   */\n    tag_98:\n        /* \"#utility.yul\":5655:5682   */\n      0x526571756573746572206e6f7420726567697374657265642100000000000000\n        /* \"#utility.yul\":5651:5652   */\n      0x00\n        /* \"#utility.yul\":5643:5649   */\n      dup3\n        /* \"#utility.yul\":5639:5653   */\n      add\n        /* \"#utility.yul\":5632:5683   */\n      mstore\n        /* \"#utility.yul\":5515:5690   */\n      pop\n      jump\t// out\n        /* \"#utility.yul\":5696:6062   */\n    tag_99:\n        /* \"#utility.yul\":5838:5841   */\n      0x00\n        /* \"#utility.yul\":5859:5926   */\n      tag_176\n        /* \"#utility.yul\":5923:5925   */\n      0x19\n        /* \"#utility.yul\":5918:5921   */\n      dup4\n        /* \"#utility.yul\":5859:5926   */\n      tag_97\n      jump\t// in\n    tag_176:\n        /* \"#utility.yul\":5852:5926   */\n      swap2\n      pop\n        /* \"#utility.yul\":5935:6028   */\n      tag_177\n        /* \"#utility.yul\":6024:6027   */\n      dup3\n        /* \"#utility.yul\":5935:6028   */\n      tag_98\n      jump\t// in\n    tag_177:\n        /* \"#utility.yul\":6053:6055   */\n      0x20\n        /* \"#utility.yul\":6048:6051   */\n      dup3\n        /* \"#utility.yul\":6044:6056   */\n      add\n        /* \"#utility.yul\":6037:6056   */\n      swap1\n      pop\n        /* \"#utility.yul\":5696:6062   */\n      swap2\n      swap1\n      pop\n      jump\t// out\n        /* \"#utility.yul\":6068:6487   */\n    tag_51:\n        /* \"#utility.yul\":6234:6238   */\n      0x00\n        /* \"#utility.yul\":6272:6274   */\n      0x20\n        /* \"#utility.yul\":6261:6270   */\n      dup3\n        /* \"#utility.yul\":6257:6275   */\n      add\n        /* \"#utility.yul\":6249:6275   */\n      swap1\n      pop\n        /* \"#utility.yul\":6321:6330   */\n      dup2\n        /* \"#utility.yul\":6315:6319   */\n      dup2\n        /* \"#utility.yul\":6311:6331   */\n      sub\n        /* \"#utility.yul\":6307:6308   */\n      0x00\n        /* \"#utility.yul\":6296:6305   */\n      dup4\n        /* \"#utility.yul\":6292:6309   */\n      add\n        /* \"#utility.yul\":6285:6332   */\n      mstore\n        /* \"#utility.yul\":6349:6480   */\n      tag_179\n        /* \"#utility.yul\":6475:6479   */\n      dup2\n        /* \"#utility.yul\":6349:6480   */\n      tag_99\n      jump\t// in\n    tag_179:\n        /* \"#utility.yul\":6341:6480   */\n      swap1\n      pop\n        /* \"#utility.yul\":6068:6487   */\n      swap2\n      swap1\n      pop\n      jump\t// out\n        /* \"#utility.yul\":6493:6666   */\n    tag_100:\n        /* \"#utility.yul\":6633:6658   */\n      0x4e6577207065726d697373696f6e20726571756573742e000000000000000000\n        /* \"#utility.yul\":6629:6630   */\n      0x00\n        /* \"#utility.yul\":6621:6627   */\n      dup3\n        /* \"#utility.yul\":6617:6631   */\n      add\n        /* \"#utility.yul\":6610:6659   */\n      mstore\n        /* \"#utility.yul\":6493:6666   */\n      pop\n      jump\t// out\n        /* \"#utility.yul\":6672:7038   */\n    tag_101:\n        /* \"#utility.yul\":6814:6817   */\n      0x00\n        /* \"#utility.yul\":6835:6902   */\n      tag_182\n        /* \"#utility.yul\":6899:6901   */\n      0x17\n        /* \"#utility.yul\":6894:6897   */\n      dup4\n        /* \"#utility.yul\":6835:6902   */\n      tag_97\n      jump\t// in\n    tag_182:\n        /* \"#utility.yul\":6828:6902   */\n      swap2\n      pop\n        /* \"#utility.yul\":6911:7004   */\n      tag_183\n        /* \"#utility.yul\":7000:7003   */\n      dup3\n        /* \"#utility.yul\":6911:7004   */\n      tag_100\n      jump\t// in\n    tag_183:\n        /* \"#utility.yul\":7029:7031   */\n      0x20\n        /* \"#utility.yul\":7024:7027   */\n      dup3\n        /* \"#utility.yul\":7020:7032   */\n      add\n        /* \"#utility.yul\":7013:7032   */\n      swap1\n      pop\n        /* \"#utility.yul\":6672:7038   */\n      swap2\n      swap1\n      pop\n      jump\t// out\n        /* \"#utility.yul\":7044:7573   */\n    tag_53:\n        /* \"#utility.yul\":7238:7242   */\n      0x00\n        /* \"#utility.yul\":7276:7278   */\n      0x40\n        /* \"#utility.yul\":7265:7274   */\n      dup3\n        /* \"#utility.yul\":7261:7279   */\n      add\n        /* \"#utility.yul\":7253:7279   */\n      swap1\n      pop\n        /* \"#utility.yul\":7289:7360   */\n      tag_185\n        /* \"#utility.yul\":7357:7358   */\n      0x00\n        /* \"#utility.yul\":7346:7355   */\n      dup4\n        /* \"#utility.yul\":7342:7359   */\n      add\n        /* \"#utility.yul\":7333:7339   */\n      dup5\n        /* \"#utility.yul\":7289:7360   */\n      tag_95\n      jump\t// in\n    tag_185:\n        /* \"#utility.yul\":7407:7416   */\n      dup2\n        /* \"#utility.yul\":7401:7405   */\n      dup2\n        /* \"#utility.yul\":7397:7417   */\n      sub\n        /* \"#utility.yul\":7392:7394   */\n      0x20\n        /* \"#utility.yul\":7381:7390   */\n      dup4\n        /* \"#utility.yul\":7377:7395   */\n      add\n        /* \"#utility.yul\":7370:7418   */\n      mstore\n        /* \"#utility.yul\":7435:7566   */\n      tag_186\n        /* \"#utility.yul\":7561:7565   */\n      dup2\n        /* \"#utility.yul\":7435:7566   */\n      tag_101\n      jump\t// in\n    tag_186:\n        /* \"#utility.yul\":7427:7566   */\n      swap1\n      pop\n        /* \"#utility.yul\":7044:7573   */\n      swap3\n      swap2\n      pop\n      pop\n      jump\t// out\n        /* \"#utility.yul\":7579:7752   */\n    tag_102:\n        /* \"#utility.yul\":7719:7744   */\n      0x4772616e746572206e6f74207265676973746572656421000000000000000000\n        /* \"#utility.yul\":7715:7716   */\n      0x00\n        /* \"#utility.yul\":7707:7713   */\n      dup3\n        /* \"#utility.yul\":7703:7717   */\n      add\n        /* \"#utility.yul\":7696:7745   */\n      mstore\n        /* \"#utility.yul\":7579:7752   */\n      pop\n      jump\t// out\n        /* \"#utility.yul\":7758:8124   */\n    tag_103:\n        /* \"#utility.yul\":7900:7903   */\n      0x00\n        /* \"#utility.yul\":7921:7988   */\n      tag_189\n        /* \"#utility.yul\":7985:7987   */\n      0x17\n        /* \"#utility.yul\":7980:7983   */\n      dup4\n        /* \"#utility.yul\":7921:7988   */\n      tag_97\n      jump\t// in\n    tag_189:\n        /* \"#utility.yul\":7914:7988   */\n      swap2\n      pop\n        /* \"#utility.yul\":7997:8090   */\n      tag_190\n        /* \"#utility.yul\":8086:8089   */\n      dup3\n        /* \"#utility.yul\":7997:8090   */\n      tag_102\n      jump\t// in\n    tag_190:\n        /* \"#utility.yul\":8115:8117   */\n      0x20\n        /* \"#utility.yul\":8110:8113   */\n      dup3\n        /* \"#utility.yul\":8106:8118   */\n      add\n        /* \"#utility.yul\":8099:8118   */\n      swap1\n      pop\n        /* \"#utility.yul\":7758:8124   */\n      swap2\n      swap1\n      pop\n      jump\t// out\n        /* \"#utility.yul\":8130:8549   */\n    tag_64:\n        /* \"#utility.yul\":8296:8300   */\n      0x00\n        /* \"#utility.yul\":8334:8336   */\n      0x20\n        /* \"#utility.yul\":8323:8332   */\n      dup3\n        /* \"#utility.yul\":8319:8337   */\n      add\n        /* \"#utility.yul\":8311:8337   */\n      swap1\n      pop\n        /* \"#utility.yul\":8383:8392   */\n      dup2\n        /* \"#utility.yul\":8377:8381   */\n      dup2\n        /* \"#utility.yul\":8373:8393   */\n      sub\n        /* \"#utility.yul\":8369:8370   */\n      0x00\n        /* \"#utility.yul\":8358:8367   */\n      dup4\n        /* \"#utility.yul\":8354:8371   */\n      add\n        /* \"#utility.yul\":8347:8394   */\n      mstore\n        /* \"#utility.yul\":8411:8542   */\n      tag_192\n        /* \"#utility.yul\":8537:8541   */\n      dup2\n        /* \"#utility.yul\":8411:8542   */\n      tag_103\n      jump\t// in\n    tag_192:\n        /* \"#utility.yul\":8403:8542   */\n      swap1\n      pop\n        /* \"#utility.yul\":8130:8549   */\n      swap2\n      swap1\n      pop\n      jump\t// out\n        /* \"#utility.yul\":8555:8724   */\n    tag_104:\n        /* \"#utility.yul\":8695:8716   */\n      0x5065726d697373696f6e206772616e7465642e00000000000000000000000000\n        /* \"#utility.yul\":8691:8692   */\n      0x00\n        /* \"#utility.yul\":8683:8689   */\n      dup3\n        /* \"#utility.yul\":8679:8693   */\n      add\n        /* \"#utility.yul\":8672:8717   */\n      mstore\n        /* \"#utility.yul\":8555:8724   */\n      pop\n      jump\t// out\n        /* \"#utility.yul\":8730:9096   */\n    tag_105:\n        /* \"#utility.yul\":8872:8875   */\n      0x00\n        /* \"#utility.yul\":8893:8960   */\n      tag_195\n        /* \"#utility.yul\":8957:8959   */\n      0x13\n        /* \"#utility.yul\":8952:8955   */\n      dup4\n        /* \"#utility.yul\":8893:8960   */\n      tag_97\n      jump\t// in\n    tag_195:\n        /* \"#utility.yul\":8886:8960   */\n      swap2\n      pop\n        /* \"#utility.yul\":8969:9062   */\n      tag_196\n        /* \"#utility.yul\":9058:9061   */\n      dup3\n        /* \"#utility.yul\":8969:9062   */\n      tag_104\n      jump\t// in\n    tag_196:\n        /* \"#utility.yul\":9087:9089   */\n      0x20\n        /* \"#utility.yul\":9082:9085   */\n      dup3\n        /* \"#utility.yul\":9078:9090   */\n      add\n        /* \"#utility.yul\":9071:9090   */\n      swap1\n      pop\n        /* \"#utility.yul\":8730:9096   */\n      swap2\n      swap1\n      pop\n      jump\t// out\n        /* \"#utility.yul\":9102:9631   */\n    tag_67:\n        /* \"#utility.yul\":9296:9300   */\n      0x00\n        /* \"#utility.yul\":9334:9336   */\n      0x40\n        /* \"#utility.yul\":9323:9332   */\n      dup3\n        /* \"#utility.yul\":9319:9337   */\n      add\n        /* \"#utility.yul\":9311:9337   */\n      swap1\n      pop\n        /* \"#utility.yul\":9347:9418   */\n      tag_198\n        /* \"#utility.yul\":9415:9416   */\n      0x00\n        /* \"#utility.yul\":9404:9413   */\n      dup4\n        /* \"#utility.yul\":9400:9417   */\n      add\n        /* \"#utility.yul\":9391:9397   */\n      dup5\n        /* \"#utility.yul\":9347:9418   */\n      tag_95\n      jump\t// in\n    tag_198:\n        /* \"#utility.yul\":9465:9474   */\n      dup2\n        /* \"#utility.yul\":9459:9463   */\n      dup2\n        /* \"#utility.yul\":9455:9475   */\n      sub\n        /* \"#utility.yul\":9450:9452   */\n      0x20\n        /* \"#utility.yul\":9439:9448   */\n      dup4\n        /* \"#utility.yul\":9435:9453   */\n      add\n        /* \"#utility.yul\":9428:9476   */\n      mstore\n        /* \"#utility.yul\":9493:9624   */\n      tag_199\n        /* \"#utility.yul\":9619:9623   */\n      dup2\n        /* \"#utility.yul\":9493:9624   */\n      tag_105\n      jump\t// in\n    tag_199:\n        /* \"#utility.yul\":9485:9624   */\n      swap1\n      pop\n        /* \"#utility.yul\":9102:9631   */\n      swap3\n      swap2\n      pop\n      pop\n      jump\t// out\n        /* \"#utility.yul\":9637:9805   */\n    tag_106:\n        /* \"#utility.yul\":9777:9797   */\n      0x5065726d697373696f6e2064656e6965642e0000000000000000000000000000\n        /* \"#utility.yul\":9773:9774   */\n      0x00\n        /* \"#utility.yul\":9765:9771   */\n      dup3\n        /* \"#utility.yul\":9761:9775   */\n      add\n        /* \"#utility.yul\":9754:9798   */\n      mstore\n        /* \"#utility.yul\":9637:9805   */\n      pop\n      jump\t// out\n        /* \"#utility.yul\":9811:10177   */\n    tag_107:\n        /* \"#utility.yul\":9953:9956   */\n      0x00\n        /* \"#utility.yul\":9974:10041   */\n      tag_202\n        /* \"#utility.yul\":10038:10040   */\n      0x12\n        /* \"#utility.yul\":10033:10036   */\n      dup4\n        /* \"#utility.yul\":9974:10041   */\n      tag_97\n      jump\t// in\n    tag_202:\n        /* \"#utility.yul\":9967:10041   */\n      swap2\n      pop\n        /* \"#utility.yul\":10050:10143   */\n      tag_203\n        /* \"#utility.yul\":10139:10142   */\n      dup3\n        /* \"#utility.yul\":10050:10143   */\n      tag_106\n      jump\t// in\n    tag_203:\n        /* \"#utility.yul\":10168:10170   */\n      0x20\n        /* \"#utility.yul\":10163:10166   */\n      dup3\n        /* \"#utility.yul\":10159:10171   */\n      add\n        /* \"#utility.yul\":10152:10171   */\n      swap1\n      pop\n        /* \"#utility.yul\":9811:10177   */\n      swap2\n      swap1\n      pop\n      jump\t// out\n        /* \"#utility.yul\":10183:10712   */\n    tag_73:\n        /* \"#utility.yul\":10377:10381   */\n      0x00\n        /* \"#utility.yul\":10415:10417   */\n      0x40\n        /* \"#utility.yul\":10404:10413   */\n      dup3\n        /* \"#utility.yul\":10400:10418   */\n      add\n        /* \"#utility.yul\":10392:10418   */\n      swap1\n      pop\n        /* \"#utility.yul\":10428:10499   */\n      tag_205\n        /* \"#utility.yul\":10496:10497   */\n      0x00\n        /* \"#utility.yul\":10485:10494   */\n      dup4\n        /* \"#utility.yul\":10481:10498   */\n      add\n        /* \"#utility.yul\":10472:10478   */\n      dup5\n        /* \"#utility.yul\":10428:10499   */\n      tag_95\n      jump\t// in\n    tag_205:\n        /* \"#utility.yul\":10546:10555   */\n      dup2\n        /* \"#utility.yul\":10540:10544   */\n      dup2\n        /* \"#utility.yul\":10536:10556   */\n      sub\n        /* \"#utility.yul\":10531:10533   */\n      0x20\n        /* \"#utility.yul\":10520:10529   */\n      dup4\n        /* \"#utility.yul\":10516:10534   */\n      add\n        /* \"#utility.yul\":10509:10557   */\n      mstore\n        /* \"#utility.yul\":10574:10705   */\n      tag_206\n        /* \"#utility.yul\":10700:10704   */\n      dup2\n        /* \"#utility.yul\":10574:10705   */\n      tag_107\n      jump\t// in\n    tag_206:\n        /* \"#utility.yul\":10566:10705   */\n      swap1\n      pop\n        /* \"#utility.yul\":10183:10712   */\n      swap3\n      swap2\n      pop\n      pop\n      jump\t// out\n\n    auxdata: 0xa2646970667358221220a88f3e4f2b5b7ac4460b0e072b848b76c46778c666e7209ecbbe4df0af23344464736f6c634300080a0033\n}\n",
    "bytecode": {
      "linkReferences": {},
      "object": "608060405234801561001057600080fd5b50604051610cae380380610cae8339818101604052810190610032919061011d565b816000806101000a81548173ffffffffffffffffffffffffffffffffffffffff021916908373ffffffffffffffffffffffffffffffffffffffff16021790555080600160006101000a81548173ffffffffffffffffffffffffffffffffffffffff021916908373ffffffffffffffffffffffffffffffffffffffff160217905550505061015d565b600080fd5b600073ffffffffffffffffffffffffffffffffffffffff82169050919050565b60006100ea826100bf565b9050919050565b6100fa816100df565b811461010557600080fd5b50565b600081519050610117816100f1565b92915050565b60008060408385031215610134576101336100ba565b5b600061014285828601610108565b925050602061015385828601610108565b9150509250929050565b610b428061016c6000396000f3fe608060405234801561001057600080fd5b506004361061007d5760003560e01c80637b1039991161005b5780637b103999146100ec5780637ed764b41461010a5780639161641214610126578063cb2e781d146101565761007d565b80631d755579146100825780634fb95bc6146100a05780636938323a146100d0575b600080fd5b61008a610186565b6040516100979190610695565b60405180910390f35b6100ba60048036038101906100b591906106eb565b6101ac565b6040516100c79190610746565b60405180910390f35b6100ea60048036038101906100e591906106eb565b6101e8565b005b6100f4610352565b6040516101019190610782565b60405180910390f35b610124600480360381019061011f91906107c9565b610376565b005b610140600480360381019061013b919061081c565b6105cf565b60405161014d9190610858565b60405180910390f35b610170600480360381019061016b91906106eb565b6105e7565b60405161017d9190610746565b60405180910390f35b600160009054906101000a900473ffffffffffffffffffffffffffffffffffffffff1681565b600060036000848152602001908152602001600020600083815260200190815260200160002060009054906101000a900460ff16905092915050565b60008054906101000a900473ffffffffffffffffffffffffffffffffffffffff1673ffffffffffffffffffffffffffffffffffffffff16630b2551c2836040518263ffffffff1660e01b81526004016102419190610858565b602060405180830381865afa15801561025e573d6000803e3d6000fd5b505050506040513d601f19601f820116820180604052508101906102829190610888565b6102c1576040517f08c379a00000000000000000000000000000000000000000000000000000000081526004016102b890610912565b60405180910390fd5b600160009054906101000a900473ffffffffffffffffffffffffffffffffffffffff1673ffffffffffffffffffffffffffffffffffffffff1663a2cf0c56826040518263ffffffff1660e01b815260040161031c919061097e565b600060405180830381600087803b15801561033657600080fd5b505af115801561034a573d6000803e3d6000fd5b505050505050565b60008054906101000a900473ffffffffffffffffffffffffffffffffffffffff1681565b60008054906101000a900473ffffffffffffffffffffffffffffffffffffffff1673ffffffffffffffffffffffffffffffffffffffff16630b2551c2836040518263ffffffff1660e01b81526004016103cf9190610858565b602060405180830381865afa1580156103ec573d6000803e3d6000fd5b505050506040513d601f19601f820116820180604052508101906104109190610888565b61044f576040517f08c379a0000000000000000000000000000000000000000000000000000000008152600401610446906109f8565b60405180910390fd5b801561053c57816002600085815260200190815260200160002081905550600160036000858152602001908152602001600020600084815260200190815260200160002060006101000a81548160ff021916908315150217905550600160009054906101000a900473ffffffffffffffffffffffffffffffffffffffff1673ffffffffffffffffffffffffffffffffffffffff1663a2cf0c56846040518263ffffffff1660e01b81526004016105059190610a64565b600060405180830381600087803b15801561051f57600080fd5b505af1158015610533573d6000803e3d6000fd5b505050506105ca565b600160009054906101000a900473ffffffffffffffffffffffffffffffffffffffff1673ffffffffffffffffffffffffffffffffffffffff1663a2cf0c56846040518263ffffffff1660e01b81526004016105979190610ade565b600060405180830381600087803b1580156105b157600080fd5b505af11580156105c5573d6000803e3d6000fd5b505050505b505050565b60026020528060005260406000206000915090505481565b60036020528160005260406000206020528060005260406000206000915091509054906101000a900460ff1681565b600073ffffffffffffffffffffffffffffffffffffffff82169050919050565b6000819050919050565b600061065b61065661065184610616565b610636565b610616565b9050919050565b600061066d82610640565b9050919050565b600061067f82610662565b9050919050565b61068f81610674565b82525050565b60006020820190506106aa6000830184610686565b92915050565b600080fd5b6000819050919050565b6106c8816106b5565b81146106d357600080fd5b50565b6000813590506106e5816106bf565b92915050565b60008060408385031215610702576107016106b0565b5b6000610710858286016106d6565b9250506020610721858286016106d6565b9150509250929050565b60008115159050919050565b6107408161072b565b82525050565b600060208201905061075b6000830184610737565b92915050565b600061076c82610662565b9050919050565b61077c81610761565b82525050565b60006020820190506107976000830184610773565b92915050565b6107a68161072b565b81146107b157600080fd5b50565b6000813590506107c38161079d565b92915050565b6000806000606084860312156107e2576107e16106b0565b5b60006107f0868287016106d6565b9350506020610801868287016106d6565b9250506040610812868287016107b4565b9150509250925092565b600060208284031215610832576108316106b0565b5b6000610840848285016106d6565b91505092915050565b610852816106b5565b82525050565b600060208201905061086d6000830184610849565b92915050565b6000815190506108828161079d565b92915050565b60006020828403121561089e5761089d6106b0565b5b60006108ac84828501610873565b91505092915050565b600082825260208201905092915050565b7f526571756573746572206e6f7420726567697374657265642100000000000000600082015250565b60006108fc6019836108b5565b9150610907826108c6565b602082019050919050565b6000602082019050818103600083015261092b816108ef565b9050919050565b7f4e6577207065726d697373696f6e20726571756573742e000000000000000000600082015250565b60006109686017836108b5565b915061097382610932565b602082019050919050565b60006040820190506109936000830184610849565b81810360208301526109a48161095b565b905092915050565b7f4772616e746572206e6f74207265676973746572656421000000000000000000600082015250565b60006109e26017836108b5565b91506109ed826109ac565b602082019050919050565b60006020820190508181036000830152610a11816109d5565b9050919050565b7f5065726d697373696f6e206772616e7465642e00000000000000000000000000600082015250565b6000610a4e6013836108b5565b9150610a5982610a18565b602082019050919050565b6000604082019050610a796000830184610849565b8181036020830152610a8a81610a41565b905092915050565b7f5065726d697373696f6e2064656e6965642e0000000000000000000000000000600082015250565b6000610ac86012836108b5565b9150610ad382610a92565b602082019050919050565b6000604082019050610af36000830184610849565b8181036020830152610b0481610abb565b90509291505056fea2646970667358221220a88f3e4f2b5b7ac4460b0e072b848b76c46778c666e7209ecbbe4df0af23344464736f6c634300080a0033",
      "opcodes": "PUSH1 0x80 PUSH1 0x40 MSTORE CALLVALUE DUP1 ISZERO PUSH2 0x10 JUMPI PUSH1 0x0 DUP1 REVERT JUMPDEST POP PUSH1 0x40 MLOAD PUSH2 0xCAE CODESIZE SUB DUP1 PUSH2 0xCAE DUP4 CODECOPY DUP2 DUP2 ADD PUSH1 0x40 MSTORE DUP2 ADD SWAP1 PUSH2 0x32 SWAP2 SWAP1 PUSH2 0x11D JUMP JUMPDEST DUP2 PUSH1 0x0 DUP1 PUSH2 0x100 EXP DUP2 SLOAD DUP2 PUSH20 0xFFFFFFFFFFFFFFFFFFFFFFFFFFFFFFFFFFFFFFFF MUL NOT AND SWAP1 DUP4 PUSH20 0xFFFFFFFFFFFFFFFFFFFFFFFFFFFFFFFFFFFFFFFF AND MUL OR SWAP1 SSTORE POP DUP1 PUSH1 0x1 PUSH1 0x0 PUSH2 0x100 EXP DUP2 SLOAD DUP2 PUSH20 0xFFFFFFFFFFFFFFFFFFFFFFFFFFFFFFFFFFFFFFFF MUL NOT AND SWAP1 DUP4 PUSH20 0xFFFFFFFFFFFFFFFFFFFFFFFFFFFFFFFFFFFFFFFF AND MUL OR SWAP1 SSTORE POP POP POP PUSH2 0x15D JUMP JUMPDEST PUSH1 0x0 DUP1 REVERT JUMPDEST PUSH1 0x0 PUSH20 0xFFFFFFFFFFFFFFFFFFFFFFFFFFFFFFFFFFFFFFFF DUP3 AND SWAP1 POP SWAP2 SWAP1 POP JUMP JUMPDEST PUSH1 0x0 PUSH2 0xEA DUP3 PUSH2 0xBF JUMP JUMPDEST SWAP1 POP SWAP2 SWAP1 POP JUMP JUMPDEST PUSH2 0xFA DUP2 PUSH2 0xDF JUMP JUMPDEST DUP2 EQ PUSH2 0x105 JUMPI PUSH1 0x0 DUP1 REVERT JUMPDEST POP JUMP JUMPDEST PUSH1 0x0 DUP2 MLOAD SWAP1 POP PUSH2 0x117 DUP2 PUSH2 0xF1 JUMP JUMPDEST SWAP3 SWAP2 POP POP JUMP JUMPDEST PUSH1 0x0 DUP1 PUSH1 0x40 DUP4 DUP6 SUB SLT ISZERO PUSH2 0x134 JUMPI PUSH2 0x133 PUSH2 0xBA JUMP JUMPDEST JUMPDEST PUSH1 0x0 PUSH2 0x142 DUP6 DUP3 DUP7 ADD PUSH2 0x108 JUMP JUMPDEST SWAP3 POP POP PUSH1 0x20 PUSH2 0x153 DUP6 DUP3 DUP7 ADD PUSH2 0x108 JUMP JUMPDEST SWAP2 POP POP SWAP3 POP SWAP3 SWAP1 POP JUMP JUMPDEST PUSH2 0xB42 DUP1 PUSH2 0x16C PUSH1 0x0 CODECOPY PUSH1 0x0 RETURN INVALID PUSH1 0x80 PUSH1 0x40 MSTORE CALLVALUE DUP1 ISZERO PUSH2 0x10 JUMPI PUSH1 0x0 DUP1 REVERT JUMPDEST POP PUSH1 0x4 CALLDATASIZE LT PUSH2 0x7D JUMPI PUSH1 0x0 CALLDATALOAD PUSH1 0xE0 SHR DUP1 PUSH4 0x7B103999 GT PUSH2 0x5B JUMPI DUP1 PUSH4 0x7B103999 EQ PUSH2 0xEC JUMPI DUP1 PUSH4 0x7ED764B4 EQ PUSH2 0x10A JUMPI DUP1 PUSH4 0x91616412 EQ PUSH2 0x126 JUMPI DUP1 PUSH4 0xCB2E781D EQ PUSH2 0x156 JUMPI PUSH2 0x7D JUMP JUMPDEST DUP1 PUSH4 0x1D755579 EQ PUSH2 0x82 JUMPI DUP1 PUSH4 0x4FB95BC6 EQ PUSH2 0xA0 JUMPI DUP1 PUSH4 0x6938323A EQ PUSH2 0xD0 JUMPI JUMPDEST PUSH1 0x0 DUP1 REVERT JUMPDEST PUSH2 0x8A PUSH2 0x186 JUMP JUMPDEST PUSH1 0x40 MLOAD PUSH2 0x97 SWAP2 SWAP1 PUSH2 0x695 JUMP JUMPDEST PUSH1 0x40 MLOAD DUP1 SWAP2 SUB SWAP1 RETURN JUMPDEST PUSH2 0xBA PUSH1 0x4 DUP1 CALLDATASIZE SUB DUP2 ADD SWAP1 PUSH2 0xB5 SWAP2 SWAP1 PUSH2 0x6EB JUMP JUMPDEST PUSH2 0x1AC JUMP JUMPDEST PUSH1 0x40 MLOAD PUSH2 0xC7 SWAP2 SWAP1 PUSH2 0x746 JUMP JUMPDEST PUSH1 0x40 MLOAD DUP1 SWAP2 SUB SWAP1 RETURN JUMPDEST PUSH2 0xEA PUSH1 0x4 DUP1 CALLDATASIZE SUB DUP2 ADD SWAP1 PUSH2 0xE5 SWAP2 SWAP1 PUSH2 0x6EB JUMP JUMPDEST PUSH2 0x1E8 JUMP JUMPDEST STOP JUMPDEST PUSH2 0xF4 PUSH2 0x352 JUMP JUMPDEST PUSH1 0x40 MLOAD PUSH2 0x101 SWAP2 SWAP1 PUSH2 0x782 JUMP JUMPDEST PUSH1 0x40 MLOAD DUP1 SWAP2 SUB SWAP1 RETURN JUMPDEST PUSH2 0x124 PUSH1 0x4 DUP1 CALLDATASIZE SUB DUP2 ADD SWAP1 PUSH2 0x11F SWAP2 SWAP1 PUSH2 0x7C9 JUMP JUMPDEST PUSH2 0x376 JUMP JUMPDEST STOP JUMPDEST PUSH2 0x140 PUSH1 0x4 DUP1 CALLDATASIZE SUB DUP2 ADD SWAP1 PUSH2 0x13B SWAP2 SWAP1 PUSH2 0x81C JUMP JUMPDEST PUSH2 0x5CF JUMP JUMPDEST PUSH1 0x40 MLOAD PUSH2 0x14D SWAP2 SWAP1 PUSH2 0x858 JUMP JUMPDEST PUSH1 0x40 MLOAD DUP1 SWAP2 SUB SWAP1 RETURN JUMPDEST PUSH2 0x170 PUSH1 0x4 DUP1 CALLDATASIZE SUB DUP2 ADD SWAP1 PUSH2 0x16B SWAP2 SWAP1 PUSH2 0x6EB JUMP JUMPDEST PUSH2 0x5E7 JUMP JUMPDEST PUSH1 0x40 MLOAD PUSH2 0x17D SWAP2 SWAP1 PUSH2 0x746 JUMP JUMPDEST PUSH1 0x40 MLOAD DUP1 SWAP2 SUB SWAP1 RETURN JUMPDEST PUSH1 0x1 PUSH1 0x0 SWAP1 SLOAD SWAP1 PUSH2 0x100 EXP SWAP1 DIV PUSH20 0xFFFFFFFFFFFFFFFFFFFFFFFFFFFFFFFFFFFFFFFF AND DUP2 JUMP JUMPDEST PUSH1 0x0 PUSH1 0x3 PUSH1 0x0 DUP5 DUP2 MSTORE PUSH1 0x20 ADD SWAP1 DUP2 MSTORE PUSH1 0x20 ADD PUSH1 0x0 KECCAK256 PUSH1 0x0 DUP4 DUP2 MSTORE PUSH1 0x20 ADD SWAP1 DUP2 MSTORE PUSH1 0x20 ADD PUSH1 0x0 KECCAK256 PUSH1 0x0 SWAP1 SLOAD SWAP1 PUSH2 0x100 EXP SWAP1 DIV PUSH1 0xFF AND SWAP1 POP SWAP3 SWAP2 POP POP JUMP JUMPDEST PUSH1 0x0 DUP1 SLOAD SWAP1 PUSH2 0x100 EXP SWAP1 DIV PUSH20 0xFFFFFFFFFFFFFFFFFFFFFFFFFFFFFFFFFFFFFFFF AND PUSH20 0xFFFFFFFFFFFFFFFFFFFFFFFFFFFFFFFFFFFFFFFF AND PUSH4 0xB2551C2 DUP4 PUSH1 0x40 MLOAD DUP3 PUSH4 0xFFFFFFFF AND PUSH1 0xE0 SHL DUP2 MSTORE PUSH1 0x4 ADD PUSH2 0x241 SWAP2 SWAP1 PUSH2 0x858 JUMP JUMPDEST PUSH1 0x20 PUSH1 0x40 MLOAD DUP1 DUP4 SUB DUP2 DUP7 GAS STATICCALL ISZERO DUP1 ISZERO PUSH2 0x25E JUMPI RETURNDATASIZE PUSH1 0x0 DUP1 RETURNDATACOPY RETURNDATASIZE PUSH1 0x0 REVERT JUMPDEST POP POP POP POP PUSH1 0x40 MLOAD RETURNDATASIZE PUSH1 0x1F NOT PUSH1 0x1F DUP3 ADD AND DUP3 ADD DUP1 PUSH1 0x40 MSTORE POP DUP2 ADD SWAP1 PUSH2 0x282 SWAP2 SWAP1 PUSH2 0x888 JUMP JUMPDEST PUSH2 0x2C1 JUMPI PUSH1 0x40 MLOAD PUSH32 0x8C379A000000000000000000000000000000000000000000000000000000000 DUP2 MSTORE PUSH1 0x4 ADD PUSH2 0x2B8 SWAP1 PUSH2 0x912 JUMP JUMPDEST PUSH1 0x40 MLOAD DUP1 SWAP2 SUB SWAP1 REVERT JUMPDEST PUSH1 0x1 PUSH1 0x0 SWAP1 SLOAD SWAP1 PUSH2 0x100 EXP SWAP1 DIV PUSH20 0xFFFFFFFFFFFFFFFFFFFFFFFFFFFFFFFFFFFFFFFF AND PUSH20 0xFFFFFFFFFFFFFFFFFFFFFFFFFFFFFFFFFFFFFFFF AND PUSH4 0xA2CF0C56 DUP3 PUSH1 0x40 MLOAD DUP3 PUSH4 0xFFFFFFFF AND PUSH1 0xE0 SHL DUP2 MSTORE PUSH1 0x4 ADD PUSH2 0x31C SWAP2 SWAP1 PUSH2 0x97E JUMP JUMPDEST PUSH1 0x0 PUSH1 0x40 MLOAD DUP1 DUP4 SUB DUP2 PUSH1 0x0 DUP8 DUP1 EXTCODESIZE ISZERO DUP1 ISZERO PUSH2 0x336 JUMPI PUSH1 0x0 DUP1 REVERT JUMPDEST POP GAS CALL ISZERO DUP1 ISZERO PUSH2 0x34A JUMPI RETURNDATASIZE PUSH1 0x0 DUP1 RETURNDATACOPY RETURNDATASIZE PUSH1 0x0 REVERT JUMPDEST POP POP POP POP POP POP JUMP JUMPDEST PUSH1 0x0 DUP1 SLOAD SWAP1 PUSH2 0x100 EXP SWAP1 DIV PUSH20 0xFFFFFFFFFFFFFFFFFFFFFFFFFFFFFFFFFFFFFFFF AND DUP2 JUMP JUMPDEST PUSH1 0x0 DUP1 SLOAD SWAP1 PUSH2 0x100 EXP SWAP1 DIV PUSH20 0xFFFFFFFFFFFFFFFFFFFFFFFFFFFFFFFFFFFFFFFF AND PUSH20 0xFFFFFFFFFFFFFFFFFFFFFFFFFFFFFFFFFFFFFFFF AND PUSH4 0xB2551C2 DUP4 PUSH1 0x40 MLOAD DUP3 PUSH4 0xFFFFFFFF AND PUSH1 0xE0 SHL DUP2 MSTORE PUSH1 0x4 ADD PUSH2 0x3CF SWAP2 SWAP1 PUSH2 0x858 JUMP JUMPDEST PUSH1 0x20 PUSH1 0x40 MLOAD DUP1 DUP4 SUB DUP2 DUP7 GAS STATICCALL ISZERO DUP1 ISZERO PUSH2 0x3EC JUMPI RETURNDATASIZE PUSH1 0x0 DUP1 RETURNDATACOPY RETURNDATASIZE PUSH1 0x0 REVERT JUMPDEST POP POP POP POP PUSH1 0x40 MLOAD RETURNDATASIZE PUSH1 0x1F NOT PUSH1 0x1F DUP3 ADD AND DUP3 ADD DUP1 PUSH1 0x40 MSTORE POP DUP2 ADD SWAP1 PUSH2 0x410 SWAP2 SWAP1 PUSH2 0x888 JUMP JUMPDEST PUSH2 0x44F JUMPI PUSH1 0x40 MLOAD PUSH32 0x8C379A000000000000000000000000000000000000000000000000000000000 DUP2 MSTORE PUSH1 0x4 ADD PUSH2 0x446 SWAP1 PUSH2 0x9F8 JUMP JUMPDEST PUSH1 0x40 MLOAD DUP1 SWAP2 SUB SWAP1 REVERT JUMPDEST DUP1 ISZERO PUSH2 0x53C JUMPI DUP2 PUSH1 0x2 PUSH1 0x0 DUP6 DUP2 MSTORE PUSH1 0x20 ADD SWAP1 DUP2 MSTORE PUSH1 0x20 ADD PUSH1 0x0 KECCAK256 DUP2 SWAP1 SSTORE POP PUSH1 0x1 PUSH1 0x3 PUSH1 0x0 DUP6 DUP2 MSTORE PUSH1 0x20 ADD SWAP1 DUP2 MSTORE PUSH1 0x20 ADD PUSH1 0x0 KECCAK256 PUSH1 0x0 DUP5 DUP2 MSTORE PUSH1 0x20 ADD SWAP1 DUP2 MSTORE PUSH1 0x20 ADD PUSH1 0x0 KECCAK256 PUSH1 0x0 PUSH2 0x100 EXP DUP2 SLOAD DUP2 PUSH1 0xFF MUL NOT AND SWAP1 DUP4 ISZERO ISZERO MUL OR SWAP1 SSTORE POP PUSH1 0x1 PUSH1 0x0 SWAP1 SLOAD SWAP1 PUSH2 0x100 EXP SWAP1 DIV PUSH20 0xFFFFFFFFFFFFFFFFFFFFFFFFFFFFFFFFFFFFFFFF AND PUSH20 0xFFFFFFFFFFFFFFFFFFFFFFFFFFFFFFFFFFFFFFFF AND PUSH4 0xA2CF0C56 DUP5 PUSH1 0x40 MLOAD DUP3 PUSH4 0xFFFFFFFF AND PUSH1 0xE0 SHL DUP2 MSTORE PUSH1 0x4 ADD PUSH2 0x505 SWAP2 SWAP1 PUSH2 0xA64 JUMP JUMPDEST PUSH1 0x0 PUSH1 0x40 MLOAD DUP1 DUP4 SUB DUP2 PUSH1 0x0 DUP8 DUP1 EXTCODESIZE ISZERO DUP1 ISZERO PUSH2 0x51F JUMPI PUSH1 0x0 DUP1 REVERT JUMPDEST POP GAS CALL ISZERO DUP1 ISZERO PUSH2 0x533 JUMPI RETURNDATASIZE PUSH1 0x0 DUP1 RETURNDATACOPY RETURNDATASIZE PUSH1 0x0 REVERT JUMPDEST POP POP POP POP PUSH2 0x5CA JUMP JUMPDEST PUSH1 0x1 PUSH1 0x0 SWAP1 SLOAD SWAP1 PUSH2 0x100 EXP SWAP1 DIV PUSH20 0xFFFFFFFFFFFFFFFFFFFFFFFFFFFFFFFFFFFFFFFF AND PUSH20 0xFFFFFFFFFFFFFFFFFFFFFFFFFFFFFFFFFFFFFFFF AND PUSH4 0xA2CF0C56 DUP5 PUSH1 0x40 MLOAD DUP3 PUSH4 0xFFFFFFFF AND PUSH1 0xE0 SHL DUP2 MSTORE PUSH1 0x4 ADD PUSH2 0x597 SWAP2 SWAP1 PUSH2 0xADE JUMP JUMPDEST PUSH1 0x0 PUSH1 0x40 MLOAD DUP1 DUP4 SUB DUP2 PUSH1 0x0 DUP8 DUP1 EXTCODESIZE ISZERO DUP1 ISZERO PUSH2 0x5B1 JUMPI PUSH1 0x0 DUP1 REVERT JUMPDEST POP GAS CALL ISZERO DUP1 ISZERO PUSH2 0x5C5 JUMPI RETURNDATASIZE PUSH1 0x0 DUP1 RETURNDATACOPY RETURNDATASIZE PUSH1 0x0 REVERT JUMPDEST POP POP POP POP JUMPDEST POP POP POP JUMP JUMPDEST PUSH1 0x2 PUSH1 0x20 MSTORE DUP1 PUSH1 0x0 MSTORE PUSH1 0x40 PUSH1 0x0 KECCAK256 PUSH1 0x0 SWAP2 POP SWAP1 POP SLOAD DUP2 JUMP JUMPDEST PUSH1 0x3 PUSH1 0x20 MSTORE DUP2 PUSH1 0x0 MSTORE PUSH1 0x40 PUSH1 0x0 KECCAK256 PUSH1 0x20 MSTORE DUP1 PUSH1 0x0 MSTORE PUSH1 0x40 PUSH1 0x0 KECCAK256 PUSH1 0x0 SWAP2 POP SWAP2 POP SWAP1 SLOAD SWAP1 PUSH2 0x100 EXP SWAP1 DIV PUSH1 0xFF AND DUP2 JUMP JUMPDEST PUSH1 0x0 PUSH20 0xFFFFFFFFFFFFFFFFFFFFFFFFFFFFFFFFFFFFFFFF DUP3 AND SWAP1 POP SWAP2 SWAP1 POP JUMP JUMPDEST PUSH1 0x0 DUP2 SWAP1 POP SWAP2 SWAP1 POP JUMP JUMPDEST PUSH1 0x0 PUSH2 0x65B PUSH2 0x656 PUSH2 0x651 DUP5 PUSH2 0x616 JUMP JUMPDEST PUSH2 0x636 JUMP JUMPDEST PUSH2 0x616 JUMP JUMPDEST SWAP1 POP SWAP2 SWAP1 POP JUMP JUMPDEST PUSH1 0x0 PUSH2 0x66D DUP3 PUSH2 0x640 JUMP JUMPDEST SWAP1 POP SWAP2 SWAP1 POP JUMP JUMPDEST PUSH1 0x0 PUSH2 0x67F DUP3 PUSH2 0x662 JUMP JUMPDEST SWAP1 POP SWAP2 SWAP1 POP JUMP JUMPDEST PUSH2 0x68F DUP2 PUSH2 0x674 JUMP JUMPDEST DUP3 MSTORE POP POP JUMP JUMPDEST PUSH1 0x0 PUSH1 0x20 DUP3 ADD SWAP1 POP PUSH2 0x6AA PUSH1 0x0 DUP4 ADD DUP5 PUSH2 0x686 JUMP JUMPDEST SWAP3 SWAP2 POP POP JUMP JUMPDEST PUSH1 0x0 DUP1 REVERT JUMPDEST PUSH1 0x0 DUP2 SWAP1 POP SWAP2 SWAP1 POP JUMP JUMPDEST PUSH2 0x6C8 DUP2 PUSH2 0x6B5 JUMP JUMPDEST DUP2 EQ PUSH2 0x6D3 JUMPI PUSH1 0x0 DUP1 REVERT JUMPDEST POP JUMP JUMPDEST PUSH1 0x0 DUP2 CALLDATALOAD SWAP1 POP PUSH2 0x6E5 DUP2 PUSH2 0x6BF JUMP JUMPDEST SWAP3 SWAP2 POP POP JUMP JUMPDEST PUSH1 0x0 DUP1 PUSH1 0x40 DUP4 DUP6 SUB SLT ISZERO PUSH2 0x702 JUMPI PUSH2 0x701 PUSH2 0x6B0 JUMP JUMPDEST JUMPDEST PUSH1 0x0 PUSH2 0x710 DUP6 DUP3 DUP7 ADD PUSH2 0x6D6 JUMP JUMPDEST SWAP3 POP POP PUSH1 0x20 PUSH2 0x721 DUP6 DUP3 DUP7 ADD PUSH2 0x6D6 JUMP JUMPDEST SWAP2 POP POP SWAP3 POP SWAP3 SWAP1 POP JUMP JUMPDEST PUSH1 0x0 DUP2 ISZERO ISZERO SWAP1 POP SWAP2 SWAP1 POP JUMP JUMPDEST PUSH2 0x740 DUP2 PUSH2 0x72B JUMP JUMPDEST DUP3 MSTORE POP POP JUMP JUMPDEST PUSH1 0x0 PUSH1 0x20 DUP3 ADD SWAP1 POP PUSH2 0x75B PUSH1 0x0 DUP4 ADD DUP5 PUSH2 0x737 JUMP JUMPDEST SWAP3 SWAP2 POP POP JUMP JUMPDEST PUSH1 0x0 PUSH2 0x76C DUP3 PUSH2 0x662 JUMP JUMPDEST SWAP1 POP SWAP2 SWAP1 POP JUMP JUMPDEST PUSH2 0x77C DUP2 PUSH2 0x761 JUMP JUMPDEST DUP3 MSTORE POP POP JUMP JUMPDEST PUSH1 0x0 PUSH1 0x20 DUP3 ADD SWAP1 POP PUSH2 0x797 PUSH1 0x0 DUP4 ADD DUP5 PUSH2 0x773 JUMP JUMPDEST SWAP3 SWAP2 POP POP JUMP JUMPDEST PUSH2 0x7A6 DUP2 PUSH2 0x72B JUMP JUMPDEST DUP2 EQ PUSH2 0x7B1 JUMPI PUSH1 0x0 DUP1 REVERT JUMPDEST POP JUMP JUMPDEST PUSH1 0x0 DUP2 CALLDATALOAD SWAP1 POP PUSH2 0x7C3 DUP2 PUSH2 0x79D JUMP JUMPDEST SWAP3 SWAP2 POP POP JUMP JUMPDEST PUSH1 0x0 DUP1 PUSH1 0x0 PUSH1 0x60 DUP5 DUP7 SUB SLT ISZERO PUSH2 0x7E2 JUMPI PUSH2 0x7E1 PUSH2 0x6B0 JUMP JUMPDEST JUMPDEST PUSH1 0x0 PUSH2 0x7F0 DUP7 DUP3 DUP8 ADD PUSH2 0x6D6 JUMP JUMPDEST SWAP4 POP POP PUSH1 0x20 PUSH2 0x801 DUP7 DUP3 DUP8 ADD PUSH2 0x6D6 JUMP JUMPDEST SWAP3 POP POP PUSH1 0x40 PUSH2 0x812 DUP7 DUP3 DUP8 ADD PUSH2 0x7B4 JUMP JUMPDEST SWAP2 POP POP SWAP3 POP SWAP3 POP SWAP3 JUMP JUMPDEST PUSH1 0x0 PUSH1 0x20 DUP3 DUP5 SUB SLT ISZERO PUSH2 0x832 JUMPI PUSH2 0x831 PUSH2 0x6B0 JUMP JUMPDEST JUMPDEST PUSH1 0x0 PUSH2 0x840 DUP5 DUP3 DUP6 ADD PUSH2 0x6D6 JUMP JUMPDEST SWAP2 POP POP SWAP3 SWAP2 POP POP JUMP JUMPDEST PUSH2 0x852 DUP2 PUSH2 0x6B5 JUMP JUMPDEST DUP3 MSTORE POP POP JUMP JUMPDEST PUSH1 0x0 PUSH1 0x20 DUP3 ADD SWAP1 POP PUSH2 0x86D PUSH1 0x0 DUP4 ADD DUP5 PUSH2 0x849 JUMP JUMPDEST SWAP3 SWAP2 POP POP JUMP JUMPDEST PUSH1 0x0 DUP2 MLOAD SWAP1 POP PUSH2 0x882 DUP2 PUSH2 0x79D JUMP JUMPDEST SWAP3 SWAP2 POP POP JUMP JUMPDEST PUSH1 0x0 PUSH1 0x20 DUP3 DUP5 SUB SLT ISZERO PUSH2 0x89E JUMPI PUSH2 0x89D PUSH2 0x6B0 JUMP JUMPDEST JUMPDEST PUSH1 0x0 PUSH2 0x8AC DUP5 DUP3 DUP6 ADD PUSH2 0x873 JUMP JUMPDEST SWAP2 POP POP SWAP3 SWAP2 POP POP JUMP JUMPDEST PUSH1 0x0 DUP3 DUP3 MSTORE PUSH1 0x20 DUP3 ADD SWAP1 POP SWAP3 SWAP2 POP POP JUMP JUMPDEST PUSH32 0x526571756573746572206E6F7420726567697374657265642100000000000000 PUSH1 0x0 DUP3 ADD MSTORE POP JUMP JUMPDEST PUSH1 0x0 PUSH2 0x8FC PUSH1 0x19 DUP4 PUSH2 0x8B5 JUMP JUMPDEST SWAP2 POP PUSH2 0x907 DUP3 PUSH2 0x8C6 JUMP JUMPDEST PUSH1 0x20 DUP3 ADD SWAP1 POP SWAP2 SWAP1 POP JUMP JUMPDEST PUSH1 0x0 PUSH1 0x20 DUP3 ADD SWAP1 POP DUP2 DUP2 SUB PUSH1 0x0 DUP4 ADD MSTORE PUSH2 0x92B DUP2 PUSH2 0x8EF JUMP JUMPDEST SWAP1 POP SWAP2 SWAP1 POP JUMP JUMPDEST PUSH32 0x4E6577207065726D697373696F6E20726571756573742E000000000000000000 PUSH1 0x0 DUP3 ADD MSTORE POP JUMP JUMPDEST PUSH1 0x0 PUSH2 0x968 PUSH1 0x17 DUP4 PUSH2 0x8B5 JUMP JUMPDEST SWAP2 POP PUSH2 0x973 DUP3 PUSH2 0x932 JUMP JUMPDEST PUSH1 0x20 DUP3 ADD SWAP1 POP SWAP2 SWAP1 POP JUMP JUMPDEST PUSH1 0x0 PUSH1 0x40 DUP3 ADD SWAP1 POP PUSH2 0x993 PUSH1 0x0 DUP4 ADD DUP5 PUSH2 0x849 JUMP JUMPDEST DUP2 DUP2 SUB PUSH1 0x20 DUP4 ADD MSTORE PUSH2 0x9A4 DUP2 PUSH2 0x95B JUMP JUMPDEST SWAP1 POP SWAP3 SWAP2 POP POP JUMP JUMPDEST PUSH32 0x4772616E746572206E6F74207265676973746572656421000000000000000000 PUSH1 0x0 DUP3 ADD MSTORE POP JUMP JUMPDEST PUSH1 0x0 PUSH2 0x9E2 PUSH1 0x17 DUP4 PUSH2 0x8B5 JUMP JUMPDEST SWAP2 POP PUSH2 0x9ED DUP3 PUSH2 0x9AC JUMP JUMPDEST PUSH1 0x20 DUP3 ADD SWAP1 POP SWAP2 SWAP1 POP JUMP JUMPDEST PUSH1 0x0 PUSH1 0x20 DUP3 ADD SWAP1 POP DUP2 DUP2 SUB PUSH1 0x0 DUP4 ADD MSTORE PUSH2 0xA11 DUP2 PUSH2 0x9D5 JUMP JUMPDEST SWAP1 POP SWAP2 SWAP1 POP JUMP JUMPDEST PUSH32 0x5065726D697373696F6E206772616E7465642E00000000000000000000000000 PUSH1 0x0 DUP3 ADD MSTORE POP JUMP JUMPDEST PUSH1 0x0 PUSH2 0xA4E PUSH1 0x13 DUP4 PUSH2 0x8B5 JUMP JUMPDEST SWAP2 POP PUSH2 0xA59 DUP3 PUSH2 0xA18 JUMP JUMPDEST PUSH1 0x20 DUP3 ADD SWAP1 POP SWAP2 SWAP1 POP JUMP JUMPDEST PUSH1 0x0 PUSH1 0x40 DUP3 ADD SWAP1 POP PUSH2 0xA79 PUSH1 0x0 DUP4 ADD DUP5 PUSH2 0x849 JUMP JUMPDEST DUP2 DUP2 SUB PUSH1 0x20 DUP4 ADD MSTORE PUSH2 0xA8A DUP2 PUSH2 0xA41 JUMP JUMPDEST SWAP1 POP SWAP3 SWAP2 POP POP JUMP JUMPDEST PUSH32 0x5065726D697373696F6E2064656E6965642E0000000000000000000000000000 PUSH1 0x0 DUP3 ADD MSTORE POP JUMP JUMPDEST PUSH1 0x0 PUSH2 0xAC8 PUSH1 0x12 DUP4 PUSH2 0x8B5 JUMP JUMPDEST SWAP2 POP PUSH2 0xAD3 DUP3 PUSH2 0xA92 JUMP JUMPDEST PUSH1 0x20 DUP3 ADD SWAP1 POP SWAP2 SWAP1 POP JUMP JUMPDEST PUSH1 0x0 PUSH1 0x40 DUP3 ADD SWAP1 POP PUSH2 0xAF3 PUSH1 0x0 DUP4 ADD DUP5 PUSH2 0x849 JUMP JUMPDEST DUP2 DUP2 SUB PUSH1 0x20 DUP4 ADD MSTORE PUSH2 0xB04 DUP2 PUSH2 0xABB JUMP JUMPDEST SWAP1 POP SWAP3 SWAP2 POP POP JUMP INVALID LOG2 PUSH5 0x6970667358 0x22 SLT KECCAK256 0xA8 DUP16 RETURNDATACOPY 0x4F 0x2B JUMPDEST PUSH27 0xC4460B0E072B848B76C46778C666E7209ECBBE4DF0AF2334446473 PUSH16 0x6C634300080A00330000000000000000 "
    },
    "gasEstimates": {
      "creation": {
        "codeDepositCost": "576400",
        "executionCost": "infinite",
        "totalCost": "infinite"
      },
      "external": {
        "approvePermission(bytes32,bytes32,bool)": "infinite",
        "checkPermission(bytes32,bytes32)": "infinite",
        "link(bytes32)": "infinite",
        "notificationManager()": "infinite",
        "permissions(bytes32,bytes32)": "infinite",
        "registry()": "infinite",
        "requestPermission(bytes32,bytes32)": "infinite"
      }
    },
    "methodIdentifiers": {
      "approvePermission(bytes32,bytes32,bool)": "7ed764b4",
      "checkPermission(bytes32,bytes32)": "4fb95bc6",
      "link(bytes32)": "91616412",
      "notificationManager()": "1d755579",
      "permissions(bytes32,bytes32)": "cb2e781d",
      "registry()": "7b103999",
      "requestPermission(bytes32,bytes32)": "6938323a"
    }
  },
  "storageLayout": {
    "storage": [
      {
        "astId": 205,
        "contract": "permission.sol:Permission",
        "label": "registry",
        "offset": 0,
        "slot": "0",
        "type": "t_contract(Registry)480"
      },
      {
        "astId": 208,
        "contract": "permission.sol:Permission",
        "label": "notificationManager",
        "offset": 0,
        "slot": "1",
        "type": "t_contract(NotificationManager)58"
      },
      {
        "astId": 212,
        "contract": "permission.sol:Permission",
        "label": "link",
        "offset": 0,
        "slot": "2",
        "type": "t_mapping(t_bytes32,t_bytes32)"
      },
      {
        "astId": 218,
        "contract": "permission.sol:Permission",
        "label": "permissions",
        "offset": 0,
        "slot": "3",
        "type": "t_mapping(t_bytes32,t_mapping(t_bytes32,t_bool))"
      }
    ],
    "types": {
      "t_bool": {
        "encoding": "inplace",
        "label": "bool",
        "numberOfBytes": "1"
      },
      "t_bytes32": {
        "encoding": "inplace",
        "label": "bytes32",
        "numberOfBytes": "32"
      },
      "t_contract(NotificationManager)58": {
        "encoding": "inplace",
        "label": "contract NotificationManager",
        "numberOfBytes": "20"
      },
      "t_contract(Registry)480": {
        "encoding": "inplace",
        "label": "contract Registry",
        "numberOfBytes": "20"
      },
      "t_mapping(t_bytes32,t_bool)": {
        "encoding": "mapping",
        "key": "t_bytes32",
        "label": "mapping(bytes32 => bool)",
        "numberOfBytes": "32",
        "value": "t_bool"
      },
      "t_mapping(t_bytes32,t_bytes32)": {
        "encoding": "mapping",
        "key": "t_bytes32",
        "label": "mapping(bytes32 => bytes32)",
        "numberOfBytes": "32",
        "value": "t_bytes32"
      },
      "t_mapping(t_bytes32,t_mapping(t_bytes32,t_bool))": {
        "encoding": "mapping",
        "key": "t_bytes32",
        "label": "mapping(bytes32 => mapping(bytes32 => bool))",
        "numberOfBytes": "32",
        "value": "t_mapping(t_bytes32,t_bool)"
      }
    }
  },
  "userdoc": {
    "kind": "user",
    "methods": {},
    "version": 1
  }
}