{
  "abi": [
    {
      "inputs": [
        {
          "internalType": "address",
          "name": "_registryAddress",
          "type": "address"
        }
      ],
      "stateMutability": "nonpayable",
      "type": "constructor"
    },
    {
      "anonymous": false,
      "inputs": [
        {
          "indexed": false,
          "internalType": "address",
          "name": "requester",
          "type": "address"
        },
        {
          "indexed": false,
          "internalType": "address",
          "name": "granter",
          "type": "address"
        },
        {
          "indexed": false,
          "internalType": "string",
          "name": "message",
          "type": "string"
        }
      ],
      "name": "NotifyDenial",
      "type": "event"
    },
    {
      "anonymous": false,
      "inputs": [
        {
          "indexed": false,
          "internalType": "address",
          "name": "requester",
          "type": "address"
        },
        {
          "indexed": false,
          "internalType": "address",
          "name": "granter",
          "type": "address"
        },
        {
          "indexed": false,
          "internalType": "uint256",
          "name": "periodGranted",
          "type": "uint256"
        },
        {
          "indexed": false,
          "internalType": "string",
          "name": "message",
          "type": "string"
        }
      ],
      "name": "NotifyGrant",
      "type": "event"
    },
    {
      "anonymous": false,
      "inputs": [
        {
          "indexed": false,
          "internalType": "address",
          "name": "patient",
          "type": "address"
        },
        {
          "indexed": false,
          "internalType": "address",
          "name": "requester",
          "type": "address"
        },
        {
          "indexed": false,
          "internalType": "uint256",
          "name": "periodReq",
          "type": "uint256"
        },
        {
          "indexed": false,
          "internalType": "string",
          "name": "message",
          "type": "string"
        }
      ],
      "name": "NotifyRequest",
      "type": "event"
    },
    {
      "inputs": [
        {
          "internalType": "address",
          "name": "_requester",
          "type": "address"
        },
        {
          "internalType": "address",
          "name": "_granter",
          "type": "address"
        },
        {
          "internalType": "bool",
          "name": "_allow",
          "type": "bool"
        },
        {
          "internalType": "uint256",
          "name": "_periodGranted",
          "type": "uint256"
        }
      ],
      "name": "approvePermission",
      "outputs": [],
      "stateMutability": "nonpayable",
      "type": "function"
    },
    {
      "inputs": [
        {
          "internalType": "address",
          "name": "_requester",
          "type": "address"
        },
        {
          "internalType": "address",
          "name": "_granter",
          "type": "address"
        }
      ],
      "name": "checkPermission",
      "outputs": [
        {
          "internalType": "bool",
          "name": "",
          "type": "bool"
        }
      ],
      "stateMutability": "view",
      "type": "function"
    },
    {
      "inputs": [
        {
          "internalType": "address",
          "name": "",
          "type": "address"
        }
      ],
      "name": "link",
      "outputs": [
        {
          "internalType": "address",
          "name": "",
          "type": "address"
        }
      ],
      "stateMutability": "view",
      "type": "function"
    },
    {
      "inputs": [
        {
          "internalType": "address",
          "name": "",
          "type": "address"
        },
        {
          "internalType": "address",
          "name": "",
          "type": "address"
        }
      ],
      "name": "permissions",
      "outputs": [
        {
          "internalType": "bool",
          "name": "",
          "type": "bool"
        }
      ],
      "stateMutability": "view",
      "type": "function"
    },
    {
      "inputs": [],
      "name": "registry",
      "outputs": [
        {
          "internalType": "contract Registry",
          "name": "",
          "type": "address"
        }
      ],
      "stateMutability": "view",
      "type": "function"
    },
    {
      "inputs": [
        {
          "internalType": "address",
          "name": "_requester",
          "type": "address"
        },
        {
          "internalType": "address",
          "name": "_granter",
          "type": "address"
        },
        {
          "internalType": "uint256",
          "name": "_periodReq",
          "type": "uint256"
        }
      ],
      "name": "requestPermission",
      "outputs": [],
      "stateMutability": "nonpayable",
      "type": "function"
    }
  ],
  "devdoc": {
    "kind": "dev",
    "methods": {},
    "version": 1
  },
  "evm": {
    "assembly": "    /* \"permission.sol\":130:2370  contract Permission {... */\n  mstore(0x40, 0x80)\n    /* \"permission.sol\":750:889  constructor(address _registryAddress) {... */\n  callvalue\n  dup1\n  iszero\n  tag_1\n  jumpi\n  0x00\n  dup1\n  revert\ntag_1:\n  pop\n  mload(0x40)\n  sub(codesize, bytecodeSize)\n  dup1\n  bytecodeSize\n  dup4\n  codecopy\n  dup2\n  dup2\n  add\n  0x40\n  mstore\n  dup2\n  add\n  swap1\n  tag_2\n  swap2\n  swap1\n  tag_3\n  jump\t// in\ntag_2:\n    /* \"permission.sol\":819:835  _registryAddress */\n  dup1\n    /* \"permission.sol\":799:807  registry */\n  0x02\n  0x00\n    /* \"permission.sol\":799:836  registry = Registry(_registryAddress) */\n  0x0100\n  exp\n  dup2\n  sload\n  dup2\n  0xffffffffffffffffffffffffffffffffffffffff\n  mul\n  not\n  and\n  swap1\n  dup4\n  0xffffffffffffffffffffffffffffffffffffffff\n  and\n  mul\n  or\n  swap1\n  sstore\n  pop\n    /* \"permission.sol\":750:889  constructor(address _registryAddress) {... */\n  pop\n    /* \"permission.sol\":130:2370  contract Permission {... */\n  jump(tag_6)\n    /* \"#utility.yul\":88:205   */\ntag_8:\n    /* \"#utility.yul\":197:198   */\n  0x00\n    /* \"#utility.yul\":194:195   */\n  dup1\n    /* \"#utility.yul\":187:199   */\n  revert\n    /* \"#utility.yul\":334:460   */\ntag_10:\n    /* \"#utility.yul\":371:378   */\n  0x00\n    /* \"#utility.yul\":411:453   */\n  0xffffffffffffffffffffffffffffffffffffffff\n    /* \"#utility.yul\":404:409   */\n  dup3\n    /* \"#utility.yul\":400:454   */\n  and\n    /* \"#utility.yul\":389:454   */\n  swap1\n  pop\n    /* \"#utility.yul\":334:460   */\n  swap2\n  swap1\n  pop\n  jump\t// out\n    /* \"#utility.yul\":466:562   */\ntag_11:\n    /* \"#utility.yul\":503:510   */\n  0x00\n    /* \"#utility.yul\":532:556   */\n  tag_20\n    /* \"#utility.yul\":550:555   */\n  dup3\n    /* \"#utility.yul\":532:556   */\n  tag_10\n  jump\t// in\ntag_20:\n    /* \"#utility.yul\":521:556   */\n  swap1\n  pop\n    /* \"#utility.yul\":466:562   */\n  swap2\n  swap1\n  pop\n  jump\t// out\n    /* \"#utility.yul\":568:690   */\ntag_12:\n    /* \"#utility.yul\":641:665   */\n  tag_22\n    /* \"#utility.yul\":659:664   */\n  dup2\n    /* \"#utility.yul\":641:665   */\n  tag_11\n  jump\t// in\ntag_22:\n    /* \"#utility.yul\":634:639   */\n  dup2\n    /* \"#utility.yul\":631:666   */\n  eq\n    /* \"#utility.yul\":621:684   */\n  tag_23\n  jumpi\n    /* \"#utility.yul\":680:681   */\n  0x00\n    /* \"#utility.yul\":677:678   */\n  dup1\n    /* \"#utility.yul\":670:682   */\n  revert\n    /* \"#utility.yul\":621:684   */\ntag_23:\n    /* \"#utility.yul\":568:690   */\n  pop\n  jump\t// out\n    /* \"#utility.yul\":696:839   */\ntag_13:\n    /* \"#utility.yul\":753:758   */\n  0x00\n    /* \"#utility.yul\":784:790   */\n  dup2\n    /* \"#utility.yul\":778:791   */\n  mload\n    /* \"#utility.yul\":769:791   */\n  swap1\n  pop\n    /* \"#utility.yul\":800:833   */\n  tag_25\n    /* \"#utility.yul\":827:832   */\n  dup2\n    /* \"#utility.yul\":800:833   */\n  tag_12\n  jump\t// in\ntag_25:\n    /* \"#utility.yul\":696:839   */\n  swap3\n  swap2\n  pop\n  pop\n  jump\t// out\n    /* \"#utility.yul\":845:1196   */\ntag_3:\n    /* \"#utility.yul\":915:921   */\n  0x00\n    /* \"#utility.yul\":964:966   */\n  0x20\n    /* \"#utility.yul\":952:961   */\n  dup3\n    /* \"#utility.yul\":943:950   */\n  dup5\n    /* \"#utility.yul\":939:962   */\n  sub\n    /* \"#utility.yul\":935:967   */\n  slt\n    /* \"#utility.yul\":932:1051   */\n  iszero\n  tag_27\n  jumpi\n    /* \"#utility.yul\":970:1049   */\n  tag_28\n  tag_8\n  jump\t// in\ntag_28:\n    /* \"#utility.yul\":932:1051   */\ntag_27:\n    /* \"#utility.yul\":1090:1091   */\n  0x00\n    /* \"#utility.yul\":1115:1179   */\n  tag_29\n    /* \"#utility.yul\":1171:1178   */\n  dup5\n    /* \"#utility.yul\":1162:1168   */\n  dup3\n    /* \"#utility.yul\":1151:1160   */\n  dup6\n    /* \"#utility.yul\":1147:1169   */\n  add\n    /* \"#utility.yul\":1115:1179   */\n  tag_13\n  jump\t// in\ntag_29:\n    /* \"#utility.yul\":1105:1179   */\n  swap2\n  pop\n    /* \"#utility.yul\":1061:1189   */\n  pop\n    /* \"#utility.yul\":845:1196   */\n  swap3\n  swap2\n  pop\n  pop\n  jump\t// out\n    /* \"permission.sol\":130:2370  contract Permission {... */\ntag_6:\n  dataSize(sub_0)\n  dup1\n  dataOffset(sub_0)\n  0x00\n  codecopy\n  0x00\n  return\nstop\n\nsub_0: assembly {\n        /* \"permission.sol\":130:2370  contract Permission {... */\n      mstore(0x40, 0x80)\n      callvalue\n      dup1\n      iszero\n      tag_1\n      jumpi\n      0x00\n      dup1\n      revert\n    tag_1:\n      pop\n      jumpi(tag_2, lt(calldatasize, 0x04))\n      shr(0xe0, calldataload(0x00))\n      dup1\n      0x1a160fe9\n      eq\n      tag_3\n      jumpi\n      dup1\n      0x1f9838b5\n      eq\n      tag_4\n      jumpi\n      dup1\n      0x7b103999\n      eq\n      tag_5\n      jumpi\n      dup1\n      0x7cb8d3e1\n      eq\n      tag_6\n      jumpi\n      dup1\n      0x91a89712\n      eq\n      tag_7\n      jumpi\n      dup1\n      0xa84001ea\n      eq\n      tag_8\n      jumpi\n    tag_2:\n      0x00\n      dup1\n      revert\n        /* \"permission.sol\":2186:2367  function checkPermission(address _requester, address _granter) public view returns (bool) {... */\n    tag_3:\n      tag_9\n      0x04\n      dup1\n      calldatasize\n      sub\n      dup2\n      add\n      swap1\n      tag_10\n      swap2\n      swap1\n      tag_11\n      jump\t// in\n    tag_10:\n      tag_12\n      jump\t// in\n    tag_9:\n      mload(0x40)\n      tag_13\n      swap2\n      swap1\n      tag_14\n      jump\t// in\n    tag_13:\n      mload(0x40)\n      dup1\n      swap2\n      sub\n      swap1\n      return\n        /* \"permission.sol\":232:295  mapping(address => mapping(address => bool)) public permissions */\n    tag_4:\n      tag_15\n      0x04\n      dup1\n      calldatasize\n      sub\n      dup2\n      add\n      swap1\n      tag_16\n      swap2\n      swap1\n      tag_11\n      jump\t// in\n    tag_16:\n      tag_17\n      jump\t// in\n    tag_15:\n      mload(0x40)\n      tag_18\n      swap2\n      swap1\n      tag_14\n      jump\t// in\n    tag_18:\n      mload(0x40)\n      dup1\n      swap2\n      sub\n      swap1\n      return\n        /* \"permission.sol\":354:378  Registry public registry */\n    tag_5:\n      tag_19\n      tag_20\n      jump\t// in\n    tag_19:\n      mload(0x40)\n      tag_21\n      swap2\n      swap1\n      tag_22\n      jump\t// in\n    tag_21:\n      mload(0x40)\n      dup1\n      swap2\n      sub\n      swap1\n      return\n        /* \"permission.sol\":1436:2127  function approvePermission(address _requester, address _granter, bool _allow, uint _periodGranted) public {... */\n    tag_6:\n      tag_23\n      0x04\n      dup1\n      calldatasize\n      sub\n      dup2\n      add\n      swap1\n      tag_24\n      swap2\n      swap1\n      tag_25\n      jump\t// in\n    tag_24:\n      tag_26\n      jump\t// in\n    tag_23:\n      stop\n        /* \"permission.sol\":157:196  mapping(address => address) public link */\n    tag_7:\n      tag_27\n      0x04\n      dup1\n      calldatasize\n      sub\n      dup2\n      add\n      swap1\n      tag_28\n      swap2\n      swap1\n      tag_29\n      jump\t// in\n    tag_28:\n      tag_30\n      jump\t// in\n    tag_27:\n      mload(0x40)\n      tag_31\n      swap2\n      swap1\n      tag_32\n      jump\t// in\n    tag_31:\n      mload(0x40)\n      dup1\n      swap2\n      sub\n      swap1\n      return\n        /* \"permission.sol\":951:1381  function requestPermission(address _requester, address _granter, uint _periodReq) public {... */\n    tag_8:\n      tag_33\n      0x04\n      dup1\n      calldatasize\n      sub\n      dup2\n      add\n      swap1\n      tag_34\n      swap2\n      swap1\n      tag_35\n      jump\t// in\n    tag_34:\n      tag_36\n      jump\t// in\n    tag_33:\n      stop\n        /* \"permission.sol\":2186:2367  function checkPermission(address _requester, address _granter) public view returns (bool) {... */\n    tag_12:\n        /* \"permission.sol\":2270:2274  bool */\n      0x00\n        /* \"permission.sol\":2294:2305  permissions */\n      0x01\n        /* \"permission.sol\":2294:2317  permissions[_requester] */\n      0x00\n        /* \"permission.sol\":2306:2316  _requester */\n      dup5\n        /* \"permission.sol\":2294:2317  permissions[_requester] */\n      0xffffffffffffffffffffffffffffffffffffffff\n      and\n      0xffffffffffffffffffffffffffffffffffffffff\n      and\n      dup2\n      mstore\n      0x20\n      add\n      swap1\n      dup2\n      mstore\n      0x20\n      add\n      0x00\n      keccak256\n        /* \"permission.sol\":2294:2327  permissions[_requester][_granter] */\n      0x00\n        /* \"permission.sol\":2318:2326  _granter */\n      dup4\n        /* \"permission.sol\":2294:2327  permissions[_requester][_granter] */\n      0xffffffffffffffffffffffffffffffffffffffff\n      and\n      0xffffffffffffffffffffffffffffffffffffffff\n      and\n      dup2\n      mstore\n      0x20\n      add\n      swap1\n      dup2\n      mstore\n      0x20\n      add\n      0x00\n      keccak256\n      0x00\n      swap1\n      sload\n      swap1\n      0x0100\n      exp\n      swap1\n      div\n      0xff\n      and\n        /* \"permission.sol\":2287:2327  return permissions[_requester][_granter] */\n      swap1\n      pop\n        /* \"permission.sol\":2186:2367  function checkPermission(address _requester, address _granter) public view returns (bool) {... */\n      swap3\n      swap2\n      pop\n      pop\n      jump\t// out\n        /* \"permission.sol\":232:295  mapping(address => mapping(address => bool)) public permissions */\n    tag_17:\n      mstore(0x20, 0x01)\n      dup2\n      0x00\n      mstore\n      mstore(0x20, keccak256(0x00, 0x40))\n      dup1\n      0x00\n      mstore\n      keccak256(0x00, 0x40)\n      0x00\n      swap2\n      pop\n      swap2\n      pop\n      swap1\n      sload\n      swap1\n      0x0100\n      exp\n      swap1\n      div\n      0xff\n      and\n      dup2\n      jump\t// out\n        /* \"permission.sol\":354:378  Registry public registry */\n    tag_20:\n      0x02\n      0x00\n      swap1\n      sload\n      swap1\n      0x0100\n      exp\n      swap1\n      div\n      0xffffffffffffffffffffffffffffffffffffffff\n      and\n      dup2\n      jump\t// out\n        /* \"permission.sol\":1436:2127  function approvePermission(address _requester, address _granter, bool _allow, uint _periodGranted) public {... */\n    tag_26:\n        /* \"permission.sol\":1561:1569  registry */\n      0x02\n      0x00\n      swap1\n      sload\n      swap1\n      0x0100\n      exp\n      swap1\n      div\n      0xffffffffffffffffffffffffffffffffffffffff\n      and\n        /* \"permission.sol\":1561:1579  registry.checkUser */\n      0xffffffffffffffffffffffffffffffffffffffff\n      and\n      0x1e9d48cf\n        /* \"permission.sol\":1580:1590  msg.sender */\n      caller\n        /* \"permission.sol\":1561:1591  registry.checkUser(msg.sender) */\n      mload(0x40)\n      dup3\n      0xffffffff\n      and\n      0xe0\n      shl\n      dup2\n      mstore\n      0x04\n      add\n      tag_39\n      swap2\n      swap1\n      tag_32\n      jump\t// in\n    tag_39:\n      0x20\n      mload(0x40)\n      dup1\n      dup4\n      sub\n      dup2\n      dup7\n      gas\n      staticcall\n      iszero\n      dup1\n      iszero\n      tag_41\n      jumpi\n      returndatasize\n      0x00\n      dup1\n      returndatacopy\n      revert(0x00, returndatasize)\n    tag_41:\n      pop\n      pop\n      pop\n      pop\n      mload(0x40)\n      returndatasize\n      not(0x1f)\n      0x1f\n      dup3\n      add\n      and\n      dup3\n      add\n      dup1\n      0x40\n      mstore\n      pop\n      dup2\n      add\n      swap1\n      tag_42\n      swap2\n      swap1\n      tag_43\n      jump\t// in\n    tag_42:\n        /* \"permission.sol\":1553:1619  require(registry.checkUser(msg.sender), \"You are not registered!\") */\n      tag_44\n      jumpi\n      mload(0x40)\n      0x08c379a000000000000000000000000000000000000000000000000000000000\n      dup2\n      mstore\n      0x04\n      add\n      tag_45\n      swap1\n      tag_46\n      jump\t// in\n    tag_45:\n      mload(0x40)\n      dup1\n      swap2\n      sub\n      swap1\n      revert\n    tag_44:\n        /* \"permission.sol\":1685:1693  _granter */\n      dup3\n        /* \"permission.sol\":1671:1693  msg.sender == _granter */\n      0xffffffffffffffffffffffffffffffffffffffff\n      and\n        /* \"permission.sol\":1671:1681  msg.sender */\n      caller\n        /* \"permission.sol\":1671:1693  msg.sender == _granter */\n      0xffffffffffffffffffffffffffffffffffffffff\n      and\n      eq\n        /* \"permission.sol\":1663:1727  require(msg.sender == _granter, \"You cannot permit for others!\") */\n      tag_47\n      jumpi\n      mload(0x40)\n      0x08c379a000000000000000000000000000000000000000000000000000000000\n      dup2\n      mstore\n      0x04\n      add\n      tag_48\n      swap1\n      tag_49\n      jump\t// in\n    tag_48:\n      mload(0x40)\n      dup1\n      swap2\n      sub\n      swap1\n      revert\n    tag_47:\n        /* \"permission.sol\":1780:1786  _allow */\n      dup2\n        /* \"permission.sol\":1776:2120  if (_allow) {... */\n      iszero\n      tag_50\n      jumpi\n        /* \"permission.sol\":1822:1830  _granter */\n      dup3\n        /* \"permission.sol\":1803:1807  link */\n      0x00\n        /* \"permission.sol\":1803:1819  link[_requester] */\n      dup1\n        /* \"permission.sol\":1808:1818  _requester */\n      dup7\n        /* \"permission.sol\":1803:1819  link[_requester] */\n      0xffffffffffffffffffffffffffffffffffffffff\n      and\n      0xffffffffffffffffffffffffffffffffffffffff\n      and\n      dup2\n      mstore\n      0x20\n      add\n      swap1\n      dup2\n      mstore\n      0x20\n      add\n      0x00\n      keccak256\n      0x00\n        /* \"permission.sol\":1803:1830  link[_requester] = _granter */\n      0x0100\n      exp\n      dup2\n      sload\n      dup2\n      0xffffffffffffffffffffffffffffffffffffffff\n      mul\n      not\n      and\n      swap1\n      dup4\n      0xffffffffffffffffffffffffffffffffffffffff\n      and\n      mul\n      or\n      swap1\n      sstore\n      pop\n        /* \"permission.sol\":1881:1885  true */\n      0x01\n        /* \"permission.sol\":1845:1856  permissions */\n      dup1\n        /* \"permission.sol\":1845:1868  permissions[_requester] */\n      0x00\n        /* \"permission.sol\":1857:1867  _requester */\n      dup7\n        /* \"permission.sol\":1845:1868  permissions[_requester] */\n      0xffffffffffffffffffffffffffffffffffffffff\n      and\n      0xffffffffffffffffffffffffffffffffffffffff\n      and\n      dup2\n      mstore\n      0x20\n      add\n      swap1\n      dup2\n      mstore\n      0x20\n      add\n      0x00\n      keccak256\n        /* \"permission.sol\":1845:1878  permissions[_requester][_granter] */\n      0x00\n        /* \"permission.sol\":1869:1877  _granter */\n      dup6\n        /* \"permission.sol\":1845:1878  permissions[_requester][_granter] */\n      0xffffffffffffffffffffffffffffffffffffffff\n      and\n      0xffffffffffffffffffffffffffffffffffffffff\n      and\n      dup2\n      mstore\n      0x20\n      add\n      swap1\n      dup2\n      mstore\n      0x20\n      add\n      0x00\n      keccak256\n      0x00\n        /* \"permission.sol\":1845:1885  permissions[_requester][_granter] = true */\n      0x0100\n      exp\n      dup2\n      sload\n      dup2\n      0xff\n      mul\n      not\n      and\n      swap1\n      dup4\n      iszero\n      iszero\n      mul\n      or\n      swap1\n      sstore\n      pop\n        /* \"permission.sol\":1925:1997  NotifyGrant(_requester, _granter, _periodGranted, \"Permission granted!\") */\n      0x2ee7c8adc0838f6b61a1230e94b9df1b74a6f69fce2512071c0e3d203bef3c17\n        /* \"permission.sol\":1937:1947  _requester */\n      dup5\n        /* \"permission.sol\":1949:1957  _granter */\n      dup5\n        /* \"permission.sol\":1959:1973  _periodGranted */\n      dup4\n        /* \"permission.sol\":1925:1997  NotifyGrant(_requester, _granter, _periodGranted, \"Permission granted!\") */\n      mload(0x40)\n      tag_51\n      swap4\n      swap3\n      swap2\n      swap1\n      tag_52\n      jump\t// in\n    tag_51:\n      mload(0x40)\n      dup1\n      swap2\n      sub\n      swap1\n      log1\n        /* \"permission.sol\":1776:2120  if (_allow) {... */\n      jump(tag_53)\n    tag_50:\n        /* \"permission.sol\":2035:2091  NotifyDenial(_requester, _granter, \"Permission denied!\") */\n      0x049a5903248e93716700ebc87a8b629d727105d293e944db8cd931f94e2db8fa\n        /* \"permission.sol\":2048:2058  _requester */\n      dup5\n        /* \"permission.sol\":2060:2068  _granter */\n      dup5\n        /* \"permission.sol\":2035:2091  NotifyDenial(_requester, _granter, \"Permission denied!\") */\n      mload(0x40)\n      tag_54\n      swap3\n      swap2\n      swap1\n      tag_55\n      jump\t// in\n    tag_54:\n      mload(0x40)\n      dup1\n      swap2\n      sub\n      swap1\n      log1\n        /* \"permission.sol\":1776:2120  if (_allow) {... */\n    tag_53:\n        /* \"permission.sol\":1436:2127  function approvePermission(address _requester, address _granter, bool _allow, uint _periodGranted) public {... */\n      pop\n      pop\n      pop\n      pop\n      jump\t// out\n        /* \"permission.sol\":157:196  mapping(address => address) public link */\n    tag_30:\n      mstore(0x20, 0x00)\n      dup1\n      0x00\n      mstore\n      keccak256(0x00, 0x40)\n      0x00\n      swap2\n      pop\n      sload\n      swap1\n      0x0100\n      exp\n      swap1\n      div\n      0xffffffffffffffffffffffffffffffffffffffff\n      and\n      dup2\n      jump\t// out\n        /* \"permission.sol\":951:1381  function requestPermission(address _requester, address _granter, uint _periodReq) public {... */\n    tag_36:\n        /* \"permission.sol\":1059:1067  registry */\n      0x02\n      0x00\n      swap1\n      sload\n      swap1\n      0x0100\n      exp\n      swap1\n      div\n      0xffffffffffffffffffffffffffffffffffffffff\n      and\n        /* \"permission.sol\":1059:1077  registry.checkUser */\n      0xffffffffffffffffffffffffffffffffffffffff\n      and\n      0x1e9d48cf\n        /* \"permission.sol\":1078:1088  msg.sender */\n      caller\n        /* \"permission.sol\":1059:1089  registry.checkUser(msg.sender) */\n      mload(0x40)\n      dup3\n      0xffffffff\n      and\n      0xe0\n      shl\n      dup2\n      mstore\n      0x04\n      add\n      tag_57\n      swap2\n      swap1\n      tag_32\n      jump\t// in\n    tag_57:\n      0x20\n      mload(0x40)\n      dup1\n      dup4\n      sub\n      dup2\n      dup7\n      gas\n      staticcall\n      iszero\n      dup1\n      iszero\n      tag_59\n      jumpi\n      returndatasize\n      0x00\n      dup1\n      returndatacopy\n      revert(0x00, returndatasize)\n    tag_59:\n      pop\n      pop\n      pop\n      pop\n      mload(0x40)\n      returndatasize\n      not(0x1f)\n      0x1f\n      dup3\n      add\n      and\n      dup3\n      add\n      dup1\n      0x40\n      mstore\n      pop\n      dup2\n      add\n      swap1\n      tag_60\n      swap2\n      swap1\n      tag_43\n      jump\t// in\n    tag_60:\n        /* \"permission.sol\":1051:1117  require(registry.checkUser(msg.sender), \"You are not registered!\") */\n      tag_61\n      jumpi\n      mload(0x40)\n      0x08c379a000000000000000000000000000000000000000000000000000000000\n      dup2\n      mstore\n      0x04\n      add\n      tag_62\n      swap1\n      tag_46\n      jump\t// in\n    tag_62:\n      mload(0x40)\n      dup1\n      swap2\n      sub\n      swap1\n      revert\n    tag_61:\n        /* \"permission.sol\":1183:1193  _requester */\n      dup3\n        /* \"permission.sol\":1169:1193  msg.sender == _requester */\n      0xffffffffffffffffffffffffffffffffffffffff\n      and\n        /* \"permission.sol\":1169:1179  msg.sender */\n      caller\n        /* \"permission.sol\":1169:1193  msg.sender == _requester */\n      0xffffffffffffffffffffffffffffffffffffffff\n      and\n      eq\n        /* \"permission.sol\":1161:1228  require(msg.sender == _requester, \"You cannot request for others!\") */\n      tag_63\n      jumpi\n      mload(0x40)\n      0x08c379a000000000000000000000000000000000000000000000000000000000\n      dup2\n      mstore\n      0x04\n      add\n      tag_64\n      swap1\n      tag_65\n      jump\t// in\n    tag_64:\n      mload(0x40)\n      dup1\n      swap2\n      sub\n      swap1\n      revert\n    tag_63:\n        /* \"permission.sol\":1284:1373  NotifyRequest(_granter, _requester, _periodReq, \"You have a new request for permission.\") */\n      0x590522741d461aa90a2a74a3613dfb0062b407b81ef6d6d2ab5a1b53cb4fc4cb\n        /* \"permission.sol\":1298:1306  _granter */\n      dup3\n        /* \"permission.sol\":1308:1318  _requester */\n      dup5\n        /* \"permission.sol\":1320:1330  _periodReq */\n      dup4\n        /* \"permission.sol\":1284:1373  NotifyRequest(_granter, _requester, _periodReq, \"You have a new request for permission.\") */\n      mload(0x40)\n      tag_66\n      swap4\n      swap3\n      swap2\n      swap1\n      tag_67\n      jump\t// in\n    tag_66:\n      mload(0x40)\n      dup1\n      swap2\n      sub\n      swap1\n      log1\n        /* \"permission.sol\":951:1381  function requestPermission(address _requester, address _granter, uint _periodReq) public {... */\n      pop\n      pop\n      pop\n      jump\t// out\n        /* \"#utility.yul\":88:205   */\n    tag_69:\n        /* \"#utility.yul\":197:198   */\n      0x00\n        /* \"#utility.yul\":194:195   */\n      dup1\n        /* \"#utility.yul\":187:199   */\n      revert\n        /* \"#utility.yul\":334:460   */\n    tag_71:\n        /* \"#utility.yul\":371:378   */\n      0x00\n        /* \"#utility.yul\":411:453   */\n      0xffffffffffffffffffffffffffffffffffffffff\n        /* \"#utility.yul\":404:409   */\n      dup3\n        /* \"#utility.yul\":400:454   */\n      and\n        /* \"#utility.yul\":389:454   */\n      swap1\n      pop\n        /* \"#utility.yul\":334:460   */\n      swap2\n      swap1\n      pop\n      jump\t// out\n        /* \"#utility.yul\":466:562   */\n    tag_72:\n        /* \"#utility.yul\":503:510   */\n      0x00\n        /* \"#utility.yul\":532:556   */\n      tag_109\n        /* \"#utility.yul\":550:555   */\n      dup3\n        /* \"#utility.yul\":532:556   */\n      tag_71\n      jump\t// in\n    tag_109:\n        /* \"#utility.yul\":521:556   */\n      swap1\n      pop\n        /* \"#utility.yul\":466:562   */\n      swap2\n      swap1\n      pop\n      jump\t// out\n        /* \"#utility.yul\":568:690   */\n    tag_73:\n        /* \"#utility.yul\":641:665   */\n      tag_111\n        /* \"#utility.yul\":659:664   */\n      dup2\n        /* \"#utility.yul\":641:665   */\n      tag_72\n      jump\t// in\n    tag_111:\n        /* \"#utility.yul\":634:639   */\n      dup2\n        /* \"#utility.yul\":631:666   */\n      eq\n        /* \"#utility.yul\":621:684   */\n      tag_112\n      jumpi\n        /* \"#utility.yul\":680:681   */\n      0x00\n        /* \"#utility.yul\":677:678   */\n      dup1\n        /* \"#utility.yul\":670:682   */\n      revert\n        /* \"#utility.yul\":621:684   */\n    tag_112:\n        /* \"#utility.yul\":568:690   */\n      pop\n      jump\t// out\n        /* \"#utility.yul\":696:835   */\n    tag_74:\n        /* \"#utility.yul\":742:747   */\n      0x00\n        /* \"#utility.yul\":780:786   */\n      dup2\n        /* \"#utility.yul\":767:787   */\n      calldataload\n        /* \"#utility.yul\":758:787   */\n      swap1\n      pop\n        /* \"#utility.yul\":796:829   */\n      tag_114\n        /* \"#utility.yul\":823:828   */\n      dup2\n        /* \"#utility.yul\":796:829   */\n      tag_73\n      jump\t// in\n    tag_114:\n        /* \"#utility.yul\":696:835   */\n      swap3\n      swap2\n      pop\n      pop\n      jump\t// out\n        /* \"#utility.yul\":841:1315   */\n    tag_11:\n        /* \"#utility.yul\":909:915   */\n      0x00\n        /* \"#utility.yul\":917:923   */\n      dup1\n        /* \"#utility.yul\":966:968   */\n      0x40\n        /* \"#utility.yul\":954:963   */\n      dup4\n        /* \"#utility.yul\":945:952   */\n      dup6\n        /* \"#utility.yul\":941:964   */\n      sub\n        /* \"#utility.yul\":937:969   */\n      slt\n        /* \"#utility.yul\":934:1053   */\n      iszero\n      tag_116\n      jumpi\n        /* \"#utility.yul\":972:1051   */\n      tag_117\n      tag_69\n      jump\t// in\n    tag_117:\n        /* \"#utility.yul\":934:1053   */\n    tag_116:\n        /* \"#utility.yul\":1092:1093   */\n      0x00\n        /* \"#utility.yul\":1117:1170   */\n      tag_118\n        /* \"#utility.yul\":1162:1169   */\n      dup6\n        /* \"#utility.yul\":1153:1159   */\n      dup3\n        /* \"#utility.yul\":1142:1151   */\n      dup7\n        /* \"#utility.yul\":1138:1160   */\n      add\n        /* \"#utility.yul\":1117:1170   */\n      tag_74\n      jump\t// in\n    tag_118:\n        /* \"#utility.yul\":1107:1170   */\n      swap3\n      pop\n        /* \"#utility.yul\":1063:1180   */\n      pop\n        /* \"#utility.yul\":1219:1221   */\n      0x20\n        /* \"#utility.yul\":1245:1298   */\n      tag_119\n        /* \"#utility.yul\":1290:1297   */\n      dup6\n        /* \"#utility.yul\":1281:1287   */\n      dup3\n        /* \"#utility.yul\":1270:1279   */\n      dup7\n        /* \"#utility.yul\":1266:1288   */\n      add\n        /* \"#utility.yul\":1245:1298   */\n      tag_74\n      jump\t// in\n    tag_119:\n        /* \"#utility.yul\":1235:1298   */\n      swap2\n      pop\n        /* \"#utility.yul\":1190:1308   */\n      pop\n        /* \"#utility.yul\":841:1315   */\n      swap3\n      pop\n      swap3\n      swap1\n      pop\n      jump\t// out\n        /* \"#utility.yul\":1321:1411   */\n    tag_75:\n        /* \"#utility.yul\":1355:1362   */\n      0x00\n        /* \"#utility.yul\":1398:1403   */\n      dup2\n        /* \"#utility.yul\":1391:1404   */\n      iszero\n        /* \"#utility.yul\":1384:1405   */\n      iszero\n        /* \"#utility.yul\":1373:1405   */\n      swap1\n      pop\n        /* \"#utility.yul\":1321:1411   */\n      swap2\n      swap1\n      pop\n      jump\t// out\n        /* \"#utility.yul\":1417:1526   */\n    tag_76:\n        /* \"#utility.yul\":1498:1519   */\n      tag_122\n        /* \"#utility.yul\":1513:1518   */\n      dup2\n        /* \"#utility.yul\":1498:1519   */\n      tag_75\n      jump\t// in\n    tag_122:\n        /* \"#utility.yul\":1493:1496   */\n      dup3\n        /* \"#utility.yul\":1486:1520   */\n      mstore\n        /* \"#utility.yul\":1417:1526   */\n      pop\n      pop\n      jump\t// out\n        /* \"#utility.yul\":1532:1742   */\n    tag_14:\n        /* \"#utility.yul\":1619:1623   */\n      0x00\n        /* \"#utility.yul\":1657:1659   */\n      0x20\n        /* \"#utility.yul\":1646:1655   */\n      dup3\n        /* \"#utility.yul\":1642:1660   */\n      add\n        /* \"#utility.yul\":1634:1660   */\n      swap1\n      pop\n        /* \"#utility.yul\":1670:1735   */\n      tag_124\n        /* \"#utility.yul\":1732:1733   */\n      0x00\n        /* \"#utility.yul\":1721:1730   */\n      dup4\n        /* \"#utility.yul\":1717:1734   */\n      add\n        /* \"#utility.yul\":1708:1714   */\n      dup5\n        /* \"#utility.yul\":1670:1735   */\n      tag_76\n      jump\t// in\n    tag_124:\n        /* \"#utility.yul\":1532:1742   */\n      swap3\n      swap2\n      pop\n      pop\n      jump\t// out\n        /* \"#utility.yul\":1748:1808   */\n    tag_77:\n        /* \"#utility.yul\":1776:1779   */\n      0x00\n        /* \"#utility.yul\":1797:1802   */\n      dup2\n        /* \"#utility.yul\":1790:1802   */\n      swap1\n      pop\n        /* \"#utility.yul\":1748:1808   */\n      swap2\n      swap1\n      pop\n      jump\t// out\n        /* \"#utility.yul\":1814:1956   */\n    tag_78:\n        /* \"#utility.yul\":1864:1873   */\n      0x00\n        /* \"#utility.yul\":1897:1950   */\n      tag_127\n        /* \"#utility.yul\":1915:1949   */\n      tag_128\n        /* \"#utility.yul\":1924:1948   */\n      tag_129\n        /* \"#utility.yul\":1942:1947   */\n      dup5\n        /* \"#utility.yul\":1924:1948   */\n      tag_71\n      jump\t// in\n    tag_129:\n        /* \"#utility.yul\":1915:1949   */\n      tag_77\n      jump\t// in\n    tag_128:\n        /* \"#utility.yul\":1897:1950   */\n      tag_71\n      jump\t// in\n    tag_127:\n        /* \"#utility.yul\":1884:1950   */\n      swap1\n      pop\n        /* \"#utility.yul\":1814:1956   */\n      swap2\n      swap1\n      pop\n      jump\t// out\n        /* \"#utility.yul\":1962:2088   */\n    tag_79:\n        /* \"#utility.yul\":2012:2021   */\n      0x00\n        /* \"#utility.yul\":2045:2082   */\n      tag_131\n        /* \"#utility.yul\":2076:2081   */\n      dup3\n        /* \"#utility.yul\":2045:2082   */\n      tag_78\n      jump\t// in\n    tag_131:\n        /* \"#utility.yul\":2032:2082   */\n      swap1\n      pop\n        /* \"#utility.yul\":1962:2088   */\n      swap2\n      swap1\n      pop\n      jump\t// out\n        /* \"#utility.yul\":2094:2236   */\n    tag_80:\n        /* \"#utility.yul\":2160:2169   */\n      0x00\n        /* \"#utility.yul\":2193:2230   */\n      tag_133\n        /* \"#utility.yul\":2224:2229   */\n      dup3\n        /* \"#utility.yul\":2193:2230   */\n      tag_79\n      jump\t// in\n    tag_133:\n        /* \"#utility.yul\":2180:2230   */\n      swap1\n      pop\n        /* \"#utility.yul\":2094:2236   */\n      swap2\n      swap1\n      pop\n      jump\t// out\n        /* \"#utility.yul\":2242:2405   */\n    tag_81:\n        /* \"#utility.yul\":2345:2398   */\n      tag_135\n        /* \"#utility.yul\":2392:2397   */\n      dup2\n        /* \"#utility.yul\":2345:2398   */\n      tag_80\n      jump\t// in\n    tag_135:\n        /* \"#utility.yul\":2340:2343   */\n      dup3\n        /* \"#utility.yul\":2333:2399   */\n      mstore\n        /* \"#utility.yul\":2242:2405   */\n      pop\n      pop\n      jump\t// out\n        /* \"#utility.yul\":2411:2665   */\n    tag_22:\n        /* \"#utility.yul\":2520:2524   */\n      0x00\n        /* \"#utility.yul\":2558:2560   */\n      0x20\n        /* \"#utility.yul\":2547:2556   */\n      dup3\n        /* \"#utility.yul\":2543:2561   */\n      add\n        /* \"#utility.yul\":2535:2561   */\n      swap1\n      pop\n        /* \"#utility.yul\":2571:2658   */\n      tag_137\n        /* \"#utility.yul\":2655:2656   */\n      0x00\n        /* \"#utility.yul\":2644:2653   */\n      dup4\n        /* \"#utility.yul\":2640:2657   */\n      add\n        /* \"#utility.yul\":2631:2637   */\n      dup5\n        /* \"#utility.yul\":2571:2658   */\n      tag_81\n      jump\t// in\n    tag_137:\n        /* \"#utility.yul\":2411:2665   */\n      swap3\n      swap2\n      pop\n      pop\n      jump\t// out\n        /* \"#utility.yul\":2671:2787   */\n    tag_82:\n        /* \"#utility.yul\":2741:2762   */\n      tag_139\n        /* \"#utility.yul\":2756:2761   */\n      dup2\n        /* \"#utility.yul\":2741:2762   */\n      tag_75\n      jump\t// in\n    tag_139:\n        /* \"#utility.yul\":2734:2739   */\n      dup2\n        /* \"#utility.yul\":2731:2763   */\n      eq\n        /* \"#utility.yul\":2721:2781   */\n      tag_140\n      jumpi\n        /* \"#utility.yul\":2777:2778   */\n      0x00\n        /* \"#utility.yul\":2774:2775   */\n      dup1\n        /* \"#utility.yul\":2767:2779   */\n      revert\n        /* \"#utility.yul\":2721:2781   */\n    tag_140:\n        /* \"#utility.yul\":2671:2787   */\n      pop\n      jump\t// out\n        /* \"#utility.yul\":2793:2926   */\n    tag_83:\n        /* \"#utility.yul\":2836:2841   */\n      0x00\n        /* \"#utility.yul\":2874:2880   */\n      dup2\n        /* \"#utility.yul\":2861:2881   */\n      calldataload\n        /* \"#utility.yul\":2852:2881   */\n      swap1\n      pop\n        /* \"#utility.yul\":2890:2920   */\n      tag_142\n        /* \"#utility.yul\":2914:2919   */\n      dup2\n        /* \"#utility.yul\":2890:2920   */\n      tag_82\n      jump\t// in\n    tag_142:\n        /* \"#utility.yul\":2793:2926   */\n      swap3\n      swap2\n      pop\n      pop\n      jump\t// out\n        /* \"#utility.yul\":2932:3009   */\n    tag_84:\n        /* \"#utility.yul\":2969:2976   */\n      0x00\n        /* \"#utility.yul\":2998:3003   */\n      dup2\n        /* \"#utility.yul\":2987:3003   */\n      swap1\n      pop\n        /* \"#utility.yul\":2932:3009   */\n      swap2\n      swap1\n      pop\n      jump\t// out\n        /* \"#utility.yul\":3015:3137   */\n    tag_85:\n        /* \"#utility.yul\":3088:3112   */\n      tag_145\n        /* \"#utility.yul\":3106:3111   */\n      dup2\n        /* \"#utility.yul\":3088:3112   */\n      tag_84\n      jump\t// in\n    tag_145:\n        /* \"#utility.yul\":3081:3086   */\n      dup2\n        /* \"#utility.yul\":3078:3113   */\n      eq\n        /* \"#utility.yul\":3068:3131   */\n      tag_146\n      jumpi\n        /* \"#utility.yul\":3127:3128   */\n      0x00\n        /* \"#utility.yul\":3124:3125   */\n      dup1\n        /* \"#utility.yul\":3117:3129   */\n      revert\n        /* \"#utility.yul\":3068:3131   */\n    tag_146:\n        /* \"#utility.yul\":3015:3137   */\n      pop\n      jump\t// out\n        /* \"#utility.yul\":3143:3282   */\n    tag_86:\n        /* \"#utility.yul\":3189:3194   */\n      0x00\n        /* \"#utility.yul\":3227:3233   */\n      dup2\n        /* \"#utility.yul\":3214:3234   */\n      calldataload\n        /* \"#utility.yul\":3205:3234   */\n      swap1\n      pop\n        /* \"#utility.yul\":3243:3276   */\n      tag_148\n        /* \"#utility.yul\":3270:3275   */\n      dup2\n        /* \"#utility.yul\":3243:3276   */\n      tag_85\n      jump\t// in\n    tag_148:\n        /* \"#utility.yul\":3143:3282   */\n      swap3\n      swap2\n      pop\n      pop\n      jump\t// out\n        /* \"#utility.yul\":3288:4047   */\n    tag_25:\n        /* \"#utility.yul\":3371:3377   */\n      0x00\n        /* \"#utility.yul\":3379:3385   */\n      dup1\n        /* \"#utility.yul\":3387:3393   */\n      0x00\n        /* \"#utility.yul\":3395:3401   */\n      dup1\n        /* \"#utility.yul\":3444:3447   */\n      0x80\n        /* \"#utility.yul\":3432:3441   */\n      dup6\n        /* \"#utility.yul\":3423:3430   */\n      dup8\n        /* \"#utility.yul\":3419:3442   */\n      sub\n        /* \"#utility.yul\":3415:3448   */\n      slt\n        /* \"#utility.yul\":3412:3532   */\n      iszero\n      tag_150\n      jumpi\n        /* \"#utility.yul\":3451:3530   */\n      tag_151\n      tag_69\n      jump\t// in\n    tag_151:\n        /* \"#utility.yul\":3412:3532   */\n    tag_150:\n        /* \"#utility.yul\":3571:3572   */\n      0x00\n        /* \"#utility.yul\":3596:3649   */\n      tag_152\n        /* \"#utility.yul\":3641:3648   */\n      dup8\n        /* \"#utility.yul\":3632:3638   */\n      dup3\n        /* \"#utility.yul\":3621:3630   */\n      dup9\n        /* \"#utility.yul\":3617:3639   */\n      add\n        /* \"#utility.yul\":3596:3649   */\n      tag_74\n      jump\t// in\n    tag_152:\n        /* \"#utility.yul\":3586:3649   */\n      swap5\n      pop\n        /* \"#utility.yul\":3542:3659   */\n      pop\n        /* \"#utility.yul\":3698:3700   */\n      0x20\n        /* \"#utility.yul\":3724:3777   */\n      tag_153\n        /* \"#utility.yul\":3769:3776   */\n      dup8\n        /* \"#utility.yul\":3760:3766   */\n      dup3\n        /* \"#utility.yul\":3749:3758   */\n      dup9\n        /* \"#utility.yul\":3745:3767   */\n      add\n        /* \"#utility.yul\":3724:3777   */\n      tag_74\n      jump\t// in\n    tag_153:\n        /* \"#utility.yul\":3714:3777   */\n      swap4\n      pop\n        /* \"#utility.yul\":3669:3787   */\n      pop\n        /* \"#utility.yul\":3826:3828   */\n      0x40\n        /* \"#utility.yul\":3852:3902   */\n      tag_154\n        /* \"#utility.yul\":3894:3901   */\n      dup8\n        /* \"#utility.yul\":3885:3891   */\n      dup3\n        /* \"#utility.yul\":3874:3883   */\n      dup9\n        /* \"#utility.yul\":3870:3892   */\n      add\n        /* \"#utility.yul\":3852:3902   */\n      tag_83\n      jump\t// in\n    tag_154:\n        /* \"#utility.yul\":3842:3902   */\n      swap3\n      pop\n        /* \"#utility.yul\":3797:3912   */\n      pop\n        /* \"#utility.yul\":3951:3953   */\n      0x60\n        /* \"#utility.yul\":3977:4030   */\n      tag_155\n        /* \"#utility.yul\":4022:4029   */\n      dup8\n        /* \"#utility.yul\":4013:4019   */\n      dup3\n        /* \"#utility.yul\":4002:4011   */\n      dup9\n        /* \"#utility.yul\":3998:4020   */\n      add\n        /* \"#utility.yul\":3977:4030   */\n      tag_86\n      jump\t// in\n    tag_155:\n        /* \"#utility.yul\":3967:4030   */\n      swap2\n      pop\n        /* \"#utility.yul\":3922:4040   */\n      pop\n        /* \"#utility.yul\":3288:4047   */\n      swap3\n      swap6\n      swap2\n      swap5\n      pop\n      swap3\n      pop\n      jump\t// out\n        /* \"#utility.yul\":4053:4382   */\n    tag_29:\n        /* \"#utility.yul\":4112:4118   */\n      0x00\n        /* \"#utility.yul\":4161:4163   */\n      0x20\n        /* \"#utility.yul\":4149:4158   */\n      dup3\n        /* \"#utility.yul\":4140:4147   */\n      dup5\n        /* \"#utility.yul\":4136:4159   */\n      sub\n        /* \"#utility.yul\":4132:4164   */\n      slt\n        /* \"#utility.yul\":4129:4248   */\n      iszero\n      tag_157\n      jumpi\n        /* \"#utility.yul\":4167:4246   */\n      tag_158\n      tag_69\n      jump\t// in\n    tag_158:\n        /* \"#utility.yul\":4129:4248   */\n    tag_157:\n        /* \"#utility.yul\":4287:4288   */\n      0x00\n        /* \"#utility.yul\":4312:4365   */\n      tag_159\n        /* \"#utility.yul\":4357:4364   */\n      dup5\n        /* \"#utility.yul\":4348:4354   */\n      dup3\n        /* \"#utility.yul\":4337:4346   */\n      dup6\n        /* \"#utility.yul\":4333:4355   */\n      add\n        /* \"#utility.yul\":4312:4365   */\n      tag_74\n      jump\t// in\n    tag_159:\n        /* \"#utility.yul\":4302:4365   */\n      swap2\n      pop\n        /* \"#utility.yul\":4258:4375   */\n      pop\n        /* \"#utility.yul\":4053:4382   */\n      swap3\n      swap2\n      pop\n      pop\n      jump\t// out\n        /* \"#utility.yul\":4388:4506   */\n    tag_87:\n        /* \"#utility.yul\":4475:4499   */\n      tag_161\n        /* \"#utility.yul\":4493:4498   */\n      dup2\n        /* \"#utility.yul\":4475:4499   */\n      tag_72\n      jump\t// in\n    tag_161:\n        /* \"#utility.yul\":4470:4473   */\n      dup3\n        /* \"#utility.yul\":4463:4500   */\n      mstore\n        /* \"#utility.yul\":4388:4506   */\n      pop\n      pop\n      jump\t// out\n        /* \"#utility.yul\":4512:4734   */\n    tag_32:\n        /* \"#utility.yul\":4605:4609   */\n      0x00\n        /* \"#utility.yul\":4643:4645   */\n      0x20\n        /* \"#utility.yul\":4632:4641   */\n      dup3\n        /* \"#utility.yul\":4628:4646   */\n      add\n        /* \"#utility.yul\":4620:4646   */\n      swap1\n      pop\n        /* \"#utility.yul\":4656:4727   */\n      tag_163\n        /* \"#utility.yul\":4724:4725   */\n      0x00\n        /* \"#utility.yul\":4713:4722   */\n      dup4\n        /* \"#utility.yul\":4709:4726   */\n      add\n        /* \"#utility.yul\":4700:4706   */\n      dup5\n        /* \"#utility.yul\":4656:4727   */\n      tag_87\n      jump\t// in\n    tag_163:\n        /* \"#utility.yul\":4512:4734   */\n      swap3\n      swap2\n      pop\n      pop\n      jump\t// out\n        /* \"#utility.yul\":4740:5359   */\n    tag_35:\n        /* \"#utility.yul\":4817:4823   */\n      0x00\n        /* \"#utility.yul\":4825:4831   */\n      dup1\n        /* \"#utility.yul\":4833:4839   */\n      0x00\n        /* \"#utility.yul\":4882:4884   */\n      0x60\n        /* \"#utility.yul\":4870:4879   */\n      dup5\n        /* \"#utility.yul\":4861:4868   */\n      dup7\n        /* \"#utility.yul\":4857:4880   */\n      sub\n        /* \"#utility.yul\":4853:4885   */\n      slt\n        /* \"#utility.yul\":4850:4969   */\n      iszero\n      tag_165\n      jumpi\n        /* \"#utility.yul\":4888:4967   */\n      tag_166\n      tag_69\n      jump\t// in\n    tag_166:\n        /* \"#utility.yul\":4850:4969   */\n    tag_165:\n        /* \"#utility.yul\":5008:5009   */\n      0x00\n        /* \"#utility.yul\":5033:5086   */\n      tag_167\n        /* \"#utility.yul\":5078:5085   */\n      dup7\n        /* \"#utility.yul\":5069:5075   */\n      dup3\n        /* \"#utility.yul\":5058:5067   */\n      dup8\n        /* \"#utility.yul\":5054:5076   */\n      add\n        /* \"#utility.yul\":5033:5086   */\n      tag_74\n      jump\t// in\n    tag_167:\n        /* \"#utility.yul\":5023:5086   */\n      swap4\n      pop\n        /* \"#utility.yul\":4979:5096   */\n      pop\n        /* \"#utility.yul\":5135:5137   */\n      0x20\n        /* \"#utility.yul\":5161:5214   */\n      tag_168\n        /* \"#utility.yul\":5206:5213   */\n      dup7\n        /* \"#utility.yul\":5197:5203   */\n      dup3\n        /* \"#utility.yul\":5186:5195   */\n      dup8\n        /* \"#utility.yul\":5182:5204   */\n      add\n        /* \"#utility.yul\":5161:5214   */\n      tag_74\n      jump\t// in\n    tag_168:\n        /* \"#utility.yul\":5151:5214   */\n      swap3\n      pop\n        /* \"#utility.yul\":5106:5224   */\n      pop\n        /* \"#utility.yul\":5263:5265   */\n      0x40\n        /* \"#utility.yul\":5289:5342   */\n      tag_169\n        /* \"#utility.yul\":5334:5341   */\n      dup7\n        /* \"#utility.yul\":5325:5331   */\n      dup3\n        /* \"#utility.yul\":5314:5323   */\n      dup8\n        /* \"#utility.yul\":5310:5332   */\n      add\n        /* \"#utility.yul\":5289:5342   */\n      tag_86\n      jump\t// in\n    tag_169:\n        /* \"#utility.yul\":5279:5342   */\n      swap2\n      pop\n        /* \"#utility.yul\":5234:5352   */\n      pop\n        /* \"#utility.yul\":4740:5359   */\n      swap3\n      pop\n      swap3\n      pop\n      swap3\n      jump\t// out\n        /* \"#utility.yul\":5365:5502   */\n    tag_88:\n        /* \"#utility.yul\":5419:5424   */\n      0x00\n        /* \"#utility.yul\":5450:5456   */\n      dup2\n        /* \"#utility.yul\":5444:5457   */\n      mload\n        /* \"#utility.yul\":5435:5457   */\n      swap1\n      pop\n        /* \"#utility.yul\":5466:5496   */\n      tag_171\n        /* \"#utility.yul\":5490:5495   */\n      dup2\n        /* \"#utility.yul\":5466:5496   */\n      tag_82\n      jump\t// in\n    tag_171:\n        /* \"#utility.yul\":5365:5502   */\n      swap3\n      swap2\n      pop\n      pop\n      jump\t// out\n        /* \"#utility.yul\":5508:5853   */\n    tag_43:\n        /* \"#utility.yul\":5575:5581   */\n      0x00\n        /* \"#utility.yul\":5624:5626   */\n      0x20\n        /* \"#utility.yul\":5612:5621   */\n      dup3\n        /* \"#utility.yul\":5603:5610   */\n      dup5\n        /* \"#utility.yul\":5599:5622   */\n      sub\n        /* \"#utility.yul\":5595:5627   */\n      slt\n        /* \"#utility.yul\":5592:5711   */\n      iszero\n      tag_173\n      jumpi\n        /* \"#utility.yul\":5630:5709   */\n      tag_174\n      tag_69\n      jump\t// in\n    tag_174:\n        /* \"#utility.yul\":5592:5711   */\n    tag_173:\n        /* \"#utility.yul\":5750:5751   */\n      0x00\n        /* \"#utility.yul\":5775:5836   */\n      tag_175\n        /* \"#utility.yul\":5828:5835   */\n      dup5\n        /* \"#utility.yul\":5819:5825   */\n      dup3\n        /* \"#utility.yul\":5808:5817   */\n      dup6\n        /* \"#utility.yul\":5804:5826   */\n      add\n        /* \"#utility.yul\":5775:5836   */\n      tag_88\n      jump\t// in\n    tag_175:\n        /* \"#utility.yul\":5765:5836   */\n      swap2\n      pop\n        /* \"#utility.yul\":5721:5846   */\n      pop\n        /* \"#utility.yul\":5508:5853   */\n      swap3\n      swap2\n      pop\n      pop\n      jump\t// out\n        /* \"#utility.yul\":5859:6028   */\n    tag_89:\n        /* \"#utility.yul\":5943:5954   */\n      0x00\n        /* \"#utility.yul\":5977:5983   */\n      dup3\n        /* \"#utility.yul\":5972:5975   */\n      dup3\n        /* \"#utility.yul\":5965:5984   */\n      mstore\n        /* \"#utility.yul\":6017:6021   */\n      0x20\n        /* \"#utility.yul\":6012:6015   */\n      dup3\n        /* \"#utility.yul\":6008:6022   */\n      add\n        /* \"#utility.yul\":5993:6022   */\n      swap1\n      pop\n        /* \"#utility.yul\":5859:6028   */\n      swap3\n      swap2\n      pop\n      pop\n      jump\t// out\n        /* \"#utility.yul\":6034:6207   */\n    tag_90:\n        /* \"#utility.yul\":6174:6199   */\n      0x596f7520617265206e6f74207265676973746572656421000000000000000000\n        /* \"#utility.yul\":6170:6171   */\n      0x00\n        /* \"#utility.yul\":6162:6168   */\n      dup3\n        /* \"#utility.yul\":6158:6172   */\n      add\n        /* \"#utility.yul\":6151:6200   */\n      mstore\n        /* \"#utility.yul\":6034:6207   */\n      pop\n      jump\t// out\n        /* \"#utility.yul\":6213:6579   */\n    tag_91:\n        /* \"#utility.yul\":6355:6358   */\n      0x00\n        /* \"#utility.yul\":6376:6443   */\n      tag_179\n        /* \"#utility.yul\":6440:6442   */\n      0x17\n        /* \"#utility.yul\":6435:6438   */\n      dup4\n        /* \"#utility.yul\":6376:6443   */\n      tag_89\n      jump\t// in\n    tag_179:\n        /* \"#utility.yul\":6369:6443   */\n      swap2\n      pop\n        /* \"#utility.yul\":6452:6545   */\n      tag_180\n        /* \"#utility.yul\":6541:6544   */\n      dup3\n        /* \"#utility.yul\":6452:6545   */\n      tag_90\n      jump\t// in\n    tag_180:\n        /* \"#utility.yul\":6570:6572   */\n      0x20\n        /* \"#utility.yul\":6565:6568   */\n      dup3\n        /* \"#utility.yul\":6561:6573   */\n      add\n        /* \"#utility.yul\":6554:6573   */\n      swap1\n      pop\n        /* \"#utility.yul\":6213:6579   */\n      swap2\n      swap1\n      pop\n      jump\t// out\n        /* \"#utility.yul\":6585:7004   */\n    tag_46:\n        /* \"#utility.yul\":6751:6755   */\n      0x00\n        /* \"#utility.yul\":6789:6791   */\n      0x20\n        /* \"#utility.yul\":6778:6787   */\n      dup3\n        /* \"#utility.yul\":6774:6792   */\n      add\n        /* \"#utility.yul\":6766:6792   */\n      swap1\n      pop\n        /* \"#utility.yul\":6838:6847   */\n      dup2\n        /* \"#utility.yul\":6832:6836   */\n      dup2\n        /* \"#utility.yul\":6828:6848   */\n      sub\n        /* \"#utility.yul\":6824:6825   */\n      0x00\n        /* \"#utility.yul\":6813:6822   */\n      dup4\n        /* \"#utility.yul\":6809:6826   */\n      add\n        /* \"#utility.yul\":6802:6849   */\n      mstore\n        /* \"#utility.yul\":6866:6997   */\n      tag_182\n        /* \"#utility.yul\":6992:6996   */\n      dup2\n        /* \"#utility.yul\":6866:6997   */\n      tag_91\n      jump\t// in\n    tag_182:\n        /* \"#utility.yul\":6858:6997   */\n      swap1\n      pop\n        /* \"#utility.yul\":6585:7004   */\n      swap2\n      swap1\n      pop\n      jump\t// out\n        /* \"#utility.yul\":7010:7189   */\n    tag_92:\n        /* \"#utility.yul\":7150:7181   */\n      0x596f752063616e6e6f74207065726d697420666f72206f746865727321000000\n        /* \"#utility.yul\":7146:7147   */\n      0x00\n        /* \"#utility.yul\":7138:7144   */\n      dup3\n        /* \"#utility.yul\":7134:7148   */\n      add\n        /* \"#utility.yul\":7127:7182   */\n      mstore\n        /* \"#utility.yul\":7010:7189   */\n      pop\n      jump\t// out\n        /* \"#utility.yul\":7195:7561   */\n    tag_93:\n        /* \"#utility.yul\":7337:7340   */\n      0x00\n        /* \"#utility.yul\":7358:7425   */\n      tag_185\n        /* \"#utility.yul\":7422:7424   */\n      0x1d\n        /* \"#utility.yul\":7417:7420   */\n      dup4\n        /* \"#utility.yul\":7358:7425   */\n      tag_89\n      jump\t// in\n    tag_185:\n        /* \"#utility.yul\":7351:7425   */\n      swap2\n      pop\n        /* \"#utility.yul\":7434:7527   */\n      tag_186\n        /* \"#utility.yul\":7523:7526   */\n      dup3\n        /* \"#utility.yul\":7434:7527   */\n      tag_92\n      jump\t// in\n    tag_186:\n        /* \"#utility.yul\":7552:7554   */\n      0x20\n        /* \"#utility.yul\":7547:7550   */\n      dup3\n        /* \"#utility.yul\":7543:7555   */\n      add\n        /* \"#utility.yul\":7536:7555   */\n      swap1\n      pop\n        /* \"#utility.yul\":7195:7561   */\n      swap2\n      swap1\n      pop\n      jump\t// out\n        /* \"#utility.yul\":7567:7986   */\n    tag_49:\n        /* \"#utility.yul\":7733:7737   */\n      0x00\n        /* \"#utility.yul\":7771:7773   */\n      0x20\n        /* \"#utility.yul\":7760:7769   */\n      dup3\n        /* \"#utility.yul\":7756:7774   */\n      add\n        /* \"#utility.yul\":7748:7774   */\n      swap1\n      pop\n        /* \"#utility.yul\":7820:7829   */\n      dup2\n        /* \"#utility.yul\":7814:7818   */\n      dup2\n        /* \"#utility.yul\":7810:7830   */\n      sub\n        /* \"#utility.yul\":7806:7807   */\n      0x00\n        /* \"#utility.yul\":7795:7804   */\n      dup4\n        /* \"#utility.yul\":7791:7808   */\n      add\n        /* \"#utility.yul\":7784:7831   */\n      mstore\n        /* \"#utility.yul\":7848:7979   */\n      tag_188\n        /* \"#utility.yul\":7974:7978   */\n      dup2\n        /* \"#utility.yul\":7848:7979   */\n      tag_93\n      jump\t// in\n    tag_188:\n        /* \"#utility.yul\":7840:7979   */\n      swap1\n      pop\n        /* \"#utility.yul\":7567:7986   */\n      swap2\n      swap1\n      pop\n      jump\t// out\n        /* \"#utility.yul\":7992:8110   */\n    tag_94:\n        /* \"#utility.yul\":8079:8103   */\n      tag_190\n        /* \"#utility.yul\":8097:8102   */\n      dup2\n        /* \"#utility.yul\":8079:8103   */\n      tag_84\n      jump\t// in\n    tag_190:\n        /* \"#utility.yul\":8074:8077   */\n      dup3\n        /* \"#utility.yul\":8067:8104   */\n      mstore\n        /* \"#utility.yul\":7992:8110   */\n      pop\n      pop\n      jump\t// out\n        /* \"#utility.yul\":8116:8285   */\n    tag_95:\n        /* \"#utility.yul\":8256:8277   */\n      0x5065726d697373696f6e206772616e7465642100000000000000000000000000\n        /* \"#utility.yul\":8252:8253   */\n      0x00\n        /* \"#utility.yul\":8244:8250   */\n      dup3\n        /* \"#utility.yul\":8240:8254   */\n      add\n        /* \"#utility.yul\":8233:8278   */\n      mstore\n        /* \"#utility.yul\":8116:8285   */\n      pop\n      jump\t// out\n        /* \"#utility.yul\":8291:8657   */\n    tag_96:\n        /* \"#utility.yul\":8433:8436   */\n      0x00\n        /* \"#utility.yul\":8454:8521   */\n      tag_193\n        /* \"#utility.yul\":8518:8520   */\n      0x13\n        /* \"#utility.yul\":8513:8516   */\n      dup4\n        /* \"#utility.yul\":8454:8521   */\n      tag_89\n      jump\t// in\n    tag_193:\n        /* \"#utility.yul\":8447:8521   */\n      swap2\n      pop\n        /* \"#utility.yul\":8530:8623   */\n      tag_194\n        /* \"#utility.yul\":8619:8622   */\n      dup3\n        /* \"#utility.yul\":8530:8623   */\n      tag_95\n      jump\t// in\n    tag_194:\n        /* \"#utility.yul\":8648:8650   */\n      0x20\n        /* \"#utility.yul\":8643:8646   */\n      dup3\n        /* \"#utility.yul\":8639:8651   */\n      add\n        /* \"#utility.yul\":8632:8651   */\n      swap1\n      pop\n        /* \"#utility.yul\":8291:8657   */\n      swap2\n      swap1\n      pop\n      jump\t// out\n        /* \"#utility.yul\":8663:9413   */\n    tag_52:\n        /* \"#utility.yul\":8913:8917   */\n      0x00\n        /* \"#utility.yul\":8951:8954   */\n      0x80\n        /* \"#utility.yul\":8940:8949   */\n      dup3\n        /* \"#utility.yul\":8936:8955   */\n      add\n        /* \"#utility.yul\":8928:8955   */\n      swap1\n      pop\n        /* \"#utility.yul\":8965:9036   */\n      tag_196\n        /* \"#utility.yul\":9033:9034   */\n      0x00\n        /* \"#utility.yul\":9022:9031   */\n      dup4\n        /* \"#utility.yul\":9018:9035   */\n      add\n        /* \"#utility.yul\":9009:9015   */\n      dup7\n        /* \"#utility.yul\":8965:9036   */\n      tag_87\n      jump\t// in\n    tag_196:\n        /* \"#utility.yul\":9046:9118   */\n      tag_197\n        /* \"#utility.yul\":9114:9116   */\n      0x20\n        /* \"#utility.yul\":9103:9112   */\n      dup4\n        /* \"#utility.yul\":9099:9117   */\n      add\n        /* \"#utility.yul\":9090:9096   */\n      dup6\n        /* \"#utility.yul\":9046:9118   */\n      tag_87\n      jump\t// in\n    tag_197:\n        /* \"#utility.yul\":9128:9200   */\n      tag_198\n        /* \"#utility.yul\":9196:9198   */\n      0x40\n        /* \"#utility.yul\":9185:9194   */\n      dup4\n        /* \"#utility.yul\":9181:9199   */\n      add\n        /* \"#utility.yul\":9172:9178   */\n      dup5\n        /* \"#utility.yul\":9128:9200   */\n      tag_94\n      jump\t// in\n    tag_198:\n        /* \"#utility.yul\":9247:9256   */\n      dup2\n        /* \"#utility.yul\":9241:9245   */\n      dup2\n        /* \"#utility.yul\":9237:9257   */\n      sub\n        /* \"#utility.yul\":9232:9234   */\n      0x60\n        /* \"#utility.yul\":9221:9230   */\n      dup4\n        /* \"#utility.yul\":9217:9235   */\n      add\n        /* \"#utility.yul\":9210:9258   */\n      mstore\n        /* \"#utility.yul\":9275:9406   */\n      tag_199\n        /* \"#utility.yul\":9401:9405   */\n      dup2\n        /* \"#utility.yul\":9275:9406   */\n      tag_96\n      jump\t// in\n    tag_199:\n        /* \"#utility.yul\":9267:9406   */\n      swap1\n      pop\n        /* \"#utility.yul\":8663:9413   */\n      swap5\n      swap4\n      pop\n      pop\n      pop\n      pop\n      jump\t// out\n        /* \"#utility.yul\":9419:9587   */\n    tag_97:\n        /* \"#utility.yul\":9559:9579   */\n      0x5065726d697373696f6e2064656e696564210000000000000000000000000000\n        /* \"#utility.yul\":9555:9556   */\n      0x00\n        /* \"#utility.yul\":9547:9553   */\n      dup3\n        /* \"#utility.yul\":9543:9557   */\n      add\n        /* \"#utility.yul\":9536:9580   */\n      mstore\n        /* \"#utility.yul\":9419:9587   */\n      pop\n      jump\t// out\n        /* \"#utility.yul\":9593:9959   */\n    tag_98:\n        /* \"#utility.yul\":9735:9738   */\n      0x00\n        /* \"#utility.yul\":9756:9823   */\n      tag_202\n        /* \"#utility.yul\":9820:9822   */\n      0x12\n        /* \"#utility.yul\":9815:9818   */\n      dup4\n        /* \"#utility.yul\":9756:9823   */\n      tag_89\n      jump\t// in\n    tag_202:\n        /* \"#utility.yul\":9749:9823   */\n      swap2\n      pop\n        /* \"#utility.yul\":9832:9925   */\n      tag_203\n        /* \"#utility.yul\":9921:9924   */\n      dup3\n        /* \"#utility.yul\":9832:9925   */\n      tag_97\n      jump\t// in\n    tag_203:\n        /* \"#utility.yul\":9950:9952   */\n      0x20\n        /* \"#utility.yul\":9945:9948   */\n      dup3\n        /* \"#utility.yul\":9941:9953   */\n      add\n        /* \"#utility.yul\":9934:9953   */\n      swap1\n      pop\n        /* \"#utility.yul\":9593:9959   */\n      swap2\n      swap1\n      pop\n      jump\t// out\n        /* \"#utility.yul\":9965:10604   */\n    tag_55:\n        /* \"#utility.yul\":10187:10191   */\n      0x00\n        /* \"#utility.yul\":10225:10227   */\n      0x60\n        /* \"#utility.yul\":10214:10223   */\n      dup3\n        /* \"#utility.yul\":10210:10228   */\n      add\n        /* \"#utility.yul\":10202:10228   */\n      swap1\n      pop\n        /* \"#utility.yul\":10238:10309   */\n      tag_205\n        /* \"#utility.yul\":10306:10307   */\n      0x00\n        /* \"#utility.yul\":10295:10304   */\n      dup4\n        /* \"#utility.yul\":10291:10308   */\n      add\n        /* \"#utility.yul\":10282:10288   */\n      dup6\n        /* \"#utility.yul\":10238:10309   */\n      tag_87\n      jump\t// in\n    tag_205:\n        /* \"#utility.yul\":10319:10391   */\n      tag_206\n        /* \"#utility.yul\":10387:10389   */\n      0x20\n        /* \"#utility.yul\":10376:10385   */\n      dup4\n        /* \"#utility.yul\":10372:10390   */\n      add\n        /* \"#utility.yul\":10363:10369   */\n      dup5\n        /* \"#utility.yul\":10319:10391   */\n      tag_87\n      jump\t// in\n    tag_206:\n        /* \"#utility.yul\":10438:10447   */\n      dup2\n        /* \"#utility.yul\":10432:10436   */\n      dup2\n        /* \"#utility.yul\":10428:10448   */\n      sub\n        /* \"#utility.yul\":10423:10425   */\n      0x40\n        /* \"#utility.yul\":10412:10421   */\n      dup4\n        /* \"#utility.yul\":10408:10426   */\n      add\n        /* \"#utility.yul\":10401:10449   */\n      mstore\n        /* \"#utility.yul\":10466:10597   */\n      tag_207\n        /* \"#utility.yul\":10592:10596   */\n      dup2\n        /* \"#utility.yul\":10466:10597   */\n      tag_98\n      jump\t// in\n    tag_207:\n        /* \"#utility.yul\":10458:10597   */\n      swap1\n      pop\n        /* \"#utility.yul\":9965:10604   */\n      swap4\n      swap3\n      pop\n      pop\n      pop\n      jump\t// out\n        /* \"#utility.yul\":10610:10790   */\n    tag_99:\n        /* \"#utility.yul\":10750:10782   */\n      0x596f752063616e6e6f74207265717565737420666f72206f7468657273210000\n        /* \"#utility.yul\":10746:10747   */\n      0x00\n        /* \"#utility.yul\":10738:10744   */\n      dup3\n        /* \"#utility.yul\":10734:10748   */\n      add\n        /* \"#utility.yul\":10727:10783   */\n      mstore\n        /* \"#utility.yul\":10610:10790   */\n      pop\n      jump\t// out\n        /* \"#utility.yul\":10796:11162   */\n    tag_100:\n        /* \"#utility.yul\":10938:10941   */\n      0x00\n        /* \"#utility.yul\":10959:11026   */\n      tag_210\n        /* \"#utility.yul\":11023:11025   */\n      0x1e\n        /* \"#utility.yul\":11018:11021   */\n      dup4\n        /* \"#utility.yul\":10959:11026   */\n      tag_89\n      jump\t// in\n    tag_210:\n        /* \"#utility.yul\":10952:11026   */\n      swap2\n      pop\n        /* \"#utility.yul\":11035:11128   */\n      tag_211\n        /* \"#utility.yul\":11124:11127   */\n      dup3\n        /* \"#utility.yul\":11035:11128   */\n      tag_99\n      jump\t// in\n    tag_211:\n        /* \"#utility.yul\":11153:11155   */\n      0x20\n        /* \"#utility.yul\":11148:11151   */\n      dup3\n        /* \"#utility.yul\":11144:11156   */\n      add\n        /* \"#utility.yul\":11137:11156   */\n      swap1\n      pop\n        /* \"#utility.yul\":10796:11162   */\n      swap2\n      swap1\n      pop\n      jump\t// out\n        /* \"#utility.yul\":11168:11587   */\n    tag_65:\n        /* \"#utility.yul\":11334:11338   */\n      0x00\n        /* \"#utility.yul\":11372:11374   */\n      0x20\n        /* \"#utility.yul\":11361:11370   */\n      dup3\n        /* \"#utility.yul\":11357:11375   */\n      add\n        /* \"#utility.yul\":11349:11375   */\n      swap1\n      pop\n        /* \"#utility.yul\":11421:11430   */\n      dup2\n        /* \"#utility.yul\":11415:11419   */\n      dup2\n        /* \"#utility.yul\":11411:11431   */\n      sub\n        /* \"#utility.yul\":11407:11408   */\n      0x00\n        /* \"#utility.yul\":11396:11405   */\n      dup4\n        /* \"#utility.yul\":11392:11409   */\n      add\n        /* \"#utility.yul\":11385:11432   */\n      mstore\n        /* \"#utility.yul\":11449:11580   */\n      tag_213\n        /* \"#utility.yul\":11575:11579   */\n      dup2\n        /* \"#utility.yul\":11449:11580   */\n      tag_100\n      jump\t// in\n    tag_213:\n        /* \"#utility.yul\":11441:11580   */\n      swap1\n      pop\n        /* \"#utility.yul\":11168:11587   */\n      swap2\n      swap1\n      pop\n      jump\t// out\n        /* \"#utility.yul\":11593:11818   */\n    tag_101:\n        /* \"#utility.yul\":11733:11767   */\n      0x596f7520686176652061206e6577207265717565737420666f72207065726d69\n        /* \"#utility.yul\":11729:11730   */\n      0x00\n        /* \"#utility.yul\":11721:11727   */\n      dup3\n        /* \"#utility.yul\":11717:11731   */\n      add\n        /* \"#utility.yul\":11710:11768   */\n      mstore\n        /* \"#utility.yul\":11802:11810   */\n      0x7373696f6e2e0000000000000000000000000000000000000000000000000000\n        /* \"#utility.yul\":11797:11799   */\n      0x20\n        /* \"#utility.yul\":11789:11795   */\n      dup3\n        /* \"#utility.yul\":11785:11800   */\n      add\n        /* \"#utility.yul\":11778:11811   */\n      mstore\n        /* \"#utility.yul\":11593:11818   */\n      pop\n      jump\t// out\n        /* \"#utility.yul\":11824:12190   */\n    tag_102:\n        /* \"#utility.yul\":11966:11969   */\n      0x00\n        /* \"#utility.yul\":11987:12054   */\n      tag_216\n        /* \"#utility.yul\":12051:12053   */\n      0x26\n        /* \"#utility.yul\":12046:12049   */\n      dup4\n        /* \"#utility.yul\":11987:12054   */\n      tag_89\n      jump\t// in\n    tag_216:\n        /* \"#utility.yul\":11980:12054   */\n      swap2\n      pop\n        /* \"#utility.yul\":12063:12156   */\n      tag_217\n        /* \"#utility.yul\":12152:12155   */\n      dup3\n        /* \"#utility.yul\":12063:12156   */\n      tag_101\n      jump\t// in\n    tag_217:\n        /* \"#utility.yul\":12181:12183   */\n      0x40\n        /* \"#utility.yul\":12176:12179   */\n      dup3\n        /* \"#utility.yul\":12172:12184   */\n      add\n        /* \"#utility.yul\":12165:12184   */\n      swap1\n      pop\n        /* \"#utility.yul\":11824:12190   */\n      swap2\n      swap1\n      pop\n      jump\t// out\n        /* \"#utility.yul\":12196:12946   */\n    tag_67:\n        /* \"#utility.yul\":12446:12450   */\n      0x00\n        /* \"#utility.yul\":12484:12487   */\n      0x80\n        /* \"#utility.yul\":12473:12482   */\n      dup3\n        /* \"#utility.yul\":12469:12488   */\n      add\n        /* \"#utility.yul\":12461:12488   */\n      swap1\n      pop\n        /* \"#utility.yul\":12498:12569   */\n      tag_219\n        /* \"#utility.yul\":12566:12567   */\n      0x00\n        /* \"#utility.yul\":12555:12564   */\n      dup4\n        /* \"#utility.yul\":12551:12568   */\n      add\n        /* \"#utility.yul\":12542:12548   */\n      dup7\n        /* \"#utility.yul\":12498:12569   */\n      tag_87\n      jump\t// in\n    tag_219:\n        /* \"#utility.yul\":12579:12651   */\n      tag_220\n        /* \"#utility.yul\":12647:12649   */\n      0x20\n        /* \"#utility.yul\":12636:12645   */\n      dup4\n        /* \"#utility.yul\":12632:12650   */\n      add\n        /* \"#utility.yul\":12623:12629   */\n      dup6\n        /* \"#utility.yul\":12579:12651   */\n      tag_87\n      jump\t// in\n    tag_220:\n        /* \"#utility.yul\":12661:12733   */\n      tag_221\n        /* \"#utility.yul\":12729:12731   */\n      0x40\n        /* \"#utility.yul\":12718:12727   */\n      dup4\n        /* \"#utility.yul\":12714:12732   */\n      add\n        /* \"#utility.yul\":12705:12711   */\n      dup5\n        /* \"#utility.yul\":12661:12733   */\n      tag_94\n      jump\t// in\n    tag_221:\n        /* \"#utility.yul\":12780:12789   */\n      dup2\n        /* \"#utility.yul\":12774:12778   */\n      dup2\n        /* \"#utility.yul\":12770:12790   */\n      sub\n        /* \"#utility.yul\":12765:12767   */\n      0x60\n        /* \"#utility.yul\":12754:12763   */\n      dup4\n        /* \"#utility.yul\":12750:12768   */\n      add\n        /* \"#utility.yul\":12743:12791   */\n      mstore\n        /* \"#utility.yul\":12808:12939   */\n      tag_222\n        /* \"#utility.yul\":12934:12938   */\n      dup2\n        /* \"#utility.yul\":12808:12939   */\n      tag_102\n      jump\t// in\n    tag_222:\n        /* \"#utility.yul\":12800:12939   */\n      swap1\n      pop\n        /* \"#utility.yul\":12196:12946   */\n      swap5\n      swap4\n      pop\n      pop\n      pop\n      pop\n      jump\t// out\n\n    auxdata: 0xa2646970667358221220138bead1be2c0d06b062b47965b1c8264aa14ad4b31d1aef9d4ca92be0b810a764736f6c634300080a0033\n}\n",
    "bytecode": {
      "linkReferences": {},
      "object": "608060405234801561001057600080fd5b50604051610e66380380610e66833981810160405281019061003291906100dc565b80600260006101000a81548173ffffffffffffffffffffffffffffffffffffffff021916908373ffffffffffffffffffffffffffffffffffffffff16021790555050610109565b600080fd5b600073ffffffffffffffffffffffffffffffffffffffff82169050919050565b60006100a98261007e565b9050919050565b6100b98161009e565b81146100c457600080fd5b50565b6000815190506100d6816100b0565b92915050565b6000602082840312156100f2576100f1610079565b5b6000610100848285016100c7565b91505092915050565b610d4e806101186000396000f3fe608060405234801561001057600080fd5b50600436106100625760003560e01c80631a160fe9146100675780631f9838b5146100975780637b103999146100c75780637cb8d3e1146100e557806391a8971214610101578063a84001ea14610131575b600080fd5b610081600480360381019061007c9190610735565b61014d565b60405161008e9190610790565b60405180910390f35b6100b160048036038101906100ac9190610735565b6101e1565b6040516100be9190610790565b60405180910390f35b6100cf610210565b6040516100dc919061080a565b60405180910390f35b6100ff60048036038101906100fa9190610887565b610236565b005b61011b600480360381019061011691906108ee565b610516565b604051610128919061092a565b60405180910390f35b61014b60048036038101906101469190610945565b610549565b005b6000600160008473ffffffffffffffffffffffffffffffffffffffff1673ffffffffffffffffffffffffffffffffffffffff16815260200190815260200160002060008373ffffffffffffffffffffffffffffffffffffffff1673ffffffffffffffffffffffffffffffffffffffff16815260200190815260200160002060009054906101000a900460ff16905092915050565b60016020528160005260406000206020528060005260406000206000915091509054906101000a900460ff1681565b600260009054906101000a900473ffffffffffffffffffffffffffffffffffffffff1681565b600260009054906101000a900473ffffffffffffffffffffffffffffffffffffffff1673ffffffffffffffffffffffffffffffffffffffff16631e9d48cf336040518263ffffffff1660e01b8152600401610291919061092a565b602060405180830381865afa1580156102ae573d6000803e3d6000fd5b505050506040513d601f19601f820116820180604052508101906102d291906109ad565b610311576040517f08c379a000000000000000000000000000000000000000000000000000000000815260040161030890610a37565b60405180910390fd5b8273ffffffffffffffffffffffffffffffffffffffff163373ffffffffffffffffffffffffffffffffffffffff161461037f576040517f08c379a000000000000000000000000000000000000000000000000000000000815260040161037690610aa3565b60405180910390fd5b81156104d657826000808673ffffffffffffffffffffffffffffffffffffffff1673ffffffffffffffffffffffffffffffffffffffff16815260200190815260200160002060006101000a81548173ffffffffffffffffffffffffffffffffffffffff021916908373ffffffffffffffffffffffffffffffffffffffff16021790555060018060008673ffffffffffffffffffffffffffffffffffffffff1673ffffffffffffffffffffffffffffffffffffffff16815260200190815260200160002060008573ffffffffffffffffffffffffffffffffffffffff1673ffffffffffffffffffffffffffffffffffffffff16815260200190815260200160002060006101000a81548160ff0219169083151502179055507f2ee7c8adc0838f6b61a1230e94b9df1b74a6f69fce2512071c0e3d203bef3c178484836040516104c993929190610b1e565b60405180910390a1610510565b7f049a5903248e93716700ebc87a8b629d727105d293e944db8cd931f94e2db8fa8484604051610507929190610bb4565b60405180910390a15b50505050565b60006020528060005260406000206000915054906101000a900473ffffffffffffffffffffffffffffffffffffffff1681565b600260009054906101000a900473ffffffffffffffffffffffffffffffffffffffff1673ffffffffffffffffffffffffffffffffffffffff16631e9d48cf336040518263ffffffff1660e01b81526004016105a4919061092a565b602060405180830381865afa1580156105c1573d6000803e3d6000fd5b505050506040513d601f19601f820116820180604052508101906105e591906109ad565b610624576040517f08c379a000000000000000000000000000000000000000000000000000000000815260040161061b90610a37565b60405180910390fd5b8273ffffffffffffffffffffffffffffffffffffffff163373ffffffffffffffffffffffffffffffffffffffff1614610692576040517f08c379a000000000000000000000000000000000000000000000000000000000815260040161068990610c3c565b60405180910390fd5b7f590522741d461aa90a2a74a3613dfb0062b407b81ef6d6d2ab5a1b53cb4fc4cb8284836040516106c593929190610cce565b60405180910390a1505050565b600080fd5b600073ffffffffffffffffffffffffffffffffffffffff82169050919050565b6000610702826106d7565b9050919050565b610712816106f7565b811461071d57600080fd5b50565b60008135905061072f81610709565b92915050565b6000806040838503121561074c5761074b6106d2565b5b600061075a85828601610720565b925050602061076b85828601610720565b9150509250929050565b60008115159050919050565b61078a81610775565b82525050565b60006020820190506107a56000830184610781565b92915050565b6000819050919050565b60006107d06107cb6107c6846106d7565b6107ab565b6106d7565b9050919050565b60006107e2826107b5565b9050919050565b60006107f4826107d7565b9050919050565b610804816107e9565b82525050565b600060208201905061081f60008301846107fb565b92915050565b61082e81610775565b811461083957600080fd5b50565b60008135905061084b81610825565b92915050565b6000819050919050565b61086481610851565b811461086f57600080fd5b50565b6000813590506108818161085b565b92915050565b600080600080608085870312156108a1576108a06106d2565b5b60006108af87828801610720565b94505060206108c087828801610720565b93505060406108d18782880161083c565b92505060606108e287828801610872565b91505092959194509250565b600060208284031215610904576109036106d2565b5b600061091284828501610720565b91505092915050565b610924816106f7565b82525050565b600060208201905061093f600083018461091b565b92915050565b60008060006060848603121561095e5761095d6106d2565b5b600061096c86828701610720565b935050602061097d86828701610720565b925050604061098e86828701610872565b9150509250925092565b6000815190506109a781610825565b92915050565b6000602082840312156109c3576109c26106d2565b5b60006109d184828501610998565b91505092915050565b600082825260208201905092915050565b7f596f7520617265206e6f74207265676973746572656421000000000000000000600082015250565b6000610a216017836109da565b9150610a2c826109eb565b602082019050919050565b60006020820190508181036000830152610a5081610a14565b9050919050565b7f596f752063616e6e6f74207065726d697420666f72206f746865727321000000600082015250565b6000610a8d601d836109da565b9150610a9882610a57565b602082019050919050565b60006020820190508181036000830152610abc81610a80565b9050919050565b610acc81610851565b82525050565b7f5065726d697373696f6e206772616e7465642100000000000000000000000000600082015250565b6000610b086013836109da565b9150610b1382610ad2565b602082019050919050565b6000608082019050610b33600083018661091b565b610b40602083018561091b565b610b4d6040830184610ac3565b8181036060830152610b5e81610afb565b9050949350505050565b7f5065726d697373696f6e2064656e696564210000000000000000000000000000600082015250565b6000610b9e6012836109da565b9150610ba982610b68565b602082019050919050565b6000606082019050610bc9600083018561091b565b610bd6602083018461091b565b8181036040830152610be781610b91565b90509392505050565b7f596f752063616e6e6f74207265717565737420666f72206f7468657273210000600082015250565b6000610c26601e836109da565b9150610c3182610bf0565b602082019050919050565b60006020820190508181036000830152610c5581610c19565b9050919050565b7f596f7520686176652061206e6577207265717565737420666f72207065726d6960008201527f7373696f6e2e0000000000000000000000000000000000000000000000000000602082015250565b6000610cb86026836109da565b9150610cc382610c5c565b604082019050919050565b6000608082019050610ce3600083018661091b565b610cf0602083018561091b565b610cfd6040830184610ac3565b8181036060830152610d0e81610cab565b905094935050505056fea2646970667358221220138bead1be2c0d06b062b47965b1c8264aa14ad4b31d1aef9d4ca92be0b810a764736f6c634300080a0033",
      "opcodes": "PUSH1 0x80 PUSH1 0x40 MSTORE CALLVALUE DUP1 ISZERO PUSH2 0x10 JUMPI PUSH1 0x0 DUP1 REVERT JUMPDEST POP PUSH1 0x40 MLOAD PUSH2 0xE66 CODESIZE SUB DUP1 PUSH2 0xE66 DUP4 CODECOPY DUP2 DUP2 ADD PUSH1 0x40 MSTORE DUP2 ADD SWAP1 PUSH2 0x32 SWAP2 SWAP1 PUSH2 0xDC JUMP JUMPDEST DUP1 PUSH1 0x2 PUSH1 0x0 PUSH2 0x100 EXP DUP2 SLOAD DUP2 PUSH20 0xFFFFFFFFFFFFFFFFFFFFFFFFFFFFFFFFFFFFFFFF MUL NOT AND SWAP1 DUP4 PUSH20 0xFFFFFFFFFFFFFFFFFFFFFFFFFFFFFFFFFFFFFFFF AND MUL OR SWAP1 SSTORE POP POP PUSH2 0x109 JUMP JUMPDEST PUSH1 0x0 DUP1 REVERT JUMPDEST PUSH1 0x0 PUSH20 0xFFFFFFFFFFFFFFFFFFFFFFFFFFFFFFFFFFFFFFFF DUP3 AND SWAP1 POP SWAP2 SWAP1 POP JUMP JUMPDEST PUSH1 0x0 PUSH2 0xA9 DUP3 PUSH2 0x7E JUMP JUMPDEST SWAP1 POP SWAP2 SWAP1 POP JUMP JUMPDEST PUSH2 0xB9 DUP2 PUSH2 0x9E JUMP JUMPDEST DUP2 EQ PUSH2 0xC4 JUMPI PUSH1 0x0 DUP1 REVERT JUMPDEST POP JUMP JUMPDEST PUSH1 0x0 DUP2 MLOAD SWAP1 POP PUSH2 0xD6 DUP2 PUSH2 0xB0 JUMP JUMPDEST SWAP3 SWAP2 POP POP JUMP JUMPDEST PUSH1 0x0 PUSH1 0x20 DUP3 DUP5 SUB SLT ISZERO PUSH2 0xF2 JUMPI PUSH2 0xF1 PUSH2 0x79 JUMP JUMPDEST JUMPDEST PUSH1 0x0 PUSH2 0x100 DUP5 DUP3 DUP6 ADD PUSH2 0xC7 JUMP JUMPDEST SWAP2 POP POP SWAP3 SWAP2 POP POP JUMP JUMPDEST PUSH2 0xD4E DUP1 PUSH2 0x118 PUSH1 0x0 CODECOPY PUSH1 0x0 RETURN INVALID PUSH1 0x80 PUSH1 0x40 MSTORE CALLVALUE DUP1 ISZERO PUSH2 0x10 JUMPI PUSH1 0x0 DUP1 REVERT JUMPDEST POP PUSH1 0x4 CALLDATASIZE LT PUSH2 0x62 JUMPI PUSH1 0x0 CALLDATALOAD PUSH1 0xE0 SHR DUP1 PUSH4 0x1A160FE9 EQ PUSH2 0x67 JUMPI DUP1 PUSH4 0x1F9838B5 EQ PUSH2 0x97 JUMPI DUP1 PUSH4 0x7B103999 EQ PUSH2 0xC7 JUMPI DUP1 PUSH4 0x7CB8D3E1 EQ PUSH2 0xE5 JUMPI DUP1 PUSH4 0x91A89712 EQ PUSH2 0x101 JUMPI DUP1 PUSH4 0xA84001EA EQ PUSH2 0x131 JUMPI JUMPDEST PUSH1 0x0 DUP1 REVERT JUMPDEST PUSH2 0x81 PUSH1 0x4 DUP1 CALLDATASIZE SUB DUP2 ADD SWAP1 PUSH2 0x7C SWAP2 SWAP1 PUSH2 0x735 JUMP JUMPDEST PUSH2 0x14D JUMP JUMPDEST PUSH1 0x40 MLOAD PUSH2 0x8E SWAP2 SWAP1 PUSH2 0x790 JUMP JUMPDEST PUSH1 0x40 MLOAD DUP1 SWAP2 SUB SWAP1 RETURN JUMPDEST PUSH2 0xB1 PUSH1 0x4 DUP1 CALLDATASIZE SUB DUP2 ADD SWAP1 PUSH2 0xAC SWAP2 SWAP1 PUSH2 0x735 JUMP JUMPDEST PUSH2 0x1E1 JUMP JUMPDEST PUSH1 0x40 MLOAD PUSH2 0xBE SWAP2 SWAP1 PUSH2 0x790 JUMP JUMPDEST PUSH1 0x40 MLOAD DUP1 SWAP2 SUB SWAP1 RETURN JUMPDEST PUSH2 0xCF PUSH2 0x210 JUMP JUMPDEST PUSH1 0x40 MLOAD PUSH2 0xDC SWAP2 SWAP1 PUSH2 0x80A JUMP JUMPDEST PUSH1 0x40 MLOAD DUP1 SWAP2 SUB SWAP1 RETURN JUMPDEST PUSH2 0xFF PUSH1 0x4 DUP1 CALLDATASIZE SUB DUP2 ADD SWAP1 PUSH2 0xFA SWAP2 SWAP1 PUSH2 0x887 JUMP JUMPDEST PUSH2 0x236 JUMP JUMPDEST STOP JUMPDEST PUSH2 0x11B PUSH1 0x4 DUP1 CALLDATASIZE SUB DUP2 ADD SWAP1 PUSH2 0x116 SWAP2 SWAP1 PUSH2 0x8EE JUMP JUMPDEST PUSH2 0x516 JUMP JUMPDEST PUSH1 0x40 MLOAD PUSH2 0x128 SWAP2 SWAP1 PUSH2 0x92A JUMP JUMPDEST PUSH1 0x40 MLOAD DUP1 SWAP2 SUB SWAP1 RETURN JUMPDEST PUSH2 0x14B PUSH1 0x4 DUP1 CALLDATASIZE SUB DUP2 ADD SWAP1 PUSH2 0x146 SWAP2 SWAP1 PUSH2 0x945 JUMP JUMPDEST PUSH2 0x549 JUMP JUMPDEST STOP JUMPDEST PUSH1 0x0 PUSH1 0x1 PUSH1 0x0 DUP5 PUSH20 0xFFFFFFFFFFFFFFFFFFFFFFFFFFFFFFFFFFFFFFFF AND PUSH20 0xFFFFFFFFFFFFFFFFFFFFFFFFFFFFFFFFFFFFFFFF AND DUP2 MSTORE PUSH1 0x20 ADD SWAP1 DUP2 MSTORE PUSH1 0x20 ADD PUSH1 0x0 KECCAK256 PUSH1 0x0 DUP4 PUSH20 0xFFFFFFFFFFFFFFFFFFFFFFFFFFFFFFFFFFFFFFFF AND PUSH20 0xFFFFFFFFFFFFFFFFFFFFFFFFFFFFFFFFFFFFFFFF AND DUP2 MSTORE PUSH1 0x20 ADD SWAP1 DUP2 MSTORE PUSH1 0x20 ADD PUSH1 0x0 KECCAK256 PUSH1 0x0 SWAP1 SLOAD SWAP1 PUSH2 0x100 EXP SWAP1 DIV PUSH1 0xFF AND SWAP1 POP SWAP3 SWAP2 POP POP JUMP JUMPDEST PUSH1 0x1 PUSH1 0x20 MSTORE DUP2 PUSH1 0x0 MSTORE PUSH1 0x40 PUSH1 0x0 KECCAK256 PUSH1 0x20 MSTORE DUP1 PUSH1 0x0 MSTORE PUSH1 0x40 PUSH1 0x0 KECCAK256 PUSH1 0x0 SWAP2 POP SWAP2 POP SWAP1 SLOAD SWAP1 PUSH2 0x100 EXP SWAP1 DIV PUSH1 0xFF AND DUP2 JUMP JUMPDEST PUSH1 0x2 PUSH1 0x0 SWAP1 SLOAD SWAP1 PUSH2 0x100 EXP SWAP1 DIV PUSH20 0xFFFFFFFFFFFFFFFFFFFFFFFFFFFFFFFFFFFFFFFF AND DUP2 JUMP JUMPDEST PUSH1 0x2 PUSH1 0x0 SWAP1 SLOAD SWAP1 PUSH2 0x100 EXP SWAP1 DIV PUSH20 0xFFFFFFFFFFFFFFFFFFFFFFFFFFFFFFFFFFFFFFFF AND PUSH20 0xFFFFFFFFFFFFFFFFFFFFFFFFFFFFFFFFFFFFFFFF AND PUSH4 0x1E9D48CF CALLER PUSH1 0x40 MLOAD DUP3 PUSH4 0xFFFFFFFF AND PUSH1 0xE0 SHL DUP2 MSTORE PUSH1 0x4 ADD PUSH2 0x291 SWAP2 SWAP1 PUSH2 0x92A JUMP JUMPDEST PUSH1 0x20 PUSH1 0x40 MLOAD DUP1 DUP4 SUB DUP2 DUP7 GAS STATICCALL ISZERO DUP1 ISZERO PUSH2 0x2AE JUMPI RETURNDATASIZE PUSH1 0x0 DUP1 RETURNDATACOPY RETURNDATASIZE PUSH1 0x0 REVERT JUMPDEST POP POP POP POP PUSH1 0x40 MLOAD RETURNDATASIZE PUSH1 0x1F NOT PUSH1 0x1F DUP3 ADD AND DUP3 ADD DUP1 PUSH1 0x40 MSTORE POP DUP2 ADD SWAP1 PUSH2 0x2D2 SWAP2 SWAP1 PUSH2 0x9AD JUMP JUMPDEST PUSH2 0x311 JUMPI PUSH1 0x40 MLOAD PUSH32 0x8C379A000000000000000000000000000000000000000000000000000000000 DUP2 MSTORE PUSH1 0x4 ADD PUSH2 0x308 SWAP1 PUSH2 0xA37 JUMP JUMPDEST PUSH1 0x40 MLOAD DUP1 SWAP2 SUB SWAP1 REVERT JUMPDEST DUP3 PUSH20 0xFFFFFFFFFFFFFFFFFFFFFFFFFFFFFFFFFFFFFFFF AND CALLER PUSH20 0xFFFFFFFFFFFFFFFFFFFFFFFFFFFFFFFFFFFFFFFF AND EQ PUSH2 0x37F JUMPI PUSH1 0x40 MLOAD PUSH32 0x8C379A000000000000000000000000000000000000000000000000000000000 DUP2 MSTORE PUSH1 0x4 ADD PUSH2 0x376 SWAP1 PUSH2 0xAA3 JUMP JUMPDEST PUSH1 0x40 MLOAD DUP1 SWAP2 SUB SWAP1 REVERT JUMPDEST DUP2 ISZERO PUSH2 0x4D6 JUMPI DUP3 PUSH1 0x0 DUP1 DUP7 PUSH20 0xFFFFFFFFFFFFFFFFFFFFFFFFFFFFFFFFFFFFFFFF AND PUSH20 0xFFFFFFFFFFFFFFFFFFFFFFFFFFFFFFFFFFFFFFFF AND DUP2 MSTORE PUSH1 0x20 ADD SWAP1 DUP2 MSTORE PUSH1 0x20 ADD PUSH1 0x0 KECCAK256 PUSH1 0x0 PUSH2 0x100 EXP DUP2 SLOAD DUP2 PUSH20 0xFFFFFFFFFFFFFFFFFFFFFFFFFFFFFFFFFFFFFFFF MUL NOT AND SWAP1 DUP4 PUSH20 0xFFFFFFFFFFFFFFFFFFFFFFFFFFFFFFFFFFFFFFFF AND MUL OR SWAP1 SSTORE POP PUSH1 0x1 DUP1 PUSH1 0x0 DUP7 PUSH20 0xFFFFFFFFFFFFFFFFFFFFFFFFFFFFFFFFFFFFFFFF AND PUSH20 0xFFFFFFFFFFFFFFFFFFFFFFFFFFFFFFFFFFFFFFFF AND DUP2 MSTORE PUSH1 0x20 ADD SWAP1 DUP2 MSTORE PUSH1 0x20 ADD PUSH1 0x0 KECCAK256 PUSH1 0x0 DUP6 PUSH20 0xFFFFFFFFFFFFFFFFFFFFFFFFFFFFFFFFFFFFFFFF AND PUSH20 0xFFFFFFFFFFFFFFFFFFFFFFFFFFFFFFFFFFFFFFFF AND DUP2 MSTORE PUSH1 0x20 ADD SWAP1 DUP2 MSTORE PUSH1 0x20 ADD PUSH1 0x0 KECCAK256 PUSH1 0x0 PUSH2 0x100 EXP DUP2 SLOAD DUP2 PUSH1 0xFF MUL NOT AND SWAP1 DUP4 ISZERO ISZERO MUL OR SWAP1 SSTORE POP PUSH32 0x2EE7C8ADC0838F6B61A1230E94B9DF1B74A6F69FCE2512071C0E3D203BEF3C17 DUP5 DUP5 DUP4 PUSH1 0x40 MLOAD PUSH2 0x4C9 SWAP4 SWAP3 SWAP2 SWAP1 PUSH2 0xB1E JUMP JUMPDEST PUSH1 0x40 MLOAD DUP1 SWAP2 SUB SWAP1 LOG1 PUSH2 0x510 JUMP JUMPDEST PUSH32 0x49A5903248E93716700EBC87A8B629D727105D293E944DB8CD931F94E2DB8FA DUP5 DUP5 PUSH1 0x40 MLOAD PUSH2 0x507 SWAP3 SWAP2 SWAP1 PUSH2 0xBB4 JUMP JUMPDEST PUSH1 0x40 MLOAD DUP1 SWAP2 SUB SWAP1 LOG1 JUMPDEST POP POP POP POP JUMP JUMPDEST PUSH1 0x0 PUSH1 0x20 MSTORE DUP1 PUSH1 0x0 MSTORE PUSH1 0x40 PUSH1 0x0 KECCAK256 PUSH1 0x0 SWAP2 POP SLOAD SWAP1 PUSH2 0x100 EXP SWAP1 DIV PUSH20 0xFFFFFFFFFFFFFFFFFFFFFFFFFFFFFFFFFFFFFFFF AND DUP2 JUMP JUMPDEST PUSH1 0x2 PUSH1 0x0 SWAP1 SLOAD SWAP1 PUSH2 0x100 EXP SWAP1 DIV PUSH20 0xFFFFFFFFFFFFFFFFFFFFFFFFFFFFFFFFFFFFFFFF AND PUSH20 0xFFFFFFFFFFFFFFFFFFFFFFFFFFFFFFFFFFFFFFFF AND PUSH4 0x1E9D48CF CALLER PUSH1 0x40 MLOAD DUP3 PUSH4 0xFFFFFFFF AND PUSH1 0xE0 SHL DUP2 MSTORE PUSH1 0x4 ADD PUSH2 0x5A4 SWAP2 SWAP1 PUSH2 0x92A JUMP JUMPDEST PUSH1 0x20 PUSH1 0x40 MLOAD DUP1 DUP4 SUB DUP2 DUP7 GAS STATICCALL ISZERO DUP1 ISZERO PUSH2 0x5C1 JUMPI RETURNDATASIZE PUSH1 0x0 DUP1 RETURNDATACOPY RETURNDATASIZE PUSH1 0x0 REVERT JUMPDEST POP POP POP POP PUSH1 0x40 MLOAD RETURNDATASIZE PUSH1 0x1F NOT PUSH1 0x1F DUP3 ADD AND DUP3 ADD DUP1 PUSH1 0x40 MSTORE POP DUP2 ADD SWAP1 PUSH2 0x5E5 SWAP2 SWAP1 PUSH2 0x9AD JUMP JUMPDEST PUSH2 0x624 JUMPI PUSH1 0x40 MLOAD PUSH32 0x8C379A000000000000000000000000000000000000000000000000000000000 DUP2 MSTORE PUSH1 0x4 ADD PUSH2 0x61B SWAP1 PUSH2 0xA37 JUMP JUMPDEST PUSH1 0x40 MLOAD DUP1 SWAP2 SUB SWAP1 REVERT JUMPDEST DUP3 PUSH20 0xFFFFFFFFFFFFFFFFFFFFFFFFFFFFFFFFFFFFFFFF AND CALLER PUSH20 0xFFFFFFFFFFFFFFFFFFFFFFFFFFFFFFFFFFFFFFFF AND EQ PUSH2 0x692 JUMPI PUSH1 0x40 MLOAD PUSH32 0x8C379A000000000000000000000000000000000000000000000000000000000 DUP2 MSTORE PUSH1 0x4 ADD PUSH2 0x689 SWAP1 PUSH2 0xC3C JUMP JUMPDEST PUSH1 0x40 MLOAD DUP1 SWAP2 SUB SWAP1 REVERT JUMPDEST PUSH32 0x590522741D461AA90A2A74A3613DFB0062B407B81EF6D6D2AB5A1B53CB4FC4CB DUP3 DUP5 DUP4 PUSH1 0x40 MLOAD PUSH2 0x6C5 SWAP4 SWAP3 SWAP2 SWAP1 PUSH2 0xCCE JUMP JUMPDEST PUSH1 0x40 MLOAD DUP1 SWAP2 SUB SWAP1 LOG1 POP POP POP JUMP JUMPDEST PUSH1 0x0 DUP1 REVERT JUMPDEST PUSH1 0x0 PUSH20 0xFFFFFFFFFFFFFFFFFFFFFFFFFFFFFFFFFFFFFFFF DUP3 AND SWAP1 POP SWAP2 SWAP1 POP JUMP JUMPDEST PUSH1 0x0 PUSH2 0x702 DUP3 PUSH2 0x6D7 JUMP JUMPDEST SWAP1 POP SWAP2 SWAP1 POP JUMP JUMPDEST PUSH2 0x712 DUP2 PUSH2 0x6F7 JUMP JUMPDEST DUP2 EQ PUSH2 0x71D JUMPI PUSH1 0x0 DUP1 REVERT JUMPDEST POP JUMP JUMPDEST PUSH1 0x0 DUP2 CALLDATALOAD SWAP1 POP PUSH2 0x72F DUP2 PUSH2 0x709 JUMP JUMPDEST SWAP3 SWAP2 POP POP JUMP JUMPDEST PUSH1 0x0 DUP1 PUSH1 0x40 DUP4 DUP6 SUB SLT ISZERO PUSH2 0x74C JUMPI PUSH2 0x74B PUSH2 0x6D2 JUMP JUMPDEST JUMPDEST PUSH1 0x0 PUSH2 0x75A DUP6 DUP3 DUP7 ADD PUSH2 0x720 JUMP JUMPDEST SWAP3 POP POP PUSH1 0x20 PUSH2 0x76B DUP6 DUP3 DUP7 ADD PUSH2 0x720 JUMP JUMPDEST SWAP2 POP POP SWAP3 POP SWAP3 SWAP1 POP JUMP JUMPDEST PUSH1 0x0 DUP2 ISZERO ISZERO SWAP1 POP SWAP2 SWAP1 POP JUMP JUMPDEST PUSH2 0x78A DUP2 PUSH2 0x775 JUMP JUMPDEST DUP3 MSTORE POP POP JUMP JUMPDEST PUSH1 0x0 PUSH1 0x20 DUP3 ADD SWAP1 POP PUSH2 0x7A5 PUSH1 0x0 DUP4 ADD DUP5 PUSH2 0x781 JUMP JUMPDEST SWAP3 SWAP2 POP POP JUMP JUMPDEST PUSH1 0x0 DUP2 SWAP1 POP SWAP2 SWAP1 POP JUMP JUMPDEST PUSH1 0x0 PUSH2 0x7D0 PUSH2 0x7CB PUSH2 0x7C6 DUP5 PUSH2 0x6D7 JUMP JUMPDEST PUSH2 0x7AB JUMP JUMPDEST PUSH2 0x6D7 JUMP JUMPDEST SWAP1 POP SWAP2 SWAP1 POP JUMP JUMPDEST PUSH1 0x0 PUSH2 0x7E2 DUP3 PUSH2 0x7B5 JUMP JUMPDEST SWAP1 POP SWAP2 SWAP1 POP JUMP JUMPDEST PUSH1 0x0 PUSH2 0x7F4 DUP3 PUSH2 0x7D7 JUMP JUMPDEST SWAP1 POP SWAP2 SWAP1 POP JUMP JUMPDEST PUSH2 0x804 DUP2 PUSH2 0x7E9 JUMP JUMPDEST DUP3 MSTORE POP POP JUMP JUMPDEST PUSH1 0x0 PUSH1 0x20 DUP3 ADD SWAP1 POP PUSH2 0x81F PUSH1 0x0 DUP4 ADD DUP5 PUSH2 0x7FB JUMP JUMPDEST SWAP3 SWAP2 POP POP JUMP JUMPDEST PUSH2 0x82E DUP2 PUSH2 0x775 JUMP JUMPDEST DUP2 EQ PUSH2 0x839 JUMPI PUSH1 0x0 DUP1 REVERT JUMPDEST POP JUMP JUMPDEST PUSH1 0x0 DUP2 CALLDATALOAD SWAP1 POP PUSH2 0x84B DUP2 PUSH2 0x825 JUMP JUMPDEST SWAP3 SWAP2 POP POP JUMP JUMPDEST PUSH1 0x0 DUP2 SWAP1 POP SWAP2 SWAP1 POP JUMP JUMPDEST PUSH2 0x864 DUP2 PUSH2 0x851 JUMP JUMPDEST DUP2 EQ PUSH2 0x86F JUMPI PUSH1 0x0 DUP1 REVERT JUMPDEST POP JUMP JUMPDEST PUSH1 0x0 DUP2 CALLDATALOAD SWAP1 POP PUSH2 0x881 DUP2 PUSH2 0x85B JUMP JUMPDEST SWAP3 SWAP2 POP POP JUMP JUMPDEST PUSH1 0x0 DUP1 PUSH1 0x0 DUP1 PUSH1 0x80 DUP6 DUP8 SUB SLT ISZERO PUSH2 0x8A1 JUMPI PUSH2 0x8A0 PUSH2 0x6D2 JUMP JUMPDEST JUMPDEST PUSH1 0x0 PUSH2 0x8AF DUP8 DUP3 DUP9 ADD PUSH2 0x720 JUMP JUMPDEST SWAP5 POP POP PUSH1 0x20 PUSH2 0x8C0 DUP8 DUP3 DUP9 ADD PUSH2 0x720 JUMP JUMPDEST SWAP4 POP POP PUSH1 0x40 PUSH2 0x8D1 DUP8 DUP3 DUP9 ADD PUSH2 0x83C JUMP JUMPDEST SWAP3 POP POP PUSH1 0x60 PUSH2 0x8E2 DUP8 DUP3 DUP9 ADD PUSH2 0x872 JUMP JUMPDEST SWAP2 POP POP SWAP3 SWAP6 SWAP2 SWAP5 POP SWAP3 POP JUMP JUMPDEST PUSH1 0x0 PUSH1 0x20 DUP3 DUP5 SUB SLT ISZERO PUSH2 0x904 JUMPI PUSH2 0x903 PUSH2 0x6D2 JUMP JUMPDEST JUMPDEST PUSH1 0x0 PUSH2 0x912 DUP5 DUP3 DUP6 ADD PUSH2 0x720 JUMP JUMPDEST SWAP2 POP POP SWAP3 SWAP2 POP POP JUMP JUMPDEST PUSH2 0x924 DUP2 PUSH2 0x6F7 JUMP JUMPDEST DUP3 MSTORE POP POP JUMP JUMPDEST PUSH1 0x0 PUSH1 0x20 DUP3 ADD SWAP1 POP PUSH2 0x93F PUSH1 0x0 DUP4 ADD DUP5 PUSH2 0x91B JUMP JUMPDEST SWAP3 SWAP2 POP POP JUMP JUMPDEST PUSH1 0x0 DUP1 PUSH1 0x0 PUSH1 0x60 DUP5 DUP7 SUB SLT ISZERO PUSH2 0x95E JUMPI PUSH2 0x95D PUSH2 0x6D2 JUMP JUMPDEST JUMPDEST PUSH1 0x0 PUSH2 0x96C DUP7 DUP3 DUP8 ADD PUSH2 0x720 JUMP JUMPDEST SWAP4 POP POP PUSH1 0x20 PUSH2 0x97D DUP7 DUP3 DUP8 ADD PUSH2 0x720 JUMP JUMPDEST SWAP3 POP POP PUSH1 0x40 PUSH2 0x98E DUP7 DUP3 DUP8 ADD PUSH2 0x872 JUMP JUMPDEST SWAP2 POP POP SWAP3 POP SWAP3 POP SWAP3 JUMP JUMPDEST PUSH1 0x0 DUP2 MLOAD SWAP1 POP PUSH2 0x9A7 DUP2 PUSH2 0x825 JUMP JUMPDEST SWAP3 SWAP2 POP POP JUMP JUMPDEST PUSH1 0x0 PUSH1 0x20 DUP3 DUP5 SUB SLT ISZERO PUSH2 0x9C3 JUMPI PUSH2 0x9C2 PUSH2 0x6D2 JUMP JUMPDEST JUMPDEST PUSH1 0x0 PUSH2 0x9D1 DUP5 DUP3 DUP6 ADD PUSH2 0x998 JUMP JUMPDEST SWAP2 POP POP SWAP3 SWAP2 POP POP JUMP JUMPDEST PUSH1 0x0 DUP3 DUP3 MSTORE PUSH1 0x20 DUP3 ADD SWAP1 POP SWAP3 SWAP2 POP POP JUMP JUMPDEST PUSH32 0x596F7520617265206E6F74207265676973746572656421000000000000000000 PUSH1 0x0 DUP3 ADD MSTORE POP JUMP JUMPDEST PUSH1 0x0 PUSH2 0xA21 PUSH1 0x17 DUP4 PUSH2 0x9DA JUMP JUMPDEST SWAP2 POP PUSH2 0xA2C DUP3 PUSH2 0x9EB JUMP JUMPDEST PUSH1 0x20 DUP3 ADD SWAP1 POP SWAP2 SWAP1 POP JUMP JUMPDEST PUSH1 0x0 PUSH1 0x20 DUP3 ADD SWAP1 POP DUP2 DUP2 SUB PUSH1 0x0 DUP4 ADD MSTORE PUSH2 0xA50 DUP2 PUSH2 0xA14 JUMP JUMPDEST SWAP1 POP SWAP2 SWAP1 POP JUMP JUMPDEST PUSH32 0x596F752063616E6E6F74207065726D697420666F72206F746865727321000000 PUSH1 0x0 DUP3 ADD MSTORE POP JUMP JUMPDEST PUSH1 0x0 PUSH2 0xA8D PUSH1 0x1D DUP4 PUSH2 0x9DA JUMP JUMPDEST SWAP2 POP PUSH2 0xA98 DUP3 PUSH2 0xA57 JUMP JUMPDEST PUSH1 0x20 DUP3 ADD SWAP1 POP SWAP2 SWAP1 POP JUMP JUMPDEST PUSH1 0x0 PUSH1 0x20 DUP3 ADD SWAP1 POP DUP2 DUP2 SUB PUSH1 0x0 DUP4 ADD MSTORE PUSH2 0xABC DUP2 PUSH2 0xA80 JUMP JUMPDEST SWAP1 POP SWAP2 SWAP1 POP JUMP JUMPDEST PUSH2 0xACC DUP2 PUSH2 0x851 JUMP JUMPDEST DUP3 MSTORE POP POP JUMP JUMPDEST PUSH32 0x5065726D697373696F6E206772616E7465642100000000000000000000000000 PUSH1 0x0 DUP3 ADD MSTORE POP JUMP JUMPDEST PUSH1 0x0 PUSH2 0xB08 PUSH1 0x13 DUP4 PUSH2 0x9DA JUMP JUMPDEST SWAP2 POP PUSH2 0xB13 DUP3 PUSH2 0xAD2 JUMP JUMPDEST PUSH1 0x20 DUP3 ADD SWAP1 POP SWAP2 SWAP1 POP JUMP JUMPDEST PUSH1 0x0 PUSH1 0x80 DUP3 ADD SWAP1 POP PUSH2 0xB33 PUSH1 0x0 DUP4 ADD DUP7 PUSH2 0x91B JUMP JUMPDEST PUSH2 0xB40 PUSH1 0x20 DUP4 ADD DUP6 PUSH2 0x91B JUMP JUMPDEST PUSH2 0xB4D PUSH1 0x40 DUP4 ADD DUP5 PUSH2 0xAC3 JUMP JUMPDEST DUP2 DUP2 SUB PUSH1 0x60 DUP4 ADD MSTORE PUSH2 0xB5E DUP2 PUSH2 0xAFB JUMP JUMPDEST SWAP1 POP SWAP5 SWAP4 POP POP POP POP JUMP JUMPDEST PUSH32 0x5065726D697373696F6E2064656E696564210000000000000000000000000000 PUSH1 0x0 DUP3 ADD MSTORE POP JUMP JUMPDEST PUSH1 0x0 PUSH2 0xB9E PUSH1 0x12 DUP4 PUSH2 0x9DA JUMP JUMPDEST SWAP2 POP PUSH2 0xBA9 DUP3 PUSH2 0xB68 JUMP JUMPDEST PUSH1 0x20 DUP3 ADD SWAP1 POP SWAP2 SWAP1 POP JUMP JUMPDEST PUSH1 0x0 PUSH1 0x60 DUP3 ADD SWAP1 POP PUSH2 0xBC9 PUSH1 0x0 DUP4 ADD DUP6 PUSH2 0x91B JUMP JUMPDEST PUSH2 0xBD6 PUSH1 0x20 DUP4 ADD DUP5 PUSH2 0x91B JUMP JUMPDEST DUP2 DUP2 SUB PUSH1 0x40 DUP4 ADD MSTORE PUSH2 0xBE7 DUP2 PUSH2 0xB91 JUMP JUMPDEST SWAP1 POP SWAP4 SWAP3 POP POP POP JUMP JUMPDEST PUSH32 0x596F752063616E6E6F74207265717565737420666F72206F7468657273210000 PUSH1 0x0 DUP3 ADD MSTORE POP JUMP JUMPDEST PUSH1 0x0 PUSH2 0xC26 PUSH1 0x1E DUP4 PUSH2 0x9DA JUMP JUMPDEST SWAP2 POP PUSH2 0xC31 DUP3 PUSH2 0xBF0 JUMP JUMPDEST PUSH1 0x20 DUP3 ADD SWAP1 POP SWAP2 SWAP1 POP JUMP JUMPDEST PUSH1 0x0 PUSH1 0x20 DUP3 ADD SWAP1 POP DUP2 DUP2 SUB PUSH1 0x0 DUP4 ADD MSTORE PUSH2 0xC55 DUP2 PUSH2 0xC19 JUMP JUMPDEST SWAP1 POP SWAP2 SWAP1 POP JUMP JUMPDEST PUSH32 0x596F7520686176652061206E6577207265717565737420666F72207065726D69 PUSH1 0x0 DUP3 ADD MSTORE PUSH32 0x7373696F6E2E0000000000000000000000000000000000000000000000000000 PUSH1 0x20 DUP3 ADD MSTORE POP JUMP JUMPDEST PUSH1 0x0 PUSH2 0xCB8 PUSH1 0x26 DUP4 PUSH2 0x9DA JUMP JUMPDEST SWAP2 POP PUSH2 0xCC3 DUP3 PUSH2 0xC5C JUMP JUMPDEST PUSH1 0x40 DUP3 ADD SWAP1 POP SWAP2 SWAP1 POP JUMP JUMPDEST PUSH1 0x0 PUSH1 0x80 DUP3 ADD SWAP1 POP PUSH2 0xCE3 PUSH1 0x0 DUP4 ADD DUP7 PUSH2 0x91B JUMP JUMPDEST PUSH2 0xCF0 PUSH1 0x20 DUP4 ADD DUP6 PUSH2 0x91B JUMP JUMPDEST PUSH2 0xCFD PUSH1 0x40 DUP4 ADD DUP5 PUSH2 0xAC3 JUMP JUMPDEST DUP2 DUP2 SUB PUSH1 0x60 DUP4 ADD MSTORE PUSH2 0xD0E DUP2 PUSH2 0xCAB JUMP JUMPDEST SWAP1 POP SWAP5 SWAP4 POP POP POP POP JUMP INVALID LOG2 PUSH5 0x6970667358 0x22 SLT KECCAK256 SGT DUP12 0xEA 0xD1 0xBE 0x2C 0xD MOD 0xB0 PUSH3 0xB47965 0xB1 0xC8 0x26 0x4A LOG1 0x4A 0xD4 0xB3 SAR BYTE 0xEF SWAP14 0x4C 0xA9 0x2B 0xE0 0xB8 LT 0xA7 PUSH5 0x736F6C6343 STOP ADDMOD EXP STOP CALLER "
    },
    "gasEstimates": {
      "creation": {
        "codeDepositCost": "681200",
        "executionCost": "infinite",
        "totalCost": "infinite"
      },
      "external": {
        "approvePermission(address,address,bool,uint256)": "infinite",
        "checkPermission(address,address)": "infinite",
        "link(address)": "infinite",
        "permissions(address,address)": "infinite",
        "registry()": "infinite",
        "requestPermission(address,address,uint256)": "infinite"
      }
    },
    "methodIdentifiers": {
      "approvePermission(address,address,bool,uint256)": "7cb8d3e1",
      "checkPermission(address,address)": "1a160fe9",
      "link(address)": "91a89712",
      "permissions(address,address)": "1f9838b5",
      "registry()": "7b103999",
      "requestPermission(address,address,uint256)": "a84001ea"
    }
  },
  "storageLayout": {
    "storage": [
      {
        "astId": 141,
        "contract": "permission.sol:Permission",
        "label": "link",
        "offset": 0,
        "slot": "0",
        "type": "t_mapping(t_address,t_address)"
      },
      {
        "astId": 147,
        "contract": "permission.sol:Permission",
        "label": "permissions",
        "offset": 0,
        "slot": "1",
        "type": "t_mapping(t_address,t_mapping(t_address,t_bool))"
      },
      {
        "astId": 150,
        "contract": "permission.sol:Permission",
        "label": "registry",
        "offset": 0,
        "slot": "2",
        "type": "t_contract(Registry)494"
      }
    ],
    "types": {
      "t_address": {
        "encoding": "inplace",
        "label": "address",
        "numberOfBytes": "20"
      },
      "t_bool": {
        "encoding": "inplace",
        "label": "bool",
        "numberOfBytes": "1"
      },
      "t_contract(Registry)494": {
        "encoding": "inplace",
        "label": "contract Registry",
        "numberOfBytes": "20"
      },
      "t_mapping(t_address,t_address)": {
        "encoding": "mapping",
        "key": "t_address",
        "label": "mapping(address => address)",
        "numberOfBytes": "32",
        "value": "t_address"
      },
      "t_mapping(t_address,t_bool)": {
        "encoding": "mapping",
        "key": "t_address",
        "label": "mapping(address => bool)",
        "numberOfBytes": "32",
        "value": "t_bool"
      },
      "t_mapping(t_address,t_mapping(t_address,t_bool))": {
        "encoding": "mapping",
        "key": "t_address",
        "label": "mapping(address => mapping(address => bool))",
        "numberOfBytes": "32",
        "value": "t_mapping(t_address,t_bool)"
      }
    }
  },
  "userdoc": {
    "kind": "user",
    "methods": {},
    "version": 1
  }
}