{
  "abi": [
    {
      "inputs": [],
      "stateMutability": "nonpayable",
      "type": "constructor"
    },
    {
      "inputs": [
        {
          "internalType": "address",
          "name": "userAddress",
          "type": "address"
        }
      ],
      "name": "checkUser",
      "outputs": [
        {
          "internalType": "bool",
          "name": "",
          "type": "bool"
        }
      ],
      "stateMutability": "view",
      "type": "function"
    },
    {
      "inputs": [
        {
          "internalType": "address",
          "name": "userAddress",
          "type": "address"
        }
      ],
      "name": "getUserRole",
      "outputs": [
        {
          "internalType": "enum Registry.Role",
          "name": "",
          "type": "uint8"
        }
      ],
      "stateMutability": "view",
      "type": "function"
    },
    {
      "inputs": [],
      "name": "owner",
      "outputs": [
        {
          "internalType": "address",
          "name": "",
          "type": "address"
        }
      ],
      "stateMutability": "view",
      "type": "function"
    },
    {
      "inputs": [
        {
          "internalType": "bytes32",
          "name": "_key",
          "type": "bytes32"
        },
        {
          "internalType": "string",
          "name": "_role",
          "type": "string"
        }
      ],
      "name": "registerUser",
      "outputs": [],
      "stateMutability": "nonpayable",
      "type": "function"
    },
    {
      "inputs": [
        {
          "internalType": "uint256",
          "name": "",
          "type": "uint256"
        }
      ],
      "name": "roles",
      "outputs": [
        {
          "internalType": "string",
          "name": "",
          "type": "string"
        }
      ],
      "stateMutability": "view",
      "type": "function"
    },
    {
      "inputs": [
        {
          "internalType": "address",
          "name": "",
          "type": "address"
        }
      ],
      "name": "users",
      "outputs": [
        {
          "internalType": "bytes32",
          "name": "key",
          "type": "bytes32"
        },
        {
          "internalType": "enum Registry.Role",
          "name": "role",
          "type": "uint8"
        },
        {
          "internalType": "bool",
          "name": "isRegistered",
          "type": "bool"
        }
      ],
      "stateMutability": "view",
      "type": "function"
    }
  ],
  "devdoc": {
    "kind": "dev",
    "methods": {},
    "version": 1
  },
  "evm": {
    "assembly": "    /* \"registry.sol\":60:1714  contract Registry {... */\n  mstore(0x40, 0x80)\n    /* \"registry.sol\":293:372  string[4] public roles = [\"Patient\", \"CareProvider\", \"Researcher\", \"Regulator\"] */\n  mload(0x40)\n  dup1\n  0x80\n  add\n  0x40\n  mstore\n  dup1\n  mload(0x40)\n  dup1\n  0x40\n  add\n  0x40\n  mstore\n  dup1\n  0x07\n  dup2\n  mstore\n  0x20\n  add\n  0x50617469656e7400000000000000000000000000000000000000000000000000\n  dup2\n  mstore\n  pop\n  dup2\n  mstore\n  0x20\n  add\n  mload(0x40)\n  dup1\n  0x40\n  add\n  0x40\n  mstore\n  dup1\n  0x0c\n  dup2\n  mstore\n  0x20\n  add\n  0x4361726550726f76696465720000000000000000000000000000000000000000\n  dup2\n  mstore\n  pop\n  dup2\n  mstore\n  0x20\n  add\n  mload(0x40)\n  dup1\n  0x40\n  add\n  0x40\n  mstore\n  dup1\n  0x0a\n  dup2\n  mstore\n  0x20\n  add\n  0x5265736561726368657200000000000000000000000000000000000000000000\n  dup2\n  mstore\n  pop\n  dup2\n  mstore\n  0x20\n  add\n  mload(0x40)\n  dup1\n  0x40\n  add\n  0x40\n  mstore\n  dup1\n  0x09\n  dup2\n  mstore\n  0x20\n  add\n  0x526567756c61746f720000000000000000000000000000000000000000000000\n  dup2\n  mstore\n  pop\n  dup2\n  mstore\n  pop\n  0x01\n  swap1\n  0x04\n  tag_1\n  swap3\n  swap2\n  swap1\n  tag_2\n  jump\t// in\ntag_1:\n  pop\n    /* \"registry.sol\":408:459  constructor() {... */\n  callvalue\n  dup1\n  iszero\n  tag_3\n  jumpi\n  0x00\n  dup1\n  revert\ntag_3:\n  pop\n    /* \"registry.sol\":441:451  msg.sender */\n  caller\n    /* \"registry.sol\":433:438  owner */\n  0x05\n  0x00\n    /* \"registry.sol\":433:451  owner = msg.sender */\n  0x0100\n  exp\n  dup2\n  sload\n  dup2\n  0xffffffffffffffffffffffffffffffffffffffff\n  mul\n  not\n  and\n  swap1\n  dup4\n  0xffffffffffffffffffffffffffffffffffffffff\n  and\n  mul\n  or\n  swap1\n  sstore\n  pop\n    /* \"registry.sol\":60:1714  contract Registry {... */\n  jump(tag_6)\ntag_2:\n  dup3\n  0x04\n  dup2\n  add\n  swap3\n  dup3\n  iszero\n  tag_7\n  jumpi\n  swap2\n  0x20\n  mul\n  dup3\n  add\ntag_8:\n  dup3\n  dup2\n  gt\n  iszero\n  tag_9\n  jumpi\n  dup3\n  mload\n  dup3\n  swap1\n  dup1\n  mload\n  swap1\n  0x20\n  add\n  swap1\n  tag_10\n  swap3\n  swap2\n  swap1\n  tag_11\n  jump\t// in\ntag_10:\n  pop\n  swap2\n  0x20\n  add\n  swap2\n  swap1\n  0x01\n  add\n  swap1\n  jump(tag_8)\ntag_9:\ntag_7:\n  pop\n  swap1\n  pop\n  tag_12\n  swap2\n  swap1\n  tag_13\n  jump\t// in\ntag_12:\n  pop\n  swap1\n  jump\t// out\ntag_11:\n  dup3\n  dup1\n  sload\n  tag_14\n  swap1\n  tag_15\n  jump\t// in\ntag_14:\n  swap1\n  0x00\n  mstore\n  keccak256(0x00, 0x20)\n  swap1\n  0x1f\n  add\n  0x20\n  swap1\n  div\n  dup2\n  add\n  swap3\n  dup3\n  tag_17\n  jumpi\n  0x00\n  dup6\n  sstore\n  jump(tag_16)\ntag_17:\n  dup3\n  0x1f\n  lt\n  tag_18\n  jumpi\n  dup1\n  mload\n  not(0xff)\n  and\n  dup4\n  dup1\n  add\n  or\n  dup6\n  sstore\n  jump(tag_16)\ntag_18:\n  dup3\n  dup1\n  add\n  0x01\n  add\n  dup6\n  sstore\n  dup3\n  iszero\n  tag_16\n  jumpi\n  swap2\n  dup3\n  add\ntag_19:\n  dup3\n  dup2\n  gt\n  iszero\n  tag_20\n  jumpi\n  dup3\n  mload\n  dup3\n  sstore\n  swap2\n  0x20\n  add\n  swap2\n  swap1\n  0x01\n  add\n  swap1\n  jump(tag_19)\ntag_20:\ntag_16:\n  pop\n  swap1\n  pop\n  tag_21\n  swap2\n  swap1\n  tag_22\n  jump\t// in\ntag_21:\n  pop\n  swap1\n  jump\t// out\ntag_13:\ntag_23:\n  dup1\n  dup3\n  gt\n  iszero\n  tag_24\n  jumpi\n  0x00\n  dup2\n  dup2\n  tag_25\n  swap2\n  swap1\n  tag_26\n  jump\t// in\ntag_25:\n  pop\n  0x01\n  add\n  jump(tag_23)\ntag_24:\n  pop\n  swap1\n  jump\t// out\ntag_22:\ntag_27:\n  dup1\n  dup3\n  gt\n  iszero\n  tag_28\n  jumpi\n  0x00\n  dup2\n  0x00\n  swap1\n  sstore\n  pop\n  0x01\n  add\n  jump(tag_27)\ntag_28:\n  pop\n  swap1\n  jump\t// out\ntag_26:\n  pop\n  dup1\n  sload\n  tag_29\n  swap1\n  tag_15\n  jump\t// in\ntag_29:\n  0x00\n  dup3\n  sstore\n  dup1\n  0x1f\n  lt\n  tag_31\n  jumpi\n  pop\n  jump(tag_30)\ntag_31:\n  0x1f\n  add\n  0x20\n  swap1\n  div\n  swap1\n  0x00\n  mstore\n  keccak256(0x00, 0x20)\n  swap1\n  dup2\n  add\n  swap1\n  tag_32\n  swap2\n  swap1\n  tag_22\n  jump\t// in\ntag_32:\ntag_30:\n  pop\n  jump\t// out\n    /* \"#utility.yul\":7:187   */\ntag_33:\n    /* \"#utility.yul\":55:132   */\n  0x4e487b7100000000000000000000000000000000000000000000000000000000\n    /* \"#utility.yul\":52:53   */\n  0x00\n    /* \"#utility.yul\":45:133   */\n  mstore\n    /* \"#utility.yul\":152:156   */\n  0x22\n    /* \"#utility.yul\":149:150   */\n  0x04\n    /* \"#utility.yul\":142:157   */\n  mstore\n    /* \"#utility.yul\":176:180   */\n  0x24\n    /* \"#utility.yul\":173:174   */\n  0x00\n    /* \"#utility.yul\":166:181   */\n  revert\n    /* \"#utility.yul\":193:513   */\ntag_15:\n    /* \"#utility.yul\":237:243   */\n  0x00\n    /* \"#utility.yul\":274:275   */\n  0x02\n    /* \"#utility.yul\":268:272   */\n  dup3\n    /* \"#utility.yul\":264:276   */\n  div\n    /* \"#utility.yul\":254:276   */\n  swap1\n  pop\n    /* \"#utility.yul\":321:322   */\n  0x01\n    /* \"#utility.yul\":315:319   */\n  dup3\n    /* \"#utility.yul\":311:323   */\n  and\n    /* \"#utility.yul\":342:360   */\n  dup1\n    /* \"#utility.yul\":332:413   */\n  tag_37\n  jumpi\n    /* \"#utility.yul\":398:402   */\n  0x7f\n    /* \"#utility.yul\":390:396   */\n  dup3\n    /* \"#utility.yul\":386:403   */\n  and\n    /* \"#utility.yul\":376:403   */\n  swap2\n  pop\n    /* \"#utility.yul\":332:413   */\ntag_37:\n    /* \"#utility.yul\":460:462   */\n  0x20\n    /* \"#utility.yul\":452:458   */\n  dup3\n    /* \"#utility.yul\":449:463   */\n  lt\n    /* \"#utility.yul\":429:447   */\n  dup2\n    /* \"#utility.yul\":426:464   */\n  eq\n    /* \"#utility.yul\":423:507   */\n  iszero\n  tag_38\n  jumpi\n    /* \"#utility.yul\":479:497   */\n  tag_39\n  tag_33\n  jump\t// in\ntag_39:\n    /* \"#utility.yul\":423:507   */\ntag_38:\n    /* \"#utility.yul\":244:513   */\n  pop\n    /* \"#utility.yul\":193:513   */\n  swap2\n  swap1\n  pop\n  jump\t// out\n    /* \"registry.sol\":60:1714  contract Registry {... */\ntag_6:\n  dataSize(sub_0)\n  dup1\n  dataOffset(sub_0)\n  0x00\n  codecopy\n  0x00\n  return\nstop\n\nsub_0: assembly {\n        /* \"registry.sol\":60:1714  contract Registry {... */\n      mstore(0x40, 0x80)\n      callvalue\n      dup1\n      iszero\n      tag_1\n      jumpi\n      0x00\n      dup1\n      revert\n    tag_1:\n      pop\n      jumpi(tag_2, lt(calldatasize, 0x04))\n      shr(0xe0, calldataload(0x00))\n      dup1\n      0x1e9d48cf\n      eq\n      tag_3\n      jumpi\n      dup1\n      0x27820851\n      eq\n      tag_4\n      jumpi\n      dup1\n      0x4a54315c\n      eq\n      tag_5\n      jumpi\n      dup1\n      0x8da5cb5b\n      eq\n      tag_6\n      jumpi\n      dup1\n      0xa87430ba\n      eq\n      tag_7\n      jumpi\n      dup1\n      0xbfda4a49\n      eq\n      tag_8\n      jumpi\n    tag_2:\n      0x00\n      dup1\n      revert\n        /* \"registry.sol\":467:591  function checkUser(address userAddress) public view returns (bool) {... */\n    tag_3:\n      tag_9\n      0x04\n      dup1\n      calldatasize\n      sub\n      dup2\n      add\n      swap1\n      tag_10\n      swap2\n      swap1\n      tag_11\n      jump\t// in\n    tag_10:\n      tag_12\n      jump\t// in\n    tag_9:\n      mload(0x40)\n      tag_13\n      swap2\n      swap1\n      tag_14\n      jump\t// in\n    tag_13:\n      mload(0x40)\n      dup1\n      swap2\n      sub\n      swap1\n      return\n        /* \"registry.sol\":1519:1711  function getUserRole(address userAddress) public view returns (Role) {... */\n    tag_4:\n      tag_15\n      0x04\n      dup1\n      calldatasize\n      sub\n      dup2\n      add\n      swap1\n      tag_16\n      swap2\n      swap1\n      tag_11\n      jump\t// in\n    tag_16:\n      tag_17\n      jump\t// in\n    tag_15:\n      mload(0x40)\n      tag_18\n      swap2\n      swap1\n      tag_19\n      jump\t// in\n    tag_18:\n      mload(0x40)\n      dup1\n      swap2\n      sub\n      swap1\n      return\n        /* \"registry.sol\":599:1511  function registerUser(bytes32 _key, string memory _role) public {... */\n    tag_5:\n      tag_20\n      0x04\n      dup1\n      calldatasize\n      sub\n      dup2\n      add\n      swap1\n      tag_21\n      swap2\n      swap1\n      tag_22\n      jump\t// in\n    tag_21:\n      tag_23\n      jump\t// in\n    tag_20:\n      stop\n        /* \"registry.sol\":379:399  address public owner */\n    tag_6:\n      tag_24\n      tag_25\n      jump\t// in\n    tag_24:\n      mload(0x40)\n      tag_26\n      swap2\n      swap1\n      tag_27\n      jump\t// in\n    tag_26:\n      mload(0x40)\n      dup1\n      swap2\n      sub\n      swap1\n      return\n        /* \"registry.sol\":249:286  mapping(address => User) public users */\n    tag_7:\n      tag_28\n      0x04\n      dup1\n      calldatasize\n      sub\n      dup2\n      add\n      swap1\n      tag_29\n      swap2\n      swap1\n      tag_11\n      jump\t// in\n    tag_29:\n      tag_30\n      jump\t// in\n    tag_28:\n      mload(0x40)\n      tag_31\n      swap4\n      swap3\n      swap2\n      swap1\n      tag_32\n      jump\t// in\n    tag_31:\n      mload(0x40)\n      dup1\n      swap2\n      sub\n      swap1\n      return\n        /* \"registry.sol\":293:372  string[4] public roles = [\"Patient\", \"CareProvider\", \"Researcher\", \"Regulator\"] */\n    tag_8:\n      tag_33\n      0x04\n      dup1\n      calldatasize\n      sub\n      dup2\n      add\n      swap1\n      tag_34\n      swap2\n      swap1\n      tag_35\n      jump\t// in\n    tag_34:\n      tag_36\n      jump\t// in\n    tag_33:\n      mload(0x40)\n      tag_37\n      swap2\n      swap1\n      tag_38\n      jump\t// in\n    tag_37:\n      mload(0x40)\n      dup1\n      swap2\n      sub\n      swap1\n      return\n        /* \"registry.sol\":467:591  function checkUser(address userAddress) public view returns (bool) {... */\n    tag_12:\n        /* \"registry.sol\":528:532  bool */\n      0x00\n        /* \"registry.sol\":552:557  users */\n      dup1\n        /* \"registry.sol\":552:570  users[userAddress] */\n      0x00\n        /* \"registry.sol\":558:569  userAddress */\n      dup4\n        /* \"registry.sol\":552:570  users[userAddress] */\n      0xffffffffffffffffffffffffffffffffffffffff\n      and\n      0xffffffffffffffffffffffffffffffffffffffff\n      and\n      dup2\n      mstore\n      0x20\n      add\n      swap1\n      dup2\n      mstore\n      0x20\n      add\n      0x00\n      keccak256\n        /* \"registry.sol\":552:583  users[userAddress].isRegistered */\n      0x01\n      add\n      0x01\n      swap1\n      sload\n      swap1\n      0x0100\n      exp\n      swap1\n      div\n      0xff\n      and\n        /* \"registry.sol\":545:583  return users[userAddress].isRegistered */\n      swap1\n      pop\n        /* \"registry.sol\":467:591  function checkUser(address userAddress) public view returns (bool) {... */\n      swap2\n      swap1\n      pop\n      jump\t// out\n        /* \"registry.sol\":1519:1711  function getUserRole(address userAddress) public view returns (Role) {... */\n    tag_17:\n        /* \"registry.sol\":1582:1586  Role */\n      0x00\n        /* \"registry.sol\":1607:1612  users */\n      dup1\n        /* \"registry.sol\":1607:1625  users[userAddress] */\n      0x00\n        /* \"registry.sol\":1613:1624  userAddress */\n      dup4\n        /* \"registry.sol\":1607:1625  users[userAddress] */\n      0xffffffffffffffffffffffffffffffffffffffff\n      and\n      0xffffffffffffffffffffffffffffffffffffffff\n      and\n      dup2\n      mstore\n      0x20\n      add\n      swap1\n      dup2\n      mstore\n      0x20\n      add\n      0x00\n      keccak256\n        /* \"registry.sol\":1607:1638  users[userAddress].isRegistered */\n      0x01\n      add\n      0x01\n      swap1\n      sload\n      swap1\n      0x0100\n      exp\n      swap1\n      div\n      0xff\n      and\n        /* \"registry.sol\":1599:1662  require(users[userAddress].isRegistered, \"User not registered\") */\n      tag_41\n      jumpi\n      mload(0x40)\n      0x08c379a000000000000000000000000000000000000000000000000000000000\n      dup2\n      mstore\n      0x04\n      add\n      tag_42\n      swap1\n      tag_43\n      jump\t// in\n    tag_42:\n      mload(0x40)\n      dup1\n      swap2\n      sub\n      swap1\n      revert\n    tag_41:\n        /* \"registry.sol\":1680:1685  users */\n      0x00\n        /* \"registry.sol\":1680:1698  users[userAddress] */\n      dup1\n        /* \"registry.sol\":1686:1697  userAddress */\n      dup4\n        /* \"registry.sol\":1680:1698  users[userAddress] */\n      0xffffffffffffffffffffffffffffffffffffffff\n      and\n      0xffffffffffffffffffffffffffffffffffffffff\n      and\n      dup2\n      mstore\n      0x20\n      add\n      swap1\n      dup2\n      mstore\n      0x20\n      add\n      0x00\n      keccak256\n        /* \"registry.sol\":1680:1703  users[userAddress].role */\n      0x01\n      add\n      0x00\n      swap1\n      sload\n      swap1\n      0x0100\n      exp\n      swap1\n      div\n      0xff\n      and\n        /* \"registry.sol\":1673:1703  return users[userAddress].role */\n      swap1\n      pop\n        /* \"registry.sol\":1519:1711  function getUserRole(address userAddress) public view returns (Role) {... */\n      swap2\n      swap1\n      pop\n      jump\t// out\n        /* \"registry.sol\":599:1511  function registerUser(bytes32 _key, string memory _role) public {... */\n    tag_23:\n        /* \"registry.sol\":683:704  checkUser(msg.sender) */\n      tag_45\n        /* \"registry.sol\":693:703  msg.sender */\n      caller\n        /* \"registry.sol\":683:692  checkUser */\n      tag_12\n        /* \"registry.sol\":683:704  checkUser(msg.sender) */\n      jump\t// in\n    tag_45:\n        /* \"registry.sol\":682:704  !checkUser(msg.sender) */\n      iszero\n        /* \"registry.sol\":674:733  require(!checkUser(msg.sender), \"User already registered!\") */\n      tag_46\n      jumpi\n      mload(0x40)\n      0x08c379a000000000000000000000000000000000000000000000000000000000\n      dup2\n      mstore\n      0x04\n      add\n      tag_47\n      swap1\n      tag_48\n      jump\t// in\n    tag_47:\n      mload(0x40)\n      dup1\n      swap2\n      sub\n      swap1\n      revert\n    tag_46:\n        /* \"registry.sol\":746:755  Role role */\n      0x00\n        /* \"registry.sol\":818:845  abi.encodePacked(\"Patient\") */\n      add(0x20, mload(0x40))\n      tag_49\n      swap1\n      tag_50\n      jump\t// in\n    tag_49:\n      mload(0x40)\n      0x20\n      dup2\n      dup4\n      sub\n      sub\n      dup2\n      mstore\n      swap1\n      0x40\n      mstore\n        /* \"registry.sol\":808:846  keccak256(abi.encodePacked(\"Patient\")) */\n      dup1\n      mload\n      swap1\n      0x20\n      add\n      keccak256\n        /* \"registry.sol\":797:802  _role */\n      dup3\n        /* \"registry.sol\":780:803  abi.encodePacked(_role) */\n      add(0x20, mload(0x40))\n      tag_51\n      swap2\n      swap1\n      tag_52\n      jump\t// in\n    tag_51:\n      mload(0x40)\n      0x20\n      dup2\n      dup4\n      sub\n      sub\n      dup2\n      mstore\n      swap1\n      0x40\n      mstore\n        /* \"registry.sol\":770:804  keccak256(abi.encodePacked(_role)) */\n      dup1\n      mload\n      swap1\n      0x20\n      add\n      keccak256\n        /* \"registry.sol\":770:846  keccak256(abi.encodePacked(_role)) == keccak256(abi.encodePacked(\"Patient\")) */\n      eq\n        /* \"registry.sol\":766:1372  if (keccak256(abi.encodePacked(_role)) == keccak256(abi.encodePacked(\"Patient\"))) {... */\n      iszero\n      tag_53\n      jumpi\n        /* \"registry.sol\":870:882  Role.Patient */\n      0x00\n        /* \"registry.sol\":863:882  role = Role.Patient */\n      swap1\n      pop\n        /* \"registry.sol\":766:1372  if (keccak256(abi.encodePacked(_role)) == keccak256(abi.encodePacked(\"Patient\"))) {... */\n      jump(tag_54)\n    tag_53:\n        /* \"registry.sol\":952:984  abi.encodePacked(\"CareProvider\") */\n      add(0x20, mload(0x40))\n      tag_55\n      swap1\n      tag_56\n      jump\t// in\n    tag_55:\n      mload(0x40)\n      0x20\n      dup2\n      dup4\n      sub\n      sub\n      dup2\n      mstore\n      swap1\n      0x40\n      mstore\n        /* \"registry.sol\":942:985  keccak256(abi.encodePacked(\"CareProvider\")) */\n      dup1\n      mload\n      swap1\n      0x20\n      add\n      keccak256\n        /* \"registry.sol\":931:936  _role */\n      dup3\n        /* \"registry.sol\":914:937  abi.encodePacked(_role) */\n      add(0x20, mload(0x40))\n      tag_57\n      swap2\n      swap1\n      tag_52\n      jump\t// in\n    tag_57:\n      mload(0x40)\n      0x20\n      dup2\n      dup4\n      sub\n      sub\n      dup2\n      mstore\n      swap1\n      0x40\n      mstore\n        /* \"registry.sol\":904:938  keccak256(abi.encodePacked(_role)) */\n      dup1\n      mload\n      swap1\n      0x20\n      add\n      keccak256\n        /* \"registry.sol\":904:985  keccak256(abi.encodePacked(_role)) == keccak256(abi.encodePacked(\"CareProvider\")) */\n      eq\n        /* \"registry.sol\":900:1372  if (keccak256(abi.encodePacked(_role)) == keccak256(abi.encodePacked(\"CareProvider\"))) {... */\n      iszero\n      tag_58\n      jumpi\n        /* \"registry.sol\":1009:1026  Role.CareProvider */\n      0x01\n        /* \"registry.sol\":1002:1026  role = Role.CareProvider */\n      swap1\n      pop\n        /* \"registry.sol\":900:1372  if (keccak256(abi.encodePacked(_role)) == keccak256(abi.encodePacked(\"CareProvider\"))) {... */\n      jump(tag_59)\n    tag_58:\n        /* \"registry.sol\":1096:1126  abi.encodePacked(\"Researcher\") */\n      add(0x20, mload(0x40))\n      tag_60\n      swap1\n      tag_61\n      jump\t// in\n    tag_60:\n      mload(0x40)\n      0x20\n      dup2\n      dup4\n      sub\n      sub\n      dup2\n      mstore\n      swap1\n      0x40\n      mstore\n        /* \"registry.sol\":1086:1127  keccak256(abi.encodePacked(\"Researcher\")) */\n      dup1\n      mload\n      swap1\n      0x20\n      add\n      keccak256\n        /* \"registry.sol\":1075:1080  _role */\n      dup3\n        /* \"registry.sol\":1058:1081  abi.encodePacked(_role) */\n      add(0x20, mload(0x40))\n      tag_62\n      swap2\n      swap1\n      tag_52\n      jump\t// in\n    tag_62:\n      mload(0x40)\n      0x20\n      dup2\n      dup4\n      sub\n      sub\n      dup2\n      mstore\n      swap1\n      0x40\n      mstore\n        /* \"registry.sol\":1048:1082  keccak256(abi.encodePacked(_role)) */\n      dup1\n      mload\n      swap1\n      0x20\n      add\n      keccak256\n        /* \"registry.sol\":1048:1127  keccak256(abi.encodePacked(_role)) == keccak256(abi.encodePacked(\"Researcher\")) */\n      eq\n        /* \"registry.sol\":1044:1372  if (keccak256(abi.encodePacked(_role)) == keccak256(abi.encodePacked(\"Researcher\"))) {... */\n      iszero\n      tag_63\n      jumpi\n        /* \"registry.sol\":1151:1166  Role.Researcher */\n      0x02\n        /* \"registry.sol\":1144:1166  role = Role.Researcher */\n      swap1\n      pop\n        /* \"registry.sol\":1044:1372  if (keccak256(abi.encodePacked(_role)) == keccak256(abi.encodePacked(\"Researcher\"))) {... */\n      jump(tag_64)\n    tag_63:\n        /* \"registry.sol\":1236:1265  abi.encodePacked(\"Regulator\") */\n      add(0x20, mload(0x40))\n      tag_65\n      swap1\n      tag_66\n      jump\t// in\n    tag_65:\n      mload(0x40)\n      0x20\n      dup2\n      dup4\n      sub\n      sub\n      dup2\n      mstore\n      swap1\n      0x40\n      mstore\n        /* \"registry.sol\":1226:1266  keccak256(abi.encodePacked(\"Regulator\")) */\n      dup1\n      mload\n      swap1\n      0x20\n      add\n      keccak256\n        /* \"registry.sol\":1215:1220  _role */\n      dup3\n        /* \"registry.sol\":1198:1221  abi.encodePacked(_role) */\n      add(0x20, mload(0x40))\n      tag_67\n      swap2\n      swap1\n      tag_52\n      jump\t// in\n    tag_67:\n      mload(0x40)\n      0x20\n      dup2\n      dup4\n      sub\n      sub\n      dup2\n      mstore\n      swap1\n      0x40\n      mstore\n        /* \"registry.sol\":1188:1222  keccak256(abi.encodePacked(_role)) */\n      dup1\n      mload\n      swap1\n      0x20\n      add\n      keccak256\n        /* \"registry.sol\":1188:1266  keccak256(abi.encodePacked(_role)) == keccak256(abi.encodePacked(\"Regulator\")) */\n      eq\n        /* \"registry.sol\":1184:1372  if (keccak256(abi.encodePacked(_role)) == keccak256(abi.encodePacked(\"Regulator\"))) {... */\n      iszero\n      tag_68\n      jumpi\n        /* \"registry.sol\":1290:1304  Role.Regulator */\n      0x03\n        /* \"registry.sol\":1283:1304  role = Role.Regulator */\n      swap1\n      pop\n        /* \"registry.sol\":1184:1372  if (keccak256(abi.encodePacked(_role)) == keccak256(abi.encodePacked(\"Regulator\"))) {... */\n      jump(tag_69)\n    tag_68:\n        /* \"registry.sol\":1337:1360  revert(\"Invalid role!\") */\n      mload(0x40)\n      0x08c379a000000000000000000000000000000000000000000000000000000000\n      dup2\n      mstore\n      0x04\n      add\n      tag_70\n      swap1\n      tag_71\n      jump\t// in\n    tag_70:\n      mload(0x40)\n      dup1\n      swap2\n      sub\n      swap1\n      revert\n        /* \"registry.sol\":1184:1372  if (keccak256(abi.encodePacked(_role)) == keccak256(abi.encodePacked(\"Regulator\"))) {... */\n    tag_69:\n        /* \"registry.sol\":1044:1372  if (keccak256(abi.encodePacked(_role)) == keccak256(abi.encodePacked(\"Researcher\"))) {... */\n    tag_64:\n        /* \"registry.sol\":900:1372  if (keccak256(abi.encodePacked(_role)) == keccak256(abi.encodePacked(\"CareProvider\"))) {... */\n    tag_59:\n        /* \"registry.sol\":766:1372  if (keccak256(abi.encodePacked(_role)) == keccak256(abi.encodePacked(\"Patient\"))) {... */\n    tag_54:\n        /* \"registry.sol\":1404:1503  User({... */\n      mload(0x40)\n      dup1\n      0x60\n      add\n      0x40\n      mstore\n      dup1\n        /* \"registry.sol\":1429:1433  _key */\n      dup5\n        /* \"registry.sol\":1404:1503  User({... */\n      dup2\n      mstore\n      0x20\n      add\n        /* \"registry.sol\":1454:1458  role */\n      dup3\n        /* \"registry.sol\":1404:1503  User({... */\n      0x03\n      dup2\n      gt\n      iszero\n      tag_72\n      jumpi\n      tag_73\n      tag_74\n      jump\t// in\n    tag_73:\n    tag_72:\n      dup2\n      mstore\n      0x20\n      add\n        /* \"registry.sol\":1487:1491  true */\n      0x01\n        /* \"registry.sol\":1404:1503  User({... */\n      iszero\n      iszero\n      dup2\n      mstore\n      pop\n        /* \"registry.sol\":1384:1389  users */\n      0x00\n        /* \"registry.sol\":1384:1401  users[msg.sender] */\n      dup1\n        /* \"registry.sol\":1390:1400  msg.sender */\n      caller\n        /* \"registry.sol\":1384:1401  users[msg.sender] */\n      0xffffffffffffffffffffffffffffffffffffffff\n      and\n      0xffffffffffffffffffffffffffffffffffffffff\n      and\n      dup2\n      mstore\n      0x20\n      add\n      swap1\n      dup2\n      mstore\n      0x20\n      add\n      0x00\n      keccak256\n        /* \"registry.sol\":1384:1503  users[msg.sender] = User({... */\n      0x00\n      dup3\n      add\n      mload\n      dup2\n      0x00\n      add\n      sstore\n      0x20\n      dup3\n      add\n      mload\n      dup2\n      0x01\n      add\n      exp(0x0100, 0x00)\n      dup2\n      sload\n      dup2\n      0xff\n      mul\n      not\n      and\n      swap1\n      dup4\n      0x03\n      dup2\n      gt\n      iszero\n      tag_75\n      jumpi\n      tag_76\n      tag_74\n      jump\t// in\n    tag_76:\n    tag_75:\n      mul\n      or\n      swap1\n      sstore\n      pop\n      0x40\n      dup3\n      add\n      mload\n      dup2\n      0x01\n      add\n      exp(0x0100, 0x01)\n      dup2\n      sload\n      dup2\n      0xff\n      mul\n      not\n      and\n      swap1\n      dup4\n      iszero\n      iszero\n      mul\n      or\n      swap1\n      sstore\n      pop\n      swap1\n      pop\n      pop\n        /* \"registry.sol\":663:1511  {... */\n      pop\n        /* \"registry.sol\":599:1511  function registerUser(bytes32 _key, string memory _role) public {... */\n      pop\n      pop\n      jump\t// out\n        /* \"registry.sol\":379:399  address public owner */\n    tag_25:\n      0x05\n      0x00\n      swap1\n      sload\n      swap1\n      0x0100\n      exp\n      swap1\n      div\n      0xffffffffffffffffffffffffffffffffffffffff\n      and\n      dup2\n      jump\t// out\n        /* \"registry.sol\":249:286  mapping(address => User) public users */\n    tag_30:\n      mstore(0x20, 0x00)\n      dup1\n      0x00\n      mstore\n      keccak256(0x00, 0x40)\n      0x00\n      swap2\n      pop\n      swap1\n      pop\n      dup1\n      0x00\n      add\n      sload\n      swap1\n      dup1\n      0x01\n      add\n      0x00\n      swap1\n      sload\n      swap1\n      0x0100\n      exp\n      swap1\n      div\n      0xff\n      and\n      swap1\n      dup1\n      0x01\n      add\n      0x01\n      swap1\n      sload\n      swap1\n      0x0100\n      exp\n      swap1\n      div\n      0xff\n      and\n      swap1\n      pop\n      dup4\n      jump\t// out\n        /* \"registry.sol\":293:372  string[4] public roles = [\"Patient\", \"CareProvider\", \"Researcher\", \"Regulator\"] */\n    tag_36:\n      0x01\n      dup2\n      0x04\n      dup2\n      lt\n      tag_77\n      jumpi\n      0x00\n      dup1\n      revert\n    tag_77:\n      add\n      0x00\n      swap2\n      pop\n      swap1\n      pop\n      dup1\n      sload\n      tag_79\n      swap1\n      tag_80\n      jump\t// in\n    tag_79:\n      dup1\n      0x1f\n      add\n      0x20\n      dup1\n      swap2\n      div\n      mul\n      0x20\n      add\n      mload(0x40)\n      swap1\n      dup2\n      add\n      0x40\n      mstore\n      dup1\n      swap3\n      swap2\n      swap1\n      dup2\n      dup2\n      mstore\n      0x20\n      add\n      dup3\n      dup1\n      sload\n      tag_81\n      swap1\n      tag_80\n      jump\t// in\n    tag_81:\n      dup1\n      iszero\n      tag_82\n      jumpi\n      dup1\n      0x1f\n      lt\n      tag_83\n      jumpi\n      0x0100\n      dup1\n      dup4\n      sload\n      div\n      mul\n      dup4\n      mstore\n      swap2\n      0x20\n      add\n      swap2\n      jump(tag_82)\n    tag_83:\n      dup3\n      add\n      swap2\n      swap1\n      0x00\n      mstore\n      keccak256(0x00, 0x20)\n      swap1\n    tag_84:\n      dup2\n      sload\n      dup2\n      mstore\n      swap1\n      0x01\n      add\n      swap1\n      0x20\n      add\n      dup1\n      dup4\n      gt\n      tag_84\n      jumpi\n      dup3\n      swap1\n      sub\n      0x1f\n      and\n      dup3\n      add\n      swap2\n    tag_82:\n      pop\n      pop\n      pop\n      pop\n      pop\n      dup2\n      jump\t// out\n        /* \"#utility.yul\":7:82   */\n    tag_85:\n        /* \"#utility.yul\":40:46   */\n      0x00\n        /* \"#utility.yul\":73:75   */\n      0x40\n        /* \"#utility.yul\":67:76   */\n      mload\n        /* \"#utility.yul\":57:76   */\n      swap1\n      pop\n        /* \"#utility.yul\":7:82   */\n      swap1\n      jump\t// out\n        /* \"#utility.yul\":88:205   */\n    tag_86:\n        /* \"#utility.yul\":197:198   */\n      0x00\n        /* \"#utility.yul\":194:195   */\n      dup1\n        /* \"#utility.yul\":187:199   */\n      revert\n        /* \"#utility.yul\":211:328   */\n    tag_87:\n        /* \"#utility.yul\":320:321   */\n      0x00\n        /* \"#utility.yul\":317:318   */\n      dup1\n        /* \"#utility.yul\":310:322   */\n      revert\n        /* \"#utility.yul\":334:460   */\n    tag_88:\n        /* \"#utility.yul\":371:378   */\n      0x00\n        /* \"#utility.yul\":411:453   */\n      0xffffffffffffffffffffffffffffffffffffffff\n        /* \"#utility.yul\":404:409   */\n      dup3\n        /* \"#utility.yul\":400:454   */\n      and\n        /* \"#utility.yul\":389:454   */\n      swap1\n      pop\n        /* \"#utility.yul\":334:460   */\n      swap2\n      swap1\n      pop\n      jump\t// out\n        /* \"#utility.yul\":466:562   */\n    tag_89:\n        /* \"#utility.yul\":503:510   */\n      0x00\n        /* \"#utility.yul\":532:556   */\n      tag_143\n        /* \"#utility.yul\":550:555   */\n      dup3\n        /* \"#utility.yul\":532:556   */\n      tag_88\n      jump\t// in\n    tag_143:\n        /* \"#utility.yul\":521:556   */\n      swap1\n      pop\n        /* \"#utility.yul\":466:562   */\n      swap2\n      swap1\n      pop\n      jump\t// out\n        /* \"#utility.yul\":568:690   */\n    tag_90:\n        /* \"#utility.yul\":641:665   */\n      tag_145\n        /* \"#utility.yul\":659:664   */\n      dup2\n        /* \"#utility.yul\":641:665   */\n      tag_89\n      jump\t// in\n    tag_145:\n        /* \"#utility.yul\":634:639   */\n      dup2\n        /* \"#utility.yul\":631:666   */\n      eq\n        /* \"#utility.yul\":621:684   */\n      tag_146\n      jumpi\n        /* \"#utility.yul\":680:681   */\n      0x00\n        /* \"#utility.yul\":677:678   */\n      dup1\n        /* \"#utility.yul\":670:682   */\n      revert\n        /* \"#utility.yul\":621:684   */\n    tag_146:\n        /* \"#utility.yul\":568:690   */\n      pop\n      jump\t// out\n        /* \"#utility.yul\":696:835   */\n    tag_91:\n        /* \"#utility.yul\":742:747   */\n      0x00\n        /* \"#utility.yul\":780:786   */\n      dup2\n        /* \"#utility.yul\":767:787   */\n      calldataload\n        /* \"#utility.yul\":758:787   */\n      swap1\n      pop\n        /* \"#utility.yul\":796:829   */\n      tag_148\n        /* \"#utility.yul\":823:828   */\n      dup2\n        /* \"#utility.yul\":796:829   */\n      tag_90\n      jump\t// in\n    tag_148:\n        /* \"#utility.yul\":696:835   */\n      swap3\n      swap2\n      pop\n      pop\n      jump\t// out\n        /* \"#utility.yul\":841:1170   */\n    tag_11:\n        /* \"#utility.yul\":900:906   */\n      0x00\n        /* \"#utility.yul\":949:951   */\n      0x20\n        /* \"#utility.yul\":937:946   */\n      dup3\n        /* \"#utility.yul\":928:935   */\n      dup5\n        /* \"#utility.yul\":924:947   */\n      sub\n        /* \"#utility.yul\":920:952   */\n      slt\n        /* \"#utility.yul\":917:1036   */\n      iszero\n      tag_150\n      jumpi\n        /* \"#utility.yul\":955:1034   */\n      tag_151\n      tag_86\n      jump\t// in\n    tag_151:\n        /* \"#utility.yul\":917:1036   */\n    tag_150:\n        /* \"#utility.yul\":1075:1076   */\n      0x00\n        /* \"#utility.yul\":1100:1153   */\n      tag_152\n        /* \"#utility.yul\":1145:1152   */\n      dup5\n        /* \"#utility.yul\":1136:1142   */\n      dup3\n        /* \"#utility.yul\":1125:1134   */\n      dup6\n        /* \"#utility.yul\":1121:1143   */\n      add\n        /* \"#utility.yul\":1100:1153   */\n      tag_91\n      jump\t// in\n    tag_152:\n        /* \"#utility.yul\":1090:1153   */\n      swap2\n      pop\n        /* \"#utility.yul\":1046:1163   */\n      pop\n        /* \"#utility.yul\":841:1170   */\n      swap3\n      swap2\n      pop\n      pop\n      jump\t// out\n        /* \"#utility.yul\":1176:1266   */\n    tag_92:\n        /* \"#utility.yul\":1210:1217   */\n      0x00\n        /* \"#utility.yul\":1253:1258   */\n      dup2\n        /* \"#utility.yul\":1246:1259   */\n      iszero\n        /* \"#utility.yul\":1239:1260   */\n      iszero\n        /* \"#utility.yul\":1228:1260   */\n      swap1\n      pop\n        /* \"#utility.yul\":1176:1266   */\n      swap2\n      swap1\n      pop\n      jump\t// out\n        /* \"#utility.yul\":1272:1381   */\n    tag_93:\n        /* \"#utility.yul\":1353:1374   */\n      tag_155\n        /* \"#utility.yul\":1368:1373   */\n      dup2\n        /* \"#utility.yul\":1353:1374   */\n      tag_92\n      jump\t// in\n    tag_155:\n        /* \"#utility.yul\":1348:1351   */\n      dup3\n        /* \"#utility.yul\":1341:1375   */\n      mstore\n        /* \"#utility.yul\":1272:1381   */\n      pop\n      pop\n      jump\t// out\n        /* \"#utility.yul\":1387:1597   */\n    tag_14:\n        /* \"#utility.yul\":1474:1478   */\n      0x00\n        /* \"#utility.yul\":1512:1514   */\n      0x20\n        /* \"#utility.yul\":1501:1510   */\n      dup3\n        /* \"#utility.yul\":1497:1515   */\n      add\n        /* \"#utility.yul\":1489:1515   */\n      swap1\n      pop\n        /* \"#utility.yul\":1525:1590   */\n      tag_157\n        /* \"#utility.yul\":1587:1588   */\n      0x00\n        /* \"#utility.yul\":1576:1585   */\n      dup4\n        /* \"#utility.yul\":1572:1589   */\n      add\n        /* \"#utility.yul\":1563:1569   */\n      dup5\n        /* \"#utility.yul\":1525:1590   */\n      tag_93\n      jump\t// in\n    tag_157:\n        /* \"#utility.yul\":1387:1597   */\n      swap3\n      swap2\n      pop\n      pop\n      jump\t// out\n        /* \"#utility.yul\":1603:1783   */\n    tag_74:\n        /* \"#utility.yul\":1651:1728   */\n      0x4e487b7100000000000000000000000000000000000000000000000000000000\n        /* \"#utility.yul\":1648:1649   */\n      0x00\n        /* \"#utility.yul\":1641:1729   */\n      mstore\n        /* \"#utility.yul\":1748:1752   */\n      0x21\n        /* \"#utility.yul\":1745:1746   */\n      0x04\n        /* \"#utility.yul\":1738:1753   */\n      mstore\n        /* \"#utility.yul\":1772:1776   */\n      0x24\n        /* \"#utility.yul\":1769:1770   */\n      0x00\n        /* \"#utility.yul\":1762:1777   */\n      revert\n        /* \"#utility.yul\":1789:1902   */\n    tag_94:\n        /* \"#utility.yul\":1870:1871   */\n      0x04\n        /* \"#utility.yul\":1863:1868   */\n      dup2\n        /* \"#utility.yul\":1860:1872   */\n      lt\n        /* \"#utility.yul\":1850:1896   */\n      tag_160\n      jumpi\n        /* \"#utility.yul\":1876:1894   */\n      tag_161\n      tag_74\n      jump\t// in\n    tag_161:\n        /* \"#utility.yul\":1850:1896   */\n    tag_160:\n        /* \"#utility.yul\":1789:1902   */\n      pop\n      jump\t// out\n        /* \"#utility.yul\":1908:2035   */\n    tag_95:\n        /* \"#utility.yul\":1953:1960   */\n      0x00\n        /* \"#utility.yul\":1982:1987   */\n      dup2\n        /* \"#utility.yul\":1971:1987   */\n      swap1\n      pop\n        /* \"#utility.yul\":1988:2029   */\n      tag_163\n        /* \"#utility.yul\":2023:2028   */\n      dup3\n        /* \"#utility.yul\":1988:2029   */\n      tag_94\n      jump\t// in\n    tag_163:\n        /* \"#utility.yul\":1908:2035   */\n      swap2\n      swap1\n      pop\n      jump\t// out\n        /* \"#utility.yul\":2041:2168   */\n    tag_96:\n        /* \"#utility.yul\":2097:2106   */\n      0x00\n        /* \"#utility.yul\":2130:2162   */\n      tag_165\n        /* \"#utility.yul\":2156:2161   */\n      dup3\n        /* \"#utility.yul\":2130:2162   */\n      tag_95\n      jump\t// in\n    tag_165:\n        /* \"#utility.yul\":2117:2162   */\n      swap1\n      pop\n        /* \"#utility.yul\":2041:2168   */\n      swap2\n      swap1\n      pop\n      jump\t// out\n        /* \"#utility.yul\":2174:2317   */\n    tag_97:\n        /* \"#utility.yul\":2267:2310   */\n      tag_167\n        /* \"#utility.yul\":2304:2309   */\n      dup2\n        /* \"#utility.yul\":2267:2310   */\n      tag_96\n      jump\t// in\n    tag_167:\n        /* \"#utility.yul\":2262:2265   */\n      dup3\n        /* \"#utility.yul\":2255:2311   */\n      mstore\n        /* \"#utility.yul\":2174:2317   */\n      pop\n      pop\n      jump\t// out\n        /* \"#utility.yul\":2323:2557   */\n    tag_19:\n        /* \"#utility.yul\":2422:2426   */\n      0x00\n        /* \"#utility.yul\":2460:2462   */\n      0x20\n        /* \"#utility.yul\":2449:2458   */\n      dup3\n        /* \"#utility.yul\":2445:2463   */\n      add\n        /* \"#utility.yul\":2437:2463   */\n      swap1\n      pop\n        /* \"#utility.yul\":2473:2550   */\n      tag_169\n        /* \"#utility.yul\":2547:2548   */\n      0x00\n        /* \"#utility.yul\":2536:2545   */\n      dup4\n        /* \"#utility.yul\":2532:2549   */\n      add\n        /* \"#utility.yul\":2523:2529   */\n      dup5\n        /* \"#utility.yul\":2473:2550   */\n      tag_97\n      jump\t// in\n    tag_169:\n        /* \"#utility.yul\":2323:2557   */\n      swap3\n      swap2\n      pop\n      pop\n      jump\t// out\n        /* \"#utility.yul\":2563:2640   */\n    tag_98:\n        /* \"#utility.yul\":2600:2607   */\n      0x00\n        /* \"#utility.yul\":2629:2634   */\n      dup2\n        /* \"#utility.yul\":2618:2634   */\n      swap1\n      pop\n        /* \"#utility.yul\":2563:2640   */\n      swap2\n      swap1\n      pop\n      jump\t// out\n        /* \"#utility.yul\":2646:2768   */\n    tag_99:\n        /* \"#utility.yul\":2719:2743   */\n      tag_172\n        /* \"#utility.yul\":2737:2742   */\n      dup2\n        /* \"#utility.yul\":2719:2743   */\n      tag_98\n      jump\t// in\n    tag_172:\n        /* \"#utility.yul\":2712:2717   */\n      dup2\n        /* \"#utility.yul\":2709:2744   */\n      eq\n        /* \"#utility.yul\":2699:2762   */\n      tag_173\n      jumpi\n        /* \"#utility.yul\":2758:2759   */\n      0x00\n        /* \"#utility.yul\":2755:2756   */\n      dup1\n        /* \"#utility.yul\":2748:2760   */\n      revert\n        /* \"#utility.yul\":2699:2762   */\n    tag_173:\n        /* \"#utility.yul\":2646:2768   */\n      pop\n      jump\t// out\n        /* \"#utility.yul\":2774:2913   */\n    tag_100:\n        /* \"#utility.yul\":2820:2825   */\n      0x00\n        /* \"#utility.yul\":2858:2864   */\n      dup2\n        /* \"#utility.yul\":2845:2865   */\n      calldataload\n        /* \"#utility.yul\":2836:2865   */\n      swap1\n      pop\n        /* \"#utility.yul\":2874:2907   */\n      tag_175\n        /* \"#utility.yul\":2901:2906   */\n      dup2\n        /* \"#utility.yul\":2874:2907   */\n      tag_99\n      jump\t// in\n    tag_175:\n        /* \"#utility.yul\":2774:2913   */\n      swap3\n      swap2\n      pop\n      pop\n      jump\t// out\n        /* \"#utility.yul\":2919:3036   */\n    tag_101:\n        /* \"#utility.yul\":3028:3029   */\n      0x00\n        /* \"#utility.yul\":3025:3026   */\n      dup1\n        /* \"#utility.yul\":3018:3030   */\n      revert\n        /* \"#utility.yul\":3042:3159   */\n    tag_102:\n        /* \"#utility.yul\":3151:3152   */\n      0x00\n        /* \"#utility.yul\":3148:3149   */\n      dup1\n        /* \"#utility.yul\":3141:3153   */\n      revert\n        /* \"#utility.yul\":3165:3267   */\n    tag_103:\n        /* \"#utility.yul\":3206:3212   */\n      0x00\n        /* \"#utility.yul\":3257:3259   */\n      0x1f\n        /* \"#utility.yul\":3253:3260   */\n      not\n        /* \"#utility.yul\":3248:3250   */\n      0x1f\n        /* \"#utility.yul\":3241:3246   */\n      dup4\n        /* \"#utility.yul\":3237:3251   */\n      add\n        /* \"#utility.yul\":3233:3261   */\n      and\n        /* \"#utility.yul\":3223:3261   */\n      swap1\n      pop\n        /* \"#utility.yul\":3165:3267   */\n      swap2\n      swap1\n      pop\n      jump\t// out\n        /* \"#utility.yul\":3273:3453   */\n    tag_104:\n        /* \"#utility.yul\":3321:3398   */\n      0x4e487b7100000000000000000000000000000000000000000000000000000000\n        /* \"#utility.yul\":3318:3319   */\n      0x00\n        /* \"#utility.yul\":3311:3399   */\n      mstore\n        /* \"#utility.yul\":3418:3422   */\n      0x41\n        /* \"#utility.yul\":3415:3416   */\n      0x04\n        /* \"#utility.yul\":3408:3423   */\n      mstore\n        /* \"#utility.yul\":3442:3446   */\n      0x24\n        /* \"#utility.yul\":3439:3440   */\n      0x00\n        /* \"#utility.yul\":3432:3447   */\n      revert\n        /* \"#utility.yul\":3459:3740   */\n    tag_105:\n        /* \"#utility.yul\":3542:3569   */\n      tag_181\n        /* \"#utility.yul\":3564:3568   */\n      dup3\n        /* \"#utility.yul\":3542:3569   */\n      tag_103\n      jump\t// in\n    tag_181:\n        /* \"#utility.yul\":3534:3540   */\n      dup2\n        /* \"#utility.yul\":3530:3570   */\n      add\n        /* \"#utility.yul\":3672:3678   */\n      dup2\n        /* \"#utility.yul\":3660:3670   */\n      dup2\n        /* \"#utility.yul\":3657:3679   */\n      lt\n        /* \"#utility.yul\":3636:3654   */\n      0xffffffffffffffff\n        /* \"#utility.yul\":3624:3634   */\n      dup3\n        /* \"#utility.yul\":3621:3655   */\n      gt\n        /* \"#utility.yul\":3618:3680   */\n      or\n        /* \"#utility.yul\":3615:3703   */\n      iszero\n      tag_182\n      jumpi\n        /* \"#utility.yul\":3683:3701   */\n      tag_183\n      tag_104\n      jump\t// in\n    tag_183:\n        /* \"#utility.yul\":3615:3703   */\n    tag_182:\n        /* \"#utility.yul\":3723:3733   */\n      dup1\n        /* \"#utility.yul\":3719:3721   */\n      0x40\n        /* \"#utility.yul\":3712:3734   */\n      mstore\n        /* \"#utility.yul\":3502:3740   */\n      pop\n        /* \"#utility.yul\":3459:3740   */\n      pop\n      pop\n      jump\t// out\n        /* \"#utility.yul\":3746:3875   */\n    tag_106:\n        /* \"#utility.yul\":3780:3786   */\n      0x00\n        /* \"#utility.yul\":3807:3827   */\n      tag_185\n      tag_85\n      jump\t// in\n    tag_185:\n        /* \"#utility.yul\":3797:3827   */\n      swap1\n      pop\n        /* \"#utility.yul\":3836:3869   */\n      tag_186\n        /* \"#utility.yul\":3864:3868   */\n      dup3\n        /* \"#utility.yul\":3856:3862   */\n      dup3\n        /* \"#utility.yul\":3836:3869   */\n      tag_105\n      jump\t// in\n    tag_186:\n        /* \"#utility.yul\":3746:3875   */\n      swap2\n      swap1\n      pop\n      jump\t// out\n        /* \"#utility.yul\":3881:4189   */\n    tag_107:\n        /* \"#utility.yul\":3943:3947   */\n      0x00\n        /* \"#utility.yul\":4033:4051   */\n      0xffffffffffffffff\n        /* \"#utility.yul\":4025:4031   */\n      dup3\n        /* \"#utility.yul\":4022:4052   */\n      gt\n        /* \"#utility.yul\":4019:4075   */\n      iszero\n      tag_188\n      jumpi\n        /* \"#utility.yul\":4055:4073   */\n      tag_189\n      tag_104\n      jump\t// in\n    tag_189:\n        /* \"#utility.yul\":4019:4075   */\n    tag_188:\n        /* \"#utility.yul\":4093:4122   */\n      tag_190\n        /* \"#utility.yul\":4115:4121   */\n      dup3\n        /* \"#utility.yul\":4093:4122   */\n      tag_103\n      jump\t// in\n    tag_190:\n        /* \"#utility.yul\":4085:4122   */\n      swap1\n      pop\n        /* \"#utility.yul\":4177:4181   */\n      0x20\n        /* \"#utility.yul\":4171:4175   */\n      dup2\n        /* \"#utility.yul\":4167:4182   */\n      add\n        /* \"#utility.yul\":4159:4182   */\n      swap1\n      pop\n        /* \"#utility.yul\":3881:4189   */\n      swap2\n      swap1\n      pop\n      jump\t// out\n        /* \"#utility.yul\":4195:4349   */\n    tag_108:\n        /* \"#utility.yul\":4279:4285   */\n      dup3\n        /* \"#utility.yul\":4274:4277   */\n      dup2\n        /* \"#utility.yul\":4269:4272   */\n      dup4\n        /* \"#utility.yul\":4256:4286   */\n      calldatacopy\n        /* \"#utility.yul\":4341:4342   */\n      0x00\n        /* \"#utility.yul\":4332:4338   */\n      dup4\n        /* \"#utility.yul\":4327:4330   */\n      dup4\n        /* \"#utility.yul\":4323:4339   */\n      add\n        /* \"#utility.yul\":4316:4343   */\n      mstore\n        /* \"#utility.yul\":4195:4349   */\n      pop\n      pop\n      pop\n      jump\t// out\n        /* \"#utility.yul\":4355:4767   */\n    tag_109:\n        /* \"#utility.yul\":4433:4438   */\n      0x00\n        /* \"#utility.yul\":4458:4524   */\n      tag_193\n        /* \"#utility.yul\":4474:4523   */\n      tag_194\n        /* \"#utility.yul\":4516:4522   */\n      dup5\n        /* \"#utility.yul\":4474:4523   */\n      tag_107\n      jump\t// in\n    tag_194:\n        /* \"#utility.yul\":4458:4524   */\n      tag_106\n      jump\t// in\n    tag_193:\n        /* \"#utility.yul\":4449:4524   */\n      swap1\n      pop\n        /* \"#utility.yul\":4547:4553   */\n      dup3\n        /* \"#utility.yul\":4540:4545   */\n      dup2\n        /* \"#utility.yul\":4533:4554   */\n      mstore\n        /* \"#utility.yul\":4585:4589   */\n      0x20\n        /* \"#utility.yul\":4578:4583   */\n      dup2\n        /* \"#utility.yul\":4574:4590   */\n      add\n        /* \"#utility.yul\":4623:4626   */\n      dup5\n        /* \"#utility.yul\":4614:4620   */\n      dup5\n        /* \"#utility.yul\":4609:4612   */\n      dup5\n        /* \"#utility.yul\":4605:4621   */\n      add\n        /* \"#utility.yul\":4602:4627   */\n      gt\n        /* \"#utility.yul\":4599:4711   */\n      iszero\n      tag_195\n      jumpi\n        /* \"#utility.yul\":4630:4709   */\n      tag_196\n      tag_102\n      jump\t// in\n    tag_196:\n        /* \"#utility.yul\":4599:4711   */\n    tag_195:\n        /* \"#utility.yul\":4720:4761   */\n      tag_197\n        /* \"#utility.yul\":4754:4760   */\n      dup5\n        /* \"#utility.yul\":4749:4752   */\n      dup3\n        /* \"#utility.yul\":4744:4747   */\n      dup6\n        /* \"#utility.yul\":4720:4761   */\n      tag_108\n      jump\t// in\n    tag_197:\n        /* \"#utility.yul\":4439:4767   */\n      pop\n        /* \"#utility.yul\":4355:4767   */\n      swap4\n      swap3\n      pop\n      pop\n      pop\n      jump\t// out\n        /* \"#utility.yul\":4787:5127   */\n    tag_110:\n        /* \"#utility.yul\":4843:4848   */\n      0x00\n        /* \"#utility.yul\":4892:4895   */\n      dup3\n        /* \"#utility.yul\":4885:4889   */\n      0x1f\n        /* \"#utility.yul\":4877:4883   */\n      dup4\n        /* \"#utility.yul\":4873:4890   */\n      add\n        /* \"#utility.yul\":4869:4896   */\n      slt\n        /* \"#utility.yul\":4859:4981   */\n      tag_199\n      jumpi\n        /* \"#utility.yul\":4900:4979   */\n      tag_200\n      tag_101\n      jump\t// in\n    tag_200:\n        /* \"#utility.yul\":4859:4981   */\n    tag_199:\n        /* \"#utility.yul\":5017:5023   */\n      dup2\n        /* \"#utility.yul\":5004:5024   */\n      calldataload\n        /* \"#utility.yul\":5042:5121   */\n      tag_201\n        /* \"#utility.yul\":5117:5120   */\n      dup5\n        /* \"#utility.yul\":5109:5115   */\n      dup3\n        /* \"#utility.yul\":5102:5106   */\n      0x20\n        /* \"#utility.yul\":5094:5100   */\n      dup7\n        /* \"#utility.yul\":5090:5107   */\n      add\n        /* \"#utility.yul\":5042:5121   */\n      tag_109\n      jump\t// in\n    tag_201:\n        /* \"#utility.yul\":5033:5121   */\n      swap2\n      pop\n        /* \"#utility.yul\":4849:5127   */\n      pop\n        /* \"#utility.yul\":4787:5127   */\n      swap3\n      swap2\n      pop\n      pop\n      jump\t// out\n        /* \"#utility.yul\":5133:5787   */\n    tag_22:\n        /* \"#utility.yul\":5211:5217   */\n      0x00\n        /* \"#utility.yul\":5219:5225   */\n      dup1\n        /* \"#utility.yul\":5268:5270   */\n      0x40\n        /* \"#utility.yul\":5256:5265   */\n      dup4\n        /* \"#utility.yul\":5247:5254   */\n      dup6\n        /* \"#utility.yul\":5243:5266   */\n      sub\n        /* \"#utility.yul\":5239:5271   */\n      slt\n        /* \"#utility.yul\":5236:5355   */\n      iszero\n      tag_203\n      jumpi\n        /* \"#utility.yul\":5274:5353   */\n      tag_204\n      tag_86\n      jump\t// in\n    tag_204:\n        /* \"#utility.yul\":5236:5355   */\n    tag_203:\n        /* \"#utility.yul\":5394:5395   */\n      0x00\n        /* \"#utility.yul\":5419:5472   */\n      tag_205\n        /* \"#utility.yul\":5464:5471   */\n      dup6\n        /* \"#utility.yul\":5455:5461   */\n      dup3\n        /* \"#utility.yul\":5444:5453   */\n      dup7\n        /* \"#utility.yul\":5440:5462   */\n      add\n        /* \"#utility.yul\":5419:5472   */\n      tag_100\n      jump\t// in\n    tag_205:\n        /* \"#utility.yul\":5409:5472   */\n      swap3\n      pop\n        /* \"#utility.yul\":5365:5482   */\n      pop\n        /* \"#utility.yul\":5549:5551   */\n      0x20\n        /* \"#utility.yul\":5538:5547   */\n      dup4\n        /* \"#utility.yul\":5534:5552   */\n      add\n        /* \"#utility.yul\":5521:5553   */\n      calldataload\n        /* \"#utility.yul\":5580:5598   */\n      0xffffffffffffffff\n        /* \"#utility.yul\":5572:5578   */\n      dup2\n        /* \"#utility.yul\":5569:5599   */\n      gt\n        /* \"#utility.yul\":5566:5683   */\n      iszero\n      tag_206\n      jumpi\n        /* \"#utility.yul\":5602:5681   */\n      tag_207\n      tag_87\n      jump\t// in\n    tag_207:\n        /* \"#utility.yul\":5566:5683   */\n    tag_206:\n        /* \"#utility.yul\":5707:5770   */\n      tag_208\n        /* \"#utility.yul\":5762:5769   */\n      dup6\n        /* \"#utility.yul\":5753:5759   */\n      dup3\n        /* \"#utility.yul\":5742:5751   */\n      dup7\n        /* \"#utility.yul\":5738:5760   */\n      add\n        /* \"#utility.yul\":5707:5770   */\n      tag_110\n      jump\t// in\n    tag_208:\n        /* \"#utility.yul\":5697:5770   */\n      swap2\n      pop\n        /* \"#utility.yul\":5492:5780   */\n      pop\n        /* \"#utility.yul\":5133:5787   */\n      swap3\n      pop\n      swap3\n      swap1\n      pop\n      jump\t// out\n        /* \"#utility.yul\":5793:5911   */\n    tag_111:\n        /* \"#utility.yul\":5880:5904   */\n      tag_210\n        /* \"#utility.yul\":5898:5903   */\n      dup2\n        /* \"#utility.yul\":5880:5904   */\n      tag_89\n      jump\t// in\n    tag_210:\n        /* \"#utility.yul\":5875:5878   */\n      dup3\n        /* \"#utility.yul\":5868:5905   */\n      mstore\n        /* \"#utility.yul\":5793:5911   */\n      pop\n      pop\n      jump\t// out\n        /* \"#utility.yul\":5917:6139   */\n    tag_27:\n        /* \"#utility.yul\":6010:6014   */\n      0x00\n        /* \"#utility.yul\":6048:6050   */\n      0x20\n        /* \"#utility.yul\":6037:6046   */\n      dup3\n        /* \"#utility.yul\":6033:6051   */\n      add\n        /* \"#utility.yul\":6025:6051   */\n      swap1\n      pop\n        /* \"#utility.yul\":6061:6132   */\n      tag_212\n        /* \"#utility.yul\":6129:6130   */\n      0x00\n        /* \"#utility.yul\":6118:6127   */\n      dup4\n        /* \"#utility.yul\":6114:6131   */\n      add\n        /* \"#utility.yul\":6105:6111   */\n      dup5\n        /* \"#utility.yul\":6061:6132   */\n      tag_111\n      jump\t// in\n    tag_212:\n        /* \"#utility.yul\":5917:6139   */\n      swap3\n      swap2\n      pop\n      pop\n      jump\t// out\n        /* \"#utility.yul\":6145:6263   */\n    tag_112:\n        /* \"#utility.yul\":6232:6256   */\n      tag_214\n        /* \"#utility.yul\":6250:6255   */\n      dup2\n        /* \"#utility.yul\":6232:6256   */\n      tag_98\n      jump\t// in\n    tag_214:\n        /* \"#utility.yul\":6227:6230   */\n      dup3\n        /* \"#utility.yul\":6220:6257   */\n      mstore\n        /* \"#utility.yul\":6145:6263   */\n      pop\n      pop\n      jump\t// out\n        /* \"#utility.yul\":6269:6711   */\n    tag_32:\n        /* \"#utility.yul\":6418:6422   */\n      0x00\n        /* \"#utility.yul\":6456:6458   */\n      0x60\n        /* \"#utility.yul\":6445:6454   */\n      dup3\n        /* \"#utility.yul\":6441:6459   */\n      add\n        /* \"#utility.yul\":6433:6459   */\n      swap1\n      pop\n        /* \"#utility.yul\":6469:6540   */\n      tag_216\n        /* \"#utility.yul\":6537:6538   */\n      0x00\n        /* \"#utility.yul\":6526:6535   */\n      dup4\n        /* \"#utility.yul\":6522:6539   */\n      add\n        /* \"#utility.yul\":6513:6519   */\n      dup7\n        /* \"#utility.yul\":6469:6540   */\n      tag_112\n      jump\t// in\n    tag_216:\n        /* \"#utility.yul\":6550:6628   */\n      tag_217\n        /* \"#utility.yul\":6624:6626   */\n      0x20\n        /* \"#utility.yul\":6613:6622   */\n      dup4\n        /* \"#utility.yul\":6609:6627   */\n      add\n        /* \"#utility.yul\":6600:6606   */\n      dup6\n        /* \"#utility.yul\":6550:6628   */\n      tag_97\n      jump\t// in\n    tag_217:\n        /* \"#utility.yul\":6638:6704   */\n      tag_218\n        /* \"#utility.yul\":6700:6702   */\n      0x40\n        /* \"#utility.yul\":6689:6698   */\n      dup4\n        /* \"#utility.yul\":6685:6703   */\n      add\n        /* \"#utility.yul\":6676:6682   */\n      dup5\n        /* \"#utility.yul\":6638:6704   */\n      tag_93\n      jump\t// in\n    tag_218:\n        /* \"#utility.yul\":6269:6711   */\n      swap5\n      swap4\n      pop\n      pop\n      pop\n      pop\n      jump\t// out\n        /* \"#utility.yul\":6717:6794   */\n    tag_113:\n        /* \"#utility.yul\":6754:6761   */\n      0x00\n        /* \"#utility.yul\":6783:6788   */\n      dup2\n        /* \"#utility.yul\":6772:6788   */\n      swap1\n      pop\n        /* \"#utility.yul\":6717:6794   */\n      swap2\n      swap1\n      pop\n      jump\t// out\n        /* \"#utility.yul\":6800:6922   */\n    tag_114:\n        /* \"#utility.yul\":6873:6897   */\n      tag_221\n        /* \"#utility.yul\":6891:6896   */\n      dup2\n        /* \"#utility.yul\":6873:6897   */\n      tag_113\n      jump\t// in\n    tag_221:\n        /* \"#utility.yul\":6866:6871   */\n      dup2\n        /* \"#utility.yul\":6863:6898   */\n      eq\n        /* \"#utility.yul\":6853:6916   */\n      tag_222\n      jumpi\n        /* \"#utility.yul\":6912:6913   */\n      0x00\n        /* \"#utility.yul\":6909:6910   */\n      dup1\n        /* \"#utility.yul\":6902:6914   */\n      revert\n        /* \"#utility.yul\":6853:6916   */\n    tag_222:\n        /* \"#utility.yul\":6800:6922   */\n      pop\n      jump\t// out\n        /* \"#utility.yul\":6928:7067   */\n    tag_115:\n        /* \"#utility.yul\":6974:6979   */\n      0x00\n        /* \"#utility.yul\":7012:7018   */\n      dup2\n        /* \"#utility.yul\":6999:7019   */\n      calldataload\n        /* \"#utility.yul\":6990:7019   */\n      swap1\n      pop\n        /* \"#utility.yul\":7028:7061   */\n      tag_224\n        /* \"#utility.yul\":7055:7060   */\n      dup2\n        /* \"#utility.yul\":7028:7061   */\n      tag_114\n      jump\t// in\n    tag_224:\n        /* \"#utility.yul\":6928:7067   */\n      swap3\n      swap2\n      pop\n      pop\n      jump\t// out\n        /* \"#utility.yul\":7073:7402   */\n    tag_35:\n        /* \"#utility.yul\":7132:7138   */\n      0x00\n        /* \"#utility.yul\":7181:7183   */\n      0x20\n        /* \"#utility.yul\":7169:7178   */\n      dup3\n        /* \"#utility.yul\":7160:7167   */\n      dup5\n        /* \"#utility.yul\":7156:7179   */\n      sub\n        /* \"#utility.yul\":7152:7184   */\n      slt\n        /* \"#utility.yul\":7149:7268   */\n      iszero\n      tag_226\n      jumpi\n        /* \"#utility.yul\":7187:7266   */\n      tag_227\n      tag_86\n      jump\t// in\n    tag_227:\n        /* \"#utility.yul\":7149:7268   */\n    tag_226:\n        /* \"#utility.yul\":7307:7308   */\n      0x00\n        /* \"#utility.yul\":7332:7385   */\n      tag_228\n        /* \"#utility.yul\":7377:7384   */\n      dup5\n        /* \"#utility.yul\":7368:7374   */\n      dup3\n        /* \"#utility.yul\":7357:7366   */\n      dup6\n        /* \"#utility.yul\":7353:7375   */\n      add\n        /* \"#utility.yul\":7332:7385   */\n      tag_115\n      jump\t// in\n    tag_228:\n        /* \"#utility.yul\":7322:7385   */\n      swap2\n      pop\n        /* \"#utility.yul\":7278:7395   */\n      pop\n        /* \"#utility.yul\":7073:7402   */\n      swap3\n      swap2\n      pop\n      pop\n      jump\t// out\n        /* \"#utility.yul\":7408:7507   */\n    tag_116:\n        /* \"#utility.yul\":7460:7466   */\n      0x00\n        /* \"#utility.yul\":7494:7499   */\n      dup2\n        /* \"#utility.yul\":7488:7500   */\n      mload\n        /* \"#utility.yul\":7478:7500   */\n      swap1\n      pop\n        /* \"#utility.yul\":7408:7507   */\n      swap2\n      swap1\n      pop\n      jump\t// out\n        /* \"#utility.yul\":7513:7682   */\n    tag_117:\n        /* \"#utility.yul\":7597:7608   */\n      0x00\n        /* \"#utility.yul\":7631:7637   */\n      dup3\n        /* \"#utility.yul\":7626:7629   */\n      dup3\n        /* \"#utility.yul\":7619:7638   */\n      mstore\n        /* \"#utility.yul\":7671:7675   */\n      0x20\n        /* \"#utility.yul\":7666:7669   */\n      dup3\n        /* \"#utility.yul\":7662:7676   */\n      add\n        /* \"#utility.yul\":7647:7676   */\n      swap1\n      pop\n        /* \"#utility.yul\":7513:7682   */\n      swap3\n      swap2\n      pop\n      pop\n      jump\t// out\n        /* \"#utility.yul\":7688:7995   */\n    tag_118:\n        /* \"#utility.yul\":7756:7757   */\n      0x00\n        /* \"#utility.yul\":7766:7879   */\n    tag_232:\n        /* \"#utility.yul\":7780:7786   */\n      dup4\n        /* \"#utility.yul\":7777:7778   */\n      dup2\n        /* \"#utility.yul\":7774:7787   */\n      lt\n        /* \"#utility.yul\":7766:7879   */\n      iszero\n      tag_234\n      jumpi\n        /* \"#utility.yul\":7865:7866   */\n      dup1\n        /* \"#utility.yul\":7860:7863   */\n      dup3\n        /* \"#utility.yul\":7856:7867   */\n      add\n        /* \"#utility.yul\":7850:7868   */\n      mload\n        /* \"#utility.yul\":7846:7847   */\n      dup2\n        /* \"#utility.yul\":7841:7844   */\n      dup5\n        /* \"#utility.yul\":7837:7848   */\n      add\n        /* \"#utility.yul\":7830:7869   */\n      mstore\n        /* \"#utility.yul\":7802:7804   */\n      0x20\n        /* \"#utility.yul\":7799:7800   */\n      dup2\n        /* \"#utility.yul\":7795:7805   */\n      add\n        /* \"#utility.yul\":7790:7805   */\n      swap1\n      pop\n        /* \"#utility.yul\":7766:7879   */\n      jump(tag_232)\n    tag_234:\n        /* \"#utility.yul\":7897:7903   */\n      dup4\n        /* \"#utility.yul\":7894:7895   */\n      dup2\n        /* \"#utility.yul\":7891:7904   */\n      gt\n        /* \"#utility.yul\":7888:7989   */\n      iszero\n      tag_235\n      jumpi\n        /* \"#utility.yul\":7977:7978   */\n      0x00\n        /* \"#utility.yul\":7968:7974   */\n      dup5\n        /* \"#utility.yul\":7963:7966   */\n      dup5\n        /* \"#utility.yul\":7959:7975   */\n      add\n        /* \"#utility.yul\":7952:7979   */\n      mstore\n        /* \"#utility.yul\":7888:7989   */\n    tag_235:\n        /* \"#utility.yul\":7737:7995   */\n      pop\n        /* \"#utility.yul\":7688:7995   */\n      pop\n      pop\n      pop\n      jump\t// out\n        /* \"#utility.yul\":8001:8365   */\n    tag_119:\n        /* \"#utility.yul\":8089:8092   */\n      0x00\n        /* \"#utility.yul\":8117:8156   */\n      tag_237\n        /* \"#utility.yul\":8150:8155   */\n      dup3\n        /* \"#utility.yul\":8117:8156   */\n      tag_116\n      jump\t// in\n    tag_237:\n        /* \"#utility.yul\":8172:8243   */\n      tag_238\n        /* \"#utility.yul\":8236:8242   */\n      dup2\n        /* \"#utility.yul\":8231:8234   */\n      dup6\n        /* \"#utility.yul\":8172:8243   */\n      tag_117\n      jump\t// in\n    tag_238:\n        /* \"#utility.yul\":8165:8243   */\n      swap4\n      pop\n        /* \"#utility.yul\":8252:8304   */\n      tag_239\n        /* \"#utility.yul\":8297:8303   */\n      dup2\n        /* \"#utility.yul\":8292:8295   */\n      dup6\n        /* \"#utility.yul\":8285:8289   */\n      0x20\n        /* \"#utility.yul\":8278:8283   */\n      dup7\n        /* \"#utility.yul\":8274:8290   */\n      add\n        /* \"#utility.yul\":8252:8304   */\n      tag_118\n      jump\t// in\n    tag_239:\n        /* \"#utility.yul\":8329:8358   */\n      tag_240\n        /* \"#utility.yul\":8351:8357   */\n      dup2\n        /* \"#utility.yul\":8329:8358   */\n      tag_103\n      jump\t// in\n    tag_240:\n        /* \"#utility.yul\":8324:8327   */\n      dup5\n        /* \"#utility.yul\":8320:8359   */\n      add\n        /* \"#utility.yul\":8313:8359   */\n      swap2\n      pop\n        /* \"#utility.yul\":8093:8365   */\n      pop\n        /* \"#utility.yul\":8001:8365   */\n      swap3\n      swap2\n      pop\n      pop\n      jump\t// out\n        /* \"#utility.yul\":8371:8684   */\n    tag_38:\n        /* \"#utility.yul\":8484:8488   */\n      0x00\n        /* \"#utility.yul\":8522:8524   */\n      0x20\n        /* \"#utility.yul\":8511:8520   */\n      dup3\n        /* \"#utility.yul\":8507:8525   */\n      add\n        /* \"#utility.yul\":8499:8525   */\n      swap1\n      pop\n        /* \"#utility.yul\":8571:8580   */\n      dup2\n        /* \"#utility.yul\":8565:8569   */\n      dup2\n        /* \"#utility.yul\":8561:8581   */\n      sub\n        /* \"#utility.yul\":8557:8558   */\n      0x00\n        /* \"#utility.yul\":8546:8555   */\n      dup4\n        /* \"#utility.yul\":8542:8559   */\n      add\n        /* \"#utility.yul\":8535:8582   */\n      mstore\n        /* \"#utility.yul\":8599:8677   */\n      tag_242\n        /* \"#utility.yul\":8672:8676   */\n      dup2\n        /* \"#utility.yul\":8663:8669   */\n      dup5\n        /* \"#utility.yul\":8599:8677   */\n      tag_119\n      jump\t// in\n    tag_242:\n        /* \"#utility.yul\":8591:8677   */\n      swap1\n      pop\n        /* \"#utility.yul\":8371:8684   */\n      swap3\n      swap2\n      pop\n      pop\n      jump\t// out\n        /* \"#utility.yul\":8690:8859   */\n    tag_120:\n        /* \"#utility.yul\":8830:8851   */\n      0x55736572206e6f74207265676973746572656400000000000000000000000000\n        /* \"#utility.yul\":8826:8827   */\n      0x00\n        /* \"#utility.yul\":8818:8824   */\n      dup3\n        /* \"#utility.yul\":8814:8828   */\n      add\n        /* \"#utility.yul\":8807:8852   */\n      mstore\n        /* \"#utility.yul\":8690:8859   */\n      pop\n      jump\t// out\n        /* \"#utility.yul\":8865:9231   */\n    tag_121:\n        /* \"#utility.yul\":9007:9010   */\n      0x00\n        /* \"#utility.yul\":9028:9095   */\n      tag_245\n        /* \"#utility.yul\":9092:9094   */\n      0x13\n        /* \"#utility.yul\":9087:9090   */\n      dup4\n        /* \"#utility.yul\":9028:9095   */\n      tag_117\n      jump\t// in\n    tag_245:\n        /* \"#utility.yul\":9021:9095   */\n      swap2\n      pop\n        /* \"#utility.yul\":9104:9197   */\n      tag_246\n        /* \"#utility.yul\":9193:9196   */\n      dup3\n        /* \"#utility.yul\":9104:9197   */\n      tag_120\n      jump\t// in\n    tag_246:\n        /* \"#utility.yul\":9222:9224   */\n      0x20\n        /* \"#utility.yul\":9217:9220   */\n      dup3\n        /* \"#utility.yul\":9213:9225   */\n      add\n        /* \"#utility.yul\":9206:9225   */\n      swap1\n      pop\n        /* \"#utility.yul\":8865:9231   */\n      swap2\n      swap1\n      pop\n      jump\t// out\n        /* \"#utility.yul\":9237:9656   */\n    tag_43:\n        /* \"#utility.yul\":9403:9407   */\n      0x00\n        /* \"#utility.yul\":9441:9443   */\n      0x20\n        /* \"#utility.yul\":9430:9439   */\n      dup3\n        /* \"#utility.yul\":9426:9444   */\n      add\n        /* \"#utility.yul\":9418:9444   */\n      swap1\n      pop\n        /* \"#utility.yul\":9490:9499   */\n      dup2\n        /* \"#utility.yul\":9484:9488   */\n      dup2\n        /* \"#utility.yul\":9480:9500   */\n      sub\n        /* \"#utility.yul\":9476:9477   */\n      0x00\n        /* \"#utility.yul\":9465:9474   */\n      dup4\n        /* \"#utility.yul\":9461:9478   */\n      add\n        /* \"#utility.yul\":9454:9501   */\n      mstore\n        /* \"#utility.yul\":9518:9649   */\n      tag_248\n        /* \"#utility.yul\":9644:9648   */\n      dup2\n        /* \"#utility.yul\":9518:9649   */\n      tag_121\n      jump\t// in\n    tag_248:\n        /* \"#utility.yul\":9510:9649   */\n      swap1\n      pop\n        /* \"#utility.yul\":9237:9656   */\n      swap2\n      swap1\n      pop\n      jump\t// out\n        /* \"#utility.yul\":9662:9836   */\n    tag_122:\n        /* \"#utility.yul\":9802:9828   */\n      0x5573657220616c72656164792072656769737465726564210000000000000000\n        /* \"#utility.yul\":9798:9799   */\n      0x00\n        /* \"#utility.yul\":9790:9796   */\n      dup3\n        /* \"#utility.yul\":9786:9800   */\n      add\n        /* \"#utility.yul\":9779:9829   */\n      mstore\n        /* \"#utility.yul\":9662:9836   */\n      pop\n      jump\t// out\n        /* \"#utility.yul\":9842:10208   */\n    tag_123:\n        /* \"#utility.yul\":9984:9987   */\n      0x00\n        /* \"#utility.yul\":10005:10072   */\n      tag_251\n        /* \"#utility.yul\":10069:10071   */\n      0x18\n        /* \"#utility.yul\":10064:10067   */\n      dup4\n        /* \"#utility.yul\":10005:10072   */\n      tag_117\n      jump\t// in\n    tag_251:\n        /* \"#utility.yul\":9998:10072   */\n      swap2\n      pop\n        /* \"#utility.yul\":10081:10174   */\n      tag_252\n        /* \"#utility.yul\":10170:10173   */\n      dup3\n        /* \"#utility.yul\":10081:10174   */\n      tag_122\n      jump\t// in\n    tag_252:\n        /* \"#utility.yul\":10199:10201   */\n      0x20\n        /* \"#utility.yul\":10194:10197   */\n      dup3\n        /* \"#utility.yul\":10190:10202   */\n      add\n        /* \"#utility.yul\":10183:10202   */\n      swap1\n      pop\n        /* \"#utility.yul\":9842:10208   */\n      swap2\n      swap1\n      pop\n      jump\t// out\n        /* \"#utility.yul\":10214:10633   */\n    tag_48:\n        /* \"#utility.yul\":10380:10384   */\n      0x00\n        /* \"#utility.yul\":10418:10420   */\n      0x20\n        /* \"#utility.yul\":10407:10416   */\n      dup3\n        /* \"#utility.yul\":10403:10421   */\n      add\n        /* \"#utility.yul\":10395:10421   */\n      swap1\n      pop\n        /* \"#utility.yul\":10467:10476   */\n      dup2\n        /* \"#utility.yul\":10461:10465   */\n      dup2\n        /* \"#utility.yul\":10457:10477   */\n      sub\n        /* \"#utility.yul\":10453:10454   */\n      0x00\n        /* \"#utility.yul\":10442:10451   */\n      dup4\n        /* \"#utility.yul\":10438:10455   */\n      add\n        /* \"#utility.yul\":10431:10478   */\n      mstore\n        /* \"#utility.yul\":10495:10626   */\n      tag_254\n        /* \"#utility.yul\":10621:10625   */\n      dup2\n        /* \"#utility.yul\":10495:10626   */\n      tag_123\n      jump\t// in\n    tag_254:\n        /* \"#utility.yul\":10487:10626   */\n      swap1\n      pop\n        /* \"#utility.yul\":10214:10633   */\n      swap2\n      swap1\n      pop\n      jump\t// out\n        /* \"#utility.yul\":10639:10787   */\n    tag_124:\n        /* \"#utility.yul\":10741:10752   */\n      0x00\n        /* \"#utility.yul\":10778:10781   */\n      dup2\n        /* \"#utility.yul\":10763:10781   */\n      swap1\n      pop\n        /* \"#utility.yul\":10639:10787   */\n      swap3\n      swap2\n      pop\n      pop\n      jump\t// out\n        /* \"#utility.yul\":10793:10950   */\n    tag_125:\n        /* \"#utility.yul\":10933:10942   */\n      0x50617469656e7400000000000000000000000000000000000000000000000000\n        /* \"#utility.yul\":10929:10930   */\n      0x00\n        /* \"#utility.yul\":10921:10927   */\n      dup3\n        /* \"#utility.yul\":10917:10931   */\n      add\n        /* \"#utility.yul\":10910:10943   */\n      mstore\n        /* \"#utility.yul\":10793:10950   */\n      pop\n      jump\t// out\n        /* \"#utility.yul\":10956:11356   */\n    tag_126:\n        /* \"#utility.yul\":11116:11119   */\n      0x00\n        /* \"#utility.yul\":11137:11221   */\n      tag_258\n        /* \"#utility.yul\":11219:11220   */\n      0x07\n        /* \"#utility.yul\":11214:11217   */\n      dup4\n        /* \"#utility.yul\":11137:11221   */\n      tag_124\n      jump\t// in\n    tag_258:\n        /* \"#utility.yul\":11130:11221   */\n      swap2\n      pop\n        /* \"#utility.yul\":11230:11323   */\n      tag_259\n        /* \"#utility.yul\":11319:11322   */\n      dup3\n        /* \"#utility.yul\":11230:11323   */\n      tag_125\n      jump\t// in\n    tag_259:\n        /* \"#utility.yul\":11348:11349   */\n      0x07\n        /* \"#utility.yul\":11343:11346   */\n      dup3\n        /* \"#utility.yul\":11339:11350   */\n      add\n        /* \"#utility.yul\":11332:11350   */\n      swap1\n      pop\n        /* \"#utility.yul\":10956:11356   */\n      swap2\n      swap1\n      pop\n      jump\t// out\n        /* \"#utility.yul\":11362:11743   */\n    tag_50:\n        /* \"#utility.yul\":11547:11550   */\n      0x00\n        /* \"#utility.yul\":11569:11717   */\n      tag_261\n        /* \"#utility.yul\":11713:11716   */\n      dup3\n        /* \"#utility.yul\":11569:11717   */\n      tag_126\n      jump\t// in\n    tag_261:\n        /* \"#utility.yul\":11562:11717   */\n      swap2\n      pop\n        /* \"#utility.yul\":11734:11737   */\n      dup2\n        /* \"#utility.yul\":11727:11737   */\n      swap1\n      pop\n        /* \"#utility.yul\":11362:11743   */\n      swap2\n      swap1\n      pop\n      jump\t// out\n        /* \"#utility.yul\":11749:12126   */\n    tag_127:\n        /* \"#utility.yul\":11855:11858   */\n      0x00\n        /* \"#utility.yul\":11883:11922   */\n      tag_263\n        /* \"#utility.yul\":11916:11921   */\n      dup3\n        /* \"#utility.yul\":11883:11922   */\n      tag_116\n      jump\t// in\n    tag_263:\n        /* \"#utility.yul\":11938:12027   */\n      tag_264\n        /* \"#utility.yul\":12020:12026   */\n      dup2\n        /* \"#utility.yul\":12015:12018   */\n      dup6\n        /* \"#utility.yul\":11938:12027   */\n      tag_124\n      jump\t// in\n    tag_264:\n        /* \"#utility.yul\":11931:12027   */\n      swap4\n      pop\n        /* \"#utility.yul\":12036:12088   */\n      tag_265\n        /* \"#utility.yul\":12081:12087   */\n      dup2\n        /* \"#utility.yul\":12076:12079   */\n      dup6\n        /* \"#utility.yul\":12069:12073   */\n      0x20\n        /* \"#utility.yul\":12062:12067   */\n      dup7\n        /* \"#utility.yul\":12058:12074   */\n      add\n        /* \"#utility.yul\":12036:12088   */\n      tag_118\n      jump\t// in\n    tag_265:\n        /* \"#utility.yul\":12113:12119   */\n      dup1\n        /* \"#utility.yul\":12108:12111   */\n      dup5\n        /* \"#utility.yul\":12104:12120   */\n      add\n        /* \"#utility.yul\":12097:12120   */\n      swap2\n      pop\n        /* \"#utility.yul\":11859:12126   */\n      pop\n        /* \"#utility.yul\":11749:12126   */\n      swap3\n      swap2\n      pop\n      pop\n      jump\t// out\n        /* \"#utility.yul\":12132:12407   */\n    tag_52:\n        /* \"#utility.yul\":12264:12267   */\n      0x00\n        /* \"#utility.yul\":12286:12381   */\n      tag_267\n        /* \"#utility.yul\":12377:12380   */\n      dup3\n        /* \"#utility.yul\":12368:12374   */\n      dup5\n        /* \"#utility.yul\":12286:12381   */\n      tag_127\n      jump\t// in\n    tag_267:\n        /* \"#utility.yul\":12279:12381   */\n      swap2\n      pop\n        /* \"#utility.yul\":12398:12401   */\n      dup2\n        /* \"#utility.yul\":12391:12401   */\n      swap1\n      pop\n        /* \"#utility.yul\":12132:12407   */\n      swap3\n      swap2\n      pop\n      pop\n      jump\t// out\n        /* \"#utility.yul\":12413:12575   */\n    tag_128:\n        /* \"#utility.yul\":12553:12567   */\n      0x4361726550726f76696465720000000000000000000000000000000000000000\n        /* \"#utility.yul\":12549:12550   */\n      0x00\n        /* \"#utility.yul\":12541:12547   */\n      dup3\n        /* \"#utility.yul\":12537:12551   */\n      add\n        /* \"#utility.yul\":12530:12568   */\n      mstore\n        /* \"#utility.yul\":12413:12575   */\n      pop\n      jump\t// out\n        /* \"#utility.yul\":12581:12983   */\n    tag_129:\n        /* \"#utility.yul\":12741:12744   */\n      0x00\n        /* \"#utility.yul\":12762:12847   */\n      tag_270\n        /* \"#utility.yul\":12844:12846   */\n      0x0c\n        /* \"#utility.yul\":12839:12842   */\n      dup4\n        /* \"#utility.yul\":12762:12847   */\n      tag_124\n      jump\t// in\n    tag_270:\n        /* \"#utility.yul\":12755:12847   */\n      swap2\n      pop\n        /* \"#utility.yul\":12856:12949   */\n      tag_271\n        /* \"#utility.yul\":12945:12948   */\n      dup3\n        /* \"#utility.yul\":12856:12949   */\n      tag_128\n      jump\t// in\n    tag_271:\n        /* \"#utility.yul\":12974:12976   */\n      0x0c\n        /* \"#utility.yul\":12969:12972   */\n      dup3\n        /* \"#utility.yul\":12965:12977   */\n      add\n        /* \"#utility.yul\":12958:12977   */\n      swap1\n      pop\n        /* \"#utility.yul\":12581:12983   */\n      swap2\n      swap1\n      pop\n      jump\t// out\n        /* \"#utility.yul\":12989:13370   */\n    tag_56:\n        /* \"#utility.yul\":13174:13177   */\n      0x00\n        /* \"#utility.yul\":13196:13344   */\n      tag_273\n        /* \"#utility.yul\":13340:13343   */\n      dup3\n        /* \"#utility.yul\":13196:13344   */\n      tag_129\n      jump\t// in\n    tag_273:\n        /* \"#utility.yul\":13189:13344   */\n      swap2\n      pop\n        /* \"#utility.yul\":13361:13364   */\n      dup2\n        /* \"#utility.yul\":13354:13364   */\n      swap1\n      pop\n        /* \"#utility.yul\":12989:13370   */\n      swap2\n      swap1\n      pop\n      jump\t// out\n        /* \"#utility.yul\":13376:13536   */\n    tag_130:\n        /* \"#utility.yul\":13516:13528   */\n      0x5265736561726368657200000000000000000000000000000000000000000000\n        /* \"#utility.yul\":13512:13513   */\n      0x00\n        /* \"#utility.yul\":13504:13510   */\n      dup3\n        /* \"#utility.yul\":13500:13514   */\n      add\n        /* \"#utility.yul\":13493:13529   */\n      mstore\n        /* \"#utility.yul\":13376:13536   */\n      pop\n      jump\t// out\n        /* \"#utility.yul\":13542:13944   */\n    tag_131:\n        /* \"#utility.yul\":13702:13705   */\n      0x00\n        /* \"#utility.yul\":13723:13808   */\n      tag_276\n        /* \"#utility.yul\":13805:13807   */\n      0x0a\n        /* \"#utility.yul\":13800:13803   */\n      dup4\n        /* \"#utility.yul\":13723:13808   */\n      tag_124\n      jump\t// in\n    tag_276:\n        /* \"#utility.yul\":13716:13808   */\n      swap2\n      pop\n        /* \"#utility.yul\":13817:13910   */\n      tag_277\n        /* \"#utility.yul\":13906:13909   */\n      dup3\n        /* \"#utility.yul\":13817:13910   */\n      tag_130\n      jump\t// in\n    tag_277:\n        /* \"#utility.yul\":13935:13937   */\n      0x0a\n        /* \"#utility.yul\":13930:13933   */\n      dup3\n        /* \"#utility.yul\":13926:13938   */\n      add\n        /* \"#utility.yul\":13919:13938   */\n      swap1\n      pop\n        /* \"#utility.yul\":13542:13944   */\n      swap2\n      swap1\n      pop\n      jump\t// out\n        /* \"#utility.yul\":13950:14331   */\n    tag_61:\n        /* \"#utility.yul\":14135:14138   */\n      0x00\n        /* \"#utility.yul\":14157:14305   */\n      tag_279\n        /* \"#utility.yul\":14301:14304   */\n      dup3\n        /* \"#utility.yul\":14157:14305   */\n      tag_131\n      jump\t// in\n    tag_279:\n        /* \"#utility.yul\":14150:14305   */\n      swap2\n      pop\n        /* \"#utility.yul\":14322:14325   */\n      dup2\n        /* \"#utility.yul\":14315:14325   */\n      swap1\n      pop\n        /* \"#utility.yul\":13950:14331   */\n      swap2\n      swap1\n      pop\n      jump\t// out\n        /* \"#utility.yul\":14337:14496   */\n    tag_132:\n        /* \"#utility.yul\":14477:14488   */\n      0x526567756c61746f720000000000000000000000000000000000000000000000\n        /* \"#utility.yul\":14473:14474   */\n      0x00\n        /* \"#utility.yul\":14465:14471   */\n      dup3\n        /* \"#utility.yul\":14461:14475   */\n      add\n        /* \"#utility.yul\":14454:14489   */\n      mstore\n        /* \"#utility.yul\":14337:14496   */\n      pop\n      jump\t// out\n        /* \"#utility.yul\":14502:14902   */\n    tag_133:\n        /* \"#utility.yul\":14662:14665   */\n      0x00\n        /* \"#utility.yul\":14683:14767   */\n      tag_282\n        /* \"#utility.yul\":14765:14766   */\n      0x09\n        /* \"#utility.yul\":14760:14763   */\n      dup4\n        /* \"#utility.yul\":14683:14767   */\n      tag_124\n      jump\t// in\n    tag_282:\n        /* \"#utility.yul\":14676:14767   */\n      swap2\n      pop\n        /* \"#utility.yul\":14776:14869   */\n      tag_283\n        /* \"#utility.yul\":14865:14868   */\n      dup3\n        /* \"#utility.yul\":14776:14869   */\n      tag_132\n      jump\t// in\n    tag_283:\n        /* \"#utility.yul\":14894:14895   */\n      0x09\n        /* \"#utility.yul\":14889:14892   */\n      dup3\n        /* \"#utility.yul\":14885:14896   */\n      add\n        /* \"#utility.yul\":14878:14896   */\n      swap1\n      pop\n        /* \"#utility.yul\":14502:14902   */\n      swap2\n      swap1\n      pop\n      jump\t// out\n        /* \"#utility.yul\":14908:15289   */\n    tag_66:\n        /* \"#utility.yul\":15093:15096   */\n      0x00\n        /* \"#utility.yul\":15115:15263   */\n      tag_285\n        /* \"#utility.yul\":15259:15262   */\n      dup3\n        /* \"#utility.yul\":15115:15263   */\n      tag_133\n      jump\t// in\n    tag_285:\n        /* \"#utility.yul\":15108:15263   */\n      swap2\n      pop\n        /* \"#utility.yul\":15280:15283   */\n      dup2\n        /* \"#utility.yul\":15273:15283   */\n      swap1\n      pop\n        /* \"#utility.yul\":14908:15289   */\n      swap2\n      swap1\n      pop\n      jump\t// out\n        /* \"#utility.yul\":15295:15458   */\n    tag_134:\n        /* \"#utility.yul\":15435:15450   */\n      0x496e76616c696420726f6c652100000000000000000000000000000000000000\n        /* \"#utility.yul\":15431:15432   */\n      0x00\n        /* \"#utility.yul\":15423:15429   */\n      dup3\n        /* \"#utility.yul\":15419:15433   */\n      add\n        /* \"#utility.yul\":15412:15451   */\n      mstore\n        /* \"#utility.yul\":15295:15458   */\n      pop\n      jump\t// out\n        /* \"#utility.yul\":15464:15830   */\n    tag_135:\n        /* \"#utility.yul\":15606:15609   */\n      0x00\n        /* \"#utility.yul\":15627:15694   */\n      tag_288\n        /* \"#utility.yul\":15691:15693   */\n      0x0d\n        /* \"#utility.yul\":15686:15689   */\n      dup4\n        /* \"#utility.yul\":15627:15694   */\n      tag_117\n      jump\t// in\n    tag_288:\n        /* \"#utility.yul\":15620:15694   */\n      swap2\n      pop\n        /* \"#utility.yul\":15703:15796   */\n      tag_289\n        /* \"#utility.yul\":15792:15795   */\n      dup3\n        /* \"#utility.yul\":15703:15796   */\n      tag_134\n      jump\t// in\n    tag_289:\n        /* \"#utility.yul\":15821:15823   */\n      0x20\n        /* \"#utility.yul\":15816:15819   */\n      dup3\n        /* \"#utility.yul\":15812:15824   */\n      add\n        /* \"#utility.yul\":15805:15824   */\n      swap1\n      pop\n        /* \"#utility.yul\":15464:15830   */\n      swap2\n      swap1\n      pop\n      jump\t// out\n        /* \"#utility.yul\":15836:16255   */\n    tag_71:\n        /* \"#utility.yul\":16002:16006   */\n      0x00\n        /* \"#utility.yul\":16040:16042   */\n      0x20\n        /* \"#utility.yul\":16029:16038   */\n      dup3\n        /* \"#utility.yul\":16025:16043   */\n      add\n        /* \"#utility.yul\":16017:16043   */\n      swap1\n      pop\n        /* \"#utility.yul\":16089:16098   */\n      dup2\n        /* \"#utility.yul\":16083:16087   */\n      dup2\n        /* \"#utility.yul\":16079:16099   */\n      sub\n        /* \"#utility.yul\":16075:16076   */\n      0x00\n        /* \"#utility.yul\":16064:16073   */\n      dup4\n        /* \"#utility.yul\":16060:16077   */\n      add\n        /* \"#utility.yul\":16053:16100   */\n      mstore\n        /* \"#utility.yul\":16117:16248   */\n      tag_291\n        /* \"#utility.yul\":16243:16247   */\n      dup2\n        /* \"#utility.yul\":16117:16248   */\n      tag_135\n      jump\t// in\n    tag_291:\n        /* \"#utility.yul\":16109:16248   */\n      swap1\n      pop\n        /* \"#utility.yul\":15836:16255   */\n      swap2\n      swap1\n      pop\n      jump\t// out\n        /* \"#utility.yul\":16261:16441   */\n    tag_136:\n        /* \"#utility.yul\":16309:16386   */\n      0x4e487b7100000000000000000000000000000000000000000000000000000000\n        /* \"#utility.yul\":16306:16307   */\n      0x00\n        /* \"#utility.yul\":16299:16387   */\n      mstore\n        /* \"#utility.yul\":16406:16410   */\n      0x22\n        /* \"#utility.yul\":16403:16404   */\n      0x04\n        /* \"#utility.yul\":16396:16411   */\n      mstore\n        /* \"#utility.yul\":16430:16434   */\n      0x24\n        /* \"#utility.yul\":16427:16428   */\n      0x00\n        /* \"#utility.yul\":16420:16435   */\n      revert\n        /* \"#utility.yul\":16447:16767   */\n    tag_80:\n        /* \"#utility.yul\":16491:16497   */\n      0x00\n        /* \"#utility.yul\":16528:16529   */\n      0x02\n        /* \"#utility.yul\":16522:16526   */\n      dup3\n        /* \"#utility.yul\":16518:16530   */\n      div\n        /* \"#utility.yul\":16508:16530   */\n      swap1\n      pop\n        /* \"#utility.yul\":16575:16576   */\n      0x01\n        /* \"#utility.yul\":16569:16573   */\n      dup3\n        /* \"#utility.yul\":16565:16577   */\n      and\n        /* \"#utility.yul\":16596:16614   */\n      dup1\n        /* \"#utility.yul\":16586:16667   */\n      tag_294\n      jumpi\n        /* \"#utility.yul\":16652:16656   */\n      0x7f\n        /* \"#utility.yul\":16644:16650   */\n      dup3\n        /* \"#utility.yul\":16640:16657   */\n      and\n        /* \"#utility.yul\":16630:16657   */\n      swap2\n      pop\n        /* \"#utility.yul\":16586:16667   */\n    tag_294:\n        /* \"#utility.yul\":16714:16716   */\n      0x20\n        /* \"#utility.yul\":16706:16712   */\n      dup3\n        /* \"#utility.yul\":16703:16717   */\n      lt\n        /* \"#utility.yul\":16683:16701   */\n      dup2\n        /* \"#utility.yul\":16680:16718   */\n      eq\n        /* \"#utility.yul\":16677:16761   */\n      iszero\n      tag_295\n      jumpi\n        /* \"#utility.yul\":16733:16751   */\n      tag_296\n      tag_136\n      jump\t// in\n    tag_296:\n        /* \"#utility.yul\":16677:16761   */\n    tag_295:\n        /* \"#utility.yul\":16498:16767   */\n      pop\n        /* \"#utility.yul\":16447:16767   */\n      swap2\n      swap1\n      pop\n      jump\t// out\n\n    auxdata: 0xa2646970667358221220c615089e137e9ec8df160aeb2e6fc7e3d110b6436ff6bcd8b266ff42b51fdcb064736f6c634300080a0033\n}\n",
    "bytecode": {
      "linkReferences": {},
      "object": "608060405260405180608001604052806040518060400160405280600781526020017f50617469656e740000000000000000000000000000000000000000000000000081525081526020016040518060400160405280600c81526020017f4361726550726f7669646572000000000000000000000000000000000000000081525081526020016040518060400160405280600a81526020017f526573656172636865720000000000000000000000000000000000000000000081525081526020016040518060400160405280600981526020017f526567756c61746f72000000000000000000000000000000000000000000000081525081525060019060046200010b92919062000161565b503480156200011957600080fd5b5033600560006101000a81548173ffffffffffffffffffffffffffffffffffffffff021916908373ffffffffffffffffffffffffffffffffffffffff1602179055506200033e565b8260048101928215620001a8579160200282015b82811115620001a757825182908051906020019062000196929190620001bb565b509160200191906001019062000175565b5b509050620001b791906200024c565b5090565b828054620001c99062000308565b90600052602060002090601f016020900481019282620001ed576000855562000239565b82601f106200020857805160ff191683800117855562000239565b8280016001018555821562000239579182015b82811115620002385782518255916020019190600101906200021b565b5b50905062000248919062000274565b5090565b5b8082111562000270576000818162000266919062000293565b506001016200024d565b5090565b5b808211156200028f57600081600090555060010162000275565b5090565b508054620002a19062000308565b6000825580601f10620002b55750620002d6565b601f016020900490600052602060002090810190620002d5919062000274565b5b50565b7f4e487b7100000000000000000000000000000000000000000000000000000000600052602260045260246000fd5b600060028204905060018216806200032157607f821691505b60208210811415620003385762000337620002d9565b5b50919050565b610ee1806200034e6000396000f3fe608060405234801561001057600080fd5b50600436106100625760003560e01c80631e9d48cf1461006757806327820851146100975780634a54315c146100c75780638da5cb5b146100e3578063a87430ba14610101578063bfda4a4914610133575b600080fd5b610081600480360381019061007c91906106e5565b610163565b60405161008e919061072d565b60405180910390f35b6100b160048036038101906100ac91906106e5565b6101bb565b6040516100be91906107bf565b60405180910390f35b6100e160048036038101906100dc9190610956565b6102a1565b005b6100eb610566565b6040516100f891906109c1565b60405180910390f35b61011b600480360381019061011691906106e5565b61058c565b60405161012a939291906109eb565b60405180910390f35b61014d60048036038101906101489190610a58565b6105d0565b60405161015a9190610b0d565b60405180910390f35b60008060008373ffffffffffffffffffffffffffffffffffffffff1673ffffffffffffffffffffffffffffffffffffffff16815260200190815260200160002060010160019054906101000a900460ff169050919050565b60008060008373ffffffffffffffffffffffffffffffffffffffff1673ffffffffffffffffffffffffffffffffffffffff16815260200190815260200160002060010160019054906101000a900460ff1661024b576040517f08c379a000000000000000000000000000000000000000000000000000000000815260040161024290610b7b565b60405180910390fd5b6000808373ffffffffffffffffffffffffffffffffffffffff1673ffffffffffffffffffffffffffffffffffffffff16815260200190815260200160002060010160009054906101000a900460ff169050919050565b6102aa33610163565b156102ea576040517f08c379a00000000000000000000000000000000000000000000000000000000081526004016102e190610be7565b60405180910390fd5b60006040516020016102fb90610c5e565b60405160208183030381529060405280519060200120826040516020016103229190610ca4565b6040516020818303038152906040528051906020012014156103475760009050610496565b60405160200161035690610d07565b604051602081830303815290604052805190602001208260405160200161037d9190610ca4565b6040516020818303038152906040528051906020012014156103a25760019050610495565b6040516020016103b190610d68565b60405160208183030381529060405280519060200120826040516020016103d89190610ca4565b6040516020818303038152906040528051906020012014156103fd5760029050610494565b60405160200161040c90610dc9565b60405160208183030381529060405280519060200120826040516020016104339190610ca4565b6040516020818303038152906040528051906020012014156104585760039050610493565b6040517f08c379a000000000000000000000000000000000000000000000000000000000815260040161048a90610e2a565b60405180910390fd5b5b5b5b60405180606001604052808481526020018260038111156104ba576104b9610748565b5b8152602001600115158152506000803373ffffffffffffffffffffffffffffffffffffffff1673ffffffffffffffffffffffffffffffffffffffff1681526020019081526020016000206000820151816000015560208201518160010160006101000a81548160ff0219169083600381111561053957610538610748565b5b021790555060408201518160010160016101000a81548160ff021916908315150217905550905050505050565b600560009054906101000a900473ffffffffffffffffffffffffffffffffffffffff1681565b60006020528060005260406000206000915090508060000154908060010160009054906101000a900460ff16908060010160019054906101000a900460ff16905083565b600181600481106105e057600080fd5b0160009150905080546105f290610e79565b80601f016020809104026020016040519081016040528092919081815260200182805461061e90610e79565b801561066b5780601f106106405761010080835404028352916020019161066b565b820191906000526020600020905b81548152906001019060200180831161064e57829003601f168201915b505050505081565b6000604051905090565b600080fd5b600080fd5b600073ffffffffffffffffffffffffffffffffffffffff82169050919050565b60006106b282610687565b9050919050565b6106c2816106a7565b81146106cd57600080fd5b50565b6000813590506106df816106b9565b92915050565b6000602082840312156106fb576106fa61067d565b5b6000610709848285016106d0565b91505092915050565b60008115159050919050565b61072781610712565b82525050565b6000602082019050610742600083018461071e565b92915050565b7f4e487b7100000000000000000000000000000000000000000000000000000000600052602160045260246000fd5b6004811061078857610787610748565b5b50565b600081905061079982610777565b919050565b60006107a98261078b565b9050919050565b6107b98161079e565b82525050565b60006020820190506107d460008301846107b0565b92915050565b6000819050919050565b6107ed816107da565b81146107f857600080fd5b50565b60008135905061080a816107e4565b92915050565b600080fd5b600080fd5b6000601f19601f8301169050919050565b7f4e487b7100000000000000000000000000000000000000000000000000000000600052604160045260246000fd5b6108638261081a565b810181811067ffffffffffffffff821117156108825761088161082b565b5b80604052505050565b6000610895610673565b90506108a1828261085a565b919050565b600067ffffffffffffffff8211156108c1576108c061082b565b5b6108ca8261081a565b9050602081019050919050565b82818337600083830152505050565b60006108f96108f4846108a6565b61088b565b90508281526020810184848401111561091557610914610815565b5b6109208482856108d7565b509392505050565b600082601f83011261093d5761093c610810565b5b813561094d8482602086016108e6565b91505092915050565b6000806040838503121561096d5761096c61067d565b5b600061097b858286016107fb565b925050602083013567ffffffffffffffff81111561099c5761099b610682565b5b6109a885828601610928565b9150509250929050565b6109bb816106a7565b82525050565b60006020820190506109d660008301846109b2565b92915050565b6109e5816107da565b82525050565b6000606082019050610a0060008301866109dc565b610a0d60208301856107b0565b610a1a604083018461071e565b949350505050565b6000819050919050565b610a3581610a22565b8114610a4057600080fd5b50565b600081359050610a5281610a2c565b92915050565b600060208284031215610a6e57610a6d61067d565b5b6000610a7c84828501610a43565b91505092915050565b600081519050919050565b600082825260208201905092915050565b60005b83811015610abf578082015181840152602081019050610aa4565b83811115610ace576000848401525b50505050565b6000610adf82610a85565b610ae98185610a90565b9350610af9818560208601610aa1565b610b028161081a565b840191505092915050565b60006020820190508181036000830152610b278184610ad4565b905092915050565b7f55736572206e6f74207265676973746572656400000000000000000000000000600082015250565b6000610b65601383610a90565b9150610b7082610b2f565b602082019050919050565b60006020820190508181036000830152610b9481610b58565b9050919050565b7f5573657220616c72656164792072656769737465726564210000000000000000600082015250565b6000610bd1601883610a90565b9150610bdc82610b9b565b602082019050919050565b60006020820190508181036000830152610c0081610bc4565b9050919050565b600081905092915050565b7f50617469656e7400000000000000000000000000000000000000000000000000600082015250565b6000610c48600783610c07565b9150610c5382610c12565b600782019050919050565b6000610c6982610c3b565b9150819050919050565b6000610c7e82610a85565b610c888185610c07565b9350610c98818560208601610aa1565b80840191505092915050565b6000610cb08284610c73565b915081905092915050565b7f4361726550726f76696465720000000000000000000000000000000000000000600082015250565b6000610cf1600c83610c07565b9150610cfc82610cbb565b600c82019050919050565b6000610d1282610ce4565b9150819050919050565b7f5265736561726368657200000000000000000000000000000000000000000000600082015250565b6000610d52600a83610c07565b9150610d5d82610d1c565b600a82019050919050565b6000610d7382610d45565b9150819050919050565b7f526567756c61746f720000000000000000000000000000000000000000000000600082015250565b6000610db3600983610c07565b9150610dbe82610d7d565b600982019050919050565b6000610dd482610da6565b9150819050919050565b7f496e76616c696420726f6c652100000000000000000000000000000000000000600082015250565b6000610e14600d83610a90565b9150610e1f82610dde565b602082019050919050565b60006020820190508181036000830152610e4381610e07565b9050919050565b7f4e487b7100000000000000000000000000000000000000000000000000000000600052602260045260246000fd5b60006002820490506001821680610e9157607f821691505b60208210811415610ea557610ea4610e4a565b5b5091905056fea2646970667358221220c615089e137e9ec8df160aeb2e6fc7e3d110b6436ff6bcd8b266ff42b51fdcb064736f6c634300080a0033",
      "opcodes": "PUSH1 0x80 PUSH1 0x40 MSTORE PUSH1 0x40 MLOAD DUP1 PUSH1 0x80 ADD PUSH1 0x40 MSTORE DUP1 PUSH1 0x40 MLOAD DUP1 PUSH1 0x40 ADD PUSH1 0x40 MSTORE DUP1 PUSH1 0x7 DUP2 MSTORE PUSH1 0x20 ADD PUSH32 0x50617469656E7400000000000000000000000000000000000000000000000000 DUP2 MSTORE POP DUP2 MSTORE PUSH1 0x20 ADD PUSH1 0x40 MLOAD DUP1 PUSH1 0x40 ADD PUSH1 0x40 MSTORE DUP1 PUSH1 0xC DUP2 MSTORE PUSH1 0x20 ADD PUSH32 0x4361726550726F76696465720000000000000000000000000000000000000000 DUP2 MSTORE POP DUP2 MSTORE PUSH1 0x20 ADD PUSH1 0x40 MLOAD DUP1 PUSH1 0x40 ADD PUSH1 0x40 MSTORE DUP1 PUSH1 0xA DUP2 MSTORE PUSH1 0x20 ADD PUSH32 0x5265736561726368657200000000000000000000000000000000000000000000 DUP2 MSTORE POP DUP2 MSTORE PUSH1 0x20 ADD PUSH1 0x40 MLOAD DUP1 PUSH1 0x40 ADD PUSH1 0x40 MSTORE DUP1 PUSH1 0x9 DUP2 MSTORE PUSH1 0x20 ADD PUSH32 0x526567756C61746F720000000000000000000000000000000000000000000000 DUP2 MSTORE POP DUP2 MSTORE POP PUSH1 0x1 SWAP1 PUSH1 0x4 PUSH3 0x10B SWAP3 SWAP2 SWAP1 PUSH3 0x161 JUMP JUMPDEST POP CALLVALUE DUP1 ISZERO PUSH3 0x119 JUMPI PUSH1 0x0 DUP1 REVERT JUMPDEST POP CALLER PUSH1 0x5 PUSH1 0x0 PUSH2 0x100 EXP DUP2 SLOAD DUP2 PUSH20 0xFFFFFFFFFFFFFFFFFFFFFFFFFFFFFFFFFFFFFFFF MUL NOT AND SWAP1 DUP4 PUSH20 0xFFFFFFFFFFFFFFFFFFFFFFFFFFFFFFFFFFFFFFFF AND MUL OR SWAP1 SSTORE POP PUSH3 0x33E JUMP JUMPDEST DUP3 PUSH1 0x4 DUP2 ADD SWAP3 DUP3 ISZERO PUSH3 0x1A8 JUMPI SWAP2 PUSH1 0x20 MUL DUP3 ADD JUMPDEST DUP3 DUP2 GT ISZERO PUSH3 0x1A7 JUMPI DUP3 MLOAD DUP3 SWAP1 DUP1 MLOAD SWAP1 PUSH1 0x20 ADD SWAP1 PUSH3 0x196 SWAP3 SWAP2 SWAP1 PUSH3 0x1BB JUMP JUMPDEST POP SWAP2 PUSH1 0x20 ADD SWAP2 SWAP1 PUSH1 0x1 ADD SWAP1 PUSH3 0x175 JUMP JUMPDEST JUMPDEST POP SWAP1 POP PUSH3 0x1B7 SWAP2 SWAP1 PUSH3 0x24C JUMP JUMPDEST POP SWAP1 JUMP JUMPDEST DUP3 DUP1 SLOAD PUSH3 0x1C9 SWAP1 PUSH3 0x308 JUMP JUMPDEST SWAP1 PUSH1 0x0 MSTORE PUSH1 0x20 PUSH1 0x0 KECCAK256 SWAP1 PUSH1 0x1F ADD PUSH1 0x20 SWAP1 DIV DUP2 ADD SWAP3 DUP3 PUSH3 0x1ED JUMPI PUSH1 0x0 DUP6 SSTORE PUSH3 0x239 JUMP JUMPDEST DUP3 PUSH1 0x1F LT PUSH3 0x208 JUMPI DUP1 MLOAD PUSH1 0xFF NOT AND DUP4 DUP1 ADD OR DUP6 SSTORE PUSH3 0x239 JUMP JUMPDEST DUP3 DUP1 ADD PUSH1 0x1 ADD DUP6 SSTORE DUP3 ISZERO PUSH3 0x239 JUMPI SWAP2 DUP3 ADD JUMPDEST DUP3 DUP2 GT ISZERO PUSH3 0x238 JUMPI DUP3 MLOAD DUP3 SSTORE SWAP2 PUSH1 0x20 ADD SWAP2 SWAP1 PUSH1 0x1 ADD SWAP1 PUSH3 0x21B JUMP JUMPDEST JUMPDEST POP SWAP1 POP PUSH3 0x248 SWAP2 SWAP1 PUSH3 0x274 JUMP JUMPDEST POP SWAP1 JUMP JUMPDEST JUMPDEST DUP1 DUP3 GT ISZERO PUSH3 0x270 JUMPI PUSH1 0x0 DUP2 DUP2 PUSH3 0x266 SWAP2 SWAP1 PUSH3 0x293 JUMP JUMPDEST POP PUSH1 0x1 ADD PUSH3 0x24D JUMP JUMPDEST POP SWAP1 JUMP JUMPDEST JUMPDEST DUP1 DUP3 GT ISZERO PUSH3 0x28F JUMPI PUSH1 0x0 DUP2 PUSH1 0x0 SWAP1 SSTORE POP PUSH1 0x1 ADD PUSH3 0x275 JUMP JUMPDEST POP SWAP1 JUMP JUMPDEST POP DUP1 SLOAD PUSH3 0x2A1 SWAP1 PUSH3 0x308 JUMP JUMPDEST PUSH1 0x0 DUP3 SSTORE DUP1 PUSH1 0x1F LT PUSH3 0x2B5 JUMPI POP PUSH3 0x2D6 JUMP JUMPDEST PUSH1 0x1F ADD PUSH1 0x20 SWAP1 DIV SWAP1 PUSH1 0x0 MSTORE PUSH1 0x20 PUSH1 0x0 KECCAK256 SWAP1 DUP2 ADD SWAP1 PUSH3 0x2D5 SWAP2 SWAP1 PUSH3 0x274 JUMP JUMPDEST JUMPDEST POP JUMP JUMPDEST PUSH32 0x4E487B7100000000000000000000000000000000000000000000000000000000 PUSH1 0x0 MSTORE PUSH1 0x22 PUSH1 0x4 MSTORE PUSH1 0x24 PUSH1 0x0 REVERT JUMPDEST PUSH1 0x0 PUSH1 0x2 DUP3 DIV SWAP1 POP PUSH1 0x1 DUP3 AND DUP1 PUSH3 0x321 JUMPI PUSH1 0x7F DUP3 AND SWAP2 POP JUMPDEST PUSH1 0x20 DUP3 LT DUP2 EQ ISZERO PUSH3 0x338 JUMPI PUSH3 0x337 PUSH3 0x2D9 JUMP JUMPDEST JUMPDEST POP SWAP2 SWAP1 POP JUMP JUMPDEST PUSH2 0xEE1 DUP1 PUSH3 0x34E PUSH1 0x0 CODECOPY PUSH1 0x0 RETURN INVALID PUSH1 0x80 PUSH1 0x40 MSTORE CALLVALUE DUP1 ISZERO PUSH2 0x10 JUMPI PUSH1 0x0 DUP1 REVERT JUMPDEST POP PUSH1 0x4 CALLDATASIZE LT PUSH2 0x62 JUMPI PUSH1 0x0 CALLDATALOAD PUSH1 0xE0 SHR DUP1 PUSH4 0x1E9D48CF EQ PUSH2 0x67 JUMPI DUP1 PUSH4 0x27820851 EQ PUSH2 0x97 JUMPI DUP1 PUSH4 0x4A54315C EQ PUSH2 0xC7 JUMPI DUP1 PUSH4 0x8DA5CB5B EQ PUSH2 0xE3 JUMPI DUP1 PUSH4 0xA87430BA EQ PUSH2 0x101 JUMPI DUP1 PUSH4 0xBFDA4A49 EQ PUSH2 0x133 JUMPI JUMPDEST PUSH1 0x0 DUP1 REVERT JUMPDEST PUSH2 0x81 PUSH1 0x4 DUP1 CALLDATASIZE SUB DUP2 ADD SWAP1 PUSH2 0x7C SWAP2 SWAP1 PUSH2 0x6E5 JUMP JUMPDEST PUSH2 0x163 JUMP JUMPDEST PUSH1 0x40 MLOAD PUSH2 0x8E SWAP2 SWAP1 PUSH2 0x72D JUMP JUMPDEST PUSH1 0x40 MLOAD DUP1 SWAP2 SUB SWAP1 RETURN JUMPDEST PUSH2 0xB1 PUSH1 0x4 DUP1 CALLDATASIZE SUB DUP2 ADD SWAP1 PUSH2 0xAC SWAP2 SWAP1 PUSH2 0x6E5 JUMP JUMPDEST PUSH2 0x1BB JUMP JUMPDEST PUSH1 0x40 MLOAD PUSH2 0xBE SWAP2 SWAP1 PUSH2 0x7BF JUMP JUMPDEST PUSH1 0x40 MLOAD DUP1 SWAP2 SUB SWAP1 RETURN JUMPDEST PUSH2 0xE1 PUSH1 0x4 DUP1 CALLDATASIZE SUB DUP2 ADD SWAP1 PUSH2 0xDC SWAP2 SWAP1 PUSH2 0x956 JUMP JUMPDEST PUSH2 0x2A1 JUMP JUMPDEST STOP JUMPDEST PUSH2 0xEB PUSH2 0x566 JUMP JUMPDEST PUSH1 0x40 MLOAD PUSH2 0xF8 SWAP2 SWAP1 PUSH2 0x9C1 JUMP JUMPDEST PUSH1 0x40 MLOAD DUP1 SWAP2 SUB SWAP1 RETURN JUMPDEST PUSH2 0x11B PUSH1 0x4 DUP1 CALLDATASIZE SUB DUP2 ADD SWAP1 PUSH2 0x116 SWAP2 SWAP1 PUSH2 0x6E5 JUMP JUMPDEST PUSH2 0x58C JUMP JUMPDEST PUSH1 0x40 MLOAD PUSH2 0x12A SWAP4 SWAP3 SWAP2 SWAP1 PUSH2 0x9EB JUMP JUMPDEST PUSH1 0x40 MLOAD DUP1 SWAP2 SUB SWAP1 RETURN JUMPDEST PUSH2 0x14D PUSH1 0x4 DUP1 CALLDATASIZE SUB DUP2 ADD SWAP1 PUSH2 0x148 SWAP2 SWAP1 PUSH2 0xA58 JUMP JUMPDEST PUSH2 0x5D0 JUMP JUMPDEST PUSH1 0x40 MLOAD PUSH2 0x15A SWAP2 SWAP1 PUSH2 0xB0D JUMP JUMPDEST PUSH1 0x40 MLOAD DUP1 SWAP2 SUB SWAP1 RETURN JUMPDEST PUSH1 0x0 DUP1 PUSH1 0x0 DUP4 PUSH20 0xFFFFFFFFFFFFFFFFFFFFFFFFFFFFFFFFFFFFFFFF AND PUSH20 0xFFFFFFFFFFFFFFFFFFFFFFFFFFFFFFFFFFFFFFFF AND DUP2 MSTORE PUSH1 0x20 ADD SWAP1 DUP2 MSTORE PUSH1 0x20 ADD PUSH1 0x0 KECCAK256 PUSH1 0x1 ADD PUSH1 0x1 SWAP1 SLOAD SWAP1 PUSH2 0x100 EXP SWAP1 DIV PUSH1 0xFF AND SWAP1 POP SWAP2 SWAP1 POP JUMP JUMPDEST PUSH1 0x0 DUP1 PUSH1 0x0 DUP4 PUSH20 0xFFFFFFFFFFFFFFFFFFFFFFFFFFFFFFFFFFFFFFFF AND PUSH20 0xFFFFFFFFFFFFFFFFFFFFFFFFFFFFFFFFFFFFFFFF AND DUP2 MSTORE PUSH1 0x20 ADD SWAP1 DUP2 MSTORE PUSH1 0x20 ADD PUSH1 0x0 KECCAK256 PUSH1 0x1 ADD PUSH1 0x1 SWAP1 SLOAD SWAP1 PUSH2 0x100 EXP SWAP1 DIV PUSH1 0xFF AND PUSH2 0x24B JUMPI PUSH1 0x40 MLOAD PUSH32 0x8C379A000000000000000000000000000000000000000000000000000000000 DUP2 MSTORE PUSH1 0x4 ADD PUSH2 0x242 SWAP1 PUSH2 0xB7B JUMP JUMPDEST PUSH1 0x40 MLOAD DUP1 SWAP2 SUB SWAP1 REVERT JUMPDEST PUSH1 0x0 DUP1 DUP4 PUSH20 0xFFFFFFFFFFFFFFFFFFFFFFFFFFFFFFFFFFFFFFFF AND PUSH20 0xFFFFFFFFFFFFFFFFFFFFFFFFFFFFFFFFFFFFFFFF AND DUP2 MSTORE PUSH1 0x20 ADD SWAP1 DUP2 MSTORE PUSH1 0x20 ADD PUSH1 0x0 KECCAK256 PUSH1 0x1 ADD PUSH1 0x0 SWAP1 SLOAD SWAP1 PUSH2 0x100 EXP SWAP1 DIV PUSH1 0xFF AND SWAP1 POP SWAP2 SWAP1 POP JUMP JUMPDEST PUSH2 0x2AA CALLER PUSH2 0x163 JUMP JUMPDEST ISZERO PUSH2 0x2EA JUMPI PUSH1 0x40 MLOAD PUSH32 0x8C379A000000000000000000000000000000000000000000000000000000000 DUP2 MSTORE PUSH1 0x4 ADD PUSH2 0x2E1 SWAP1 PUSH2 0xBE7 JUMP JUMPDEST PUSH1 0x40 MLOAD DUP1 SWAP2 SUB SWAP1 REVERT JUMPDEST PUSH1 0x0 PUSH1 0x40 MLOAD PUSH1 0x20 ADD PUSH2 0x2FB SWAP1 PUSH2 0xC5E JUMP JUMPDEST PUSH1 0x40 MLOAD PUSH1 0x20 DUP2 DUP4 SUB SUB DUP2 MSTORE SWAP1 PUSH1 0x40 MSTORE DUP1 MLOAD SWAP1 PUSH1 0x20 ADD KECCAK256 DUP3 PUSH1 0x40 MLOAD PUSH1 0x20 ADD PUSH2 0x322 SWAP2 SWAP1 PUSH2 0xCA4 JUMP JUMPDEST PUSH1 0x40 MLOAD PUSH1 0x20 DUP2 DUP4 SUB SUB DUP2 MSTORE SWAP1 PUSH1 0x40 MSTORE DUP1 MLOAD SWAP1 PUSH1 0x20 ADD KECCAK256 EQ ISZERO PUSH2 0x347 JUMPI PUSH1 0x0 SWAP1 POP PUSH2 0x496 JUMP JUMPDEST PUSH1 0x40 MLOAD PUSH1 0x20 ADD PUSH2 0x356 SWAP1 PUSH2 0xD07 JUMP JUMPDEST PUSH1 0x40 MLOAD PUSH1 0x20 DUP2 DUP4 SUB SUB DUP2 MSTORE SWAP1 PUSH1 0x40 MSTORE DUP1 MLOAD SWAP1 PUSH1 0x20 ADD KECCAK256 DUP3 PUSH1 0x40 MLOAD PUSH1 0x20 ADD PUSH2 0x37D SWAP2 SWAP1 PUSH2 0xCA4 JUMP JUMPDEST PUSH1 0x40 MLOAD PUSH1 0x20 DUP2 DUP4 SUB SUB DUP2 MSTORE SWAP1 PUSH1 0x40 MSTORE DUP1 MLOAD SWAP1 PUSH1 0x20 ADD KECCAK256 EQ ISZERO PUSH2 0x3A2 JUMPI PUSH1 0x1 SWAP1 POP PUSH2 0x495 JUMP JUMPDEST PUSH1 0x40 MLOAD PUSH1 0x20 ADD PUSH2 0x3B1 SWAP1 PUSH2 0xD68 JUMP JUMPDEST PUSH1 0x40 MLOAD PUSH1 0x20 DUP2 DUP4 SUB SUB DUP2 MSTORE SWAP1 PUSH1 0x40 MSTORE DUP1 MLOAD SWAP1 PUSH1 0x20 ADD KECCAK256 DUP3 PUSH1 0x40 MLOAD PUSH1 0x20 ADD PUSH2 0x3D8 SWAP2 SWAP1 PUSH2 0xCA4 JUMP JUMPDEST PUSH1 0x40 MLOAD PUSH1 0x20 DUP2 DUP4 SUB SUB DUP2 MSTORE SWAP1 PUSH1 0x40 MSTORE DUP1 MLOAD SWAP1 PUSH1 0x20 ADD KECCAK256 EQ ISZERO PUSH2 0x3FD JUMPI PUSH1 0x2 SWAP1 POP PUSH2 0x494 JUMP JUMPDEST PUSH1 0x40 MLOAD PUSH1 0x20 ADD PUSH2 0x40C SWAP1 PUSH2 0xDC9 JUMP JUMPDEST PUSH1 0x40 MLOAD PUSH1 0x20 DUP2 DUP4 SUB SUB DUP2 MSTORE SWAP1 PUSH1 0x40 MSTORE DUP1 MLOAD SWAP1 PUSH1 0x20 ADD KECCAK256 DUP3 PUSH1 0x40 MLOAD PUSH1 0x20 ADD PUSH2 0x433 SWAP2 SWAP1 PUSH2 0xCA4 JUMP JUMPDEST PUSH1 0x40 MLOAD PUSH1 0x20 DUP2 DUP4 SUB SUB DUP2 MSTORE SWAP1 PUSH1 0x40 MSTORE DUP1 MLOAD SWAP1 PUSH1 0x20 ADD KECCAK256 EQ ISZERO PUSH2 0x458 JUMPI PUSH1 0x3 SWAP1 POP PUSH2 0x493 JUMP JUMPDEST PUSH1 0x40 MLOAD PUSH32 0x8C379A000000000000000000000000000000000000000000000000000000000 DUP2 MSTORE PUSH1 0x4 ADD PUSH2 0x48A SWAP1 PUSH2 0xE2A JUMP JUMPDEST PUSH1 0x40 MLOAD DUP1 SWAP2 SUB SWAP1 REVERT JUMPDEST JUMPDEST JUMPDEST JUMPDEST PUSH1 0x40 MLOAD DUP1 PUSH1 0x60 ADD PUSH1 0x40 MSTORE DUP1 DUP5 DUP2 MSTORE PUSH1 0x20 ADD DUP3 PUSH1 0x3 DUP2 GT ISZERO PUSH2 0x4BA JUMPI PUSH2 0x4B9 PUSH2 0x748 JUMP JUMPDEST JUMPDEST DUP2 MSTORE PUSH1 0x20 ADD PUSH1 0x1 ISZERO ISZERO DUP2 MSTORE POP PUSH1 0x0 DUP1 CALLER PUSH20 0xFFFFFFFFFFFFFFFFFFFFFFFFFFFFFFFFFFFFFFFF AND PUSH20 0xFFFFFFFFFFFFFFFFFFFFFFFFFFFFFFFFFFFFFFFF AND DUP2 MSTORE PUSH1 0x20 ADD SWAP1 DUP2 MSTORE PUSH1 0x20 ADD PUSH1 0x0 KECCAK256 PUSH1 0x0 DUP3 ADD MLOAD DUP2 PUSH1 0x0 ADD SSTORE PUSH1 0x20 DUP3 ADD MLOAD DUP2 PUSH1 0x1 ADD PUSH1 0x0 PUSH2 0x100 EXP DUP2 SLOAD DUP2 PUSH1 0xFF MUL NOT AND SWAP1 DUP4 PUSH1 0x3 DUP2 GT ISZERO PUSH2 0x539 JUMPI PUSH2 0x538 PUSH2 0x748 JUMP JUMPDEST JUMPDEST MUL OR SWAP1 SSTORE POP PUSH1 0x40 DUP3 ADD MLOAD DUP2 PUSH1 0x1 ADD PUSH1 0x1 PUSH2 0x100 EXP DUP2 SLOAD DUP2 PUSH1 0xFF MUL NOT AND SWAP1 DUP4 ISZERO ISZERO MUL OR SWAP1 SSTORE POP SWAP1 POP POP POP POP POP JUMP JUMPDEST PUSH1 0x5 PUSH1 0x0 SWAP1 SLOAD SWAP1 PUSH2 0x100 EXP SWAP1 DIV PUSH20 0xFFFFFFFFFFFFFFFFFFFFFFFFFFFFFFFFFFFFFFFF AND DUP2 JUMP JUMPDEST PUSH1 0x0 PUSH1 0x20 MSTORE DUP1 PUSH1 0x0 MSTORE PUSH1 0x40 PUSH1 0x0 KECCAK256 PUSH1 0x0 SWAP2 POP SWAP1 POP DUP1 PUSH1 0x0 ADD SLOAD SWAP1 DUP1 PUSH1 0x1 ADD PUSH1 0x0 SWAP1 SLOAD SWAP1 PUSH2 0x100 EXP SWAP1 DIV PUSH1 0xFF AND SWAP1 DUP1 PUSH1 0x1 ADD PUSH1 0x1 SWAP1 SLOAD SWAP1 PUSH2 0x100 EXP SWAP1 DIV PUSH1 0xFF AND SWAP1 POP DUP4 JUMP JUMPDEST PUSH1 0x1 DUP2 PUSH1 0x4 DUP2 LT PUSH2 0x5E0 JUMPI PUSH1 0x0 DUP1 REVERT JUMPDEST ADD PUSH1 0x0 SWAP2 POP SWAP1 POP DUP1 SLOAD PUSH2 0x5F2 SWAP1 PUSH2 0xE79 JUMP JUMPDEST DUP1 PUSH1 0x1F ADD PUSH1 0x20 DUP1 SWAP2 DIV MUL PUSH1 0x20 ADD PUSH1 0x40 MLOAD SWAP1 DUP2 ADD PUSH1 0x40 MSTORE DUP1 SWAP3 SWAP2 SWAP1 DUP2 DUP2 MSTORE PUSH1 0x20 ADD DUP3 DUP1 SLOAD PUSH2 0x61E SWAP1 PUSH2 0xE79 JUMP JUMPDEST DUP1 ISZERO PUSH2 0x66B JUMPI DUP1 PUSH1 0x1F LT PUSH2 0x640 JUMPI PUSH2 0x100 DUP1 DUP4 SLOAD DIV MUL DUP4 MSTORE SWAP2 PUSH1 0x20 ADD SWAP2 PUSH2 0x66B JUMP JUMPDEST DUP3 ADD SWAP2 SWAP1 PUSH1 0x0 MSTORE PUSH1 0x20 PUSH1 0x0 KECCAK256 SWAP1 JUMPDEST DUP2 SLOAD DUP2 MSTORE SWAP1 PUSH1 0x1 ADD SWAP1 PUSH1 0x20 ADD DUP1 DUP4 GT PUSH2 0x64E JUMPI DUP3 SWAP1 SUB PUSH1 0x1F AND DUP3 ADD SWAP2 JUMPDEST POP POP POP POP POP DUP2 JUMP JUMPDEST PUSH1 0x0 PUSH1 0x40 MLOAD SWAP1 POP SWAP1 JUMP JUMPDEST PUSH1 0x0 DUP1 REVERT JUMPDEST PUSH1 0x0 DUP1 REVERT JUMPDEST PUSH1 0x0 PUSH20 0xFFFFFFFFFFFFFFFFFFFFFFFFFFFFFFFFFFFFFFFF DUP3 AND SWAP1 POP SWAP2 SWAP1 POP JUMP JUMPDEST PUSH1 0x0 PUSH2 0x6B2 DUP3 PUSH2 0x687 JUMP JUMPDEST SWAP1 POP SWAP2 SWAP1 POP JUMP JUMPDEST PUSH2 0x6C2 DUP2 PUSH2 0x6A7 JUMP JUMPDEST DUP2 EQ PUSH2 0x6CD JUMPI PUSH1 0x0 DUP1 REVERT JUMPDEST POP JUMP JUMPDEST PUSH1 0x0 DUP2 CALLDATALOAD SWAP1 POP PUSH2 0x6DF DUP2 PUSH2 0x6B9 JUMP JUMPDEST SWAP3 SWAP2 POP POP JUMP JUMPDEST PUSH1 0x0 PUSH1 0x20 DUP3 DUP5 SUB SLT ISZERO PUSH2 0x6FB JUMPI PUSH2 0x6FA PUSH2 0x67D JUMP JUMPDEST JUMPDEST PUSH1 0x0 PUSH2 0x709 DUP5 DUP3 DUP6 ADD PUSH2 0x6D0 JUMP JUMPDEST SWAP2 POP POP SWAP3 SWAP2 POP POP JUMP JUMPDEST PUSH1 0x0 DUP2 ISZERO ISZERO SWAP1 POP SWAP2 SWAP1 POP JUMP JUMPDEST PUSH2 0x727 DUP2 PUSH2 0x712 JUMP JUMPDEST DUP3 MSTORE POP POP JUMP JUMPDEST PUSH1 0x0 PUSH1 0x20 DUP3 ADD SWAP1 POP PUSH2 0x742 PUSH1 0x0 DUP4 ADD DUP5 PUSH2 0x71E JUMP JUMPDEST SWAP3 SWAP2 POP POP JUMP JUMPDEST PUSH32 0x4E487B7100000000000000000000000000000000000000000000000000000000 PUSH1 0x0 MSTORE PUSH1 0x21 PUSH1 0x4 MSTORE PUSH1 0x24 PUSH1 0x0 REVERT JUMPDEST PUSH1 0x4 DUP2 LT PUSH2 0x788 JUMPI PUSH2 0x787 PUSH2 0x748 JUMP JUMPDEST JUMPDEST POP JUMP JUMPDEST PUSH1 0x0 DUP2 SWAP1 POP PUSH2 0x799 DUP3 PUSH2 0x777 JUMP JUMPDEST SWAP2 SWAP1 POP JUMP JUMPDEST PUSH1 0x0 PUSH2 0x7A9 DUP3 PUSH2 0x78B JUMP JUMPDEST SWAP1 POP SWAP2 SWAP1 POP JUMP JUMPDEST PUSH2 0x7B9 DUP2 PUSH2 0x79E JUMP JUMPDEST DUP3 MSTORE POP POP JUMP JUMPDEST PUSH1 0x0 PUSH1 0x20 DUP3 ADD SWAP1 POP PUSH2 0x7D4 PUSH1 0x0 DUP4 ADD DUP5 PUSH2 0x7B0 JUMP JUMPDEST SWAP3 SWAP2 POP POP JUMP JUMPDEST PUSH1 0x0 DUP2 SWAP1 POP SWAP2 SWAP1 POP JUMP JUMPDEST PUSH2 0x7ED DUP2 PUSH2 0x7DA JUMP JUMPDEST DUP2 EQ PUSH2 0x7F8 JUMPI PUSH1 0x0 DUP1 REVERT JUMPDEST POP JUMP JUMPDEST PUSH1 0x0 DUP2 CALLDATALOAD SWAP1 POP PUSH2 0x80A DUP2 PUSH2 0x7E4 JUMP JUMPDEST SWAP3 SWAP2 POP POP JUMP JUMPDEST PUSH1 0x0 DUP1 REVERT JUMPDEST PUSH1 0x0 DUP1 REVERT JUMPDEST PUSH1 0x0 PUSH1 0x1F NOT PUSH1 0x1F DUP4 ADD AND SWAP1 POP SWAP2 SWAP1 POP JUMP JUMPDEST PUSH32 0x4E487B7100000000000000000000000000000000000000000000000000000000 PUSH1 0x0 MSTORE PUSH1 0x41 PUSH1 0x4 MSTORE PUSH1 0x24 PUSH1 0x0 REVERT JUMPDEST PUSH2 0x863 DUP3 PUSH2 0x81A JUMP JUMPDEST DUP2 ADD DUP2 DUP2 LT PUSH8 0xFFFFFFFFFFFFFFFF DUP3 GT OR ISZERO PUSH2 0x882 JUMPI PUSH2 0x881 PUSH2 0x82B JUMP JUMPDEST JUMPDEST DUP1 PUSH1 0x40 MSTORE POP POP POP JUMP JUMPDEST PUSH1 0x0 PUSH2 0x895 PUSH2 0x673 JUMP JUMPDEST SWAP1 POP PUSH2 0x8A1 DUP3 DUP3 PUSH2 0x85A JUMP JUMPDEST SWAP2 SWAP1 POP JUMP JUMPDEST PUSH1 0x0 PUSH8 0xFFFFFFFFFFFFFFFF DUP3 GT ISZERO PUSH2 0x8C1 JUMPI PUSH2 0x8C0 PUSH2 0x82B JUMP JUMPDEST JUMPDEST PUSH2 0x8CA DUP3 PUSH2 0x81A JUMP JUMPDEST SWAP1 POP PUSH1 0x20 DUP2 ADD SWAP1 POP SWAP2 SWAP1 POP JUMP JUMPDEST DUP3 DUP2 DUP4 CALLDATACOPY PUSH1 0x0 DUP4 DUP4 ADD MSTORE POP POP POP JUMP JUMPDEST PUSH1 0x0 PUSH2 0x8F9 PUSH2 0x8F4 DUP5 PUSH2 0x8A6 JUMP JUMPDEST PUSH2 0x88B JUMP JUMPDEST SWAP1 POP DUP3 DUP2 MSTORE PUSH1 0x20 DUP2 ADD DUP5 DUP5 DUP5 ADD GT ISZERO PUSH2 0x915 JUMPI PUSH2 0x914 PUSH2 0x815 JUMP JUMPDEST JUMPDEST PUSH2 0x920 DUP5 DUP3 DUP6 PUSH2 0x8D7 JUMP JUMPDEST POP SWAP4 SWAP3 POP POP POP JUMP JUMPDEST PUSH1 0x0 DUP3 PUSH1 0x1F DUP4 ADD SLT PUSH2 0x93D JUMPI PUSH2 0x93C PUSH2 0x810 JUMP JUMPDEST JUMPDEST DUP2 CALLDATALOAD PUSH2 0x94D DUP5 DUP3 PUSH1 0x20 DUP7 ADD PUSH2 0x8E6 JUMP JUMPDEST SWAP2 POP POP SWAP3 SWAP2 POP POP JUMP JUMPDEST PUSH1 0x0 DUP1 PUSH1 0x40 DUP4 DUP6 SUB SLT ISZERO PUSH2 0x96D JUMPI PUSH2 0x96C PUSH2 0x67D JUMP JUMPDEST JUMPDEST PUSH1 0x0 PUSH2 0x97B DUP6 DUP3 DUP7 ADD PUSH2 0x7FB JUMP JUMPDEST SWAP3 POP POP PUSH1 0x20 DUP4 ADD CALLDATALOAD PUSH8 0xFFFFFFFFFFFFFFFF DUP2 GT ISZERO PUSH2 0x99C JUMPI PUSH2 0x99B PUSH2 0x682 JUMP JUMPDEST JUMPDEST PUSH2 0x9A8 DUP6 DUP3 DUP7 ADD PUSH2 0x928 JUMP JUMPDEST SWAP2 POP POP SWAP3 POP SWAP3 SWAP1 POP JUMP JUMPDEST PUSH2 0x9BB DUP2 PUSH2 0x6A7 JUMP JUMPDEST DUP3 MSTORE POP POP JUMP JUMPDEST PUSH1 0x0 PUSH1 0x20 DUP3 ADD SWAP1 POP PUSH2 0x9D6 PUSH1 0x0 DUP4 ADD DUP5 PUSH2 0x9B2 JUMP JUMPDEST SWAP3 SWAP2 POP POP JUMP JUMPDEST PUSH2 0x9E5 DUP2 PUSH2 0x7DA JUMP JUMPDEST DUP3 MSTORE POP POP JUMP JUMPDEST PUSH1 0x0 PUSH1 0x60 DUP3 ADD SWAP1 POP PUSH2 0xA00 PUSH1 0x0 DUP4 ADD DUP7 PUSH2 0x9DC JUMP JUMPDEST PUSH2 0xA0D PUSH1 0x20 DUP4 ADD DUP6 PUSH2 0x7B0 JUMP JUMPDEST PUSH2 0xA1A PUSH1 0x40 DUP4 ADD DUP5 PUSH2 0x71E JUMP JUMPDEST SWAP5 SWAP4 POP POP POP POP JUMP JUMPDEST PUSH1 0x0 DUP2 SWAP1 POP SWAP2 SWAP1 POP JUMP JUMPDEST PUSH2 0xA35 DUP2 PUSH2 0xA22 JUMP JUMPDEST DUP2 EQ PUSH2 0xA40 JUMPI PUSH1 0x0 DUP1 REVERT JUMPDEST POP JUMP JUMPDEST PUSH1 0x0 DUP2 CALLDATALOAD SWAP1 POP PUSH2 0xA52 DUP2 PUSH2 0xA2C JUMP JUMPDEST SWAP3 SWAP2 POP POP JUMP JUMPDEST PUSH1 0x0 PUSH1 0x20 DUP3 DUP5 SUB SLT ISZERO PUSH2 0xA6E JUMPI PUSH2 0xA6D PUSH2 0x67D JUMP JUMPDEST JUMPDEST PUSH1 0x0 PUSH2 0xA7C DUP5 DUP3 DUP6 ADD PUSH2 0xA43 JUMP JUMPDEST SWAP2 POP POP SWAP3 SWAP2 POP POP JUMP JUMPDEST PUSH1 0x0 DUP2 MLOAD SWAP1 POP SWAP2 SWAP1 POP JUMP JUMPDEST PUSH1 0x0 DUP3 DUP3 MSTORE PUSH1 0x20 DUP3 ADD SWAP1 POP SWAP3 SWAP2 POP POP JUMP JUMPDEST PUSH1 0x0 JUMPDEST DUP4 DUP2 LT ISZERO PUSH2 0xABF JUMPI DUP1 DUP3 ADD MLOAD DUP2 DUP5 ADD MSTORE PUSH1 0x20 DUP2 ADD SWAP1 POP PUSH2 0xAA4 JUMP JUMPDEST DUP4 DUP2 GT ISZERO PUSH2 0xACE JUMPI PUSH1 0x0 DUP5 DUP5 ADD MSTORE JUMPDEST POP POP POP POP JUMP JUMPDEST PUSH1 0x0 PUSH2 0xADF DUP3 PUSH2 0xA85 JUMP JUMPDEST PUSH2 0xAE9 DUP2 DUP6 PUSH2 0xA90 JUMP JUMPDEST SWAP4 POP PUSH2 0xAF9 DUP2 DUP6 PUSH1 0x20 DUP7 ADD PUSH2 0xAA1 JUMP JUMPDEST PUSH2 0xB02 DUP2 PUSH2 0x81A JUMP JUMPDEST DUP5 ADD SWAP2 POP POP SWAP3 SWAP2 POP POP JUMP JUMPDEST PUSH1 0x0 PUSH1 0x20 DUP3 ADD SWAP1 POP DUP2 DUP2 SUB PUSH1 0x0 DUP4 ADD MSTORE PUSH2 0xB27 DUP2 DUP5 PUSH2 0xAD4 JUMP JUMPDEST SWAP1 POP SWAP3 SWAP2 POP POP JUMP JUMPDEST PUSH32 0x55736572206E6F74207265676973746572656400000000000000000000000000 PUSH1 0x0 DUP3 ADD MSTORE POP JUMP JUMPDEST PUSH1 0x0 PUSH2 0xB65 PUSH1 0x13 DUP4 PUSH2 0xA90 JUMP JUMPDEST SWAP2 POP PUSH2 0xB70 DUP3 PUSH2 0xB2F JUMP JUMPDEST PUSH1 0x20 DUP3 ADD SWAP1 POP SWAP2 SWAP1 POP JUMP JUMPDEST PUSH1 0x0 PUSH1 0x20 DUP3 ADD SWAP1 POP DUP2 DUP2 SUB PUSH1 0x0 DUP4 ADD MSTORE PUSH2 0xB94 DUP2 PUSH2 0xB58 JUMP JUMPDEST SWAP1 POP SWAP2 SWAP1 POP JUMP JUMPDEST PUSH32 0x5573657220616C72656164792072656769737465726564210000000000000000 PUSH1 0x0 DUP3 ADD MSTORE POP JUMP JUMPDEST PUSH1 0x0 PUSH2 0xBD1 PUSH1 0x18 DUP4 PUSH2 0xA90 JUMP JUMPDEST SWAP2 POP PUSH2 0xBDC DUP3 PUSH2 0xB9B JUMP JUMPDEST PUSH1 0x20 DUP3 ADD SWAP1 POP SWAP2 SWAP1 POP JUMP JUMPDEST PUSH1 0x0 PUSH1 0x20 DUP3 ADD SWAP1 POP DUP2 DUP2 SUB PUSH1 0x0 DUP4 ADD MSTORE PUSH2 0xC00 DUP2 PUSH2 0xBC4 JUMP JUMPDEST SWAP1 POP SWAP2 SWAP1 POP JUMP JUMPDEST PUSH1 0x0 DUP2 SWAP1 POP SWAP3 SWAP2 POP POP JUMP JUMPDEST PUSH32 0x50617469656E7400000000000000000000000000000000000000000000000000 PUSH1 0x0 DUP3 ADD MSTORE POP JUMP JUMPDEST PUSH1 0x0 PUSH2 0xC48 PUSH1 0x7 DUP4 PUSH2 0xC07 JUMP JUMPDEST SWAP2 POP PUSH2 0xC53 DUP3 PUSH2 0xC12 JUMP JUMPDEST PUSH1 0x7 DUP3 ADD SWAP1 POP SWAP2 SWAP1 POP JUMP JUMPDEST PUSH1 0x0 PUSH2 0xC69 DUP3 PUSH2 0xC3B JUMP JUMPDEST SWAP2 POP DUP2 SWAP1 POP SWAP2 SWAP1 POP JUMP JUMPDEST PUSH1 0x0 PUSH2 0xC7E DUP3 PUSH2 0xA85 JUMP JUMPDEST PUSH2 0xC88 DUP2 DUP6 PUSH2 0xC07 JUMP JUMPDEST SWAP4 POP PUSH2 0xC98 DUP2 DUP6 PUSH1 0x20 DUP7 ADD PUSH2 0xAA1 JUMP JUMPDEST DUP1 DUP5 ADD SWAP2 POP POP SWAP3 SWAP2 POP POP JUMP JUMPDEST PUSH1 0x0 PUSH2 0xCB0 DUP3 DUP5 PUSH2 0xC73 JUMP JUMPDEST SWAP2 POP DUP2 SWAP1 POP SWAP3 SWAP2 POP POP JUMP JUMPDEST PUSH32 0x4361726550726F76696465720000000000000000000000000000000000000000 PUSH1 0x0 DUP3 ADD MSTORE POP JUMP JUMPDEST PUSH1 0x0 PUSH2 0xCF1 PUSH1 0xC DUP4 PUSH2 0xC07 JUMP JUMPDEST SWAP2 POP PUSH2 0xCFC DUP3 PUSH2 0xCBB JUMP JUMPDEST PUSH1 0xC DUP3 ADD SWAP1 POP SWAP2 SWAP1 POP JUMP JUMPDEST PUSH1 0x0 PUSH2 0xD12 DUP3 PUSH2 0xCE4 JUMP JUMPDEST SWAP2 POP DUP2 SWAP1 POP SWAP2 SWAP1 POP JUMP JUMPDEST PUSH32 0x5265736561726368657200000000000000000000000000000000000000000000 PUSH1 0x0 DUP3 ADD MSTORE POP JUMP JUMPDEST PUSH1 0x0 PUSH2 0xD52 PUSH1 0xA DUP4 PUSH2 0xC07 JUMP JUMPDEST SWAP2 POP PUSH2 0xD5D DUP3 PUSH2 0xD1C JUMP JUMPDEST PUSH1 0xA DUP3 ADD SWAP1 POP SWAP2 SWAP1 POP JUMP JUMPDEST PUSH1 0x0 PUSH2 0xD73 DUP3 PUSH2 0xD45 JUMP JUMPDEST SWAP2 POP DUP2 SWAP1 POP SWAP2 SWAP1 POP JUMP JUMPDEST PUSH32 0x526567756C61746F720000000000000000000000000000000000000000000000 PUSH1 0x0 DUP3 ADD MSTORE POP JUMP JUMPDEST PUSH1 0x0 PUSH2 0xDB3 PUSH1 0x9 DUP4 PUSH2 0xC07 JUMP JUMPDEST SWAP2 POP PUSH2 0xDBE DUP3 PUSH2 0xD7D JUMP JUMPDEST PUSH1 0x9 DUP3 ADD SWAP1 POP SWAP2 SWAP1 POP JUMP JUMPDEST PUSH1 0x0 PUSH2 0xDD4 DUP3 PUSH2 0xDA6 JUMP JUMPDEST SWAP2 POP DUP2 SWAP1 POP SWAP2 SWAP1 POP JUMP JUMPDEST PUSH32 0x496E76616C696420726F6C652100000000000000000000000000000000000000 PUSH1 0x0 DUP3 ADD MSTORE POP JUMP JUMPDEST PUSH1 0x0 PUSH2 0xE14 PUSH1 0xD DUP4 PUSH2 0xA90 JUMP JUMPDEST SWAP2 POP PUSH2 0xE1F DUP3 PUSH2 0xDDE JUMP JUMPDEST PUSH1 0x20 DUP3 ADD SWAP1 POP SWAP2 SWAP1 POP JUMP JUMPDEST PUSH1 0x0 PUSH1 0x20 DUP3 ADD SWAP1 POP DUP2 DUP2 SUB PUSH1 0x0 DUP4 ADD MSTORE PUSH2 0xE43 DUP2 PUSH2 0xE07 JUMP JUMPDEST SWAP1 POP SWAP2 SWAP1 POP JUMP JUMPDEST PUSH32 0x4E487B7100000000000000000000000000000000000000000000000000000000 PUSH1 0x0 MSTORE PUSH1 0x22 PUSH1 0x4 MSTORE PUSH1 0x24 PUSH1 0x0 REVERT JUMPDEST PUSH1 0x0 PUSH1 0x2 DUP3 DIV SWAP1 POP PUSH1 0x1 DUP3 AND DUP1 PUSH2 0xE91 JUMPI PUSH1 0x7F DUP3 AND SWAP2 POP JUMPDEST PUSH1 0x20 DUP3 LT DUP2 EQ ISZERO PUSH2 0xEA5 JUMPI PUSH2 0xEA4 PUSH2 0xE4A JUMP JUMPDEST JUMPDEST POP SWAP2 SWAP1 POP JUMP INVALID LOG2 PUSH5 0x6970667358 0x22 SLT KECCAK256 0xC6 ISZERO ADDMOD SWAP15 SGT PUSH31 0x9EC8DF160AEB2E6FC7E3D110B6436FF6BCD8B266FF42B51FDCB064736F6C63 NUMBER STOP ADDMOD EXP STOP CALLER "
    },
    "gasEstimates": {
      "creation": {
        "codeDepositCost": "761800",
        "executionCost": "infinite",
        "totalCost": "infinite"
      },
      "external": {
        "checkUser(address)": "2917",
        "getUserRole(address)": "5277",
        "owner()": "2558",
        "registerUser(bytes32,string)": "infinite",
        "roles(uint256)": "infinite",
        "users(address)": "7541"
      }
    },
    "methodIdentifiers": {
      "checkUser(address)": "1e9d48cf",
      "getUserRole(address)": "27820851",
      "owner()": "8da5cb5b",
      "registerUser(bytes32,string)": "4a54315c",
      "roles(uint256)": "bfda4a49",
      "users(address)": "a87430ba"
    }
  },
  "storageLayout": {
    "storage": [
      {
        "astId": 321,
        "contract": "registry.sol:Registry",
        "label": "users",
        "offset": 0,
        "slot": "0",
        "type": "t_mapping(t_address,t_struct(User)316_storage)"
      },
      {
        "astId": 330,
        "contract": "registry.sol:Registry",
        "label": "roles",
        "offset": 0,
        "slot": "1",
        "type": "t_array(t_string_storage)4_storage"
      },
      {
        "astId": 332,
        "contract": "registry.sol:Registry",
        "label": "owner",
        "offset": 0,
        "slot": "5",
        "type": "t_address"
      }
    ],
    "types": {
      "t_address": {
        "encoding": "inplace",
        "label": "address",
        "numberOfBytes": "20"
      },
      "t_array(t_string_storage)4_storage": {
        "base": "t_string_storage",
        "encoding": "inplace",
        "label": "string[4]",
        "numberOfBytes": "128"
      },
      "t_bool": {
        "encoding": "inplace",
        "label": "bool",
        "numberOfBytes": "1"
      },
      "t_bytes32": {
        "encoding": "inplace",
        "label": "bytes32",
        "numberOfBytes": "32"
      },
      "t_enum(Role)308": {
        "encoding": "inplace",
        "label": "enum Registry.Role",
        "numberOfBytes": "1"
      },
      "t_mapping(t_address,t_struct(User)316_storage)": {
        "encoding": "mapping",
        "key": "t_address",
        "label": "mapping(address => struct Registry.User)",
        "numberOfBytes": "32",
        "value": "t_struct(User)316_storage"
      },
      "t_string_storage": {
        "encoding": "bytes",
        "label": "string",
        "numberOfBytes": "32"
      },
      "t_struct(User)316_storage": {
        "encoding": "inplace",
        "label": "struct Registry.User",
        "members": [
          {
            "astId": 310,
            "contract": "registry.sol:Registry",
            "label": "key",
            "offset": 0,
            "slot": "0",
            "type": "t_bytes32"
          },
          {
            "astId": 313,
            "contract": "registry.sol:Registry",
            "label": "role",
            "offset": 0,
            "slot": "1",
            "type": "t_enum(Role)308"
          },
          {
            "astId": 315,
            "contract": "registry.sol:Registry",
            "label": "isRegistered",
            "offset": 1,
            "slot": "1",
            "type": "t_bool"
          }
        ],
        "numberOfBytes": "64"
      }
    }
  },
  "userdoc": {
    "kind": "user",
    "methods": {},
    "version": 1
  }
}